{
  "_format": "hh-sol-artifact-1",
  "contractName": "PermissionManager",
  "sourceName": "contracts/PermissionMgr.sol",
  "abi": [
    {
      "inputs": [
        {
          "internalType": "uint256",
          "name": "_roundBlocks",
          "type": "uint256"
        },
        {
          "internalType": "uint256",
          "name": "_roundTimeout",
          "type": "uint256"
        },
        {
          "internalType": "uint256",
          "name": "_minDeposit",
          "type": "uint256"
        }
      ],
      "stateMutability": "nonpayable",
      "type": "constructor"
    },
    {
      "anonymous": false,
      "inputs": [
        {
          "indexed": true,
          "internalType": "address",
          "name": "node",
          "type": "address"
        },
        {
          "indexed": true,
          "internalType": "uint256",
          "name": "roundIndex",
          "type": "uint256"
        }
      ],
      "name": "NodeJoinProposed",
      "type": "event"
    },
    {
      "anonymous": false,
      "inputs": [
        {
          "indexed": true,
          "internalType": "address",
          "name": "node",
          "type": "address"
        },
        {
          "indexed": true,
          "internalType": "uint256",
          "name": "roundIndex",
          "type": "uint256"
        }
      ],
      "name": "NodeJoined",
      "type": "event"
    },
    {
      "anonymous": false,
      "inputs": [
        {
          "indexed": true,
          "internalType": "address",
          "name": "node",
          "type": "address"
        },
        {
          "indexed": true,
          "internalType": "uint256",
          "name": "roundIndex",
          "type": "uint256"
        }
      ],
      "name": "NodeLeaveProposed",
      "type": "event"
    },
    {
      "anonymous": false,
      "inputs": [
        {
          "indexed": true,
          "internalType": "address",
          "name": "node",
          "type": "address"
        },
        {
          "indexed": true,
          "internalType": "uint256",
          "name": "roundIndex",
          "type": "uint256"
        }
      ],
      "name": "NodeLeft",
      "type": "event"
    },
    {
      "anonymous": false,
      "inputs": [
        {
          "indexed": true,
          "internalType": "uint256",
          "name": "roundIndex",
          "type": "uint256"
        },
        {
          "indexed": false,
          "internalType": "bytes32[]",
          "name": "publicKeys",
          "type": "bytes32[]"
        },
        {
          "indexed": false,
          "internalType": "address[]",
          "name": "participants",
          "type": "address[]"
        }
      ],
      "name": "SystemPublicKeyGenerated",
      "type": "event"
    },
    {
      "anonymous": false,
      "inputs": [
        {
          "indexed": true,
          "internalType": "address",
          "name": "node",
          "type": "address"
        },
        {
          "indexed": false,
          "internalType": "uint256",
          "name": "amount",
          "type": "uint256"
        },
        {
          "indexed": false,
          "internalType": "uint256",
          "name": "gasUsed",
          "type": "uint256"
        }
      ],
      "name": "TransferGasUsed",
      "type": "event"
    },
    {
      "inputs": [],
      "name": "MIN_DEPOSIT",
      "outputs": [
        {
          "internalType": "uint256",
          "name": "",
          "type": "uint256"
        }
      ],
      "stateMutability": "view",
      "type": "function"
    },
    {
      "inputs": [],
      "name": "ROUND_BLOCKS",
      "outputs": [
        {
          "internalType": "uint256",
          "name": "",
          "type": "uint256"
        }
      ],
      "stateMutability": "view",
      "type": "function"
    },
    {
      "inputs": [],
      "name": "ROUND_TIMEOUT",
      "outputs": [
        {
          "internalType": "uint256",
          "name": "",
          "type": "uint256"
        }
      ],
      "stateMutability": "view",
      "type": "function"
    },
    {
      "inputs": [
        {
          "internalType": "uint256",
          "name": "",
          "type": "uint256"
        },
        {
          "internalType": "address",
          "name": "",
          "type": "address"
        }
      ],
      "name": "approvalCounts",
      "outputs": [
        {
          "internalType": "uint256",
          "name": "",
          "type": "uint256"
        }
      ],
      "stateMutability": "view",
      "type": "function"
    },
    {
      "inputs": [
        {
          "internalType": "address",
          "name": "_node",
          "type": "address"
        }
      ],
      "name": "approveJoinNode",
      "outputs": [],
      "stateMutability": "nonpayable",
      "type": "function"
    },
    {
      "inputs": [
        {
          "internalType": "address",
          "name": "_node",
          "type": "address"
        }
      ],
      "name": "approveLeaveNode",
      "outputs": [],
      "stateMutability": "nonpayable",
      "type": "function"
    },
    {
      "inputs": [],
      "name": "currentRoundIndex",
      "outputs": [
        {
          "internalType": "uint256",
          "name": "",
          "type": "uint256"
        }
      ],
      "stateMutability": "view",
      "type": "function"
    },
    {
      "inputs": [
        {
          "internalType": "uint256",
          "name": "_round",
          "type": "uint256"
        }
      ],
      "name": "getActiveNodeNum",
      "outputs": [
        {
          "internalType": "uint256",
          "name": "",
          "type": "uint256"
        }
      ],
      "stateMutability": "view",
      "type": "function"
    },
    {
      "inputs": [],
      "name": "getLeavingNodeNum",
      "outputs": [
        {
          "internalType": "uint256",
          "name": "",
          "type": "uint256"
        }
      ],
      "stateMutability": "view",
      "type": "function"
    },
    {
      "inputs": [],
      "name": "getPendingNodeNum",
      "outputs": [
        {
          "internalType": "uint256",
          "name": "",
          "type": "uint256"
        }
      ],
      "stateMutability": "view",
      "type": "function"
    },
    {
      "inputs": [
        {
          "internalType": "uint256",
          "name": "_round",
          "type": "uint256"
        },
        {
          "internalType": "address",
          "name": "_node",
          "type": "address"
        }
      ],
      "name": "getRoundPublicKey",
      "outputs": [
        {
          "internalType": "bytes32",
          "name": "",
          "type": "bytes32"
        }
      ],
      "stateMutability": "view",
      "type": "function"
    },
    {
      "inputs": [
        {
          "internalType": "uint256",
          "name": "_round",
          "type": "uint256"
        }
      ],
      "name": "getSystemPublicKey",
      "outputs": [
        {
          "internalType": "bytes32[]",
          "name": "",
          "type": "bytes32[]"
        },
        {
          "internalType": "address[]",
          "name": "",
          "type": "address[]"
        }
      ],
      "stateMutability": "view",
      "type": "function"
    },
    {
      "inputs": [
        {
          "internalType": "address",
          "name": "",
          "type": "address"
        },
        {
          "internalType": "address",
          "name": "",
          "type": "address"
        }
      ],
      "name": "joinApprovals",
      "outputs": [
        {
          "internalType": "bool",
          "name": "",
          "type": "bool"
        }
      ],
      "stateMutability": "view",
      "type": "function"
    },
    {
      "inputs": [
        {
          "internalType": "address",
          "name": "",
          "type": "address"
        },
        {
          "internalType": "address",
          "name": "",
          "type": "address"
        }
      ],
      "name": "leaveApprovals",
      "outputs": [
        {
          "internalType": "bool",
          "name": "",
          "type": "bool"
        }
      ],
      "stateMutability": "view",
      "type": "function"
    },
    {
      "inputs": [
        {
          "internalType": "address",
          "name": "",
          "type": "address"
        }
      ],
      "name": "leaveApprovalsCount",
      "outputs": [
        {
          "internalType": "uint256",
          "name": "",
          "type": "uint256"
        }
      ],
      "stateMutability": "view",
      "type": "function"
    },
    {
      "inputs": [
        {
          "internalType": "uint256",
          "name": "",
          "type": "uint256"
        }
      ],
      "name": "leavingNodes",
      "outputs": [
        {
          "internalType": "address",
          "name": "",
          "type": "address"
        }
      ],
      "stateMutability": "view",
      "type": "function"
    },
    {
      "inputs": [
        {
          "internalType": "address",
          "name": "",
          "type": "address"
        }
      ],
      "name": "nodes",
      "outputs": [
        {
          "internalType": "bool",
          "name": "isPermissioned",
          "type": "bool"
        },
        {
          "internalType": "uint256",
          "name": "deposit",
          "type": "uint256"
        },
        {
          "internalType": "bool",
          "name": "active",
          "type": "bool"
        },
        {
          "internalType": "bytes32",
          "name": "publicKey",
          "type": "bytes32"
        }
      ],
      "stateMutability": "view",
      "type": "function"
    },
    {
      "inputs": [],
      "name": "owner",
      "outputs": [
        {
          "internalType": "address",
          "name": "",
          "type": "address"
        }
      ],
      "stateMutability": "view",
      "type": "function"
    },
    {
      "inputs": [
        {
          "internalType": "uint256",
          "name": "",
          "type": "uint256"
        }
      ],
      "name": "pendingNodes",
      "outputs": [
        {
          "internalType": "address",
          "name": "",
          "type": "address"
        }
      ],
      "stateMutability": "view",
      "type": "function"
    },
    {
      "inputs": [],
      "name": "proposeJoinNode",
      "outputs": [],
      "stateMutability": "payable",
      "type": "function"
    },
    {
      "inputs": [],
      "name": "proposeLeaveNode",
      "outputs": [],
      "stateMutability": "nonpayable",
      "type": "function"
    },
    {
      "inputs": [
        {
          "internalType": "uint256",
          "name": "",
          "type": "uint256"
        }
      ],
      "name": "rounds",
      "outputs": [
        {
          "internalType": "uint256",
          "name": "startBlock",
          "type": "uint256"
        },
        {
          "internalType": "uint256",
          "name": "timeout",
          "type": "uint256"
        },
        {
          "internalType": "uint256",
          "name": "publicKeyCount",
          "type": "uint256"
        },
        {
          "internalType": "bool",
          "name": "isGenerated",
          "type": "bool"
        }
      ],
      "stateMutability": "view",
      "type": "function"
    },
    {
      "inputs": [
        {
          "internalType": "uint256",
          "name": "_minDeposit",
          "type": "uint256"
        }
      ],
      "name": "setMinDeposit",
      "outputs": [],
      "stateMutability": "nonpayable",
      "type": "function"
    },
    {
      "inputs": [
        {
          "internalType": "uint256",
          "name": "_roundBlocks",
          "type": "uint256"
        }
      ],
      "name": "setRoundBlocks",
      "outputs": [],
      "stateMutability": "nonpayable",
      "type": "function"
    },
    {
      "inputs": [
        {
          "internalType": "uint256",
          "name": "_roundTimeout",
          "type": "uint256"
        }
      ],
      "name": "setRoundTimeout",
      "outputs": [],
      "stateMutability": "nonpayable",
      "type": "function"
    },
    {
      "inputs": [
        {
          "internalType": "bytes32",
          "name": "_pubKey",
          "type": "bytes32"
        },
        {
          "internalType": "bytes",
          "name": "_signature",
          "type": "bytes"
        },
        {
          "internalType": "uint256",
          "name": "_round",
          "type": "uint256"
        }
      ],
      "name": "submitPubKey",
      "outputs": [],
      "stateMutability": "nonpayable",
      "type": "function"
    },
    {
      "inputs": [
        {
          "internalType": "bytes",
          "name": "_signature",
          "type": "bytes"
        },
        {
          "internalType": "address",
          "name": "_node",
          "type": "address"
        }
      ],
      "name": "verifySignature",
      "outputs": [
        {
          "internalType": "bool",
          "name": "",
          "type": "bool"
        },
        {
          "internalType": "enum ECDSA.RecoverError",
          "name": "",
          "type": "uint8"
        },
        {
          "internalType": "bytes32",
          "name": "",
          "type": "bytes32"
        }
      ],
      "stateMutability": "pure",
      "type": "function"
    }
  ],
  "bytecode": "0x6080604052600060045534801561001557600080fd5b5060405161252e38038061252e83398101604081905261003491610323565b600380546001600160a01b0319163317905560008390556001829055600281905561005d610065565b5050506103a9565b60015443906000906100779042610367565b600680546001818101835560008390529082027ff652222313e28459528d920b65115c16c04f3efc82aaedc97be59f3f377c0d3f81018681557ff652222313e28459528d920b65115c16c04f3efc82aaedc97be59f3f377c0d40909101849055915492935090916100e89190610380565b6004819055156100fa576100fa6101ed565b60005b6007548110156101e75760006007828154811061011c5761011c610393565b60009182526020822001546001600160a01b031691505b60066004548154811061014857610148610393565b9060005260206000209060060201600301805490508110156101dd57600060066004548154811061017b5761017b610393565b9060005260206000209060060201600301828154811061019d5761019d610393565b60009182526020808320909101546001600160a01b0386811684526009835260408085209190921684529091529020805460ff1916905550600101610133565b50506001016100fd565b50505050565b60005b6007548110156102da5760006007828154811061020f5761020f610393565b60009182526020822001546001600160a01b031691505b60066004548154811061023b5761023b610393565b9060005260206000209060060201600301805490508110156102d057600060066004548154811061026e5761026e610393565b9060005260206000209060060201600301828154811061029057610290610393565b60009182526020808320909101546001600160a01b0386811684526009835260408085209190921684529091529020805460ff1916905550600101610226565b50506001016101f0565b506102e7600760006102e9565b565b5080546000825590600052602060002090810190610307919061030a565b50565b5b8082111561031f576000815560010161030b565b5090565b60008060006060848603121561033857600080fd5b5050815160208301516040909301519094929350919050565b634e487b7160e01b600052601160045260246000fd5b8082018082111561037a5761037a610351565b92915050565b8181038181111561037a5761037a610351565b634e487b7160e01b600052603260045260246000fd5b612176806103b86000396000f3fe60806040526004361061019c5760003560e01c806393628425116100ec578063e1e158a51161008a578063ec8f2c3f11610064578063ec8f2c3f14610553578063ed7ab46514610573578063f1ec444f14610593578063f7830b4c146105c157600080fd5b8063e1e158a5146104ee578063e54bec5f14610504578063ea3301a31461052457600080fd5b8063c2314f6b116100c6578063c2314f6b1461045e578063c4caebad14610473578063caee5e8614610493578063d6dc40e9146104ce57600080fd5b806393628425146103c6578063a29b1f49146103fe578063a98d7ae81461044957600080fd5b80636896ef4b1161015957806375a2b6ca1161013357806375a2b6ca1461032e5780638c65c81f146103445780638da5cb5b146103865780638fcc9cfb146103a657600080fd5b80636896ef4b146102d6578063731cb2ce146102ec578063737fc2521461030157600080fd5b80630465603d146101a1578063189a5a17146101c35780631f23b03e1461023a57806332be0b741461025e5780634106946f1461027e57806341a7960f1461029e575b600080fd5b3480156101ad57600080fd5b506101c16101bc366004611da0565b6105c9565b005b3480156101cf57600080fd5b5061020d6101de366004611da0565b600560205260009081526040902080546001820154600283015460039093015460ff9283169391929091169084565b60408051941515855260208501939093529015159183019190915260608201526080015b60405180910390f35b34801561024657600080fd5b5061025060005481565b604051908152602001610231565b34801561026a57600080fd5b506101c1610279366004611dc2565b610782565b34801561028a57600080fd5b506101c1610299366004611da0565b6107b1565b3480156102aa57600080fd5b506102be6102b9366004611dc2565b610955565b6040516001600160a01b039091168152602001610231565b3480156102e257600080fd5b5061025060045481565b3480156102f857600080fd5b50600854610250565b34801561030d57600080fd5b5061025061031c366004611da0565b600c6020526000908152604090205481565b34801561033a57600080fd5b5061025060015481565b34801561035057600080fd5b5061036461035f366004611dc2565b61097f565b6040805194855260208501939093529183015215156060820152608001610231565b34801561039257600080fd5b506003546102be906001600160a01b031681565b3480156103b257600080fd5b506101c16103c1366004611dc2565b6109bc565b3480156103d257600080fd5b506102506103e1366004611ddb565b600b60209081526000928352604080842090915290825290205481565b34801561040a57600080fd5b50610439610419366004611e07565b600960209081526000928352604080842090915290825290205460ff1681565b6040519015158152602001610231565b34801561045557600080fd5b50600754610250565b34801561046a57600080fd5b506101c16109eb565b34801561047f57600080fd5b5061025061048e366004611ddb565b610b30565b34801561049f57600080fd5b506104396104ae366004611e07565b600a60209081526000928352604080842090915290825290205460ff1681565b3480156104da57600080fd5b506101c16104e9366004611ed6565b610b77565b3480156104fa57600080fd5b5061025060025481565b34801561051057600080fd5b506102be61051f366004611dc2565b610d96565b34801561053057600080fd5b5061054461053f366004611f27565b610da6565b60405161023193929190611f82565b34801561055f57600080fd5b5061025061056e366004611dc2565b610e88565b34801561057f57600080fd5b506101c161058e366004611dc2565b610eb7565b34801561059f57600080fd5b506105b36105ae366004611dc2565b610ee6565b604051610231929190611fba565b6101c16111e2565b3360008181526005602052604090205460ff166106015760405162461bcd60e51b81526004016105f890612045565b60405180910390fd5b61060a82611390565b6106565760405162461bcd60e51b815260206004820152601a60248201527f4e6f6465206e6f742070726f706f73656420666f72206a6f696e00000000000060448201526064016105f8565b6001600160a01b038216600090815260096020908152604080832033845290915290205460ff16156106bd5760405162461bcd60e51b815260206004820152601060248201526f105b1c9958591e48185c1c1c9bdd995960821b60448201526064016105f8565b6001600160a01b03821660008181526009602090815260408083203384528252808320805460ff191660011790556004548352600b825280832093835292905290812080549161070c83612092565b91905055506000600660045481548110610728576107286120ab565b60009182526020808320600360069093020191909101546004548352600b825260408084206001600160a01b0388168552909252912054909150819061076f9060026120c1565b1061077d5761077d836113ef565b505050565b6003546001600160a01b031633146107ac5760405162461bcd60e51b81526004016105f8906120d8565b600055565b3360008181526005602052604090205460ff166107e05760405162461bcd60e51b81526004016105f890612045565b6107e9826114b4565b6108355760405162461bcd60e51b815260206004820152601b60248201527f4e6f6465206e6f742070726f706f73656420666f72206c65617665000000000060448201526064016105f8565b6001600160a01b0382166000908152600a6020908152604080832033845290915290205460ff16156108a95760405162461bcd60e51b815260206004820152601960248201527f416c726561647920617070726f76656420746f206c656176650000000000000060448201526064016105f8565b6001600160a01b0382166000818152600a602090815260408083203384528252808320805460ff19166001179055928252600c90529081208054916108ed83612092565b91905055506000600660045481548110610909576109096120ab565b60009182526020808320600360069093020191909101546001600160a01b0386168352600c90915260409091205490915081906109479060026120c1565b1061077d5761077d8361150a565b6008818154811061096557600080fd5b6000918252602090912001546001600160a01b0316905081565b6006818154811061098f57600080fd5b60009182526020909120600690910201805460018201546002830154600590930154919350919060ff1684565b6003546001600160a01b031633146109e65760405162461bcd60e51b81526004016105f8906120d8565b600255565b3360008181526005602052604090205460ff16610a1a5760405162461bcd60e51b81526004016105f890612045565b3360009081526005602052604090206002015460ff16610a6e5760405162461bcd60e51b815260206004820152600f60248201526e4e6f6465206e6f742061637469766560881b60448201526064016105f8565b33600081815260056020526040808220600201805460ff19169055600880546001810182559083527ff3f7a9fe364faab93b216da50a3214154f22a0a2b415b23a84c8169e8b636ee30180546001600160a01b0319168417905560045490519092917ff3b3804c8980704269949cfccce1da14f0033d4a01846643aaec07b77e01e43791a3600660045481548110610b0857610b086120ab565b906000526020600020906006020160030180549050600103610b2d57610b2d3361150a565b50565b600060068381548110610b4557610b456120ab565b600091825260208083206001600160a01b03861684526004600690930201919091019052604090205490505b92915050565b3360008181526005602052604090205460ff16610ba65760405162461bcd60e51b81526004016105f890612045565b6004548214610be85760405162461bcd60e51b815260206004820152600e60248201526d0a4deeadcc840dad2e6dac2e8c6d60931b60448201526064016105f8565b6000600660045481548110610bff57610bff6120ab565b600091825260208083203384526004600690930201918201905260409091205490915015610c6f5760405162461bcd60e51b815260206004820152601c60248201527f416c7265616479207375626d6974746564207075626c6963206b65790000000060448201526064016105f8565b8060010154421115610cb55760405162461bcd60e51b815260206004820152600f60248201526e149bdd5b99081d1a5b5959081bdd5d608a1b60448201526064016105f8565b6000806000610cc48733610da6565b925092509250828015610ce857506000826003811115610ce657610ce6611f6c565b145b8015610cf2575080155b610d325760405162461bcd60e51b8152602060048201526011602482015270496e76616c6964207369676e617475726560781b60448201526064016105f8565b336000908152600485016020526040812089905560028501805491610d5683612092565b90915550506003840154600280860154610d6f916120c1565b101580610d7f5750836001015442115b15610d8c57610d8c6116c3565b5050505050505050565b6007818154811061096557600080fd5b604080516001600160a01b0383166020820152600091829182918291016040516020818303038152906040528051906020012090506000610e14827f19457468657265756d205369676e6564204d6573736167653a0a3332000000006000908152601c91909152603c902090565b90506000806000610e25848b6117e7565b9194509250905060016000836003811115610e4257610e42611f6c565b141580610e4e57508115155b15610e665750600097509095509350610e8192505050565b506001600160a01b0389811693169290921496509450925050505b9250925092565b600060068281548110610e9d57610e9d6120ab565b600091825260209091206003600690920201015492915050565b6003546001600160a01b03163314610ee15760405162461bcd60e51b81526004016105f8906120d8565b600155565b33600081815260056020526040902054606091829160ff16610f1a5760405162461bcd60e51b81526004016105f890612045565b600060068581548110610f2f57610f2f6120ab565b90600052602060002090600602016002015467ffffffffffffffff811115610f5957610f59611e31565b604051908082528060200260200182016040528015610f82578160200160208202803683370190505b509050600060068681548110610f9a57610f9a6120ab565b90600052602060002090600602016002015467ffffffffffffffff811115610fc457610fc4611e31565b604051908082528060200260200182016040528015610fed578160200160208202803683370190505b50905060005b60068781548110611006576110066120ab565b9060005260206000209060060201600201548110156111d6576000801b60068881548110611036576110366120ab565b9060005260206000209060060201600401600060068a8154811061105c5761105c6120ab565b9060005260206000209060060201600301848154811061107e5761107e6120ab565b60009182526020808320909101546001600160a01b03168352820192909252604001902054146111ce57600687815481106110bb576110bb6120ab565b90600052602060002090600602016004016000600689815481106110e1576110e16120ab565b90600052602060002090600602016003018381548110611103576111036120ab565b60009182526020808320909101546001600160a01b03168352820192909252604001902054835184908390811061113c5761113c6120ab565b6020026020010181815250506006878154811061115b5761115b6120ab565b9060005260206000209060060201600301818154811061117d5761117d6120ab565b9060005260206000200160009054906101000a90046001600160a01b03168282815181106111ad576111ad6120ab565b60200260200101906001600160a01b031690816001600160a01b0316815250505b600101610ff3565b50909350915050915091565b3360009081526005602052604090205460ff16156112425760405162461bcd60e51b815260206004820152601b60248201527f416c72656164792061207065726d697373696f6e6564206e6f6465000000000060448201526064016105f8565b6002543410156112875760405162461bcd60e51b815260206004820152601060248201526f11195c1bdcda5d081c995c5d5a5c995960821b60448201526064016105f8565b604080516080810182526000808252346020808401918252838501838152606085018481523380865260059093528685209551865490151560ff19918216178755935160018781019190915591516002870180549115159190951617909355915160039094019390935560078054918201815582527fa66cc928b5edb82af9bd49922954155ab7b0942694bea4ce44661d9a8736c6880180546001600160a01b0319168317905560045492517f79745a2327d4dd9c784b5e552959afec3504487ea86d1cf4b346f6ba148fd8c29190a360066004548154811061136c5761136c6120ab565b60009182526020822060036006909202010154900361138e5761138e336113ef565b565b6000805b6007548110156113e657826001600160a01b0316600782815481106113bb576113bb6120ab565b6000918252602090912001546001600160a01b0316036113de5750600192915050565b600101611394565b50600092915050565b6113f881611831565b6001600160a01b03811660009081526005602052604090208054600160ff1991821681178355600290920180549091169091179055600454600680549091908110611445576114456120ab565b6000918252602080832060069290920290910160030180546001810182559083529082200180546001600160a01b0319166001600160a01b03841690811790915560045460405190927f0676388bb83505ba7712ed135b2ba9bdf6f645e41015bc49549cec2c1b3bae1391a350565b6000805b6008548110156113e657826001600160a01b0316600882815481106114df576114df6120ab565b6000918252602090912001546001600160a01b0316036115025750600192915050565b6001016114b8565b61151381611932565b6001600160a01b0381166000908152600c602052604081208190555b600660045481548110611544576115446120ab565b9060005260206000209060060201600301805490508110156115d9576000600660045481548110611577576115776120ab565b90600052602060002090600602016003018281548110611599576115996120ab565b60009182526020808320909101546001600160a01b038681168452600a835260408085209190921684529091529020805460ff191690555060010161152f565b5060005a6001600160a01b0383166000818152600560205260408082206001810154815460ff191690915590519394509283156108fc0291849190818181858888f19350505050158015611631573d6000803e3d6000fd5b5060005a61163f9084612104565b60408051848152602081018390529192506001600160a01b038616917f85f455e11ca97fdc15bbe985a5d96a2046eb3e053ac548cf3167fdc5ae64344f910160405180910390a26004546040516001600160a01b038616907f082540c1182323d73764dc587bb51ac34adf43ccdd4dfe9ed6272f8ed7d5bd5b90600090a350505050565b60006006600454815481106116da576116da6120ab565b6000918252602082206005600690920201908101805460ff19166001179055600281015490925067ffffffffffffffff81111561171957611719611e31565b604051908082528060200260200182016040528015611742578160200160208202803683370190505b5090506000826002015467ffffffffffffffff81111561176457611764611e31565b60405190808252806020026020018201604052801561178d578160200160208202803683370190505b50905061179b600454610ee6565b80925081935050506004547f0cdf506672ea6308d71d35d76e01f6718ddb82e8f8d258d4a3807821003d962583836040516117d7929190611fba565b60405180910390a261077d611a09565b600080600083516041036118215760208401516040850151606086015160001a61181388828585611b91565b955095509550505050610e81565b5050815160009150600290610e81565b60005b60075481101561192e57816001600160a01b03166007828154811061185b5761185b6120ab565b6000918252602090912001546001600160a01b031603611926576007805461188590600190612104565b81548110611895576118956120ab565b600091825260209091200154600780546001600160a01b0390921691839081106118c1576118c16120ab565b9060005260206000200160006101000a8154816001600160a01b0302191690836001600160a01b03160217905550600780548061190057611900612117565b600082815260209020810160001990810180546001600160a01b03191690550190555050565b600101611834565b5050565b60005b60085481101561192e57816001600160a01b03166008828154811061195c5761195c6120ab565b6000918252602090912001546001600160a01b031603611a01576008805461198690600190612104565b81548110611996576119966120ab565b600091825260209091200154600880546001600160a01b0390921691839081106119c2576119c26120ab565b9060005260206000200160006101000a8154816001600160a01b0302191690836001600160a01b03160217905550600880548061190057611900612117565b600101611935565b6001544390600090611a1b904261212d565b600680546001818101835560008390529082027ff652222313e28459528d920b65115c16c04f3efc82aaedc97be59f3f377c0d3f81018681557ff652222313e28459528d920b65115c16c04f3efc82aaedc97be59f3f377c0d4090910184905591549293509091611a8c9190612104565b600481905515611a9e57611a9e611c60565b60005b600754811015611b8b57600060078281548110611ac057611ac06120ab565b60009182526020822001546001600160a01b031691505b600660045481548110611aec57611aec6120ab565b906000526020600020906006020160030180549050811015611b81576000600660045481548110611b1f57611b1f6120ab565b90600052602060002090600602016003018281548110611b4157611b416120ab565b60009182526020808320909101546001600160a01b0386811684526009835260408085209190921684529091529020805460ff1916905550600101611ad7565b5050600101611aa1565b50505050565b600080807f7fffffffffffffffffffffffffffffff5d576e7357a4501ddfe92f46681b20a0841115611bcc5750600091506003905082611c56565b604080516000808252602082018084528a905260ff891692820192909252606081018790526080810186905260019060a0016020604051602081039080840390855afa158015611c20573d6000803e3d6000fd5b5050604051601f1901519150506001600160a01b038116611c4c57506000925060019150829050611c56565b9250600091508190505b9450945094915050565b60005b600754811015611d4d57600060078281548110611c8257611c826120ab565b60009182526020822001546001600160a01b031691505b600660045481548110611cae57611cae6120ab565b906000526020600020906006020160030180549050811015611d43576000600660045481548110611ce157611ce16120ab565b90600052602060002090600602016003018281548110611d0357611d036120ab565b60009182526020808320909101546001600160a01b0386811684526009835260408085209190921684529091529020805460ff1916905550600101611c99565b5050600101611c63565b5061138e600780546000825590600052602060002090810190610b2d91905b80821115611d805760008155600101611d6c565b5090565b80356001600160a01b0381168114611d9b57600080fd5b919050565b600060208284031215611db257600080fd5b611dbb82611d84565b9392505050565b600060208284031215611dd457600080fd5b5035919050565b60008060408385031215611dee57600080fd5b82359150611dfe60208401611d84565b90509250929050565b60008060408385031215611e1a57600080fd5b611e2383611d84565b9150611dfe60208401611d84565b634e487b7160e01b600052604160045260246000fd5b600082601f830112611e5857600080fd5b813567ffffffffffffffff811115611e7257611e72611e31565b604051601f8201601f19908116603f0116810167ffffffffffffffff81118282101715611ea157611ea1611e31565b604052818152838201602001851015611eb957600080fd5b816020850160208301376000918101602001919091529392505050565b600080600060608486031215611eeb57600080fd5b83359250602084013567ffffffffffffffff811115611f0957600080fd5b611f1586828701611e47565b93969395505050506040919091013590565b60008060408385031215611f3a57600080fd5b823567ffffffffffffffff811115611f5157600080fd5b611f5d85828601611e47565b925050611dfe60208401611d84565b634e487b7160e01b600052602160045260246000fd5b83151581526060810160048410611fa957634e487b7160e01b600052602160045260246000fd5b602082019390935260400152919050565b6040808252835190820181905260009060208501906060840190835b81811015611ff4578351835260209384019390920191600101611fd6565b50508381036020808601919091528551808352918101925085019060005b818110156120395782516001600160a01b0316845260209384019390920191600101612012565b50919695505050505050565b60208082526017908201527f4e6f742061207065726d697373696f6e6564206e6f6465000000000000000000604082015260600190565b634e487b7160e01b600052601160045260246000fd5b6000600182016120a4576120a461207c565b5060010190565b634e487b7160e01b600052603260045260246000fd5b8082028115828204841417610b7157610b7161207c565b6020808252601290820152712737ba1031b7b73a3930b1ba1037bbb732b960711b604082015260600190565b81810381811115610b7157610b7161207c565b634e487b7160e01b600052603160045260246000fd5b80820180821115610b7157610b7161207c56fea2646970667358221220a875cda7d176e1c0e83c8dbb777e2dd7998365a79ddc920ba0e938c4f06f41c964736f6c634300081b0033",
  "linkReferences": {},
  "deployedLinkReferences": {}
}