{
  "_format": "hh-sol-artifact-1",
  "contractName": "PermissionManager",
  "sourceName": "contracts/PermissionMgr.sol",
  "abi": [
    {
      "inputs": [
        {
          "internalType": "uint256",
          "name": "_roundBlocks",
          "type": "uint256"
        },
        {
          "internalType": "uint256",
          "name": "_roundTimeout",
          "type": "uint256"
        },
        {
          "internalType": "uint256",
          "name": "_minDeposit",
          "type": "uint256"
        }
      ],
      "stateMutability": "nonpayable",
      "type": "constructor"
    },
    {
      "anonymous": false,
      "inputs": [
        {
          "indexed": true,
          "internalType": "address",
          "name": "delegator",
          "type": "address"
        },
        {
          "indexed": true,
          "internalType": "address",
          "name": "validator",
          "type": "address"
        },
        {
          "indexed": false,
          "internalType": "uint256",
          "name": "amount",
          "type": "uint256"
        }
      ],
      "name": "Delegated",
      "type": "event"
    },
    {
      "anonymous": false,
      "inputs": [
        {
          "indexed": true,
          "internalType": "address",
          "name": "node",
          "type": "address"
        },
        {
          "indexed": true,
          "internalType": "uint256",
          "name": "roundIndex",
          "type": "uint256"
        }
      ],
      "name": "NodeElectionProposed",
      "type": "event"
    },
    {
      "anonymous": false,
      "inputs": [
        {
          "indexed": true,
          "internalType": "address",
          "name": "node",
          "type": "address"
        },
        {
          "indexed": true,
          "internalType": "uint256",
          "name": "roundIndex",
          "type": "uint256"
        }
      ],
      "name": "NodeLeaveProposed",
      "type": "event"
    },
    {
      "anonymous": false,
      "inputs": [
        {
          "indexed": true,
          "internalType": "address",
          "name": "delegator",
          "type": "address"
        },
        {
          "indexed": true,
          "internalType": "address",
          "name": "valildator",
          "type": "address"
        },
        {
          "indexed": false,
          "internalType": "uint256",
          "name": "amounToRevoke",
          "type": "uint256"
        }
      ],
      "name": "RevokeDelegated",
      "type": "event"
    },
    {
      "anonymous": false,
      "inputs": [
        {
          "indexed": true,
          "internalType": "address",
          "name": "staker",
          "type": "address"
        },
        {
          "indexed": false,
          "internalType": "uint256",
          "name": "amount",
          "type": "uint256"
        }
      ],
      "name": "Staked",
      "type": "event"
    },
    {
      "anonymous": false,
      "inputs": [
        {
          "indexed": true,
          "internalType": "uint256",
          "name": "roundIndex",
          "type": "uint256"
        },
        {
          "indexed": false,
          "internalType": "bytes32[]",
          "name": "publicKeys",
          "type": "bytes32[]"
        },
        {
          "indexed": false,
          "internalType": "address[]",
          "name": "participants",
          "type": "address[]"
        }
      ],
      "name": "SystemPublicKeyGenerated",
      "type": "event"
    },
    {
      "anonymous": false,
      "inputs": [
        {
          "indexed": true,
          "internalType": "address",
          "name": "node",
          "type": "address"
        },
        {
          "indexed": false,
          "internalType": "uint256",
          "name": "amount",
          "type": "uint256"
        },
        {
          "indexed": false,
          "internalType": "uint256",
          "name": "gasUsed",
          "type": "uint256"
        }
      ],
      "name": "TransferGasUsed",
      "type": "event"
    },
    {
      "anonymous": false,
      "inputs": [
        {
          "indexed": true,
          "internalType": "address",
          "name": "validator",
          "type": "address"
        },
        {
          "indexed": false,
          "internalType": "bool",
          "name": "added",
          "type": "bool"
        }
      ],
      "name": "ValidatorUpdated",
      "type": "event"
    },
    {
      "inputs": [],
      "name": "MAX_VALIDATORS",
      "outputs": [
        {
          "internalType": "uint256",
          "name": "",
          "type": "uint256"
        }
      ],
      "stateMutability": "view",
      "type": "function"
    },
    {
      "inputs": [],
      "name": "MIN_DEPOSIT",
      "outputs": [
        {
          "internalType": "uint256",
          "name": "",
          "type": "uint256"
        }
      ],
      "stateMutability": "view",
      "type": "function"
    },
    {
      "inputs": [],
      "name": "ROUND_BLOCKS",
      "outputs": [
        {
          "internalType": "uint256",
          "name": "",
          "type": "uint256"
        }
      ],
      "stateMutability": "view",
      "type": "function"
    },
    {
      "inputs": [],
      "name": "ROUND_TIMEOUT",
      "outputs": [
        {
          "internalType": "uint256",
          "name": "",
          "type": "uint256"
        }
      ],
      "stateMutability": "view",
      "type": "function"
    },
    {
      "inputs": [
        {
          "internalType": "uint256",
          "name": "",
          "type": "uint256"
        }
      ],
      "name": "candidates",
      "outputs": [
        {
          "internalType": "address",
          "name": "",
          "type": "address"
        }
      ],
      "stateMutability": "view",
      "type": "function"
    },
    {
      "inputs": [],
      "name": "currentRoundIndex",
      "outputs": [
        {
          "internalType": "uint256",
          "name": "",
          "type": "uint256"
        }
      ],
      "stateMutability": "view",
      "type": "function"
    },
    {
      "inputs": [
        {
          "internalType": "address",
          "name": "validator",
          "type": "address"
        }
      ],
      "name": "delegate",
      "outputs": [],
      "stateMutability": "payable",
      "type": "function"
    },
    {
      "inputs": [
        {
          "internalType": "address",
          "name": "",
          "type": "address"
        },
        {
          "internalType": "uint256",
          "name": "",
          "type": "uint256"
        }
      ],
      "name": "delegations",
      "outputs": [
        {
          "internalType": "address",
          "name": "delegator",
          "type": "address"
        },
        {
          "internalType": "uint256",
          "name": "amount",
          "type": "uint256"
        }
      ],
      "stateMutability": "view",
      "type": "function"
    },
    {
      "inputs": [
        {
          "internalType": "uint256",
          "name": "_round",
          "type": "uint256"
        }
      ],
      "name": "getActiveNodeNum",
      "outputs": [
        {
          "internalType": "uint256",
          "name": "",
          "type": "uint256"
        }
      ],
      "stateMutability": "view",
      "type": "function"
    },
    {
      "inputs": [],
      "name": "getCandidatesNum",
      "outputs": [
        {
          "internalType": "uint256",
          "name": "",
          "type": "uint256"
        }
      ],
      "stateMutability": "view",
      "type": "function"
    },
    {
      "inputs": [],
      "name": "getLeavingNodeNum",
      "outputs": [
        {
          "internalType": "uint256",
          "name": "",
          "type": "uint256"
        }
      ],
      "stateMutability": "view",
      "type": "function"
    },
    {
      "inputs": [
        {
          "internalType": "uint256",
          "name": "_round",
          "type": "uint256"
        },
        {
          "internalType": "address",
          "name": "_node",
          "type": "address"
        }
      ],
      "name": "getRoundPublicKey",
      "outputs": [
        {
          "internalType": "bytes32",
          "name": "",
          "type": "bytes32"
        }
      ],
      "stateMutability": "view",
      "type": "function"
    },
    {
      "inputs": [
        {
          "internalType": "uint256",
          "name": "_round",
          "type": "uint256"
        }
      ],
      "name": "getSystemPublicKey",
      "outputs": [
        {
          "internalType": "bytes32[]",
          "name": "",
          "type": "bytes32[]"
        },
        {
          "internalType": "address[]",
          "name": "",
          "type": "address[]"
        }
      ],
      "stateMutability": "view",
      "type": "function"
    },
    {
      "inputs": [
        {
          "internalType": "uint256",
          "name": "",
          "type": "uint256"
        }
      ],
      "name": "leavingNodes",
      "outputs": [
        {
          "internalType": "address",
          "name": "",
          "type": "address"
        }
      ],
      "stateMutability": "view",
      "type": "function"
    },
    {
      "inputs": [
        {
          "internalType": "address",
          "name": "",
          "type": "address"
        }
      ],
      "name": "nodes",
      "outputs": [
        {
          "internalType": "bool",
          "name": "isPermissioned",
          "type": "bool"
        },
        {
          "internalType": "uint256",
          "name": "deposit",
          "type": "uint256"
        },
        {
          "internalType": "bool",
          "name": "active",
          "type": "bool"
        },
        {
          "internalType": "bytes32",
          "name": "publicKey",
          "type": "bytes32"
        },
        {
          "internalType": "uint256",
          "name": "totalStake",
          "type": "uint256"
        },
        {
          "internalType": "uint256",
          "name": "selfStake",
          "type": "uint256"
        }
      ],
      "stateMutability": "view",
      "type": "function"
    },
    {
      "inputs": [],
      "name": "owner",
      "outputs": [
        {
          "internalType": "address",
          "name": "",
          "type": "address"
        }
      ],
      "stateMutability": "view",
      "type": "function"
    },
    {
      "inputs": [],
      "name": "proposeElection",
      "outputs": [],
      "stateMutability": "payable",
      "type": "function"
    },
    {
      "inputs": [],
      "name": "proposeLeave",
      "outputs": [],
      "stateMutability": "nonpayable",
      "type": "function"
    },
    {
      "inputs": [
        {
          "internalType": "address",
          "name": "validator",
          "type": "address"
        },
        {
          "internalType": "uint256",
          "name": "amountToRevoke",
          "type": "uint256"
        }
      ],
      "name": "revokeDelegation",
      "outputs": [],
      "stateMutability": "nonpayable",
      "type": "function"
    },
    {
      "inputs": [
        {
          "internalType": "uint256",
          "name": "",
          "type": "uint256"
        }
      ],
      "name": "rounds",
      "outputs": [
        {
          "internalType": "uint256",
          "name": "startBlock",
          "type": "uint256"
        },
        {
          "internalType": "uint256",
          "name": "timeout",
          "type": "uint256"
        },
        {
          "internalType": "uint256",
          "name": "publicKeyCount",
          "type": "uint256"
        },
        {
          "internalType": "bool",
          "name": "isGenerated",
          "type": "bool"
        }
      ],
      "stateMutability": "view",
      "type": "function"
    },
    {
      "inputs": [
        {
          "internalType": "uint256",
          "name": "_minDeposit",
          "type": "uint256"
        }
      ],
      "name": "setMinDeposit",
      "outputs": [],
      "stateMutability": "nonpayable",
      "type": "function"
    },
    {
      "inputs": [
        {
          "internalType": "uint256",
          "name": "_roundBlocks",
          "type": "uint256"
        }
      ],
      "name": "setRoundBlocks",
      "outputs": [],
      "stateMutability": "nonpayable",
      "type": "function"
    },
    {
      "inputs": [
        {
          "internalType": "uint256",
          "name": "_roundTimeout",
          "type": "uint256"
        }
      ],
      "name": "setRoundTimeout",
      "outputs": [],
      "stateMutability": "nonpayable",
      "type": "function"
    },
    {
      "inputs": [],
      "name": "stake",
      "outputs": [],
      "stateMutability": "payable",
      "type": "function"
    },
    {
      "inputs": [
        {
          "internalType": "bytes32",
          "name": "_pubKey",
          "type": "bytes32"
        },
        {
          "internalType": "bytes",
          "name": "_signature",
          "type": "bytes"
        },
        {
          "internalType": "uint256",
          "name": "_round",
          "type": "uint256"
        }
      ],
      "name": "submitPubKey",
      "outputs": [],
      "stateMutability": "nonpayable",
      "type": "function"
    },
    {
      "inputs": [
        {
          "internalType": "uint256",
          "name": "",
          "type": "uint256"
        }
      ],
      "name": "validators",
      "outputs": [
        {
          "internalType": "address",
          "name": "",
          "type": "address"
        }
      ],
      "stateMutability": "view",
      "type": "function"
    },
    {
      "inputs": [
        {
          "internalType": "bytes",
          "name": "_signature",
          "type": "bytes"
        },
        {
          "internalType": "address",
          "name": "_node",
          "type": "address"
        }
      ],
      "name": "verifySignature",
      "outputs": [
        {
          "internalType": "bool",
          "name": "",
          "type": "bool"
        },
        {
          "internalType": "enum ECDSA.RecoverError",
          "name": "",
          "type": "uint8"
        },
        {
          "internalType": "bytes32",
          "name": "",
          "type": "bytes32"
        }
      ],
      "stateMutability": "pure",
      "type": "function"
    }
  ],
  "bytecode": "0x6080604052600060045534801561001557600080fd5b506040516130dd3803806130dd833981016040819052610034916109d8565b600380546001600160a01b0319163317905560008390556001829055600281905561005d610065565b505050610a8d565b60015443906000906100779042610a1c565b6007805460018181018355600083905260069091027fa66cc928b5edb82af9bd49922954155ab7b0942694bea4ce44661d9a8736c68881018681557fa66cc928b5edb82af9bd49922954155ab7b0942694bea4ce44661d9a8736c689909101849055915492935090916100ea9190610a35565b6004556100f56100fa565b505050565b6009541561034b5760005b60095481101561033e5760006009828154811061012457610124610a48565b6000918252602090912001546001600160a01b031690506101448161089e565b15610335576001600160a01b0381166000818152600560209081526040808320805460ff199081168255600290910180549091169055519182526000805160206130bd833981519152910160405180910390a26001600160a01b03811660009081526005602081905260408220908101546001909101546101c59190610a1c565b6001600160a01b0383166000818152600560208190526040808320600181018490556004810184905590910182905551929350909183156108fc0291849190818181858888f19350505050158015610221573d6000803e3d6000fd5b5060005b6001600160a01b038316600090815260066020526040902054811015610332576001600160a01b038316600090815260066020526040812080548390811061026f5761026f610a48565b60009182526020808320604080518082018252600290940290910180546001600160a01b031680855260019091015492840185905290519294509092909183156108fc0291849190818181858888f193505050501580156102d4573d6000803e3d6000fd5b506001600160a01b03851660009081526006602052604090208054849081106102ff576102ff610a48565b60009182526020822060029091020180546001600160a01b03191681556001908101919091559290920191506102259050565b50505b50600101610105565b5061034b600960006108fd565b600854600a5460009161035d91610a1c565b6001600160401b0381111561037457610374610a5e565b60405190808252806020026020018201604052801561039d578160200160208202803683370190505b5090506000805b600a548110156104605760056000600a83815481106103c5576103c5610a48565b60009182526020808320909101546001600160a01b0316835282019290925260400190205460ff161561045857600a818154811061040557610405610a48565b6000918252602090912001546001600160a01b0316838361042581610a74565b94508151811061043757610437610a48565b60200260200101906001600160a01b031690816001600160a01b0316815250505b6001016103a4565b5060005b6008548110156104d3576008818154811061048157610481610a48565b6000918252602090912001546001600160a01b031683836104a181610a74565b9450815181106104b3576104b3610a48565b6001600160a01b0390921660209283029190910190910152600101610464565b5060005b6104e2600183610a35565b81101561063b5760006104f6826001610a1c565b90505b82811015610632576005600085848151811061051757610517610a48565b60200260200101516001600160a01b03166001600160a01b03168152602001908152602001600020600401546005600086848151811061055957610559610a48565b60200260200101516001600160a01b03166001600160a01b0316815260200190815260200160002060040154111561062a57600084838151811061059f5761059f610a48565b602002602001015190508482815181106105bb576105bb610a48565b60200260200101518584815181106105d5576105d5610a48565b60200260200101906001600160a01b031690816001600160a01b0316815250508085838151811061060857610608610a48565b60200260200101906001600160a01b031690816001600160a01b031681525050505b6001016104f9565b506001016104d7565b50610648600a60006108fd565b610654600860006108fd565b60005b81811080156106665750600a81105b1561078357600083828151811061067f5761067f610a48565b602090810291909101810151600a8054600181019091557fc65a7bb8d6351c1cf70c95a316cc6a92839c986682d98bc35f958f4883f9d2a80180546001600160a01b0319166001600160a01b0383169081179091556000908152600590925260409091205490915060ff1615801561071457506002546001600160a01b03821660009081526005602052604090206001015410155b15610770576001600160a01b0381166000818152600560209081526040918290208054600160ff1991821681178355600290920180549091168217905591519182526000805160206130bd833981519152910160405180910390a25b508061077b81610a74565b915050610657565b50600a81111561085d57600061079a600a83610a35565b6001600160401b038111156107b1576107b1610a5e565b6040519080825280602002602001820160405280156107da578160200160208202803683370190505b509050600a5b828110156108465760008482815181106107fc576107fc610a48565b602002602001015190508083600a846108159190610a35565b8151811061082557610825610a48565b6001600160a01b0390921660209283029190910190910152506001016107e0565b50805161085a90600890602084019061091e565b50505b600060076004548154811061087457610874610a48565b90600052602060002090600602019050600a81600301908054610898929190610983565b50505050565b6000805b600a548110156108f457826001600160a01b0316600a82815481106108c9576108c9610a48565b6000918252602090912001546001600160a01b0316036108ec5750600192915050565b6001016108a2565b50600092915050565b508054600082559060005260206000209081019061091b91906109c3565b50565b828054828255906000526020600020908101928215610973579160200282015b8281111561097357825182546001600160a01b0319166001600160a01b0390911617825560209092019160019091019061093e565b5061097f9291506109c3565b5090565b8280548282559060005260206000209081019282156109735760005260206000209182015b828111156109735782548255916001019190600101906109a8565b5b8082111561097f57600081556001016109c4565b6000806000606084860312156109ed57600080fd5b5050815160208301516040909301519094929350919050565b634e487b7160e01b600052601160045260246000fd5b80820180821115610a2f57610a2f610a06565b92915050565b81810381811115610a2f57610a2f610a06565b634e487b7160e01b600052603260045260246000fd5b634e487b7160e01b600052604160045260246000fd5b600060018201610a8657610a86610a06565b5060010190565b61262180610a9c6000396000f3fe60806040526004361061019c5760003560e01c8063731cb2ce116100ec578063c4caebad1161008a578063ea3301a311610064578063ea3301a3146104ca578063ec8f2c3f146104f9578063ed7ab46514610519578063f1ec444f1461053957600080fd5b8063c4caebad14610474578063d6dc40e914610494578063e1e158a5146104b457600080fd5b80638da5cb5b116100c65780638da5cb5b1461040c5780638ed0a1951461042c5780638fcc9cfb1461044c57806399fd2f021461046c57600080fd5b8063731cb2ce1461039f57806375a2b6ca146103b45780638c65c81f146103ca57600080fd5b806335aa2e44116101595780635561a1e5116101335780635561a1e51461034c5780635c19a95c146103615780636896ef4b14610374578063714897df1461038a57600080fd5b806335aa2e44146103045780633a4b66f11461032457806341a7960f1461032c57600080fd5b8063189a5a17146101a15780631f23b03e146102325780632194741814610256578063223fae091461026b57806332be0b74146102aa5780633477ee2e146102cc575b600080fd5b3480156101ad57600080fd5b506101f86101bc36600461224b565b600560208190526000918252604090912080546001820154600283015460038401546004850154949095015460ff938416959294919093169286565b6040805196151587526020870195909552921515938501939093526060840152608083019190915260a082015260c0015b60405180910390f35b34801561023e57600080fd5b5061024860005481565b604051908152602001610229565b34801561026257600080fd5b50600854610248565b34801561027757600080fd5b5061028b61028636600461226d565b610567565b604080516001600160a01b039093168352602083019190915201610229565b3480156102b657600080fd5b506102ca6102c5366004612297565b6105ad565b005b3480156102d857600080fd5b506102ec6102e7366004612297565b6105e5565b6040516001600160a01b039091168152602001610229565b34801561031057600080fd5b506102ec61031f366004612297565b61060f565b6102ca61061f565b34801561033857600080fd5b506102ec610347366004612297565b6106ec565b34801561035857600080fd5b506102ca6106fc565b6102ca61036f36600461224b565b610807565b34801561038057600080fd5b5061024860045481565b34801561039657600080fd5b50610248600a81565b3480156103ab57600080fd5b50600954610248565b3480156103c057600080fd5b5061024860015481565b3480156103d657600080fd5b506103ea6103e5366004612297565b610a08565b6040805194855260208501939093529183015215156060820152608001610229565b34801561041857600080fd5b506003546102ec906001600160a01b031681565b34801561043857600080fd5b506102ca61044736600461226d565b610a45565b34801561045857600080fd5b506102ca610467366004612297565b610df1565b6102ca610e20565b34801561048057600080fd5b5061024861048f3660046122b0565b610fb7565b3480156104a057600080fd5b506102ca6104af366004612381565b610ffe565b3480156104c057600080fd5b5061024860025481565b3480156104d657600080fd5b506104ea6104e53660046123d2565b61121d565b6040516102299392919061242d565b34801561050557600080fd5b50610248610514366004612297565b6112ff565b34801561052557600080fd5b506102ca610534366004612297565b61132e565b34801561054557600080fd5b50610559610554366004612297565b61135d565b604051610229929190612465565b6006602052816000526040600020818154811061058357600080fd5b6000918252602090912060029091020180546001909101546001600160a01b039091169250905082565b6003546001600160a01b031633146105e05760405162461bcd60e51b81526004016105d7906124f0565b60405180910390fd5b600055565b600881815481106105f557600080fd5b6000918252602090912001546001600160a01b0316905081565b600a81815481106105f557600080fd5b6000341161066f5760405162461bcd60e51b815260206004820152601a60248201527f4d757374207374616b6520706f73697469766520616d6f756e7400000000000060448201526064016105d7565b3360009081526005602081905260408220908101805491923492610694908490612532565b92505081905550348160040160008282546106af9190612532565b909155505060405134815233907f9e71bc8eea02a63969f509818f2dafb9254532904319f9dbda79b67bd34a5f3d9060200160405180910390a250565b600981815481106105f557600080fd5b3360008181526005602052604090205460ff1661072b5760405162461bcd60e51b81526004016105d790612545565b3360009081526005602052604090206002015460ff1661077f5760405162461bcd60e51b815260206004820152600f60248201526e4e6f6465206e6f742061637469766560881b60448201526064016105d7565b33600081815260056020526040808220600201805460ff19169055600980546001810182559083527f6e1540171b6c0c960b71a7020d9f60077f6af931a8bbf590da0223dacf75c7af0180546001600160a01b0319168417905560045490519092917ff3b3804c8980704269949cfccce1da14f0033d4a01846643aaec07b77e01e43791a350565b600034116108575760405162461bcd60e51b815260206004820152601d60248201527f4d7573742064656c656761746520706f73697469766520616d6f756e7400000060448201526064016105d7565b6001600160a01b038116600090815260056020526040812060048101805491923492610884908490612532565b9091555060009050805b6001600160a01b03841660009081526006602052604090205481101561095e576001600160a01b03841660009081526006602052604090208054339190839081106108db576108db61257c565b60009182526020909120600290910201546001600160a01b031603610956576001600160a01b03841660009081526006602052604090208054349190839081106109275761092761257c565b906000526020600020906002020160010160008282546109479190612532565b909155506001925061095e9050565b60010161088e565b50806109c2576040805180820182523381523460208083019182526001600160a01b03878116600090815260068352948520805460018082018355918752929095209351600290920290930180546001600160a01b03191691909316178255519101555b6040513481526001600160a01b0384169033907fe5541a6b6103d4fa7e021ed54fad39c66f27a76bd13d374cf6240ae6bd0bb72b906020015b60405180910390a3505050565b60078181548110610a1857600080fd5b60009182526020909120600690910201805460018201546002830154600590930154919350919060ff1684565b6001600160a01b03821660009081526005602052604090205460ff16610aad5760405162461bcd60e51b815260206004820152601d60248201527f56616c696461746f72206973206e6f74207065726d697373696f6e656400000060448201526064016105d7565b6001600160a01b0382166000908152600560205260408120905b6001600160a01b038416600090815260066020526040902054811015610db3576001600160a01b0384166000908152600660205260409020805433919083908110610b1457610b1461257c565b60009182526020909120600290910201546001600160a01b031603610dab576001600160a01b0384166000908152600660205260409020805482908110610b5d57610b5d61257c565b906000526020600020906002020160010154831115610bd05760405162461bcd60e51b815260206004820152602960248201527f416d6f756e7420746f207265766f6b6520657863656564732064656c65676174604482015268195908185b5bdd5b9d60ba1b60648201526084016105d7565b6001600160a01b0384166000908152600660205260409020805484919083908110610bfd57610bfd61257c565b90600052602060002090600202016001016000828254610c1d9190612592565b9250508190555082826004016000828254610c389190612592565b9091555050604051339084156108fc029085906000818181858888f19350505050158015610c6a573d6000803e3d6000fd5b506001600160a01b0384166000908152600660205260409020805482908110610c9557610c9561257c565b906000526020600020906002020160010154600003610da6576001600160a01b03841660009081526006602052604090208054610cd490600190612592565b81548110610ce457610ce461257c565b906000526020600020906002020160066000866001600160a01b03166001600160a01b031681526020019081526020016000208281548110610d2857610d2861257c565b60009182526020808320845460029093020180546001600160a01b0319166001600160a01b0393841617815560019485015494019390935586168152600690915260409020805480610d7c57610d7c6125a5565b60008281526020812060026000199093019283020180546001600160a01b03191681556001015590555b610db3565b600101610ac7565b506040518281526001600160a01b0384169033907f315eeabd37f0e4fa7271d8aced9dd94fe444aeaf5d2722d3a6a7a4a7a74a4523906020016109fb565b6003546001600160a01b03163314610e1b5760405162461bcd60e51b81526004016105d7906124f0565b600255565b3360009081526005602052604090205460ff1615610e805760405162461bcd60e51b815260206004820152601b60248201527f416c72656164792061207065726d697373696f6e6564206e6f6465000000000060448201526064016105d7565b600254341015610ec55760405162461bcd60e51b815260206004820152601060248201526f11195c1bdcda5d081c995c5d5a5c995960821b60448201526064016105d7565b6040805160c0810182526000808252346020808401918252838501838152606085018481526080860185815260a08701868152338088526005958690528988209851895490151560ff19918216178a55965160018a810191909155945160028a018054911515919098161790965591516003880155516004808801919091559051959092019490945560088054948501815583527ff3f7a9fe364faab93b216da50a3214154f22a0a2b415b23a84c8169e8b636ee390930180546001600160a01b03191682179055915492517f02b752a11416483894ccba29da0e71c4bee394b901144812c44d2a7e7d6c7ead9190a3565b600060078381548110610fcc57610fcc61257c565b600091825260208083206001600160a01b03861684526004600690930201919091019052604090205490505b92915050565b3360008181526005602052604090205460ff1661102d5760405162461bcd60e51b81526004016105d790612545565b600454821461106f5760405162461bcd60e51b815260206004820152600e60248201526d0a4deeadcc840dad2e6dac2e8c6d60931b60448201526064016105d7565b60006007600454815481106110865761108661257c565b6000918252602080832033845260046006909302019182019052604090912054909150156110f65760405162461bcd60e51b815260206004820152601c60248201527f416c7265616479207375626d6974746564207075626c6963206b65790000000060448201526064016105d7565b806001015442111561113c5760405162461bcd60e51b815260206004820152600f60248201526e149bdd5b99081d1a5b5959081bdd5d608a1b60448201526064016105d7565b600080600061114b873361121d565b92509250925082801561116f5750600082600381111561116d5761116d612417565b145b8015611179575080155b6111b95760405162461bcd60e51b8152602060048201526011602482015270496e76616c6964207369676e617475726560781b60448201526064016105d7565b3360009081526004850160205260408120899055600285018054916111dd836125bb565b909155505060038401546002808601546111f6916125d4565b1015806112065750836001015442115b1561121357611213611659565b5050505050505050565b604080516001600160a01b038316602082015260009182918291829101604051602081830303815290604052805190602001209050600061128b827f19457468657265756d205369676e6564204d6573736167653a0a3332000000006000908152601c91909152603c902090565b9050600080600061129c848b611782565b91945092509050600160008360038111156112b9576112b9612417565b1415806112c557508115155b156112dd57506000975090955093506112f892505050565b506001600160a01b0389811693169290921496509450925050505b9250925092565b6000600782815481106113145761131461257c565b600091825260209091206003600690920201015492915050565b6003546001600160a01b031633146113585760405162461bcd60e51b81526004016105d7906124f0565b600155565b33600081815260056020526040902054606091829160ff166113915760405162461bcd60e51b81526004016105d790612545565b6000600785815481106113a6576113a661257c565b90600052602060002090600602016002015467ffffffffffffffff8111156113d0576113d06122dc565b6040519080825280602002602001820160405280156113f9578160200160208202803683370190505b5090506000600786815481106114115761141161257c565b90600052602060002090600602016002015467ffffffffffffffff81111561143b5761143b6122dc565b604051908082528060200260200182016040528015611464578160200160208202803683370190505b50905060005b6007878154811061147d5761147d61257c565b90600052602060002090600602016002015481101561164d576000801b600788815481106114ad576114ad61257c565b9060005260206000209060060201600401600060078a815481106114d3576114d361257c565b906000526020600020906006020160030184815481106114f5576114f561257c565b60009182526020808320909101546001600160a01b031683528201929092526040019020541461164557600787815481106115325761153261257c565b90600052602060002090600602016004016000600789815481106115585761155861257c565b9060005260206000209060060201600301838154811061157a5761157a61257c565b60009182526020808320909101546001600160a01b0316835282019290925260400190205483518490839081106115b3576115b361257c565b602002602001018181525050600787815481106115d2576115d261257c565b906000526020600020906006020160030181815481106115f4576115f461257c565b9060005260206000200160009054906101000a90046001600160a01b03168282815181106116245761162461257c565b60200260200101906001600160a01b031690816001600160a01b0316815250505b60010161146a565b50909350915050915091565b60006007600454815481106116705761167061257c565b6000918252602082206005600690920201908101805460ff19166001179055600281015490925067ffffffffffffffff8111156116af576116af6122dc565b6040519080825280602002602001820160405280156116d8578160200160208202803683370190505b5090506000826002015467ffffffffffffffff8111156116fa576116fa6122dc565b604051908082528060200260200182016040528015611723578160200160208202803683370190505b50905061173160045461135d565b80925081935050506004547f0cdf506672ea6308d71d35d76e01f6718ddb82e8f8d258d4a3807821003d9625838360405161176d929190612465565b60405180910390a261177d6117cc565b505050565b600080600083516041036117bc5760208401516040850151606086015160001a6117ae8882858561185c565b9550955095505050506112f8565b50508151600091506002906112f8565b60015443906000906117de9042612532565b6007805460018181018355600083905260069091027fa66cc928b5edb82af9bd49922954155ab7b0942694bea4ce44661d9a8736c68881018681557fa66cc928b5edb82af9bd49922954155ab7b0942694bea4ce44661d9a8736c689909101849055915492935090916118519190612592565b60045561177d61192b565b600080807f7fffffffffffffffffffffffffffffff5d576e7357a4501ddfe92f46681b20a08411156118975750600091506003905082611921565b604080516000808252602082018084528a905260ff891692820192909252606081018790526080810186905260019060a0016020604051602081039080840390855afa1580156118eb573d6000803e3d6000fd5b5050604051601f1901519150506001600160a01b03811661191757506000925060019150829050611921565b9250600091508190505b9450945094915050565b60095415611b8e5760005b600954811015611b81576000600982815481106119555761195561257c565b6000918252602090912001546001600160a01b03169050611975816120f5565b15611b78576001600160a01b0381166000818152600560209081526040808320805460ff199081168255600290910180549091169055519182527f763b63b30e91c843bb39e4379603697003d3b7c1f192619cd782fa33bdc44396910160405180910390a26001600160a01b0381166000908152600560208190526040822090810154600190910154611a089190612532565b6001600160a01b0383166000818152600560208190526040808320600181018490556004810184905590910182905551929350909183156108fc0291849190818181858888f19350505050158015611a64573d6000803e3d6000fd5b5060005b6001600160a01b038316600090815260066020526040902054811015611b75576001600160a01b0383166000908152600660205260408120805483908110611ab257611ab261257c565b60009182526020808320604080518082018252600290940290910180546001600160a01b031680855260019091015492840185905290519294509092909183156108fc0291849190818181858888f19350505050158015611b17573d6000803e3d6000fd5b506001600160a01b0385166000908152600660205260409020805484908110611b4257611b4261257c565b60009182526020822060029091020180546001600160a01b0319168155600190810191909155929092019150611a689050565b50505b50600101611936565b50611b8e60096000612154565b600854600a54600091611ba091612532565b67ffffffffffffffff811115611bb857611bb86122dc565b604051908082528060200260200182016040528015611be1578160200160208202803683370190505b5090506000805b600a54811015611ca45760056000600a8381548110611c0957611c0961257c565b60009182526020808320909101546001600160a01b0316835282019290925260400190205460ff1615611c9c57600a8181548110611c4957611c4961257c565b6000918252602090912001546001600160a01b03168383611c69816125bb565b945081518110611c7b57611c7b61257c565b60200260200101906001600160a01b031690816001600160a01b0316815250505b600101611be8565b5060005b600854811015611d175760088181548110611cc557611cc561257c565b6000918252602090912001546001600160a01b03168383611ce5816125bb565b945081518110611cf757611cf761257c565b6001600160a01b0390921660209283029190910190910152600101611ca8565b5060005b611d26600183612592565b811015611e7f576000611d3a826001612532565b90505b82811015611e765760056000858481518110611d5b57611d5b61257c565b60200260200101516001600160a01b03166001600160a01b031681526020019081526020016000206004015460056000868481518110611d9d57611d9d61257c565b60200260200101516001600160a01b03166001600160a01b03168152602001908152602001600020600401541115611e6e576000848381518110611de357611de361257c565b60200260200101519050848281518110611dff57611dff61257c565b6020026020010151858481518110611e1957611e1961257c565b60200260200101906001600160a01b031690816001600160a01b03168152505080858381518110611e4c57611e4c61257c565b60200260200101906001600160a01b031690816001600160a01b031681525050505b600101611d3d565b50600101611d1b565b50611e8c600a6000612154565b611e9860086000612154565b60005b8181108015611eaa5750600a81105b15611fd9576000838281518110611ec357611ec361257c565b602090810291909101810151600a8054600181019091557fc65a7bb8d6351c1cf70c95a316cc6a92839c986682d98bc35f958f4883f9d2a80180546001600160a01b0319166001600160a01b0383169081179091556000908152600590925260409091205490915060ff16158015611f5857506002546001600160a01b03821660009081526005602052604090206001015410155b15611fc6576001600160a01b0381166000818152600560209081526040918290208054600160ff1991821681178355600290920180549091168217905591519182527f763b63b30e91c843bb39e4379603697003d3b7c1f192619cd782fa33bdc44396910160405180910390a25b5080611fd1816125bb565b915050611e9b565b50600a8111156120b4576000611ff0600a83612592565b67ffffffffffffffff811115612008576120086122dc565b604051908082528060200260200182016040528015612031578160200160208202803683370190505b509050600a5b8281101561209d5760008482815181106120535761205361257c565b602002602001015190508083600a8461206c9190612592565b8151811061207c5761207c61257c565b6001600160a01b039092166020928302919091019091015250600101612037565b5080516120b1906008906020840190612175565b50505b60006007600454815481106120cb576120cb61257c565b90600052602060002090600602019050600a816003019080546120ef9291906121da565b50505050565b6000805b600a5481101561214b57826001600160a01b0316600a82815481106121205761212061257c565b6000918252602090912001546001600160a01b0316036121435750600192915050565b6001016120f9565b50600092915050565b5080546000825590600052602060002090810190612172919061221a565b50565b8280548282559060005260206000209081019282156121ca579160200282015b828111156121ca57825182546001600160a01b0319166001600160a01b03909116178255602090920191600190910190612195565b506121d692915061221a565b5090565b8280548282559060005260206000209081019282156121ca5760005260206000209182015b828111156121ca5782548255916001019190600101906121ff565b5b808211156121d6576000815560010161221b565b80356001600160a01b038116811461224657600080fd5b919050565b60006020828403121561225d57600080fd5b6122668261222f565b9392505050565b6000806040838503121561228057600080fd5b6122898361222f565b946020939093013593505050565b6000602082840312156122a957600080fd5b5035919050565b600080604083850312156122c357600080fd5b823591506122d36020840161222f565b90509250929050565b634e487b7160e01b600052604160045260246000fd5b600082601f83011261230357600080fd5b813567ffffffffffffffff81111561231d5761231d6122dc565b604051601f8201601f19908116603f0116810167ffffffffffffffff8111828210171561234c5761234c6122dc565b60405281815283820160200185101561236457600080fd5b816020850160208301376000918101602001919091529392505050565b60008060006060848603121561239657600080fd5b83359250602084013567ffffffffffffffff8111156123b457600080fd5b6123c0868287016122f2565b93969395505050506040919091013590565b600080604083850312156123e557600080fd5b823567ffffffffffffffff8111156123fc57600080fd5b612408858286016122f2565b9250506122d36020840161222f565b634e487b7160e01b600052602160045260246000fd5b8315158152606081016004841061245457634e487b7160e01b600052602160045260246000fd5b602082019390935260400152919050565b6040808252835190820181905260009060208501906060840190835b8181101561249f578351835260209384019390920191600101612481565b50508381036020808601919091528551808352918101925085019060005b818110156124e45782516001600160a01b03168452602093840193909201916001016124bd565b50919695505050505050565b6020808252601290820152712737ba1031b7b73a3930b1ba1037bbb732b960711b604082015260600190565b634e487b7160e01b600052601160045260246000fd5b80820180821115610ff857610ff861251c565b60208082526017908201527f4e6f742061207065726d697373696f6e6564206e6f6465000000000000000000604082015260600190565b634e487b7160e01b600052603260045260246000fd5b81810381811115610ff857610ff861251c565b634e487b7160e01b600052603160045260246000fd5b6000600182016125cd576125cd61251c565b5060010190565b8082028115828204841417610ff857610ff861251c56fea2646970667358221220b4b6c8a83171126603f1f728ed3a979a45f5ce148f49a3858f421846259e440664736f6c634300081b0033763b63b30e91c843bb39e4379603697003d3b7c1f192619cd782fa33bdc44396",
  "linkReferences": {},
  "deployedLinkReferences": {}
}