{
  "_format": "hh-sol-artifact-1",
  "contractName": "PermissionManagerV2",
  "sourceName": "contracts/PermissionMgrV2.sol",
  "abi": [
    {
      "inputs": [
        {
          "internalType": "uint256",
          "name": "_roundBlocks",
          "type": "uint256"
        },
        {
          "internalType": "uint256",
          "name": "_roundTimeout",
          "type": "uint256"
        },
        {
          "internalType": "uint256",
          "name": "_minDeposit",
          "type": "uint256"
        },
        {
          "internalType": "uint256",
          "name": "_maxValidators",
          "type": "uint256"
        }
      ],
      "stateMutability": "nonpayable",
      "type": "constructor"
    },
    {
      "anonymous": false,
      "inputs": [
        {
          "indexed": true,
          "internalType": "address",
          "name": "delegator",
          "type": "address"
        },
        {
          "indexed": true,
          "internalType": "address",
          "name": "validator",
          "type": "address"
        },
        {
          "indexed": false,
          "internalType": "uint256",
          "name": "amount",
          "type": "uint256"
        }
      ],
      "name": "Delegated",
      "type": "event"
    },
    {
      "anonymous": false,
      "inputs": [
        {
          "indexed": true,
          "internalType": "uint256",
          "name": "proposalId",
          "type": "uint256"
        },
        {
          "indexed": true,
          "internalType": "address",
          "name": "proposer",
          "type": "address"
        },
        {
          "indexed": false,
          "internalType": "uint256",
          "name": "blockNumber",
          "type": "uint256"
        },
        {
          "indexed": false,
          "internalType": "string",
          "name": "description",
          "type": "string"
        }
      ],
      "name": "NewProposalArrived",
      "type": "event"
    },
    {
      "anonymous": false,
      "inputs": [
        {
          "indexed": true,
          "internalType": "address",
          "name": "node",
          "type": "address"
        },
        {
          "indexed": true,
          "internalType": "uint256",
          "name": "roundIndex",
          "type": "uint256"
        }
      ],
      "name": "NodeElectionProposed",
      "type": "event"
    },
    {
      "anonymous": false,
      "inputs": [
        {
          "indexed": true,
          "internalType": "address",
          "name": "node",
          "type": "address"
        },
        {
          "indexed": true,
          "internalType": "uint256",
          "name": "roundIndex",
          "type": "uint256"
        }
      ],
      "name": "NodeLeaveProposed",
      "type": "event"
    },
    {
      "anonymous": false,
      "inputs": [
        {
          "indexed": true,
          "internalType": "address",
          "name": "delegator",
          "type": "address"
        },
        {
          "indexed": true,
          "internalType": "address",
          "name": "valildator",
          "type": "address"
        },
        {
          "indexed": false,
          "internalType": "uint256",
          "name": "amounToRevoke",
          "type": "uint256"
        }
      ],
      "name": "RevokeDelegated",
      "type": "event"
    },
    {
      "anonymous": false,
      "inputs": [
        {
          "indexed": true,
          "internalType": "address",
          "name": "staker",
          "type": "address"
        },
        {
          "indexed": false,
          "internalType": "uint256",
          "name": "amount",
          "type": "uint256"
        }
      ],
      "name": "Staked",
      "type": "event"
    },
    {
      "anonymous": false,
      "inputs": [
        {
          "indexed": true,
          "internalType": "uint256",
          "name": "roundIndex",
          "type": "uint256"
        },
        {
          "indexed": false,
          "internalType": "bytes32[]",
          "name": "publicKeys",
          "type": "bytes32[]"
        },
        {
          "indexed": false,
          "internalType": "address[]",
          "name": "participants",
          "type": "address[]"
        }
      ],
      "name": "SystemPublicKeyGenerated",
      "type": "event"
    },
    {
      "anonymous": false,
      "inputs": [
        {
          "indexed": true,
          "internalType": "address",
          "name": "node",
          "type": "address"
        },
        {
          "indexed": false,
          "internalType": "uint256",
          "name": "amount",
          "type": "uint256"
        },
        {
          "indexed": false,
          "internalType": "uint256",
          "name": "gasUsed",
          "type": "uint256"
        }
      ],
      "name": "TransferGasUsed",
      "type": "event"
    },
    {
      "anonymous": false,
      "inputs": [
        {
          "indexed": true,
          "internalType": "address",
          "name": "validator",
          "type": "address"
        },
        {
          "indexed": false,
          "internalType": "bool",
          "name": "added",
          "type": "bool"
        }
      ],
      "name": "ValidatorUpdated",
      "type": "event"
    },
    {
      "inputs": [],
      "name": "MAX_VALIDATORS",
      "outputs": [
        {
          "internalType": "uint256",
          "name": "",
          "type": "uint256"
        }
      ],
      "stateMutability": "view",
      "type": "function"
    },
    {
      "inputs": [],
      "name": "MIN_DEPOSIT",
      "outputs": [
        {
          "internalType": "uint256",
          "name": "",
          "type": "uint256"
        }
      ],
      "stateMutability": "view",
      "type": "function"
    },
    {
      "inputs": [],
      "name": "PROPOSAL_ID",
      "outputs": [
        {
          "internalType": "uint256",
          "name": "",
          "type": "uint256"
        }
      ],
      "stateMutability": "view",
      "type": "function"
    },
    {
      "inputs": [],
      "name": "ROUND_BLOCKS",
      "outputs": [
        {
          "internalType": "uint256",
          "name": "",
          "type": "uint256"
        }
      ],
      "stateMutability": "view",
      "type": "function"
    },
    {
      "inputs": [],
      "name": "ROUND_TIMEOUT",
      "outputs": [
        {
          "internalType": "uint256",
          "name": "",
          "type": "uint256"
        }
      ],
      "stateMutability": "view",
      "type": "function"
    },
    {
      "inputs": [
        {
          "internalType": "uint256",
          "name": "",
          "type": "uint256"
        }
      ],
      "name": "candidates",
      "outputs": [
        {
          "internalType": "address",
          "name": "",
          "type": "address"
        }
      ],
      "stateMutability": "view",
      "type": "function"
    },
    {
      "inputs": [
        {
          "internalType": "address",
          "name": "_node",
          "type": "address"
        }
      ],
      "name": "checkStatus",
      "outputs": [
        {
          "internalType": "bool",
          "name": "",
          "type": "bool"
        }
      ],
      "stateMutability": "view",
      "type": "function"
    },
    {
      "inputs": [],
      "name": "currentRoundIndex",
      "outputs": [
        {
          "internalType": "uint256",
          "name": "",
          "type": "uint256"
        }
      ],
      "stateMutability": "view",
      "type": "function"
    },
    {
      "inputs": [
        {
          "internalType": "address",
          "name": "validator",
          "type": "address"
        }
      ],
      "name": "delegate",
      "outputs": [],
      "stateMutability": "payable",
      "type": "function"
    },
    {
      "inputs": [
        {
          "internalType": "address",
          "name": "",
          "type": "address"
        },
        {
          "internalType": "uint256",
          "name": "",
          "type": "uint256"
        }
      ],
      "name": "delegations",
      "outputs": [
        {
          "internalType": "address",
          "name": "delegator",
          "type": "address"
        },
        {
          "internalType": "uint256",
          "name": "amount",
          "type": "uint256"
        }
      ],
      "stateMutability": "view",
      "type": "function"
    },
    {
      "inputs": [
        {
          "internalType": "uint256",
          "name": "_round",
          "type": "uint256"
        }
      ],
      "name": "getActiveNodeNum",
      "outputs": [
        {
          "internalType": "uint256",
          "name": "",
          "type": "uint256"
        }
      ],
      "stateMutability": "view",
      "type": "function"
    },
    {
      "inputs": [],
      "name": "getCandidatesNum",
      "outputs": [
        {
          "internalType": "uint256",
          "name": "",
          "type": "uint256"
        }
      ],
      "stateMutability": "view",
      "type": "function"
    },
    {
      "inputs": [],
      "name": "getLeavingNodeNum",
      "outputs": [
        {
          "internalType": "uint256",
          "name": "",
          "type": "uint256"
        }
      ],
      "stateMutability": "view",
      "type": "function"
    },
    {
      "inputs": [
        {
          "internalType": "uint256",
          "name": "_proposalId",
          "type": "uint256"
        }
      ],
      "name": "getProposalInfo",
      "outputs": [
        {
          "internalType": "address",
          "name": "",
          "type": "address"
        },
        {
          "internalType": "uint256",
          "name": "",
          "type": "uint256"
        },
        {
          "internalType": "string",
          "name": "",
          "type": "string"
        }
      ],
      "stateMutability": "view",
      "type": "function"
    },
    {
      "inputs": [
        {
          "internalType": "uint256",
          "name": "_round",
          "type": "uint256"
        },
        {
          "internalType": "address",
          "name": "_node",
          "type": "address"
        }
      ],
      "name": "getRoundPrivateKey",
      "outputs": [
        {
          "internalType": "bytes32",
          "name": "",
          "type": "bytes32"
        }
      ],
      "stateMutability": "view",
      "type": "function"
    },
    {
      "inputs": [
        {
          "internalType": "uint256",
          "name": "_round",
          "type": "uint256"
        },
        {
          "internalType": "address",
          "name": "_node",
          "type": "address"
        }
      ],
      "name": "getRoundPublicKey",
      "outputs": [
        {
          "internalType": "bytes32",
          "name": "",
          "type": "bytes32"
        }
      ],
      "stateMutability": "view",
      "type": "function"
    },
    {
      "inputs": [
        {
          "internalType": "uint256",
          "name": "_round",
          "type": "uint256"
        }
      ],
      "name": "getSystemPrivateKey",
      "outputs": [
        {
          "internalType": "bytes32[]",
          "name": "",
          "type": "bytes32[]"
        },
        {
          "internalType": "address[]",
          "name": "",
          "type": "address[]"
        }
      ],
      "stateMutability": "view",
      "type": "function"
    },
    {
      "inputs": [
        {
          "internalType": "uint256",
          "name": "_round",
          "type": "uint256"
        }
      ],
      "name": "getSystemPublicKey",
      "outputs": [
        {
          "internalType": "bytes32[]",
          "name": "",
          "type": "bytes32[]"
        },
        {
          "internalType": "address[]",
          "name": "",
          "type": "address[]"
        }
      ],
      "stateMutability": "view",
      "type": "function"
    },
    {
      "inputs": [],
      "name": "getValidatorsNum",
      "outputs": [
        {
          "internalType": "uint256",
          "name": "",
          "type": "uint256"
        }
      ],
      "stateMutability": "view",
      "type": "function"
    },
    {
      "inputs": [
        {
          "internalType": "uint256",
          "name": "",
          "type": "uint256"
        }
      ],
      "name": "leavingNodes",
      "outputs": [
        {
          "internalType": "address",
          "name": "",
          "type": "address"
        }
      ],
      "stateMutability": "view",
      "type": "function"
    },
    {
      "inputs": [
        {
          "internalType": "address",
          "name": "",
          "type": "address"
        }
      ],
      "name": "nodes",
      "outputs": [
        {
          "internalType": "bool",
          "name": "isPermissioned",
          "type": "bool"
        },
        {
          "internalType": "uint256",
          "name": "deposit",
          "type": "uint256"
        },
        {
          "internalType": "bool",
          "name": "active",
          "type": "bool"
        },
        {
          "internalType": "bytes32",
          "name": "publicKey",
          "type": "bytes32"
        },
        {
          "internalType": "bytes32",
          "name": "privateKey",
          "type": "bytes32"
        },
        {
          "internalType": "uint256",
          "name": "totalStake",
          "type": "uint256"
        },
        {
          "internalType": "uint256",
          "name": "selfStake",
          "type": "uint256"
        }
      ],
      "stateMutability": "view",
      "type": "function"
    },
    {
      "inputs": [],
      "name": "owner",
      "outputs": [
        {
          "internalType": "address",
          "name": "",
          "type": "address"
        }
      ],
      "stateMutability": "view",
      "type": "function"
    },
    {
      "inputs": [
        {
          "internalType": "uint256",
          "name": "",
          "type": "uint256"
        }
      ],
      "name": "proposals",
      "outputs": [
        {
          "internalType": "uint256",
          "name": "proposalId",
          "type": "uint256"
        },
        {
          "internalType": "address",
          "name": "proposer",
          "type": "address"
        },
        {
          "internalType": "uint256",
          "name": "blockNumber",
          "type": "uint256"
        },
        {
          "internalType": "string",
          "name": "description",
          "type": "string"
        }
      ],
      "stateMutability": "view",
      "type": "function"
    },
    {
      "inputs": [],
      "name": "proposeElection",
      "outputs": [],
      "stateMutability": "payable",
      "type": "function"
    },
    {
      "inputs": [],
      "name": "proposeLeave",
      "outputs": [],
      "stateMutability": "nonpayable",
      "type": "function"
    },
    {
      "inputs": [
        {
          "internalType": "address",
          "name": "delegator",
          "type": "address"
        },
        {
          "internalType": "uint256",
          "name": "amountToRevoke",
          "type": "uint256"
        }
      ],
      "name": "revokeDelegation",
      "outputs": [],
      "stateMutability": "nonpayable",
      "type": "function"
    },
    {
      "inputs": [
        {
          "internalType": "uint256",
          "name": "",
          "type": "uint256"
        }
      ],
      "name": "rounds",
      "outputs": [
        {
          "internalType": "uint256",
          "name": "startBlock",
          "type": "uint256"
        },
        {
          "internalType": "uint256",
          "name": "timeout",
          "type": "uint256"
        },
        {
          "internalType": "uint256",
          "name": "publicKeyCount",
          "type": "uint256"
        },
        {
          "internalType": "uint256",
          "name": "privateKeyCount",
          "type": "uint256"
        }
      ],
      "stateMutability": "view",
      "type": "function"
    },
    {
      "inputs": [
        {
          "internalType": "uint256",
          "name": "_minDeposit",
          "type": "uint256"
        }
      ],
      "name": "setMinDeposit",
      "outputs": [],
      "stateMutability": "nonpayable",
      "type": "function"
    },
    {
      "inputs": [
        {
          "internalType": "uint256",
          "name": "_roundBlocks",
          "type": "uint256"
        }
      ],
      "name": "setRoundBlocks",
      "outputs": [],
      "stateMutability": "nonpayable",
      "type": "function"
    },
    {
      "inputs": [
        {
          "internalType": "uint256",
          "name": "_roundTimeout",
          "type": "uint256"
        }
      ],
      "name": "setRoundTimeout",
      "outputs": [],
      "stateMutability": "nonpayable",
      "type": "function"
    },
    {
      "inputs": [],
      "name": "stake",
      "outputs": [],
      "stateMutability": "payable",
      "type": "function"
    },
    {
      "inputs": [],
      "name": "startElection",
      "outputs": [],
      "stateMutability": "nonpayable",
      "type": "function"
    },
    {
      "inputs": [
        {
          "internalType": "bytes32",
          "name": "_priKey",
          "type": "bytes32"
        },
        {
          "internalType": "uint256",
          "name": "_round",
          "type": "uint256"
        }
      ],
      "name": "submitPriKey",
      "outputs": [],
      "stateMutability": "nonpayable",
      "type": "function"
    },
    {
      "inputs": [
        {
          "internalType": "uint256",
          "name": "_blockNumber",
          "type": "uint256"
        },
        {
          "internalType": "string",
          "name": "_description",
          "type": "string"
        }
      ],
      "name": "submitProposal",
      "outputs": [],
      "stateMutability": "nonpayable",
      "type": "function"
    },
    {
      "inputs": [
        {
          "internalType": "bytes32",
          "name": "_pubKey",
          "type": "bytes32"
        },
        {
          "internalType": "uint256",
          "name": "_round",
          "type": "uint256"
        }
      ],
      "name": "submitPubKey",
      "outputs": [],
      "stateMutability": "nonpayable",
      "type": "function"
    },
    {
      "inputs": [
        {
          "internalType": "uint256",
          "name": "",
          "type": "uint256"
        }
      ],
      "name": "validators",
      "outputs": [
        {
          "internalType": "address",
          "name": "",
          "type": "address"
        }
      ],
      "stateMutability": "view",
      "type": "function"
    }
  ],
  "bytecode": "0x6080604052600060065534801561001557600080fd5b506040516138b23803806138b2833981016040819052610034916109f2565b600580546001600160a01b03191633179055600084815560018490556002839055600382905560045561006561006e565b50505050610aaf565b60015443906000906100809042610a3e565b6009805460018181018355600083905260079091027f6e1540171b6c0c960b71a7020d9f60077f6af931a8bbf590da0223dacf75c7af81018681557f6e1540171b6c0c960b71a7020d9f60077f6af931a8bbf590da0223dacf75c7b0909101849055915492935090916100f39190610a57565b6006556100fe610103565b505050565b60065460000361010f57565b600b541561035d5760005b600b54811015610350576000600b828154811061013957610139610a6a565b6000918252602090912001546001600160a01b03169050610159816108b8565b15610347576001600160a01b0381166000818152600760209081526040808320805460ff19908116825560029091018054909116905551918252600080516020613892833981519152910160405180910390a26001600160a01b038116600090815260076020526040812060068101546001909101546101d99190610a3e565b6001600160a01b038316600081815260076020526040808220600181018390556005810183905560060182905551929350909183156108fc0291849190818181858888f19350505050158015610233573d6000803e3d6000fd5b5060005b6001600160a01b038316600090815260086020526040902054811015610344576001600160a01b038316600090815260086020526040812080548390811061028157610281610a6a565b60009182526020808320604080518082018252600290940290910180546001600160a01b031680855260019091015492840185905290519294509092909183156108fc0291849190818181858888f193505050501580156102e6573d6000803e3d6000fd5b506001600160a01b038516600090815260086020526040902080548490811061031157610311610a6a565b60009182526020822060029091020180546001600160a01b03191681556001908101919091559290920191506102379050565b50505b5060010161011a565b5061035d600b6000610917565b600a54600c5460009161036f91610a3e565b6001600160401b0381111561038657610386610a80565b6040519080825280602002602001820160405280156103af578160200160208202803683370190505b5090506000805b600c548110156104725760076000600c83815481106103d7576103d7610a6a565b60009182526020808320909101546001600160a01b0316835282019290925260400190205460ff161561046a57600c818154811061041757610417610a6a565b6000918252602090912001546001600160a01b0316838361043781610a96565b94508151811061044957610449610a6a565b60200260200101906001600160a01b031690816001600160a01b0316815250505b6001016103b6565b5060005b600a548110156104e557600a818154811061049357610493610a6a565b6000918252602090912001546001600160a01b031683836104b381610a96565b9450815181106104c5576104c5610a6a565b6001600160a01b0390921660209283029190910190910152600101610476565b5060005b6104f4600183610a57565b81101561064d576000610508826001610a3e565b90505b82811015610644576007600085848151811061052957610529610a6a565b60200260200101516001600160a01b03166001600160a01b03168152602001908152602001600020600501546007600086848151811061056b5761056b610a6a565b60200260200101516001600160a01b03166001600160a01b0316815260200190815260200160002060050154111561063c5760008483815181106105b1576105b1610a6a565b602002602001015190508482815181106105cd576105cd610a6a565b60200260200101518584815181106105e7576105e7610a6a565b60200260200101906001600160a01b031690816001600160a01b0316815250508085838151811061061a5761061a610a6a565b60200260200101906001600160a01b031690816001600160a01b031681525050505b60010161050b565b506001016104e9565b5061065a600c6000610917565b610666600a6000610917565b60005b8181108015610679575060035481105b1561079657600083828151811061069257610692610a6a565b602090810291909101810151600c8054600181019091557fdf6966c971051c3d54ec59162606531493a51404a002842f56009d7e5cf4a8c70180546001600160a01b0319166001600160a01b0383169081179091556000908152600790925260409091205490915060ff1615801561072757506002546001600160a01b03821660009081526007602052604090206001015410155b15610783576001600160a01b0381166000818152600760209081526040918290208054600160ff199182168117835560029092018054909116821790559151918252600080516020613892833981519152910160405180910390a25b508061078e81610a96565b915050610669565b50600354811115610877576000600354826107b19190610a57565b6001600160401b038111156107c8576107c8610a80565b6040519080825280602002602001820160405280156107f1578160200160208202803683370190505b506003549091505b8281101561086057600084828151811061081557610815610a6a565b6020026020010151905080836003548461082f9190610a57565b8151811061083f5761083f610a6a565b6001600160a01b0390921660209283029190910190910152506001016107f9565b50805161087490600a906020840190610938565b50505b600060096006548154811061088e5761088e610a6a565b90600052602060002090600702019050600c816004019080546108b292919061099d565b50505050565b6000805b600c5481101561090e57826001600160a01b0316600c82815481106108e3576108e3610a6a565b6000918252602090912001546001600160a01b0316036109065750600192915050565b6001016108bc565b50600092915050565b508054600082559060005260206000209081019061093591906109dd565b50565b82805482825590600052602060002090810192821561098d579160200282015b8281111561098d57825182546001600160a01b0319166001600160a01b03909116178255602090920191600190910190610958565b506109999291506109dd565b5090565b82805482825590600052602060002090810192821561098d5760005260206000209182015b8281111561098d5782548255916001019190600101906109c2565b5b8082111561099957600081556001016109de565b60008060008060808587031215610a0857600080fd5b505082516020840151604085015160609095015191969095509092509050565b634e487b7160e01b600052601160045260246000fd5b80820180821115610a5157610a51610a28565b92915050565b81810381811115610a5157610a51610a28565b634e487b7160e01b600052603260045260246000fd5b634e487b7160e01b600052604160045260246000fd5b600060018201610aa857610aa8610a28565b5060010190565b612dd480610abe6000396000f3fe60806040526004361061020f5760003560e01c80635c19a95c116101185780638fcc9cfb116100a0578063e189224f1161006f578063e189224f14610668578063e1e158a514610696578063ec8f2c3f146106ac578063ed7ab465146106cc578063f1ec444f146106ec57600080fd5b80638fcc9cfb146105f157806399fd2f0214610611578063bc903cb814610619578063c4caebad1461064857600080fd5b8063731cb2ce116100e7578063731cb2ce1461054657806375a2b6ca1461055b5780638c65c81f146105715780638da5cb5b146105b15780638ed0a195146105d157600080fd5b80635c19a95c146104f257806362d73eb8146105055780636896ef4b1461051a578063714897df1461053057600080fd5b806332be0b741161019b57806335aa2e441161016a57806335aa2e44146104755780633a4b66f11461049557806341a7960f1461049d5780635561a1e5146104bd57806357801bce146104d257600080fd5b806332be0b74146103d8578063340190ec146103f85780633477ee2e1461042857806334ba3c1b1461046057600080fd5b806321947418116101e25780632194741814610322578063223fae0914610337578063230aac5514610376578063242a032f146103985780632e6afb78146103b857600080fd5b8063013cf08b146102145780630bc9136e1461024d578063189a5a17146102715780631f23b03e1461030c575b600080fd5b34801561022057600080fd5b5061023461022f36600461285b565b61070c565b60405161024494939291906128ba565b60405180910390f35b34801561025957600080fd5b5061026360045481565b604051908152602001610244565b34801561027d57600080fd5b506102cf61028c36600461290d565b600760205260009081526040902080546001820154600283015460038401546004850154600586015460069096015460ff95861696949590931693919290919087565b6040805197151588526020880196909652931515948601949094526060850191909152608084015260a083019190915260c082015260e001610244565b34801561031857600080fd5b5061026360005481565b34801561032e57600080fd5b50600a54610263565b34801561034357600080fd5b5061035761035236600461292f565b6107c9565b604080516001600160a01b039093168352602083019190915201610244565b34801561038257600080fd5b5061039661039136600461296f565b61080f565b005b3480156103a457600080fd5b506102636103b3366004612a32565b6108e8565b3480156103c457600080fd5b506103966103d3366004612a5e565b610997565b3480156103e457600080fd5b506103966103f336600461285b565b610ace565b34801561040457600080fd5b5061041861041336600461290d565b610afd565b6040519015158152602001610244565b34801561043457600080fd5b5061044861044336600461285b565b610b08565b6040516001600160a01b039091168152602001610244565b34801561046c57600080fd5b50600c54610263565b34801561048157600080fd5b5061044861049036600461285b565b610b32565b610396610b42565b3480156104a957600080fd5b506104486104b836600461285b565b610c0e565b3480156104c957600080fd5b50610396610c1e565b3480156104de57600080fd5b506103966104ed366004612a5e565b610d29565b61039661050036600461290d565b610e9b565b34801561051157600080fd5b5061039661109b565b34801561052657600080fd5b5061026360065481565b34801561053c57600080fd5b5061026360035481565b34801561055257600080fd5b50600b54610263565b34801561056757600080fd5b5061026360015481565b34801561057d57600080fd5b5061059161058c36600461285b565b6110cf565b604080519485526020850193909352918301526060820152608001610244565b3480156105bd57600080fd5b50600554610448906001600160a01b031681565b3480156105dd57600080fd5b506103966105ec36600461292f565b611109565b3480156105fd57600080fd5b5061039661060c36600461285b565b61149e565b6103966114cd565b34801561062557600080fd5b5061063961063436600461285b565b61166a565b60405161024493929190612a80565b34801561065457600080fd5b50610263610663366004612a32565b61177a565b34801561067457600080fd5b5061068861068336600461285b565b6117c0565b604051610244929190612ab0565b3480156106a257600080fd5b5061026360025481565b3480156106b857600080fd5b506102636106c736600461285b565b611abc565b3480156106d857600080fd5b506103966106e736600461285b565b611aeb565b3480156106f857600080fd5b5061068861070736600461285b565b611b1a565b600d60205260009081526040902080546001820154600283015460038401805493946001600160a01b039093169391929161074690612b3b565b80601f016020809104026020016040519081016040528092919081815260200182805461077290612b3b565b80156107bf5780601f10610794576101008083540402835291602001916107bf565b820191906000526020600020905b8154815290600101906020018083116107a257829003601f168201915b5050505050905084565b600860205281600052604060002081815481106107e557600080fd5b6000918252602090912060029091020180546001909101546001600160a01b039091169250905082565b600480546000918261082083612b8b565b9091555060408051608081018252828152336020808301918252828401888152606084018881526000878152600d909352949091208351815591516001830180546001600160a01b0319166001600160a01b03909216919091179055516002820155915192935091829190600382019061089a9082612bf2565b50905050336001600160a01b0316827f43544249454f50e0dc1c9e9dffde127eea71ce2fda1546f3008684c5842b064086866040516108da929190612cb1565b60405180910390a350505050565b6000336001600160a01b038316146109525760405162461bcd60e51b815260206004820152602260248201527f4e6f7420617574686f72697a656420746f20766965772070726976617465206b604482015261657960f01b60648201526084015b60405180910390fd5b6009838154811061096557610965612cd2565b600091825260208083206001600160a01b03861684526006600790930201919091019052604090205490505b92915050565b3360008181526007602052604090205460ff166109c65760405162461bcd60e51b815260040161094990612ce8565b6006548214610a085760405162461bcd60e51b815260206004820152600e60248201526d0a4deeadcc840dad2e6dac2e8c6d60931b6044820152606401610949565b6000600960065481548110610a1f57610a1f612cd2565b600091825260208083203384526005600790930201918201905260409091205490915015610a8f5760405162461bcd60e51b815260206004820152601c60248201527f416c7265616479207375626d6974746564207075626c6963206b6579000000006044820152606401610949565b33600090815260076020908152604080832060030187905560058401909152812085905560028201805491610ac383612b8b565b919050555050505050565b6005546001600160a01b03163314610af85760405162461bcd60e51b815260040161094990612d1f565b600055565b600061099182611eb1565b600a8181548110610b1857600080fd5b6000918252602090912001546001600160a01b0316905081565b600c8181548110610b1857600080fd5b60003411610b925760405162461bcd60e51b815260206004820152601a60248201527f4d757374207374616b6520706f73697469766520616d6f756e740000000000006044820152606401610949565b33600090815260076020526040812060068101805491923492610bb6908490612d4b565b9250508190555034816005016000828254610bd19190612d4b565b909155505060405134815233907f9e71bc8eea02a63969f509818f2dafb9254532904319f9dbda79b67bd34a5f3d9060200160405180910390a250565b600b8181548110610b1857600080fd5b3360008181526007602052604090205460ff16610c4d5760405162461bcd60e51b815260040161094990612ce8565b3360009081526007602052604090206002015460ff16610ca15760405162461bcd60e51b815260206004820152600f60248201526e4e6f6465206e6f742061637469766560881b6044820152606401610949565b33600081815260076020526040808220600201805460ff19169055600b80546001810182559083527f0175b7a638427703f0dbe7bb9bbf987a2551717b34e79f33b5b1008d1fa01db90180546001600160a01b0319168417905560065490519092917ff3b3804c8980704269949cfccce1da14f0033d4a01846643aaec07b77e01e43791a350565b3360008181526007602052604090205460ff16610d585760405162461bcd60e51b815260040161094990612ce8565b6006548214610d9a5760405162461bcd60e51b815260206004820152600e60248201526d0a4deeadcc840dad2e6dac2e8c6d60931b6044820152606401610949565b6000600960065481548110610db157610db1612cd2565b600091825260208083203384526006600790930201918201905260409091205490915015610e215760405162461bcd60e51b815260206004820152601d60248201527f416c7265616479207375626d69747465642070726976617465206b65790000006044820152606401610949565b8060010154421115610e675760405162461bcd60e51b815260206004820152600f60248201526e149bdd5b99081d1a5b5959081bdd5d608a1b6044820152606401610949565b33600090815260076020908152604080832060040187905560068401909152812085905560038201805491610ac383612b8b565b60003411610eeb5760405162461bcd60e51b815260206004820152601d60248201527f4d7573742064656c656761746520706f73697469766520616d6f756e740000006044820152606401610949565b6001600160a01b038116600090815260076020526040812060058101805491923492610f18908490612d4b565b9091555060009050805b6001600160a01b038416600090815260086020526040902054811015610ff2576001600160a01b0384166000908152600860205260409020805433919083908110610f6f57610f6f612cd2565b60009182526020909120600290910201546001600160a01b031603610fea576001600160a01b0384166000908152600860205260409020805434919083908110610fbb57610fbb612cd2565b90600052602060002090600202016001016000828254610fdb9190612d4b565b9091555060019250610ff29050565b600101610f22565b5080611056576040805180820182523381523460208083019182526001600160a01b03878116600090815260088352948520805460018082018355918752929095209351600290920290930180546001600160a01b03191691909316178255519101555b6040513481526001600160a01b0384169033907fe5541a6b6103d4fa7e021ed54fad39c66f27a76bd13d374cf6240ae6bd0bb72b9060200160405180910390a3505050565b6005546001600160a01b031633146110c55760405162461bcd60e51b815260040161094990612d1f565b6110cd611f10565b565b600981815481106110df57600080fd5b60009182526020909120600790910201805460018201546002830154600390930154919350919084565b6001600160a01b0382166000908152600760205260408120815b6001600160a01b038516600090815260086020526040902054811015611413576001600160a01b038516600090815260086020526040902080543391908390811061117057611170612cd2565b60009182526020909120600290910201546001600160a01b03160361140b576001600160a01b0385166000908152600860205260409020805460019450829081106111bd576111bd612cd2565b9060005260206000209060020201600101548411156112305760405162461bcd60e51b815260206004820152602960248201527f416d6f756e7420746f207265766f6b6520657863656564732064656c65676174604482015268195908185b5bdd5b9d60ba1b6064820152608401610949565b6001600160a01b038516600090815260086020526040902080548591908390811061125d5761125d612cd2565b9060005260206000209060020201600101600082825461127d9190612d5e565b92505081905550838260050160008282546112989190612d5e565b9091555050604051339085156108fc029086906000818181858888f193505050501580156112ca573d6000803e3d6000fd5b506001600160a01b03851660009081526008602052604090208054829081106112f5576112f5612cd2565b906000526020600020906002020160010154600003611406576001600160a01b0385166000908152600860205260409020805461133490600190612d5e565b8154811061134457611344612cd2565b906000526020600020906002020160086000876001600160a01b03166001600160a01b03168152602001908152602001600020828154811061138857611388612cd2565b60009182526020808320845460029093020180546001600160a01b0319166001600160a01b03938416178155600194850154940193909355871681526008909152604090208054806113dc576113dc612d71565b60008281526020812060026000199093019283020180546001600160a01b03191681556001015590555b611413565b600101611123565b50816114615760405162461bcd60e51b815260206004820152601a60248201527f4e6f2064656c65676174696f6e207265636f726420666f756e640000000000006044820152606401610949565b6040518381526001600160a01b0385169033907f315eeabd37f0e4fa7271d8aced9dd94fe444aeaf5d2722d3a6a7a4a7a74a4523906020016108da565b6005546001600160a01b031633146114c85760405162461bcd60e51b815260040161094990612d1f565b600255565b3360009081526007602052604090205460ff161561152d5760405162461bcd60e51b815260206004820152601b60248201527f416c72656164792061207065726d697373696f6e6564206e6f646500000000006044820152606401610949565b6002543410156115725760405162461bcd60e51b815260206004820152601060248201526f11195c1bdcda5d081c995c5d5a5c995960821b6044820152606401610949565b6040805160e0810182526000808252346020808401918252838501838152606085018481526080860185815260a0870186815260c088018781523380895260079096528988209851895490151560ff19918216178a55965160018a810191909155945160028a0180549115159190981617909655915160038801555160048701555160058601559151600694850155600a8054928301815583527fc65a7bb8d6351c1cf70c95a316cc6a92839c986682d98bc35f958f4883f9d2a890910180546001600160a01b03191682179055915492517f02b752a11416483894ccba29da0e71c4bee394b901144812c44d2a7e7d6c7ead9190a3565b600080606060045484106116b65760405162461bcd60e51b8152602060048201526013602482015272125b9d985b1a59081c1c9bdc1bdcd85b081251606a1b6044820152606401610949565b6000848152600d6020526040902060018101546002820154600390920180546001600160a01b03909216929181906116ed90612b3b565b80601f016020809104026020016040519081016040528092919081815260200182805461171990612b3b565b80156117665780601f1061173b57610100808354040283529160200191611766565b820191906000526020600020905b81548152906001019060200180831161174957829003601f168201915b505050505090509250925092509193909250565b60006009838154811061178f5761178f612cd2565b600091825260208083206001600160a01b038616845260056007909302019190910190526040902054905092915050565b33600081815260076020526040902054606091829160ff166117f45760405162461bcd60e51b815260040161094990612ce8565b60006009858154811061180957611809612cd2565b90600052602060002090600702016003015467ffffffffffffffff81111561183357611833612959565b60405190808252806020026020018201604052801561185c578160200160208202803683370190505b50905060006009868154811061187457611874612cd2565b90600052602060002090600702016003015467ffffffffffffffff81111561189e5761189e612959565b6040519080825280602002602001820160405280156118c7578160200160208202803683370190505b50905060005b600987815481106118e0576118e0612cd2565b906000526020600020906007020160030154811015611ab0576000801b6009888154811061191057611910612cd2565b9060005260206000209060070201600601600060098a8154811061193657611936612cd2565b9060005260206000209060070201600401848154811061195857611958612cd2565b60009182526020808320909101546001600160a01b0316835282019290925260400190205414611aa8576009878154811061199557611995612cd2565b90600052602060002090600702016006016000600989815481106119bb576119bb612cd2565b906000526020600020906007020160040183815481106119dd576119dd612cd2565b60009182526020808320909101546001600160a01b031683528201929092526040019020548351849083908110611a1657611a16612cd2565b60200260200101818152505060098781548110611a3557611a35612cd2565b90600052602060002090600702016004018181548110611a5757611a57612cd2565b9060005260206000200160009054906101000a90046001600160a01b0316828281518110611a8757611a87612cd2565b60200260200101906001600160a01b031690816001600160a01b0316815250505b6001016118cd565b50909350915050915091565b600060098281548110611ad157611ad1612cd2565b600091825260209091206004600790920201015492915050565b6005546001600160a01b03163314611b155760405162461bcd60e51b815260040161094990612d1f565b600155565b33600081815260076020526040902054606091829160ff16611b4e5760405162461bcd60e51b815260040161094990612ce8565b60098481548110611b6157611b61612cd2565b90600052602060002090600702016004018054905060098581548110611b8957611b89612cd2565b9060005260206000209060070201600201546002611ba79190612d87565b1015611bf55760405162461bcd60e51b815260206004820152601860248201527f4e6f207075626c6963206b65797320636f6c6c656374656400000000000000006044820152606401610949565b600060098581548110611c0a57611c0a612cd2565b90600052602060002090600702016002015467ffffffffffffffff811115611c3457611c34612959565b604051908082528060200260200182016040528015611c5d578160200160208202803683370190505b509050600060098681548110611c7557611c75612cd2565b90600052602060002090600702016002015467ffffffffffffffff811115611c9f57611c9f612959565b604051908082528060200260200182016040528015611cc8578160200160208202803683370190505b50905060005b60098781548110611ce157611ce1612cd2565b906000526020600020906007020160020154811015611ab0576000801b60098881548110611d1157611d11612cd2565b9060005260206000209060070201600501600060098a81548110611d3757611d37612cd2565b90600052602060002090600702016004018481548110611d5957611d59612cd2565b60009182526020808320909101546001600160a01b0316835282019290925260400190205414611ea95760098781548110611d9657611d96612cd2565b9060005260206000209060070201600501600060098981548110611dbc57611dbc612cd2565b90600052602060002090600702016004018381548110611dde57611dde612cd2565b60009182526020808320909101546001600160a01b031683528201929092526040019020548351849083908110611e1757611e17612cd2565b60200260200101818152505060098781548110611e3657611e36612cd2565b90600052602060002090600702016004018181548110611e5857611e58612cd2565b9060005260206000200160009054906101000a90046001600160a01b0316828281518110611e8857611e88612cd2565b60200260200101906001600160a01b031690816001600160a01b0316815250505b600101611cce565b6000805b600c54811015611f0757826001600160a01b0316600c8281548110611edc57611edc612cd2565b6000918252602090912001546001600160a01b031603611eff5750600192915050565b600101611eb5565b50600092915050565b6001544390600090611f229042612d4b565b6009805460018181018355600083905260079091027f6e1540171b6c0c960b71a7020d9f60077f6af931a8bbf590da0223dacf75c7af81018681557f6e1540171b6c0c960b71a7020d9f60077f6af931a8bbf590da0223dacf75c7b090910184905591549293509091611f959190612d5e565b600655611fa0611fa5565b505050565b600654600003611fb157565b600b54156122115760005b600b54811015612204576000600b8281548110611fdb57611fdb612cd2565b6000918252602090912001546001600160a01b03169050611ffb81611eb1565b156121fb576001600160a01b0381166000818152600760209081526040808320805460ff199081168255600290910180549091169055519182527f763b63b30e91c843bb39e4379603697003d3b7c1f192619cd782fa33bdc44396910160405180910390a26001600160a01b0381166000908152600760205260408120600681015460019091015461208d9190612d4b565b6001600160a01b038316600081815260076020526040808220600181018390556005810183905560060182905551929350909183156108fc0291849190818181858888f193505050501580156120e7573d6000803e3d6000fd5b5060005b6001600160a01b0383166000908152600860205260409020548110156121f8576001600160a01b038316600090815260086020526040812080548390811061213557612135612cd2565b60009182526020808320604080518082018252600290940290910180546001600160a01b031680855260019091015492840185905290519294509092909183156108fc0291849190818181858888f1935050505015801561219a573d6000803e3d6000fd5b506001600160a01b03851660009081526008602052604090208054849081106121c5576121c5612cd2565b60009182526020822060029091020180546001600160a01b03191681556001908101919091559290920191506120eb9050565b50505b50600101611fbc565b50612211600b6000612780565b600a54600c5460009161222391612d4b565b67ffffffffffffffff81111561223b5761223b612959565b604051908082528060200260200182016040528015612264578160200160208202803683370190505b5090506000805b600c548110156123275760076000600c838154811061228c5761228c612cd2565b60009182526020808320909101546001600160a01b0316835282019290925260400190205460ff161561231f57600c81815481106122cc576122cc612cd2565b6000918252602090912001546001600160a01b031683836122ec81612b8b565b9450815181106122fe576122fe612cd2565b60200260200101906001600160a01b031690816001600160a01b0316815250505b60010161226b565b5060005b600a5481101561239a57600a818154811061234857612348612cd2565b6000918252602090912001546001600160a01b0316838361236881612b8b565b94508151811061237a5761237a612cd2565b6001600160a01b039092166020928302919091019091015260010161232b565b5060005b6123a9600183612d5e565b8110156125025760006123bd826001612d4b565b90505b828110156124f957600760008584815181106123de576123de612cd2565b60200260200101516001600160a01b03166001600160a01b03168152602001908152602001600020600501546007600086848151811061242057612420612cd2565b60200260200101516001600160a01b03166001600160a01b031681526020019081526020016000206005015411156124f157600084838151811061246657612466612cd2565b6020026020010151905084828151811061248257612482612cd2565b602002602001015185848151811061249c5761249c612cd2565b60200260200101906001600160a01b031690816001600160a01b031681525050808583815181106124cf576124cf612cd2565b60200260200101906001600160a01b031690816001600160a01b031681525050505b6001016123c0565b5060010161239e565b5061250f600c6000612780565b61251b600a6000612780565b60005b818110801561252e575060035481105b1561265d57600083828151811061254757612547612cd2565b602090810291909101810151600c8054600181019091557fdf6966c971051c3d54ec59162606531493a51404a002842f56009d7e5cf4a8c70180546001600160a01b0319166001600160a01b0383169081179091556000908152600790925260409091205490915060ff161580156125dc57506002546001600160a01b03821660009081526007602052604090206001015410155b1561264a576001600160a01b0381166000818152600760209081526040918290208054600160ff1991821681178355600290920180549091168217905591519182527f763b63b30e91c843bb39e4379603697003d3b7c1f192619cd782fa33bdc44396910160405180910390a25b508061265581612b8b565b91505061251e565b5060035481111561273f576000600354826126789190612d5e565b67ffffffffffffffff81111561269057612690612959565b6040519080825280602002602001820160405280156126b9578160200160208202803683370190505b506003549091505b828110156127285760008482815181106126dd576126dd612cd2565b602002602001015190508083600354846126f79190612d5e565b8151811061270757612707612cd2565b6001600160a01b0390921660209283029190910190910152506001016126c1565b50805161273c90600a9060208401906127a1565b50505b600060096006548154811061275657612756612cd2565b90600052602060002090600702019050600c8160040190805461277a929190612806565b50505050565b508054600082559060005260206000209081019061279e9190612846565b50565b8280548282559060005260206000209081019282156127f6579160200282015b828111156127f657825182546001600160a01b0319166001600160a01b039091161782556020909201916001909101906127c1565b50612802929150612846565b5090565b8280548282559060005260206000209081019282156127f65760005260206000209182015b828111156127f657825482559160010191906001019061282b565b5b808211156128025760008155600101612847565b60006020828403121561286d57600080fd5b5035919050565b6000815180845260005b8181101561289a5760208185018101518683018201520161287e565b506000602082860101526020601f19601f83011685010191505092915050565b84815260018060a01b03841660208201528260408201526080606082015260006128e76080830184612874565b9695505050505050565b80356001600160a01b038116811461290857600080fd5b919050565b60006020828403121561291f57600080fd5b612928826128f1565b9392505050565b6000806040838503121561294257600080fd5b61294b836128f1565b946020939093013593505050565b634e487b7160e01b600052604160045260246000fd5b6000806040838503121561298257600080fd5b82359150602083013567ffffffffffffffff8111156129a057600080fd5b8301601f810185136129b157600080fd5b803567ffffffffffffffff8111156129cb576129cb612959565b604051601f8201601f19908116603f0116810167ffffffffffffffff811182821017156129fa576129fa612959565b604052818152828201602001871015612a1257600080fd5b816020840160208301376000602083830101528093505050509250929050565b60008060408385031215612a4557600080fd5b82359150612a55602084016128f1565b90509250929050565b60008060408385031215612a7157600080fd5b50508035926020909101359150565b60018060a01b0384168152826020820152606060408201526000612aa76060830184612874565b95945050505050565b6040808252835190820181905260009060208501906060840190835b81811015612aea578351835260209384019390920191600101612acc565b50508381036020808601919091528551808352918101925085019060005b81811015612b2f5782516001600160a01b0316845260209384019390920191600101612b08565b50919695505050505050565b600181811c90821680612b4f57607f821691505b602082108103612b6f57634e487b7160e01b600052602260045260246000fd5b50919050565b634e487b7160e01b600052601160045260246000fd5b600060018201612b9d57612b9d612b75565b5060010190565b601f821115611fa057806000526020600020601f840160051c81016020851015612bcb5750805b601f840160051c820191505b81811015612beb5760008155600101612bd7565b5050505050565b815167ffffffffffffffff811115612c0c57612c0c612959565b612c2081612c1a8454612b3b565b84612ba4565b6020601f821160018114612c545760008315612c3c5750848201515b600019600385901b1c1916600184901b178455612beb565b600084815260208120601f198516915b82811015612c845787850151825560209485019460019092019101612c64565b5084821015612ca25786840151600019600387901b60f8161c191681555b50505050600190811b01905550565b828152604060208201526000612cca6040830184612874565b949350505050565b634e487b7160e01b600052603260045260246000fd5b60208082526017908201527f4e6f742061207065726d697373696f6e6564206e6f6465000000000000000000604082015260600190565b6020808252601290820152712737ba1031b7b73a3930b1ba1037bbb732b960711b604082015260600190565b8082018082111561099157610991612b75565b8181038181111561099157610991612b75565b634e487b7160e01b600052603160045260246000fd5b808202811582820484141761099157610991612b7556fea2646970667358221220cf76bf9d0e15c4e20b8dbabec502ccdd01c7a0579aee47f9be11b67a425374c664736f6c634300081b0033763b63b30e91c843bb39e4379603697003d3b7c1f192619cd782fa33bdc44396",
  "linkReferences": {},
  "deployedLinkReferences": {}
}