{
  "_format": "hh-sol-artifact-1",
  "contractName": "PermissionManagerV2",
  "sourceName": "contracts/PermissionMgrV2.sol",
  "abi": [
    {
      "inputs": [
        {
          "internalType": "uint256",
          "name": "_roundBlocks",
          "type": "uint256"
        },
        {
          "internalType": "uint256",
          "name": "_roundTimeout",
          "type": "uint256"
        },
        {
          "internalType": "uint256",
          "name": "_minDeposit",
          "type": "uint256"
        },
        {
          "internalType": "uint256",
          "name": "_maxValidators",
          "type": "uint256"
        }
      ],
      "stateMutability": "nonpayable",
      "type": "constructor"
    },
    {
      "anonymous": false,
      "inputs": [
        {
          "indexed": true,
          "internalType": "address",
          "name": "delegator",
          "type": "address"
        },
        {
          "indexed": true,
          "internalType": "address",
          "name": "validator",
          "type": "address"
        },
        {
          "indexed": false,
          "internalType": "uint256",
          "name": "amount",
          "type": "uint256"
        }
      ],
      "name": "Delegated",
      "type": "event"
    },
    {
      "anonymous": false,
      "inputs": [
        {
          "indexed": true,
          "internalType": "address",
          "name": "node",
          "type": "address"
        },
        {
          "indexed": true,
          "internalType": "uint256",
          "name": "roundIndex",
          "type": "uint256"
        }
      ],
      "name": "NodeElectionProposed",
      "type": "event"
    },
    {
      "anonymous": false,
      "inputs": [
        {
          "indexed": true,
          "internalType": "address",
          "name": "node",
          "type": "address"
        },
        {
          "indexed": true,
          "internalType": "uint256",
          "name": "roundIndex",
          "type": "uint256"
        }
      ],
      "name": "NodeLeaveProposed",
      "type": "event"
    },
    {
      "anonymous": false,
      "inputs": [
        {
          "indexed": true,
          "internalType": "address",
          "name": "delegator",
          "type": "address"
        },
        {
          "indexed": true,
          "internalType": "address",
          "name": "valildator",
          "type": "address"
        },
        {
          "indexed": false,
          "internalType": "uint256",
          "name": "amounToRevoke",
          "type": "uint256"
        }
      ],
      "name": "RevokeDelegated",
      "type": "event"
    },
    {
      "anonymous": false,
      "inputs": [
        {
          "indexed": true,
          "internalType": "address",
          "name": "staker",
          "type": "address"
        },
        {
          "indexed": false,
          "internalType": "uint256",
          "name": "amount",
          "type": "uint256"
        }
      ],
      "name": "Staked",
      "type": "event"
    },
    {
      "anonymous": false,
      "inputs": [
        {
          "indexed": true,
          "internalType": "uint256",
          "name": "roundIndex",
          "type": "uint256"
        },
        {
          "indexed": false,
          "internalType": "bytes32[]",
          "name": "publicKeys",
          "type": "bytes32[]"
        },
        {
          "indexed": false,
          "internalType": "address[]",
          "name": "participants",
          "type": "address[]"
        }
      ],
      "name": "SystemPublicKeyGenerated",
      "type": "event"
    },
    {
      "anonymous": false,
      "inputs": [
        {
          "indexed": true,
          "internalType": "address",
          "name": "node",
          "type": "address"
        },
        {
          "indexed": false,
          "internalType": "uint256",
          "name": "amount",
          "type": "uint256"
        },
        {
          "indexed": false,
          "internalType": "uint256",
          "name": "gasUsed",
          "type": "uint256"
        }
      ],
      "name": "TransferGasUsed",
      "type": "event"
    },
    {
      "anonymous": false,
      "inputs": [
        {
          "indexed": true,
          "internalType": "address",
          "name": "validator",
          "type": "address"
        },
        {
          "indexed": false,
          "internalType": "bool",
          "name": "added",
          "type": "bool"
        }
      ],
      "name": "ValidatorUpdated",
      "type": "event"
    },
    {
      "inputs": [],
      "name": "MAX_VALIDATORS",
      "outputs": [
        {
          "internalType": "uint256",
          "name": "",
          "type": "uint256"
        }
      ],
      "stateMutability": "view",
      "type": "function"
    },
    {
      "inputs": [],
      "name": "MIN_DEPOSIT",
      "outputs": [
        {
          "internalType": "uint256",
          "name": "",
          "type": "uint256"
        }
      ],
      "stateMutability": "view",
      "type": "function"
    },
    {
      "inputs": [],
      "name": "ROUND_BLOCKS",
      "outputs": [
        {
          "internalType": "uint256",
          "name": "",
          "type": "uint256"
        }
      ],
      "stateMutability": "view",
      "type": "function"
    },
    {
      "inputs": [],
      "name": "ROUND_TIMEOUT",
      "outputs": [
        {
          "internalType": "uint256",
          "name": "",
          "type": "uint256"
        }
      ],
      "stateMutability": "view",
      "type": "function"
    },
    {
      "inputs": [
        {
          "internalType": "uint256",
          "name": "",
          "type": "uint256"
        }
      ],
      "name": "candidates",
      "outputs": [
        {
          "internalType": "address",
          "name": "",
          "type": "address"
        }
      ],
      "stateMutability": "view",
      "type": "function"
    },
    {
      "inputs": [],
      "name": "currentRoundIndex",
      "outputs": [
        {
          "internalType": "uint256",
          "name": "",
          "type": "uint256"
        }
      ],
      "stateMutability": "view",
      "type": "function"
    },
    {
      "inputs": [
        {
          "internalType": "address",
          "name": "validator",
          "type": "address"
        }
      ],
      "name": "delegate",
      "outputs": [],
      "stateMutability": "payable",
      "type": "function"
    },
    {
      "inputs": [
        {
          "internalType": "address",
          "name": "",
          "type": "address"
        },
        {
          "internalType": "uint256",
          "name": "",
          "type": "uint256"
        }
      ],
      "name": "delegations",
      "outputs": [
        {
          "internalType": "address",
          "name": "delegator",
          "type": "address"
        },
        {
          "internalType": "uint256",
          "name": "amount",
          "type": "uint256"
        }
      ],
      "stateMutability": "view",
      "type": "function"
    },
    {
      "inputs": [
        {
          "internalType": "uint256",
          "name": "_round",
          "type": "uint256"
        }
      ],
      "name": "getActiveNodeNum",
      "outputs": [
        {
          "internalType": "uint256",
          "name": "",
          "type": "uint256"
        }
      ],
      "stateMutability": "view",
      "type": "function"
    },
    {
      "inputs": [],
      "name": "getCandidatesNum",
      "outputs": [
        {
          "internalType": "uint256",
          "name": "",
          "type": "uint256"
        }
      ],
      "stateMutability": "view",
      "type": "function"
    },
    {
      "inputs": [],
      "name": "getLeavingNodeNum",
      "outputs": [
        {
          "internalType": "uint256",
          "name": "",
          "type": "uint256"
        }
      ],
      "stateMutability": "view",
      "type": "function"
    },
    {
      "inputs": [
        {
          "internalType": "uint256",
          "name": "_round",
          "type": "uint256"
        },
        {
          "internalType": "address",
          "name": "_node",
          "type": "address"
        }
      ],
      "name": "getRoundPublicKey",
      "outputs": [
        {
          "internalType": "bytes32",
          "name": "",
          "type": "bytes32"
        }
      ],
      "stateMutability": "view",
      "type": "function"
    },
    {
      "inputs": [
        {
          "internalType": "uint256",
          "name": "_round",
          "type": "uint256"
        }
      ],
      "name": "getSystemPublicKey",
      "outputs": [
        {
          "internalType": "bytes32[]",
          "name": "",
          "type": "bytes32[]"
        },
        {
          "internalType": "address[]",
          "name": "",
          "type": "address[]"
        }
      ],
      "stateMutability": "view",
      "type": "function"
    },
    {
      "inputs": [],
      "name": "getValidatorsNum",
      "outputs": [
        {
          "internalType": "uint256",
          "name": "",
          "type": "uint256"
        }
      ],
      "stateMutability": "view",
      "type": "function"
    },
    {
      "inputs": [
        {
          "internalType": "uint256",
          "name": "",
          "type": "uint256"
        }
      ],
      "name": "leavingNodes",
      "outputs": [
        {
          "internalType": "address",
          "name": "",
          "type": "address"
        }
      ],
      "stateMutability": "view",
      "type": "function"
    },
    {
      "inputs": [
        {
          "internalType": "address",
          "name": "",
          "type": "address"
        }
      ],
      "name": "nodes",
      "outputs": [
        {
          "internalType": "bool",
          "name": "isPermissioned",
          "type": "bool"
        },
        {
          "internalType": "uint256",
          "name": "deposit",
          "type": "uint256"
        },
        {
          "internalType": "bool",
          "name": "active",
          "type": "bool"
        },
        {
          "internalType": "bytes32",
          "name": "publicKey",
          "type": "bytes32"
        },
        {
          "internalType": "uint256",
          "name": "totalStake",
          "type": "uint256"
        },
        {
          "internalType": "uint256",
          "name": "selfStake",
          "type": "uint256"
        }
      ],
      "stateMutability": "view",
      "type": "function"
    },
    {
      "inputs": [],
      "name": "owner",
      "outputs": [
        {
          "internalType": "address",
          "name": "",
          "type": "address"
        }
      ],
      "stateMutability": "view",
      "type": "function"
    },
    {
      "inputs": [],
      "name": "proposeElection",
      "outputs": [],
      "stateMutability": "payable",
      "type": "function"
    },
    {
      "inputs": [],
      "name": "proposeLeave",
      "outputs": [],
      "stateMutability": "nonpayable",
      "type": "function"
    },
    {
      "inputs": [
        {
          "internalType": "address",
          "name": "delegator",
          "type": "address"
        },
        {
          "internalType": "uint256",
          "name": "amountToRevoke",
          "type": "uint256"
        }
      ],
      "name": "revokeDelegation",
      "outputs": [],
      "stateMutability": "nonpayable",
      "type": "function"
    },
    {
      "inputs": [
        {
          "internalType": "uint256",
          "name": "",
          "type": "uint256"
        }
      ],
      "name": "rounds",
      "outputs": [
        {
          "internalType": "uint256",
          "name": "startBlock",
          "type": "uint256"
        },
        {
          "internalType": "uint256",
          "name": "timeout",
          "type": "uint256"
        },
        {
          "internalType": "uint256",
          "name": "publicKeyCount",
          "type": "uint256"
        },
        {
          "internalType": "bool",
          "name": "isGenerated",
          "type": "bool"
        }
      ],
      "stateMutability": "view",
      "type": "function"
    },
    {
      "inputs": [
        {
          "internalType": "uint256",
          "name": "_minDeposit",
          "type": "uint256"
        }
      ],
      "name": "setMinDeposit",
      "outputs": [],
      "stateMutability": "nonpayable",
      "type": "function"
    },
    {
      "inputs": [
        {
          "internalType": "uint256",
          "name": "_roundBlocks",
          "type": "uint256"
        }
      ],
      "name": "setRoundBlocks",
      "outputs": [],
      "stateMutability": "nonpayable",
      "type": "function"
    },
    {
      "inputs": [
        {
          "internalType": "uint256",
          "name": "_roundTimeout",
          "type": "uint256"
        }
      ],
      "name": "setRoundTimeout",
      "outputs": [],
      "stateMutability": "nonpayable",
      "type": "function"
    },
    {
      "inputs": [],
      "name": "stake",
      "outputs": [],
      "stateMutability": "payable",
      "type": "function"
    },
    {
      "inputs": [],
      "name": "startElection",
      "outputs": [],
      "stateMutability": "nonpayable",
      "type": "function"
    },
    {
      "inputs": [
        {
          "internalType": "bytes32",
          "name": "_pubKey",
          "type": "bytes32"
        },
        {
          "internalType": "bytes",
          "name": "_signature",
          "type": "bytes"
        },
        {
          "internalType": "uint256",
          "name": "_round",
          "type": "uint256"
        }
      ],
      "name": "submitPubKey",
      "outputs": [],
      "stateMutability": "nonpayable",
      "type": "function"
    },
    {
      "inputs": [
        {
          "internalType": "uint256",
          "name": "",
          "type": "uint256"
        }
      ],
      "name": "validators",
      "outputs": [
        {
          "internalType": "address",
          "name": "",
          "type": "address"
        }
      ],
      "stateMutability": "view",
      "type": "function"
    }
  ],
  "bytecode": "0x6080604052600060055534801561001557600080fd5b50604051612e95380380612e95833981016040819052610034916109ef565b600480546001600160a01b03191633179055600084905560018390556002829055600381905561006261006b565b50505050610aac565b600154439060009061007d9042610a3b565b6008805460018181018355600083905260069091027ff3f7a9fe364faab93b216da50a3214154f22a0a2b415b23a84c8169e8b636ee381018681557ff3f7a9fe364faab93b216da50a3214154f22a0a2b415b23a84c8169e8b636ee4909101849055915492935090916100f09190610a54565b6005556100fb610100565b505050565b60055460000361010c57565b600a541561035a5760005b600a5481101561034d576000600a828154811061013657610136610a67565b6000918252602090912001546001600160a01b03169050610156816108b5565b15610344576001600160a01b0381166000818152600660209081526040808320805460ff19908116825560029091018054909116905551918252600080516020612e75833981519152910160405180910390a26001600160a01b038116600090815260066020526040812060058101546001909101546101d69190610a3b565b6001600160a01b038316600081815260066020526040808220600181018390556004810183905560050182905551929350909183156108fc0291849190818181858888f19350505050158015610230573d6000803e3d6000fd5b5060005b6001600160a01b038316600090815260076020526040902054811015610341576001600160a01b038316600090815260076020526040812080548390811061027e5761027e610a67565b60009182526020808320604080518082018252600290940290910180546001600160a01b031680855260019091015492840185905290519294509092909183156108fc0291849190818181858888f193505050501580156102e3573d6000803e3d6000fd5b506001600160a01b038516600090815260076020526040902080548490811061030e5761030e610a67565b60009182526020822060029091020180546001600160a01b03191681556001908101919091559290920191506102349050565b50505b50600101610117565b5061035a600a6000610914565b600954600b5460009161036c91610a3b565b6001600160401b0381111561038357610383610a7d565b6040519080825280602002602001820160405280156103ac578160200160208202803683370190505b5090506000805b600b5481101561046f5760066000600b83815481106103d4576103d4610a67565b60009182526020808320909101546001600160a01b0316835282019290925260400190205460ff161561046757600b818154811061041457610414610a67565b6000918252602090912001546001600160a01b0316838361043481610a93565b94508151811061044657610446610a67565b60200260200101906001600160a01b031690816001600160a01b0316815250505b6001016103b3565b5060005b6009548110156104e2576009818154811061049057610490610a67565b6000918252602090912001546001600160a01b031683836104b081610a93565b9450815181106104c2576104c2610a67565b6001600160a01b0390921660209283029190910190910152600101610473565b5060005b6104f1600183610a54565b81101561064a576000610505826001610a3b565b90505b82811015610641576006600085848151811061052657610526610a67565b60200260200101516001600160a01b03166001600160a01b03168152602001908152602001600020600401546006600086848151811061056857610568610a67565b60200260200101516001600160a01b03166001600160a01b031681526020019081526020016000206004015411156106395760008483815181106105ae576105ae610a67565b602002602001015190508482815181106105ca576105ca610a67565b60200260200101518584815181106105e4576105e4610a67565b60200260200101906001600160a01b031690816001600160a01b0316815250508085838151811061061757610617610a67565b60200260200101906001600160a01b031690816001600160a01b031681525050505b600101610508565b506001016104e6565b50610657600b6000610914565b61066360096000610914565b60005b8181108015610676575060035481105b1561079357600083828151811061068f5761068f610a67565b602090810291909101810151600b8054600181019091557f0175b7a638427703f0dbe7bb9bbf987a2551717b34e79f33b5b1008d1fa01db90180546001600160a01b0319166001600160a01b0383169081179091556000908152600690925260409091205490915060ff1615801561072457506002546001600160a01b03821660009081526006602052604090206001015410155b15610780576001600160a01b0381166000818152600660209081526040918290208054600160ff199182168117835560029092018054909116821790559151918252600080516020612e75833981519152910160405180910390a25b508061078b81610a93565b915050610666565b50600354811115610874576000600354826107ae9190610a54565b6001600160401b038111156107c5576107c5610a7d565b6040519080825280602002602001820160405280156107ee578160200160208202803683370190505b506003549091505b8281101561085d57600084828151811061081257610812610a67565b6020026020010151905080836003548461082c9190610a54565b8151811061083c5761083c610a67565b6001600160a01b0390921660209283029190910190910152506001016107f6565b508051610871906009906020840190610935565b50505b600060086005548154811061088b5761088b610a67565b90600052602060002090600602019050600b816003019080546108af92919061099a565b50505050565b6000805b600b5481101561090b57826001600160a01b0316600b82815481106108e0576108e0610a67565b6000918252602090912001546001600160a01b0316036109035750600192915050565b6001016108b9565b50600092915050565b508054600082559060005260206000209081019061093291906109da565b50565b82805482825590600052602060002090810192821561098a579160200282015b8281111561098a57825182546001600160a01b0319166001600160a01b03909116178255602090920191600190910190610955565b506109969291506109da565b5090565b82805482825590600052602060002090810192821561098a5760005260206000209182015b8281111561098a5782548255916001019190600101906109bf565b5b8082111561099657600081556001016109db565b60008060008060808587031215610a0557600080fd5b505082516020840151604085015160609095015191969095509092509050565b634e487b7160e01b600052601160045260246000fd5b80820180821115610a4e57610a4e610a25565b92915050565b81810381811115610a4e57610a4e610a25565b634e487b7160e01b600052603260045260246000fd5b634e487b7160e01b600052604160045260246000fd5b600060018201610aa557610aa5610a25565b5060010190565b6123ba80610abb6000396000f3fe6080604052600436106101b75760003560e01c8063714897df116100ec57806399fd2f021161008a578063e1e158a511610064578063e1e158a5146104f9578063ec8f2c3f1461050f578063ed7ab4651461052f578063f1ec444f1461054f57600080fd5b806399fd2f02146104b1578063c4caebad146104b9578063d6dc40e9146104d957600080fd5b80638c65c81f116100c65780638c65c81f1461040f5780638da5cb5b146104515780638ed0a195146104715780638fcc9cfb1461049157600080fd5b8063714897df146103ce578063731cb2ce146103e457806375a2b6ca146103f957600080fd5b806335aa2e44116101595780635561a1e5116101335780635561a1e51461037b5780635c19a95c1461039057806362d73eb8146103a35780636896ef4b146103b857600080fd5b806335aa2e44146103335780633a4b66f11461035357806341a7960f1461035b57600080fd5b8063223fae0911610195578063223fae091461028557806332be0b74146102c45780633477ee2e146102e657806334ba3c1b1461031e57600080fd5b8063189a5a17146101bc5780631f23b03e1461024c5780632194741814610270575b600080fd5b3480156101c857600080fd5b506102126101d736600461208a565b60066020526000908152604090208054600182015460028301546003840154600485015460059095015460ff94851695939490921692909186565b6040805196151587526020870195909552921515938501939093526060840152608083019190915260a082015260c0015b60405180910390f35b34801561025857600080fd5b5061026260005481565b604051908152602001610243565b34801561027c57600080fd5b50600954610262565b34801561029157600080fd5b506102a56102a03660046120ac565b61057d565b604080516001600160a01b039093168352602083019190915201610243565b3480156102d057600080fd5b506102e46102df3660046120d6565b6105c3565b005b3480156102f257600080fd5b506103066103013660046120d6565b6105fb565b6040516001600160a01b039091168152602001610243565b34801561032a57600080fd5b50600b54610262565b34801561033f57600080fd5b5061030661034e3660046120d6565b610625565b6102e4610635565b34801561036757600080fd5b506103066103763660046120d6565b610701565b34801561038757600080fd5b506102e4610711565b6102e461039e36600461208a565b61081c565b3480156103af57600080fd5b506102e4610a1c565b3480156103c457600080fd5b5061026260055481565b3480156103da57600080fd5b5061026260035481565b3480156103f057600080fd5b50600a54610262565b34801561040557600080fd5b5061026260015481565b34801561041b57600080fd5b5061042f61042a3660046120d6565b610ac6565b6040805194855260208501939093529183015215156060820152608001610243565b34801561045d57600080fd5b50600454610306906001600160a01b031681565b34801561047d57600080fd5b506102e461048c3660046120ac565b610b03565b34801561049d57600080fd5b506102e46104ac3660046120d6565b610ea1565b6102e4610ed0565b3480156104c557600080fd5b506102626104d43660046120ef565b611060565b3480156104e557600080fd5b506102e46104f4366004612131565b6110a7565b34801561050557600080fd5b5061026260025481565b34801561051b57600080fd5b5061026261052a3660046120d6565b611246565b34801561053b57600080fd5b506102e461054a3660046120d6565b611275565b34801561055b57600080fd5b5061056f61056a3660046120d6565b6112a4565b6040516102439291906121fe565b6007602052816000526040600020818154811061059957600080fd5b6000918252602090912060029091020180546001909101546001600160a01b039091169250905082565b6004546001600160a01b031633146105f65760405162461bcd60e51b81526004016105ed90612289565b60405180910390fd5b600055565b6009818154811061060b57600080fd5b6000918252602090912001546001600160a01b0316905081565b600b818154811061060b57600080fd5b600034116106855760405162461bcd60e51b815260206004820152601a60248201527f4d757374207374616b6520706f73697469766520616d6f756e7400000000000060448201526064016105ed565b336000908152600660205260408120600581018054919234926106a99084906122cb565b92505081905550348160040160008282546106c491906122cb565b909155505060405134815233907f9e71bc8eea02a63969f509818f2dafb9254532904319f9dbda79b67bd34a5f3d9060200160405180910390a250565b600a818154811061060b57600080fd5b3360008181526006602052604090205460ff166107405760405162461bcd60e51b81526004016105ed906122de565b3360009081526006602052604090206002015460ff166107945760405162461bcd60e51b815260206004820152600f60248201526e4e6f6465206e6f742061637469766560881b60448201526064016105ed565b33600081815260066020526040808220600201805460ff19169055600a80546001810182559083527fc65a7bb8d6351c1cf70c95a316cc6a92839c986682d98bc35f958f4883f9d2a80180546001600160a01b0319168417905560055490519092917ff3b3804c8980704269949cfccce1da14f0033d4a01846643aaec07b77e01e43791a350565b6000341161086c5760405162461bcd60e51b815260206004820152601d60248201527f4d7573742064656c656761746520706f73697469766520616d6f756e7400000060448201526064016105ed565b6001600160a01b0381166000908152600660205260408120600481018054919234926108999084906122cb565b9091555060009050805b6001600160a01b038416600090815260076020526040902054811015610973576001600160a01b03841660009081526007602052604090208054339190839081106108f0576108f0612315565b60009182526020909120600290910201546001600160a01b03160361096b576001600160a01b038416600090815260076020526040902080543491908390811061093c5761093c612315565b9060005260206000209060020201600101600082825461095c91906122cb565b90915550600192506109739050565b6001016108a3565b50806109d7576040805180820182523381523460208083019182526001600160a01b03878116600090815260078352948520805460018082018355918752929095209351600290920290930180546001600160a01b03191691909316178255519101555b6040513481526001600160a01b0384169033907fe5541a6b6103d4fa7e021ed54fad39c66f27a76bd13d374cf6240ae6bd0bb72b9060200160405180910390a3505050565b6004546001600160a01b03163314610a465760405162461bcd60e51b81526004016105ed90612289565b600860055481548110610a5b57610a5b612315565b906000526020600020906006020160010154421180610a7a5750600554155b610abc5760405162461bcd60e51b8152602060048201526013602482015272149bdd5b99081b9bdd081d1a5b5959081bdd5d606a1b60448201526064016105ed565b610ac46115a0565b565b60088181548110610ad657600080fd5b60009182526020909120600690910201805460018201546002830154600590930154919350919060ff1684565b6001600160a01b0382166000908152600660205260408120815b6001600160a01b038516600090815260076020526040902054811015610e0d576001600160a01b0385166000908152600760205260409020805433919083908110610b6a57610b6a612315565b60009182526020909120600290910201546001600160a01b031603610e05576001600160a01b038516600090815260076020526040902080546001945082908110610bb757610bb7612315565b906000526020600020906002020160010154841115610c2a5760405162461bcd60e51b815260206004820152602960248201527f416d6f756e7420746f207265766f6b6520657863656564732064656c65676174604482015268195908185b5bdd5b9d60ba1b60648201526084016105ed565b6001600160a01b0385166000908152600760205260409020805485919083908110610c5757610c57612315565b90600052602060002090600202016001016000828254610c77919061232b565b9250508190555083826004016000828254610c92919061232b565b9091555050604051339085156108fc029086906000818181858888f19350505050158015610cc4573d6000803e3d6000fd5b506001600160a01b0385166000908152600760205260409020805482908110610cef57610cef612315565b906000526020600020906002020160010154600003610e00576001600160a01b03851660009081526007602052604090208054610d2e9060019061232b565b81548110610d3e57610d3e612315565b906000526020600020906002020160076000876001600160a01b03166001600160a01b031681526020019081526020016000208281548110610d8257610d82612315565b60009182526020808320845460029093020180546001600160a01b0319166001600160a01b0393841617815560019485015494019390935587168152600790915260409020805480610dd657610dd661233e565b60008281526020812060026000199093019283020180546001600160a01b03191681556001015590555b610e0d565b600101610b1d565b5081610e5b5760405162461bcd60e51b815260206004820152601a60248201527f4e6f2064656c65676174696f6e207265636f726420666f756e6400000000000060448201526064016105ed565b6040518381526001600160a01b0385169033907f315eeabd37f0e4fa7271d8aced9dd94fe444aeaf5d2722d3a6a7a4a7a74a45239060200160405180910390a350505050565b6004546001600160a01b03163314610ecb5760405162461bcd60e51b81526004016105ed90612289565b600255565b3360009081526006602052604090205460ff1615610f305760405162461bcd60e51b815260206004820152601b60248201527f416c72656164792061207065726d697373696f6e6564206e6f6465000000000060448201526064016105ed565b600254341015610f755760405162461bcd60e51b815260206004820152601060248201526f11195c1bdcda5d081c995c5d5a5c995960821b60448201526064016105ed565b6040805160c0810182526000808252346020808401918252838501838152606085018481526080860185815260a087018681523380885260069095528887209751885490151560ff1991821617895595516001898101919091559351600289018054911515919097161790955590516003870155516004860155915160059485015560098054928301815583527f6e1540171b6c0c960b71a7020d9f60077f6af931a8bbf590da0223dacf75c7af90910180546001600160a01b03191682179055915492517f02b752a11416483894ccba29da0e71c4bee394b901144812c44d2a7e7d6c7ead9190a3565b60006008838154811061107557611075612315565b600091825260208083206001600160a01b03861684526004600690930201919091019052604090205490505b92915050565b3360008181526006602052604090205460ff166110d65760405162461bcd60e51b81526004016105ed906122de565b60055482146111185760405162461bcd60e51b815260206004820152600e60248201526d0a4deeadcc840dad2e6dac2e8c6d60931b60448201526064016105ed565b600060086005548154811061112f5761112f612315565b60009182526020808320338452600460069093020191820190526040909120549091501561119f5760405162461bcd60e51b815260206004820152601c60248201527f416c7265616479207375626d6974746564207075626c6963206b65790000000060448201526064016105ed565b80600101544211156111e55760405162461bcd60e51b815260206004820152600f60248201526e149bdd5b99081d1a5b5959081bdd5d608a1b60448201526064016105ed565b33600090815260048201602052604081208690556002820180549161120983612354565b909155505060038101546002808301546112229161236d565b1015806112325750806001015442115b1561123f5761123f611635565b5050505050565b60006008828154811061125b5761125b612315565b600091825260209091206003600690920201015492915050565b6004546001600160a01b0316331461129f5760405162461bcd60e51b81526004016105ed90612289565b600155565b33600081815260066020526040902054606091829160ff166112d85760405162461bcd60e51b81526004016105ed906122de565b6000600885815481106112ed576112ed612315565b90600052602060002090600602016002015467ffffffffffffffff8111156113175761131761211b565b604051908082528060200260200182016040528015611340578160200160208202803683370190505b50905060006008868154811061135857611358612315565b90600052602060002090600602016002015467ffffffffffffffff8111156113825761138261211b565b6040519080825280602002602001820160405280156113ab578160200160208202803683370190505b50905060005b600887815481106113c4576113c4612315565b906000526020600020906006020160020154811015611594576000801b600888815481106113f4576113f4612315565b9060005260206000209060060201600401600060088a8154811061141a5761141a612315565b9060005260206000209060060201600301848154811061143c5761143c612315565b60009182526020808320909101546001600160a01b031683528201929092526040019020541461158c576008878154811061147957611479612315565b906000526020600020906006020160040160006008898154811061149f5761149f612315565b906000526020600020906006020160030183815481106114c1576114c1612315565b60009182526020808320909101546001600160a01b0316835282019290925260400190205483518490839081106114fa576114fa612315565b6020026020010181815250506008878154811061151957611519612315565b9060005260206000209060060201600301818154811061153b5761153b612315565b9060005260206000200160009054906101000a90046001600160a01b031682828151811061156b5761156b612315565b60200260200101906001600160a01b031690816001600160a01b0316815250505b6001016113b1565b50909350915050915091565b60015443906000906115b290426122cb565b6008805460018181018355600083905260069091027ff3f7a9fe364faab93b216da50a3214154f22a0a2b415b23a84c8169e8b636ee381018681557ff3f7a9fe364faab93b216da50a3214154f22a0a2b415b23a84c8169e8b636ee490910184905591549293509091611625919061232b565b600555611630611759565b505050565b600060086005548154811061164c5761164c612315565b6000918252602082206005600690920201908101805460ff19166001179055600281015490925067ffffffffffffffff81111561168b5761168b61211b565b6040519080825280602002602001820160405280156116b4578160200160208202803683370190505b5090506000826002015467ffffffffffffffff8111156116d6576116d661211b565b6040519080825280602002602001820160405280156116ff578160200160208202803683370190505b50905061170d6005546112a4565b80925081935050506005547f0cdf506672ea6308d71d35d76e01f6718ddb82e8f8d258d4a3807821003d962583836040516117499291906121fe565b60405180910390a26116306115a0565b60055460000361176557565b600a54156119c55760005b600a548110156119b8576000600a828154811061178f5761178f612315565b6000918252602090912001546001600160a01b031690506117af81611f34565b156119af576001600160a01b0381166000818152600660209081526040808320805460ff199081168255600290910180549091169055519182527f763b63b30e91c843bb39e4379603697003d3b7c1f192619cd782fa33bdc44396910160405180910390a26001600160a01b0381166000908152600660205260408120600581015460019091015461184191906122cb565b6001600160a01b038316600081815260066020526040808220600181018390556004810183905560050182905551929350909183156108fc0291849190818181858888f1935050505015801561189b573d6000803e3d6000fd5b5060005b6001600160a01b0383166000908152600760205260409020548110156119ac576001600160a01b03831660009081526007602052604081208054839081106118e9576118e9612315565b60009182526020808320604080518082018252600290940290910180546001600160a01b031680855260019091015492840185905290519294509092909183156108fc0291849190818181858888f1935050505015801561194e573d6000803e3d6000fd5b506001600160a01b038516600090815260076020526040902080548490811061197957611979612315565b60009182526020822060029091020180546001600160a01b031916815560019081019190915592909201915061189f9050565b50505b50600101611770565b506119c5600a6000611f93565b600954600b546000916119d7916122cb565b67ffffffffffffffff8111156119ef576119ef61211b565b604051908082528060200260200182016040528015611a18578160200160208202803683370190505b5090506000805b600b54811015611adb5760066000600b8381548110611a4057611a40612315565b60009182526020808320909101546001600160a01b0316835282019290925260400190205460ff1615611ad357600b8181548110611a8057611a80612315565b6000918252602090912001546001600160a01b03168383611aa081612354565b945081518110611ab257611ab2612315565b60200260200101906001600160a01b031690816001600160a01b0316815250505b600101611a1f565b5060005b600954811015611b4e5760098181548110611afc57611afc612315565b6000918252602090912001546001600160a01b03168383611b1c81612354565b945081518110611b2e57611b2e612315565b6001600160a01b0390921660209283029190910190910152600101611adf565b5060005b611b5d60018361232b565b811015611cb6576000611b718260016122cb565b90505b82811015611cad5760066000858481518110611b9257611b92612315565b60200260200101516001600160a01b03166001600160a01b031681526020019081526020016000206004015460066000868481518110611bd457611bd4612315565b60200260200101516001600160a01b03166001600160a01b03168152602001908152602001600020600401541115611ca5576000848381518110611c1a57611c1a612315565b60200260200101519050848281518110611c3657611c36612315565b6020026020010151858481518110611c5057611c50612315565b60200260200101906001600160a01b031690816001600160a01b03168152505080858381518110611c8357611c83612315565b60200260200101906001600160a01b031690816001600160a01b031681525050505b600101611b74565b50600101611b52565b50611cc3600b6000611f93565b611ccf60096000611f93565b60005b8181108015611ce2575060035481105b15611e11576000838281518110611cfb57611cfb612315565b602090810291909101810151600b8054600181019091557f0175b7a638427703f0dbe7bb9bbf987a2551717b34e79f33b5b1008d1fa01db90180546001600160a01b0319166001600160a01b0383169081179091556000908152600690925260409091205490915060ff16158015611d9057506002546001600160a01b03821660009081526006602052604090206001015410155b15611dfe576001600160a01b0381166000818152600660209081526040918290208054600160ff1991821681178355600290920180549091168217905591519182527f763b63b30e91c843bb39e4379603697003d3b7c1f192619cd782fa33bdc44396910160405180910390a25b5080611e0981612354565b915050611cd2565b50600354811115611ef357600060035482611e2c919061232b565b67ffffffffffffffff811115611e4457611e4461211b565b604051908082528060200260200182016040528015611e6d578160200160208202803683370190505b506003549091505b82811015611edc576000848281518110611e9157611e91612315565b60200260200101519050808360035484611eab919061232b565b81518110611ebb57611ebb612315565b6001600160a01b039092166020928302919091019091015250600101611e75565b508051611ef0906009906020840190611fb4565b50505b6000600860055481548110611f0a57611f0a612315565b90600052602060002090600602019050600b81600301908054611f2e929190612019565b50505050565b6000805b600b54811015611f8a57826001600160a01b0316600b8281548110611f5f57611f5f612315565b6000918252602090912001546001600160a01b031603611f825750600192915050565b600101611f38565b50600092915050565b5080546000825590600052602060002090810190611fb19190612059565b50565b828054828255906000526020600020908101928215612009579160200282015b8281111561200957825182546001600160a01b0319166001600160a01b03909116178255602090920191600190910190611fd4565b50612015929150612059565b5090565b8280548282559060005260206000209081019282156120095760005260206000209182015b8281111561200957825482559160010191906001019061203e565b5b80821115612015576000815560010161205a565b80356001600160a01b038116811461208557600080fd5b919050565b60006020828403121561209c57600080fd5b6120a58261206e565b9392505050565b600080604083850312156120bf57600080fd5b6120c88361206e565b946020939093013593505050565b6000602082840312156120e857600080fd5b5035919050565b6000806040838503121561210257600080fd5b823591506121126020840161206e565b90509250929050565b634e487b7160e01b600052604160045260246000fd5b60008060006060848603121561214657600080fd5b83359250602084013567ffffffffffffffff81111561216457600080fd5b8401601f8101861361217557600080fd5b803567ffffffffffffffff81111561218f5761218f61211b565b604051601f8201601f19908116603f0116810167ffffffffffffffff811182821017156121be576121be61211b565b6040528181528282016020018810156121d657600080fd5b8160208401602083013760009181016020019190915293969395505050506040919091013590565b6040808252835190820181905260009060208501906060840190835b8181101561223857835183526020938401939092019160010161221a565b50508381036020808601919091528551808352918101925085019060005b8181101561227d5782516001600160a01b0316845260209384019390920191600101612256565b50919695505050505050565b6020808252601290820152712737ba1031b7b73a3930b1ba1037bbb732b960711b604082015260600190565b634e487b7160e01b600052601160045260246000fd5b808201808211156110a1576110a16122b5565b60208082526017908201527f4e6f742061207065726d697373696f6e6564206e6f6465000000000000000000604082015260600190565b634e487b7160e01b600052603260045260246000fd5b818103818111156110a1576110a16122b5565b634e487b7160e01b600052603160045260246000fd5b600060018201612366576123666122b5565b5060010190565b80820281158282048414176110a1576110a16122b556fea26469706673582212209c9bea3f935fd90e5eafeb751588606d5ab8f0b2a2651b29d5fc220737b23bdb64736f6c634300081b0033763b63b30e91c843bb39e4379603697003d3b7c1f192619cd782fa33bdc44396",
  "linkReferences": {},
  "deployedLinkReferences": {}
}