{
  "_format": "hh-sol-artifact-1",
  "contractName": "PermissionManagerV2",
  "sourceName": "contracts/PermissionMgrV2.sol",
  "abi": [
    {
      "inputs": [
        {
          "internalType": "uint256",
          "name": "_roundBlocks",
          "type": "uint256"
        },
        {
          "internalType": "uint256",
          "name": "_roundTimeout",
          "type": "uint256"
        },
        {
          "internalType": "uint256",
          "name": "_minDeposit",
          "type": "uint256"
        },
        {
          "internalType": "uint256",
          "name": "_maxValidators",
          "type": "uint256"
        }
      ],
      "stateMutability": "nonpayable",
      "type": "constructor"
    },
    {
      "anonymous": false,
      "inputs": [
        {
          "indexed": true,
          "internalType": "address",
          "name": "delegator",
          "type": "address"
        },
        {
          "indexed": true,
          "internalType": "address",
          "name": "validator",
          "type": "address"
        },
        {
          "indexed": false,
          "internalType": "uint256",
          "name": "amount",
          "type": "uint256"
        }
      ],
      "name": "Delegated",
      "type": "event"
    },
    {
      "anonymous": false,
      "inputs": [
        {
          "indexed": true,
          "internalType": "uint256",
          "name": "proposalId",
          "type": "uint256"
        },
        {
          "indexed": true,
          "internalType": "address",
          "name": "proposer",
          "type": "address"
        },
        {
          "indexed": false,
          "internalType": "uint256",
          "name": "blockNumber",
          "type": "uint256"
        },
        {
          "indexed": false,
          "internalType": "string",
          "name": "description",
          "type": "string"
        }
      ],
      "name": "NewProposalArrived",
      "type": "event"
    },
    {
      "anonymous": false,
      "inputs": [
        {
          "indexed": true,
          "internalType": "address",
          "name": "node",
          "type": "address"
        },
        {
          "indexed": true,
          "internalType": "uint256",
          "name": "roundIndex",
          "type": "uint256"
        }
      ],
      "name": "NodeElectionProposed",
      "type": "event"
    },
    {
      "anonymous": false,
      "inputs": [
        {
          "indexed": true,
          "internalType": "address",
          "name": "node",
          "type": "address"
        },
        {
          "indexed": true,
          "internalType": "uint256",
          "name": "roundIndex",
          "type": "uint256"
        }
      ],
      "name": "NodeLeaveProposed",
      "type": "event"
    },
    {
      "anonymous": false,
      "inputs": [
        {
          "indexed": true,
          "internalType": "address",
          "name": "node",
          "type": "address"
        },
        {
          "indexed": false,
          "internalType": "bytes32",
          "name": "pubKey",
          "type": "bytes32"
        },
        {
          "indexed": false,
          "internalType": "uint256",
          "name": "round",
          "type": "uint256"
        }
      ],
      "name": "PubKeySubmitted",
      "type": "event"
    },
    {
      "anonymous": false,
      "inputs": [
        {
          "indexed": true,
          "internalType": "address",
          "name": "delegator",
          "type": "address"
        },
        {
          "indexed": true,
          "internalType": "address",
          "name": "valildator",
          "type": "address"
        },
        {
          "indexed": false,
          "internalType": "uint256",
          "name": "amounToRevoke",
          "type": "uint256"
        }
      ],
      "name": "RevokeDelegated",
      "type": "event"
    },
    {
      "anonymous": false,
      "inputs": [
        {
          "indexed": true,
          "internalType": "address",
          "name": "staker",
          "type": "address"
        },
        {
          "indexed": false,
          "internalType": "uint256",
          "name": "amount",
          "type": "uint256"
        }
      ],
      "name": "Staked",
      "type": "event"
    },
    {
      "anonymous": false,
      "inputs": [
        {
          "indexed": true,
          "internalType": "uint256",
          "name": "roundIndex",
          "type": "uint256"
        },
        {
          "indexed": false,
          "internalType": "bytes32[]",
          "name": "publicKeys",
          "type": "bytes32[]"
        },
        {
          "indexed": false,
          "internalType": "address[]",
          "name": "participants",
          "type": "address[]"
        }
      ],
      "name": "SystemPublicKeyGenerated",
      "type": "event"
    },
    {
      "anonymous": false,
      "inputs": [
        {
          "indexed": true,
          "internalType": "address",
          "name": "node",
          "type": "address"
        },
        {
          "indexed": false,
          "internalType": "uint256",
          "name": "amount",
          "type": "uint256"
        },
        {
          "indexed": false,
          "internalType": "uint256",
          "name": "gasUsed",
          "type": "uint256"
        }
      ],
      "name": "TransferGasUsed",
      "type": "event"
    },
    {
      "anonymous": false,
      "inputs": [
        {
          "indexed": true,
          "internalType": "address",
          "name": "validator",
          "type": "address"
        },
        {
          "indexed": false,
          "internalType": "bool",
          "name": "added",
          "type": "bool"
        }
      ],
      "name": "ValidatorUpdated",
      "type": "event"
    },
    {
      "inputs": [],
      "name": "MAX_VALIDATORS",
      "outputs": [
        {
          "internalType": "uint256",
          "name": "",
          "type": "uint256"
        }
      ],
      "stateMutability": "view",
      "type": "function"
    },
    {
      "inputs": [],
      "name": "MIN_DEPOSIT",
      "outputs": [
        {
          "internalType": "uint256",
          "name": "",
          "type": "uint256"
        }
      ],
      "stateMutability": "view",
      "type": "function"
    },
    {
      "inputs": [],
      "name": "PROPOSAL_ID",
      "outputs": [
        {
          "internalType": "uint256",
          "name": "",
          "type": "uint256"
        }
      ],
      "stateMutability": "view",
      "type": "function"
    },
    {
      "inputs": [],
      "name": "ROUND_BLOCKS",
      "outputs": [
        {
          "internalType": "uint256",
          "name": "",
          "type": "uint256"
        }
      ],
      "stateMutability": "view",
      "type": "function"
    },
    {
      "inputs": [],
      "name": "ROUND_TIMEOUT",
      "outputs": [
        {
          "internalType": "uint256",
          "name": "",
          "type": "uint256"
        }
      ],
      "stateMutability": "view",
      "type": "function"
    },
    {
      "inputs": [
        {
          "internalType": "uint256",
          "name": "",
          "type": "uint256"
        }
      ],
      "name": "candidates",
      "outputs": [
        {
          "internalType": "address",
          "name": "",
          "type": "address"
        }
      ],
      "stateMutability": "view",
      "type": "function"
    },
    {
      "inputs": [
        {
          "internalType": "address",
          "name": "_node",
          "type": "address"
        }
      ],
      "name": "checkStatus",
      "outputs": [
        {
          "internalType": "bool",
          "name": "",
          "type": "bool"
        }
      ],
      "stateMutability": "view",
      "type": "function"
    },
    {
      "inputs": [],
      "name": "currentRoundIndex",
      "outputs": [
        {
          "internalType": "uint256",
          "name": "",
          "type": "uint256"
        }
      ],
      "stateMutability": "view",
      "type": "function"
    },
    {
      "inputs": [
        {
          "internalType": "address",
          "name": "validator",
          "type": "address"
        }
      ],
      "name": "delegate",
      "outputs": [],
      "stateMutability": "payable",
      "type": "function"
    },
    {
      "inputs": [
        {
          "internalType": "address",
          "name": "",
          "type": "address"
        },
        {
          "internalType": "uint256",
          "name": "",
          "type": "uint256"
        }
      ],
      "name": "delegations",
      "outputs": [
        {
          "internalType": "address",
          "name": "delegator",
          "type": "address"
        },
        {
          "internalType": "uint256",
          "name": "amount",
          "type": "uint256"
        }
      ],
      "stateMutability": "view",
      "type": "function"
    },
    {
      "inputs": [
        {
          "internalType": "uint256",
          "name": "_round",
          "type": "uint256"
        }
      ],
      "name": "getActiveNodeNum",
      "outputs": [
        {
          "internalType": "uint256",
          "name": "",
          "type": "uint256"
        }
      ],
      "stateMutability": "view",
      "type": "function"
    },
    {
      "inputs": [],
      "name": "getCandidatesNum",
      "outputs": [
        {
          "internalType": "uint256",
          "name": "",
          "type": "uint256"
        }
      ],
      "stateMutability": "view",
      "type": "function"
    },
    {
      "inputs": [],
      "name": "getLeavingNodeNum",
      "outputs": [
        {
          "internalType": "uint256",
          "name": "",
          "type": "uint256"
        }
      ],
      "stateMutability": "view",
      "type": "function"
    },
    {
      "inputs": [
        {
          "internalType": "uint256",
          "name": "_proposalId",
          "type": "uint256"
        }
      ],
      "name": "getProposalInfo",
      "outputs": [
        {
          "internalType": "address",
          "name": "",
          "type": "address"
        },
        {
          "internalType": "uint256",
          "name": "",
          "type": "uint256"
        },
        {
          "internalType": "string",
          "name": "",
          "type": "string"
        }
      ],
      "stateMutability": "view",
      "type": "function"
    },
    {
      "inputs": [
        {
          "internalType": "uint256",
          "name": "_round",
          "type": "uint256"
        },
        {
          "internalType": "address",
          "name": "_node",
          "type": "address"
        }
      ],
      "name": "getRoundPrivateKey",
      "outputs": [
        {
          "internalType": "bytes32",
          "name": "",
          "type": "bytes32"
        }
      ],
      "stateMutability": "view",
      "type": "function"
    },
    {
      "inputs": [
        {
          "internalType": "uint256",
          "name": "_round",
          "type": "uint256"
        },
        {
          "internalType": "address",
          "name": "_node",
          "type": "address"
        }
      ],
      "name": "getRoundPublicKey",
      "outputs": [
        {
          "internalType": "bytes32",
          "name": "",
          "type": "bytes32"
        }
      ],
      "stateMutability": "view",
      "type": "function"
    },
    {
      "inputs": [
        {
          "internalType": "uint256",
          "name": "_round",
          "type": "uint256"
        }
      ],
      "name": "getSystemPrivateKey",
      "outputs": [
        {
          "internalType": "bytes32[]",
          "name": "",
          "type": "bytes32[]"
        },
        {
          "internalType": "address[]",
          "name": "",
          "type": "address[]"
        }
      ],
      "stateMutability": "view",
      "type": "function"
    },
    {
      "inputs": [
        {
          "internalType": "uint256",
          "name": "_round",
          "type": "uint256"
        }
      ],
      "name": "getSystemPublicKey",
      "outputs": [
        {
          "internalType": "bytes32[]",
          "name": "",
          "type": "bytes32[]"
        },
        {
          "internalType": "address[]",
          "name": "",
          "type": "address[]"
        }
      ],
      "stateMutability": "view",
      "type": "function"
    },
    {
      "inputs": [],
      "name": "getValidatorsNum",
      "outputs": [
        {
          "internalType": "uint256",
          "name": "",
          "type": "uint256"
        }
      ],
      "stateMutability": "view",
      "type": "function"
    },
    {
      "inputs": [
        {
          "internalType": "uint256",
          "name": "",
          "type": "uint256"
        }
      ],
      "name": "leavingNodes",
      "outputs": [
        {
          "internalType": "address",
          "name": "",
          "type": "address"
        }
      ],
      "stateMutability": "view",
      "type": "function"
    },
    {
      "inputs": [
        {
          "internalType": "address",
          "name": "",
          "type": "address"
        }
      ],
      "name": "nodes",
      "outputs": [
        {
          "internalType": "bool",
          "name": "isPermissioned",
          "type": "bool"
        },
        {
          "internalType": "uint256",
          "name": "deposit",
          "type": "uint256"
        },
        {
          "internalType": "bool",
          "name": "active",
          "type": "bool"
        },
        {
          "internalType": "bytes32",
          "name": "publicKey",
          "type": "bytes32"
        },
        {
          "internalType": "bytes32",
          "name": "privateKey",
          "type": "bytes32"
        },
        {
          "internalType": "uint256",
          "name": "totalStake",
          "type": "uint256"
        },
        {
          "internalType": "uint256",
          "name": "selfStake",
          "type": "uint256"
        }
      ],
      "stateMutability": "view",
      "type": "function"
    },
    {
      "inputs": [],
      "name": "owner",
      "outputs": [
        {
          "internalType": "address",
          "name": "",
          "type": "address"
        }
      ],
      "stateMutability": "view",
      "type": "function"
    },
    {
      "inputs": [
        {
          "internalType": "uint256",
          "name": "",
          "type": "uint256"
        }
      ],
      "name": "proposals",
      "outputs": [
        {
          "internalType": "uint256",
          "name": "proposalId",
          "type": "uint256"
        },
        {
          "internalType": "address",
          "name": "proposer",
          "type": "address"
        },
        {
          "internalType": "uint256",
          "name": "blockNumber",
          "type": "uint256"
        },
        {
          "internalType": "string",
          "name": "description",
          "type": "string"
        }
      ],
      "stateMutability": "view",
      "type": "function"
    },
    {
      "inputs": [],
      "name": "proposeElection",
      "outputs": [],
      "stateMutability": "payable",
      "type": "function"
    },
    {
      "inputs": [],
      "name": "proposeLeave",
      "outputs": [],
      "stateMutability": "nonpayable",
      "type": "function"
    },
    {
      "inputs": [
        {
          "internalType": "address",
          "name": "delegator",
          "type": "address"
        },
        {
          "internalType": "uint256",
          "name": "amountToRevoke",
          "type": "uint256"
        }
      ],
      "name": "revokeDelegation",
      "outputs": [],
      "stateMutability": "nonpayable",
      "type": "function"
    },
    {
      "inputs": [
        {
          "internalType": "uint256",
          "name": "",
          "type": "uint256"
        }
      ],
      "name": "rounds",
      "outputs": [
        {
          "internalType": "uint256",
          "name": "startBlock",
          "type": "uint256"
        },
        {
          "internalType": "uint256",
          "name": "timeout",
          "type": "uint256"
        },
        {
          "internalType": "uint256",
          "name": "publicKeyCount",
          "type": "uint256"
        },
        {
          "internalType": "uint256",
          "name": "privateKeyCount",
          "type": "uint256"
        }
      ],
      "stateMutability": "view",
      "type": "function"
    },
    {
      "inputs": [
        {
          "internalType": "uint256",
          "name": "_minDeposit",
          "type": "uint256"
        }
      ],
      "name": "setMinDeposit",
      "outputs": [],
      "stateMutability": "nonpayable",
      "type": "function"
    },
    {
      "inputs": [
        {
          "internalType": "uint256",
          "name": "_roundBlocks",
          "type": "uint256"
        }
      ],
      "name": "setRoundBlocks",
      "outputs": [],
      "stateMutability": "nonpayable",
      "type": "function"
    },
    {
      "inputs": [
        {
          "internalType": "uint256",
          "name": "_roundTimeout",
          "type": "uint256"
        }
      ],
      "name": "setRoundTimeout",
      "outputs": [],
      "stateMutability": "nonpayable",
      "type": "function"
    },
    {
      "inputs": [],
      "name": "stake",
      "outputs": [],
      "stateMutability": "payable",
      "type": "function"
    },
    {
      "inputs": [],
      "name": "startElection",
      "outputs": [],
      "stateMutability": "nonpayable",
      "type": "function"
    },
    {
      "inputs": [
        {
          "internalType": "bytes32",
          "name": "_priKey",
          "type": "bytes32"
        },
        {
          "internalType": "uint256",
          "name": "_round",
          "type": "uint256"
        }
      ],
      "name": "submitPriKey",
      "outputs": [],
      "stateMutability": "nonpayable",
      "type": "function"
    },
    {
      "inputs": [
        {
          "internalType": "uint256",
          "name": "_blockNumber",
          "type": "uint256"
        },
        {
          "internalType": "string",
          "name": "_description",
          "type": "string"
        }
      ],
      "name": "submitProposal",
      "outputs": [],
      "stateMutability": "nonpayable",
      "type": "function"
    },
    {
      "inputs": [
        {
          "internalType": "bytes32",
          "name": "_pubKey",
          "type": "bytes32"
        },
        {
          "internalType": "uint256",
          "name": "_round",
          "type": "uint256"
        }
      ],
      "name": "submitPubKey",
      "outputs": [
        {
          "internalType": "address",
          "name": "",
          "type": "address"
        },
        {
          "internalType": "bytes32",
          "name": "",
          "type": "bytes32"
        },
        {
          "internalType": "uint256",
          "name": "",
          "type": "uint256"
        }
      ],
      "stateMutability": "nonpayable",
      "type": "function"
    },
    {
      "inputs": [
        {
          "internalType": "uint256",
          "name": "",
          "type": "uint256"
        }
      ],
      "name": "validators",
      "outputs": [
        {
          "internalType": "address",
          "name": "",
          "type": "address"
        }
      ],
      "stateMutability": "view",
      "type": "function"
    }
  ],
  "bytecode": "0x6080604052600060065534801561001557600080fd5b50604051613902380380613902833981016040819052610034916109f2565b600580546001600160a01b03191633179055600084815560018490556002839055600382905560045561006561006e565b50505050610aaf565b60015443906000906100809042610a3e565b6009805460018181018355600083905260079091027f6e1540171b6c0c960b71a7020d9f60077f6af931a8bbf590da0223dacf75c7af81018681557f6e1540171b6c0c960b71a7020d9f60077f6af931a8bbf590da0223dacf75c7b0909101849055915492935090916100f39190610a57565b6006556100fe610103565b505050565b60065460000361010f57565b600b541561035d5760005b600b54811015610350576000600b828154811061013957610139610a6a565b6000918252602090912001546001600160a01b03169050610159816108b8565b15610347576001600160a01b0381166000818152600760209081526040808320805460ff199081168255600290910180549091169055519182526000805160206138e2833981519152910160405180910390a26001600160a01b038116600090815260076020526040812060068101546001909101546101d99190610a3e565b6001600160a01b038316600081815260076020526040808220600181018390556005810183905560060182905551929350909183156108fc0291849190818181858888f19350505050158015610233573d6000803e3d6000fd5b5060005b6001600160a01b038316600090815260086020526040902054811015610344576001600160a01b038316600090815260086020526040812080548390811061028157610281610a6a565b60009182526020808320604080518082018252600290940290910180546001600160a01b031680855260019091015492840185905290519294509092909183156108fc0291849190818181858888f193505050501580156102e6573d6000803e3d6000fd5b506001600160a01b038516600090815260086020526040902080548490811061031157610311610a6a565b60009182526020822060029091020180546001600160a01b03191681556001908101919091559290920191506102379050565b50505b5060010161011a565b5061035d600b6000610917565b600a54600c5460009161036f91610a3e565b6001600160401b0381111561038657610386610a80565b6040519080825280602002602001820160405280156103af578160200160208202803683370190505b5090506000805b600c548110156104725760076000600c83815481106103d7576103d7610a6a565b60009182526020808320909101546001600160a01b0316835282019290925260400190205460ff161561046a57600c818154811061041757610417610a6a565b6000918252602090912001546001600160a01b0316838361043781610a96565b94508151811061044957610449610a6a565b60200260200101906001600160a01b031690816001600160a01b0316815250505b6001016103b6565b5060005b600a548110156104e557600a818154811061049357610493610a6a565b6000918252602090912001546001600160a01b031683836104b381610a96565b9450815181106104c5576104c5610a6a565b6001600160a01b0390921660209283029190910190910152600101610476565b5060005b6104f4600183610a57565b81101561064d576000610508826001610a3e565b90505b82811015610644576007600085848151811061052957610529610a6a565b60200260200101516001600160a01b03166001600160a01b03168152602001908152602001600020600501546007600086848151811061056b5761056b610a6a565b60200260200101516001600160a01b03166001600160a01b0316815260200190815260200160002060050154111561063c5760008483815181106105b1576105b1610a6a565b602002602001015190508482815181106105cd576105cd610a6a565b60200260200101518584815181106105e7576105e7610a6a565b60200260200101906001600160a01b031690816001600160a01b0316815250508085838151811061061a5761061a610a6a565b60200260200101906001600160a01b031690816001600160a01b031681525050505b60010161050b565b506001016104e9565b5061065a600c6000610917565b610666600a6000610917565b60005b8181108015610679575060035481105b1561079657600083828151811061069257610692610a6a565b602090810291909101810151600c8054600181019091557fdf6966c971051c3d54ec59162606531493a51404a002842f56009d7e5cf4a8c70180546001600160a01b0319166001600160a01b0383169081179091556000908152600790925260409091205490915060ff1615801561072757506002546001600160a01b03821660009081526007602052604090206001015410155b15610783576001600160a01b0381166000818152600760209081526040918290208054600160ff1991821681178355600290920180549091168217905591519182526000805160206138e2833981519152910160405180910390a25b508061078e81610a96565b915050610669565b50600354811115610877576000600354826107b19190610a57565b6001600160401b038111156107c8576107c8610a80565b6040519080825280602002602001820160405280156107f1578160200160208202803683370190505b506003549091505b8281101561086057600084828151811061081557610815610a6a565b6020026020010151905080836003548461082f9190610a57565b8151811061083f5761083f610a6a565b6001600160a01b0390921660209283029190910190910152506001016107f9565b50805161087490600a906020840190610938565b50505b600060096006548154811061088e5761088e610a6a565b90600052602060002090600702019050600c816004019080546108b292919061099d565b50505050565b6000805b600c5481101561090e57826001600160a01b0316600c82815481106108e3576108e3610a6a565b6000918252602090912001546001600160a01b0316036109065750600192915050565b6001016108bc565b50600092915050565b508054600082559060005260206000209081019061093591906109dd565b50565b82805482825590600052602060002090810192821561098d579160200282015b8281111561098d57825182546001600160a01b0319166001600160a01b03909116178255602090920191600190910190610958565b506109999291506109dd565b5090565b82805482825590600052602060002090810192821561098d5760005260206000209182015b8281111561098d5782548255916001019190600101906109c2565b5b8082111561099957600081556001016109de565b60008060008060808587031215610a0857600080fd5b505082516020840151604085015160609095015191969095509092509050565b634e487b7160e01b600052601160045260246000fd5b80820180821115610a5157610a51610a28565b92915050565b81810381811115610a5157610a51610a28565b634e487b7160e01b600052603260045260246000fd5b634e487b7160e01b600052604160045260246000fd5b600060018201610aa857610aa8610a28565b5060010190565b612e2480610abe6000396000f3fe60806040526004361061020f5760003560e01c80635c19a95c116101185780638fcc9cfb116100a0578063e189224f1161006f578063e189224f1461068d578063e1e158a5146106bb578063ec8f2c3f146106d1578063ed7ab465146106f1578063f1ec444f1461071157600080fd5b80638fcc9cfb1461061657806399fd2f0214610636578063bc903cb81461063e578063c4caebad1461066d57600080fd5b8063731cb2ce116100e7578063731cb2ce1461056b57806375a2b6ca146105805780638c65c81f146105965780638da5cb5b146105d65780638ed0a195146105f657600080fd5b80635c19a95c1461051757806362d73eb81461052a5780636896ef4b1461053f578063714897df1461055557600080fd5b806332be0b741161019b57806335aa2e441161016a57806335aa2e441461049a5780633a4b66f1146104ba57806341a7960f146104c25780635561a1e5146104e257806357801bce146104f757600080fd5b806332be0b74146103fd578063340190ec1461041d5780633477ee2e1461044d57806334ba3c1b1461048557600080fd5b806321947418116101e25780632194741814610322578063223fae0914610337578063230aac5514610376578063242a032f146103985780632e6afb78146103b857600080fd5b8063013cf08b146102145780630bc9136e1461024d578063189a5a17146102715780631f23b03e1461030c575b600080fd5b34801561022057600080fd5b5061023461022f3660046128ab565b610731565b604051610244949392919061290a565b60405180910390f35b34801561025957600080fd5b5061026360045481565b604051908152602001610244565b34801561027d57600080fd5b506102cf61028c36600461295d565b600760205260009081526040902080546001820154600283015460038401546004850154600586015460069096015460ff95861696949590931693919290919087565b6040805197151588526020880196909652931515948601949094526060850191909152608084015260a083019190915260c082015260e001610244565b34801561031857600080fd5b5061026360005481565b34801561032e57600080fd5b50600a54610263565b34801561034357600080fd5b5061035761035236600461297f565b6107ee565b604080516001600160a01b039093168352602083019190915201610244565b34801561038257600080fd5b506103966103913660046129bf565b610834565b005b3480156103a457600080fd5b506102636103b3366004612a82565b61090d565b3480156103c457600080fd5b506103d86103d3366004612aae565b6109bc565b604080516001600160a01b039094168452602084019290925290820152606001610244565b34801561040957600080fd5b506103966104183660046128ab565b610b39565b34801561042957600080fd5b5061043d61043836600461295d565b610b68565b6040519015158152602001610244565b34801561045957600080fd5b5061046d6104683660046128ab565b610b73565b6040516001600160a01b039091168152602001610244565b34801561049157600080fd5b50600c54610263565b3480156104a657600080fd5b5061046d6104b53660046128ab565b610b9d565b610396610bad565b3480156104ce57600080fd5b5061046d6104dd3660046128ab565b610c79565b3480156104ee57600080fd5b50610396610c89565b34801561050357600080fd5b50610396610512366004612aae565b610d94565b61039661052536600461295d565b610f11565b34801561053657600080fd5b50610396611111565b34801561054b57600080fd5b5061026360065481565b34801561056157600080fd5b5061026360035481565b34801561057757600080fd5b50600b54610263565b34801561058c57600080fd5b5061026360015481565b3480156105a257600080fd5b506105b66105b13660046128ab565b611145565b604080519485526020850193909352918301526060820152608001610244565b3480156105e257600080fd5b5060055461046d906001600160a01b031681565b34801561060257600080fd5b5061039661061136600461297f565b61117f565b34801561062257600080fd5b506103966106313660046128ab565b611514565b610396611543565b34801561064a57600080fd5b5061065e6106593660046128ab565b6116e0565b60405161024493929190612ad0565b34801561067957600080fd5b50610263610688366004612a82565b6117f0565b34801561069957600080fd5b506106ad6106a83660046128ab565b611836565b604051610244929190612b00565b3480156106c757600080fd5b5061026360025481565b3480156106dd57600080fd5b506102636106ec3660046128ab565b611b32565b3480156106fd57600080fd5b5061039661070c3660046128ab565b611b61565b34801561071d57600080fd5b506106ad61072c3660046128ab565b611b90565b600d60205260009081526040902080546001820154600283015460038401805493946001600160a01b039093169391929161076b90612b8b565b80601f016020809104026020016040519081016040528092919081815260200182805461079790612b8b565b80156107e45780601f106107b9576101008083540402835291602001916107e4565b820191906000526020600020905b8154815290600101906020018083116107c757829003601f168201915b5050505050905084565b6008602052816000526040600020818154811061080a57600080fd5b6000918252602090912060029091020180546001909101546001600160a01b039091169250905082565b600480546000918261084583612bdb565b9091555060408051608081018252828152336020808301918252828401888152606084018881526000878152600d909352949091208351815591516001830180546001600160a01b0319166001600160a01b0390921691909117905551600282015591519293509182919060038201906108bf9082612c42565b50905050336001600160a01b0316827f43544249454f50e0dc1c9e9dffde127eea71ce2fda1546f3008684c5842b064086866040516108ff929190612d01565b60405180910390a350505050565b6000336001600160a01b038316146109775760405162461bcd60e51b815260206004820152602260248201527f4e6f7420617574686f72697a656420746f20766965772070726976617465206b604482015261657960f01b60648201526084015b60405180910390fd5b6009838154811061098a5761098a612d22565b600091825260208083206001600160a01b03861684526006600790930201919091019052604090205490505b92915050565b336000818152600760205260408120549091829182919060ff166109f25760405162461bcd60e51b815260040161096e90612d38565b6006548514610a345760405162461bcd60e51b815260206004820152600e60248201526d0a4deeadcc840dad2e6dac2e8c6d60931b604482015260640161096e565b6000600960065481548110610a4b57610a4b612d22565b600091825260208083203384526005600790930201918201905260409091205490915015610abb5760405162461bcd60e51b815260206004820152601c60248201527f416c7265616479207375626d6974746564207075626c6963206b657900000000604482015260640161096e565b3360009081526007602090815260408083206003018a905560058401909152812088905560028201805491610aef83612bdb565b9091555050604080518881526020810188905233917f33b73e0cd3b3062e1e980d796b99d5fac3b7fb5046da273297a4c4d54f2196fe910160405180910390a25033969350505050565b6005546001600160a01b03163314610b635760405162461bcd60e51b815260040161096e90612d6f565b600055565b60006109b682611f01565b600a8181548110610b8357600080fd5b6000918252602090912001546001600160a01b0316905081565b600c8181548110610b8357600080fd5b60003411610bfd5760405162461bcd60e51b815260206004820152601a60248201527f4d757374207374616b6520706f73697469766520616d6f756e74000000000000604482015260640161096e565b33600090815260076020526040812060068101805491923492610c21908490612d9b565b9250508190555034816005016000828254610c3c9190612d9b565b909155505060405134815233907f9e71bc8eea02a63969f509818f2dafb9254532904319f9dbda79b67bd34a5f3d9060200160405180910390a250565b600b8181548110610b8357600080fd5b3360008181526007602052604090205460ff16610cb85760405162461bcd60e51b815260040161096e90612d38565b3360009081526007602052604090206002015460ff16610d0c5760405162461bcd60e51b815260206004820152600f60248201526e4e6f6465206e6f742061637469766560881b604482015260640161096e565b33600081815260076020526040808220600201805460ff19169055600b80546001810182559083527f0175b7a638427703f0dbe7bb9bbf987a2551717b34e79f33b5b1008d1fa01db90180546001600160a01b0319168417905560065490519092917ff3b3804c8980704269949cfccce1da14f0033d4a01846643aaec07b77e01e43791a350565b3360008181526007602052604090205460ff16610dc35760405162461bcd60e51b815260040161096e90612d38565b6006548214610e055760405162461bcd60e51b815260206004820152600e60248201526d0a4deeadcc840dad2e6dac2e8c6d60931b604482015260640161096e565b6000600960065481548110610e1c57610e1c612d22565b600091825260208083203384526006600790930201918201905260409091205490915015610e8c5760405162461bcd60e51b815260206004820152601d60248201527f416c7265616479207375626d69747465642070726976617465206b6579000000604482015260640161096e565b8060010154421115610ed25760405162461bcd60e51b815260206004820152600f60248201526e149bdd5b99081d1a5b5959081bdd5d608a1b604482015260640161096e565b33600090815260076020908152604080832060040187905560068401909152812085905560038201805491610f0683612bdb565b919050555050505050565b60003411610f615760405162461bcd60e51b815260206004820152601d60248201527f4d7573742064656c656761746520706f73697469766520616d6f756e74000000604482015260640161096e565b6001600160a01b038116600090815260076020526040812060058101805491923492610f8e908490612d9b565b9091555060009050805b6001600160a01b038416600090815260086020526040902054811015611068576001600160a01b0384166000908152600860205260409020805433919083908110610fe557610fe5612d22565b60009182526020909120600290910201546001600160a01b031603611060576001600160a01b038416600090815260086020526040902080543491908390811061103157611031612d22565b906000526020600020906002020160010160008282546110519190612d9b565b90915550600192506110689050565b600101610f98565b50806110cc576040805180820182523381523460208083019182526001600160a01b03878116600090815260088352948520805460018082018355918752929095209351600290920290930180546001600160a01b03191691909316178255519101555b6040513481526001600160a01b0384169033907fe5541a6b6103d4fa7e021ed54fad39c66f27a76bd13d374cf6240ae6bd0bb72b9060200160405180910390a3505050565b6005546001600160a01b0316331461113b5760405162461bcd60e51b815260040161096e90612d6f565b611143611f60565b565b6009818154811061115557600080fd5b60009182526020909120600790910201805460018201546002830154600390930154919350919084565b6001600160a01b0382166000908152600760205260408120815b6001600160a01b038516600090815260086020526040902054811015611489576001600160a01b03851660009081526008602052604090208054339190839081106111e6576111e6612d22565b60009182526020909120600290910201546001600160a01b031603611481576001600160a01b03851660009081526008602052604090208054600194508290811061123357611233612d22565b9060005260206000209060020201600101548411156112a65760405162461bcd60e51b815260206004820152602960248201527f416d6f756e7420746f207265766f6b6520657863656564732064656c65676174604482015268195908185b5bdd5b9d60ba1b606482015260840161096e565b6001600160a01b03851660009081526008602052604090208054859190839081106112d3576112d3612d22565b906000526020600020906002020160010160008282546112f39190612dae565b925050819055508382600501600082825461130e9190612dae565b9091555050604051339085156108fc029086906000818181858888f19350505050158015611340573d6000803e3d6000fd5b506001600160a01b038516600090815260086020526040902080548290811061136b5761136b612d22565b90600052602060002090600202016001015460000361147c576001600160a01b038516600090815260086020526040902080546113aa90600190612dae565b815481106113ba576113ba612d22565b906000526020600020906002020160086000876001600160a01b03166001600160a01b0316815260200190815260200160002082815481106113fe576113fe612d22565b60009182526020808320845460029093020180546001600160a01b0319166001600160a01b039384161781556001948501549401939093558716815260089091526040902080548061145257611452612dc1565b60008281526020812060026000199093019283020180546001600160a01b03191681556001015590555b611489565b600101611199565b50816114d75760405162461bcd60e51b815260206004820152601a60248201527f4e6f2064656c65676174696f6e207265636f726420666f756e64000000000000604482015260640161096e565b6040518381526001600160a01b0385169033907f315eeabd37f0e4fa7271d8aced9dd94fe444aeaf5d2722d3a6a7a4a7a74a4523906020016108ff565b6005546001600160a01b0316331461153e5760405162461bcd60e51b815260040161096e90612d6f565b600255565b3360009081526007602052604090205460ff16156115a35760405162461bcd60e51b815260206004820152601b60248201527f416c72656164792061207065726d697373696f6e6564206e6f64650000000000604482015260640161096e565b6002543410156115e85760405162461bcd60e51b815260206004820152601060248201526f11195c1bdcda5d081c995c5d5a5c995960821b604482015260640161096e565b6040805160e0810182526000808252346020808401918252838501838152606085018481526080860185815260a0870186815260c088018781523380895260079096528988209851895490151560ff19918216178a55965160018a810191909155945160028a0180549115159190981617909655915160038801555160048701555160058601559151600694850155600a8054928301815583527fc65a7bb8d6351c1cf70c95a316cc6a92839c986682d98bc35f958f4883f9d2a890910180546001600160a01b03191682179055915492517f02b752a11416483894ccba29da0e71c4bee394b901144812c44d2a7e7d6c7ead9190a3565b6000806060600454841061172c5760405162461bcd60e51b8152602060048201526013602482015272125b9d985b1a59081c1c9bdc1bdcd85b081251606a1b604482015260640161096e565b6000848152600d6020526040902060018101546002820154600390920180546001600160a01b039092169291819061176390612b8b565b80601f016020809104026020016040519081016040528092919081815260200182805461178f90612b8b565b80156117dc5780601f106117b1576101008083540402835291602001916117dc565b820191906000526020600020905b8154815290600101906020018083116117bf57829003601f168201915b505050505090509250925092509193909250565b60006009838154811061180557611805612d22565b600091825260208083206001600160a01b038616845260056007909302019190910190526040902054905092915050565b33600081815260076020526040902054606091829160ff1661186a5760405162461bcd60e51b815260040161096e90612d38565b60006009858154811061187f5761187f612d22565b90600052602060002090600702016003015467ffffffffffffffff8111156118a9576118a96129a9565b6040519080825280602002602001820160405280156118d2578160200160208202803683370190505b5090506000600986815481106118ea576118ea612d22565b90600052602060002090600702016003015467ffffffffffffffff811115611914576119146129a9565b60405190808252806020026020018201604052801561193d578160200160208202803683370190505b50905060005b6009878154811061195657611956612d22565b906000526020600020906007020160030154811015611b26576000801b6009888154811061198657611986612d22565b9060005260206000209060070201600601600060098a815481106119ac576119ac612d22565b906000526020600020906007020160040184815481106119ce576119ce612d22565b60009182526020808320909101546001600160a01b0316835282019290925260400190205414611b1e5760098781548110611a0b57611a0b612d22565b9060005260206000209060070201600601600060098981548110611a3157611a31612d22565b90600052602060002090600702016004018381548110611a5357611a53612d22565b60009182526020808320909101546001600160a01b031683528201929092526040019020548351849083908110611a8c57611a8c612d22565b60200260200101818152505060098781548110611aab57611aab612d22565b90600052602060002090600702016004018181548110611acd57611acd612d22565b9060005260206000200160009054906101000a90046001600160a01b0316828281518110611afd57611afd612d22565b60200260200101906001600160a01b031690816001600160a01b0316815250505b600101611943565b50909350915050915091565b600060098281548110611b4757611b47612d22565b600091825260209091206004600790920201015492915050565b6005546001600160a01b03163314611b8b5760405162461bcd60e51b815260040161096e90612d6f565b600155565b60608060098381548110611ba657611ba6612d22565b90600052602060002090600702016004018054905060098481548110611bce57611bce612d22565b9060005260206000209060070201600201546002611bec9190612dd7565b1015611c3a5760405162461bcd60e51b815260206004820152601860248201527f4e6f207075626c6963206b65797320636f6c6c65637465640000000000000000604482015260640161096e565b600060098481548110611c4f57611c4f612d22565b90600052602060002090600702016002015467ffffffffffffffff811115611c7957611c796129a9565b604051908082528060200260200182016040528015611ca2578160200160208202803683370190505b509050600060098581548110611cba57611cba612d22565b90600052602060002090600702016002015467ffffffffffffffff811115611ce457611ce46129a9565b604051908082528060200260200182016040528015611d0d578160200160208202803683370190505b50905060005b60098681548110611d2657611d26612d22565b906000526020600020906007020160020154811015611ef6576000801b60098781548110611d5657611d56612d22565b9060005260206000209060070201600501600060098981548110611d7c57611d7c612d22565b90600052602060002090600702016004018481548110611d9e57611d9e612d22565b60009182526020808320909101546001600160a01b0316835282019290925260400190205414611eee5760098681548110611ddb57611ddb612d22565b9060005260206000209060070201600501600060098881548110611e0157611e01612d22565b90600052602060002090600702016004018381548110611e2357611e23612d22565b60009182526020808320909101546001600160a01b031683528201929092526040019020548351849083908110611e5c57611e5c612d22565b60200260200101818152505060098681548110611e7b57611e7b612d22565b90600052602060002090600702016004018181548110611e9d57611e9d612d22565b9060005260206000200160009054906101000a90046001600160a01b0316828281518110611ecd57611ecd612d22565b60200260200101906001600160a01b031690816001600160a01b0316815250505b600101611d13565b509094909350915050565b6000805b600c54811015611f5757826001600160a01b0316600c8281548110611f2c57611f2c612d22565b6000918252602090912001546001600160a01b031603611f4f5750600192915050565b600101611f05565b50600092915050565b6001544390600090611f729042612d9b565b6009805460018181018355600083905260079091027f6e1540171b6c0c960b71a7020d9f60077f6af931a8bbf590da0223dacf75c7af81018681557f6e1540171b6c0c960b71a7020d9f60077f6af931a8bbf590da0223dacf75c7b090910184905591549293509091611fe59190612dae565b600655611ff0611ff5565b505050565b60065460000361200157565b600b54156122615760005b600b54811015612254576000600b828154811061202b5761202b612d22565b6000918252602090912001546001600160a01b0316905061204b81611f01565b1561224b576001600160a01b0381166000818152600760209081526040808320805460ff199081168255600290910180549091169055519182527f763b63b30e91c843bb39e4379603697003d3b7c1f192619cd782fa33bdc44396910160405180910390a26001600160a01b038116600090815260076020526040812060068101546001909101546120dd9190612d9b565b6001600160a01b038316600081815260076020526040808220600181018390556005810183905560060182905551929350909183156108fc0291849190818181858888f19350505050158015612137573d6000803e3d6000fd5b5060005b6001600160a01b038316600090815260086020526040902054811015612248576001600160a01b038316600090815260086020526040812080548390811061218557612185612d22565b60009182526020808320604080518082018252600290940290910180546001600160a01b031680855260019091015492840185905290519294509092909183156108fc0291849190818181858888f193505050501580156121ea573d6000803e3d6000fd5b506001600160a01b038516600090815260086020526040902080548490811061221557612215612d22565b60009182526020822060029091020180546001600160a01b031916815560019081019190915592909201915061213b9050565b50505b5060010161200c565b50612261600b60006127d0565b600a54600c5460009161227391612d9b565b67ffffffffffffffff81111561228b5761228b6129a9565b6040519080825280602002602001820160405280156122b4578160200160208202803683370190505b5090506000805b600c548110156123775760076000600c83815481106122dc576122dc612d22565b60009182526020808320909101546001600160a01b0316835282019290925260400190205460ff161561236f57600c818154811061231c5761231c612d22565b6000918252602090912001546001600160a01b0316838361233c81612bdb565b94508151811061234e5761234e612d22565b60200260200101906001600160a01b031690816001600160a01b0316815250505b6001016122bb565b5060005b600a548110156123ea57600a818154811061239857612398612d22565b6000918252602090912001546001600160a01b031683836123b881612bdb565b9450815181106123ca576123ca612d22565b6001600160a01b039092166020928302919091019091015260010161237b565b5060005b6123f9600183612dae565b81101561255257600061240d826001612d9b565b90505b82811015612549576007600085848151811061242e5761242e612d22565b60200260200101516001600160a01b03166001600160a01b03168152602001908152602001600020600501546007600086848151811061247057612470612d22565b60200260200101516001600160a01b03166001600160a01b031681526020019081526020016000206005015411156125415760008483815181106124b6576124b6612d22565b602002602001015190508482815181106124d2576124d2612d22565b60200260200101518584815181106124ec576124ec612d22565b60200260200101906001600160a01b031690816001600160a01b0316815250508085838151811061251f5761251f612d22565b60200260200101906001600160a01b031690816001600160a01b031681525050505b600101612410565b506001016123ee565b5061255f600c60006127d0565b61256b600a60006127d0565b60005b818110801561257e575060035481105b156126ad57600083828151811061259757612597612d22565b602090810291909101810151600c8054600181019091557fdf6966c971051c3d54ec59162606531493a51404a002842f56009d7e5cf4a8c70180546001600160a01b0319166001600160a01b0383169081179091556000908152600790925260409091205490915060ff1615801561262c57506002546001600160a01b03821660009081526007602052604090206001015410155b1561269a576001600160a01b0381166000818152600760209081526040918290208054600160ff1991821681178355600290920180549091168217905591519182527f763b63b30e91c843bb39e4379603697003d3b7c1f192619cd782fa33bdc44396910160405180910390a25b50806126a581612bdb565b91505061256e565b5060035481111561278f576000600354826126c89190612dae565b67ffffffffffffffff8111156126e0576126e06129a9565b604051908082528060200260200182016040528015612709578160200160208202803683370190505b506003549091505b8281101561277857600084828151811061272d5761272d612d22565b602002602001015190508083600354846127479190612dae565b8151811061275757612757612d22565b6001600160a01b039092166020928302919091019091015250600101612711565b50805161278c90600a9060208401906127f1565b50505b60006009600654815481106127a6576127a6612d22565b90600052602060002090600702019050600c816004019080546127ca929190612856565b50505050565b50805460008255906000526020600020908101906127ee9190612896565b50565b828054828255906000526020600020908101928215612846579160200282015b8281111561284657825182546001600160a01b0319166001600160a01b03909116178255602090920191600190910190612811565b50612852929150612896565b5090565b8280548282559060005260206000209081019282156128465760005260206000209182015b8281111561284657825482559160010191906001019061287b565b5b808211156128525760008155600101612897565b6000602082840312156128bd57600080fd5b5035919050565b6000815180845260005b818110156128ea576020818501810151868301820152016128ce565b506000602082860101526020601f19601f83011685010191505092915050565b84815260018060a01b038416602082015282604082015260806060820152600061293760808301846128c4565b9695505050505050565b80356001600160a01b038116811461295857600080fd5b919050565b60006020828403121561296f57600080fd5b61297882612941565b9392505050565b6000806040838503121561299257600080fd5b61299b83612941565b946020939093013593505050565b634e487b7160e01b600052604160045260246000fd5b600080604083850312156129d257600080fd5b82359150602083013567ffffffffffffffff8111156129f057600080fd5b8301601f81018513612a0157600080fd5b803567ffffffffffffffff811115612a1b57612a1b6129a9565b604051601f8201601f19908116603f0116810167ffffffffffffffff81118282101715612a4a57612a4a6129a9565b604052818152828201602001871015612a6257600080fd5b816020840160208301376000602083830101528093505050509250929050565b60008060408385031215612a9557600080fd5b82359150612aa560208401612941565b90509250929050565b60008060408385031215612ac157600080fd5b50508035926020909101359150565b60018060a01b0384168152826020820152606060408201526000612af760608301846128c4565b95945050505050565b6040808252835190820181905260009060208501906060840190835b81811015612b3a578351835260209384019390920191600101612b1c565b50508381036020808601919091528551808352918101925085019060005b81811015612b7f5782516001600160a01b0316845260209384019390920191600101612b58565b50919695505050505050565b600181811c90821680612b9f57607f821691505b602082108103612bbf57634e487b7160e01b600052602260045260246000fd5b50919050565b634e487b7160e01b600052601160045260246000fd5b600060018201612bed57612bed612bc5565b5060010190565b601f821115611ff057806000526020600020601f840160051c81016020851015612c1b5750805b601f840160051c820191505b81811015612c3b5760008155600101612c27565b5050505050565b815167ffffffffffffffff811115612c5c57612c5c6129a9565b612c7081612c6a8454612b8b565b84612bf4565b6020601f821160018114612ca45760008315612c8c5750848201515b600019600385901b1c1916600184901b178455612c3b565b600084815260208120601f198516915b82811015612cd45787850151825560209485019460019092019101612cb4565b5084821015612cf25786840151600019600387901b60f8161c191681555b50505050600190811b01905550565b828152604060208201526000612d1a60408301846128c4565b949350505050565b634e487b7160e01b600052603260045260246000fd5b60208082526017908201527f4e6f742061207065726d697373696f6e6564206e6f6465000000000000000000604082015260600190565b6020808252601290820152712737ba1031b7b73a3930b1ba1037bbb732b960711b604082015260600190565b808201808211156109b6576109b6612bc5565b818103818111156109b6576109b6612bc5565b634e487b7160e01b600052603160045260246000fd5b80820281158282048414176109b6576109b6612bc556fea264697066735822122084eddb4cc8dc65220f0a15a49ba52ef91409de4ee82c8cd379d0dc935874cecb64736f6c634300081b0033763b63b30e91c843bb39e4379603697003d3b7c1f192619cd782fa33bdc44396",
  "linkReferences": {},
  "deployedLinkReferences": {}
}