{
  "_format": "hh-sol-artifact-1",
  "contractName": "PermissionManagerV2",
  "sourceName": "contracts/PermissionMgrV2.sol",
  "abi": [
    {
      "inputs": [
        {
          "internalType": "uint256",
          "name": "_roundBlocks",
          "type": "uint256"
        },
        {
          "internalType": "uint256",
          "name": "_roundTimeout",
          "type": "uint256"
        },
        {
          "internalType": "uint256",
          "name": "_minDeposit",
          "type": "uint256"
        },
        {
          "internalType": "uint256",
          "name": "_maxValidators",
          "type": "uint256"
        }
      ],
      "stateMutability": "nonpayable",
      "type": "constructor"
    },
    {
      "anonymous": false,
      "inputs": [
        {
          "indexed": true,
          "internalType": "address",
          "name": "delegator",
          "type": "address"
        },
        {
          "indexed": true,
          "internalType": "address",
          "name": "validator",
          "type": "address"
        },
        {
          "indexed": false,
          "internalType": "uint256",
          "name": "amount",
          "type": "uint256"
        }
      ],
      "name": "Delegated",
      "type": "event"
    },
    {
      "anonymous": false,
      "inputs": [
        {
          "indexed": true,
          "internalType": "uint256",
          "name": "proposalId",
          "type": "uint256"
        },
        {
          "indexed": true,
          "internalType": "address",
          "name": "proposer",
          "type": "address"
        },
        {
          "indexed": false,
          "internalType": "uint256",
          "name": "blockNumber",
          "type": "uint256"
        },
        {
          "indexed": false,
          "internalType": "string",
          "name": "description",
          "type": "string"
        }
      ],
      "name": "NewProposalArrived",
      "type": "event"
    },
    {
      "anonymous": false,
      "inputs": [
        {
          "indexed": true,
          "internalType": "address",
          "name": "node",
          "type": "address"
        },
        {
          "indexed": true,
          "internalType": "uint256",
          "name": "roundIndex",
          "type": "uint256"
        }
      ],
      "name": "NodeElectionProposed",
      "type": "event"
    },
    {
      "anonymous": false,
      "inputs": [
        {
          "indexed": true,
          "internalType": "address",
          "name": "node",
          "type": "address"
        },
        {
          "indexed": true,
          "internalType": "uint256",
          "name": "roundIndex",
          "type": "uint256"
        }
      ],
      "name": "NodeLeaveProposed",
      "type": "event"
    },
    {
      "anonymous": false,
      "inputs": [
        {
          "indexed": true,
          "internalType": "address",
          "name": "delegator",
          "type": "address"
        },
        {
          "indexed": true,
          "internalType": "address",
          "name": "valildator",
          "type": "address"
        },
        {
          "indexed": false,
          "internalType": "uint256",
          "name": "amounToRevoke",
          "type": "uint256"
        }
      ],
      "name": "RevokeDelegated",
      "type": "event"
    },
    {
      "anonymous": false,
      "inputs": [
        {
          "indexed": true,
          "internalType": "address",
          "name": "staker",
          "type": "address"
        },
        {
          "indexed": false,
          "internalType": "uint256",
          "name": "amount",
          "type": "uint256"
        }
      ],
      "name": "Staked",
      "type": "event"
    },
    {
      "anonymous": false,
      "inputs": [
        {
          "indexed": true,
          "internalType": "uint256",
          "name": "roundIndex",
          "type": "uint256"
        },
        {
          "indexed": false,
          "internalType": "bytes32[]",
          "name": "publicKeys",
          "type": "bytes32[]"
        },
        {
          "indexed": false,
          "internalType": "address[]",
          "name": "participants",
          "type": "address[]"
        }
      ],
      "name": "SystemPublicKeyGenerated",
      "type": "event"
    },
    {
      "anonymous": false,
      "inputs": [
        {
          "indexed": true,
          "internalType": "address",
          "name": "node",
          "type": "address"
        },
        {
          "indexed": false,
          "internalType": "uint256",
          "name": "amount",
          "type": "uint256"
        },
        {
          "indexed": false,
          "internalType": "uint256",
          "name": "gasUsed",
          "type": "uint256"
        }
      ],
      "name": "TransferGasUsed",
      "type": "event"
    },
    {
      "anonymous": false,
      "inputs": [
        {
          "indexed": true,
          "internalType": "address",
          "name": "validator",
          "type": "address"
        },
        {
          "indexed": false,
          "internalType": "bool",
          "name": "added",
          "type": "bool"
        }
      ],
      "name": "ValidatorUpdated",
      "type": "event"
    },
    {
      "inputs": [],
      "name": "MAX_VALIDATORS",
      "outputs": [
        {
          "internalType": "uint256",
          "name": "",
          "type": "uint256"
        }
      ],
      "stateMutability": "view",
      "type": "function"
    },
    {
      "inputs": [],
      "name": "MIN_DEPOSIT",
      "outputs": [
        {
          "internalType": "uint256",
          "name": "",
          "type": "uint256"
        }
      ],
      "stateMutability": "view",
      "type": "function"
    },
    {
      "inputs": [],
      "name": "PROPOSAL_ID",
      "outputs": [
        {
          "internalType": "uint256",
          "name": "",
          "type": "uint256"
        }
      ],
      "stateMutability": "view",
      "type": "function"
    },
    {
      "inputs": [],
      "name": "ROUND_BLOCKS",
      "outputs": [
        {
          "internalType": "uint256",
          "name": "",
          "type": "uint256"
        }
      ],
      "stateMutability": "view",
      "type": "function"
    },
    {
      "inputs": [],
      "name": "ROUND_TIMEOUT",
      "outputs": [
        {
          "internalType": "uint256",
          "name": "",
          "type": "uint256"
        }
      ],
      "stateMutability": "view",
      "type": "function"
    },
    {
      "inputs": [
        {
          "internalType": "uint256",
          "name": "",
          "type": "uint256"
        }
      ],
      "name": "candidates",
      "outputs": [
        {
          "internalType": "address",
          "name": "",
          "type": "address"
        }
      ],
      "stateMutability": "view",
      "type": "function"
    },
    {
      "inputs": [],
      "name": "currentRoundIndex",
      "outputs": [
        {
          "internalType": "uint256",
          "name": "",
          "type": "uint256"
        }
      ],
      "stateMutability": "view",
      "type": "function"
    },
    {
      "inputs": [
        {
          "internalType": "address",
          "name": "validator",
          "type": "address"
        }
      ],
      "name": "delegate",
      "outputs": [],
      "stateMutability": "payable",
      "type": "function"
    },
    {
      "inputs": [
        {
          "internalType": "address",
          "name": "",
          "type": "address"
        },
        {
          "internalType": "uint256",
          "name": "",
          "type": "uint256"
        }
      ],
      "name": "delegations",
      "outputs": [
        {
          "internalType": "address",
          "name": "delegator",
          "type": "address"
        },
        {
          "internalType": "uint256",
          "name": "amount",
          "type": "uint256"
        }
      ],
      "stateMutability": "view",
      "type": "function"
    },
    {
      "inputs": [
        {
          "internalType": "uint256",
          "name": "_round",
          "type": "uint256"
        }
      ],
      "name": "getActiveNodeNum",
      "outputs": [
        {
          "internalType": "uint256",
          "name": "",
          "type": "uint256"
        }
      ],
      "stateMutability": "view",
      "type": "function"
    },
    {
      "inputs": [],
      "name": "getCandidatesNum",
      "outputs": [
        {
          "internalType": "uint256",
          "name": "",
          "type": "uint256"
        }
      ],
      "stateMutability": "view",
      "type": "function"
    },
    {
      "inputs": [],
      "name": "getLeavingNodeNum",
      "outputs": [
        {
          "internalType": "uint256",
          "name": "",
          "type": "uint256"
        }
      ],
      "stateMutability": "view",
      "type": "function"
    },
    {
      "inputs": [
        {
          "internalType": "uint256",
          "name": "_proposalId",
          "type": "uint256"
        }
      ],
      "name": "getProposalInfo",
      "outputs": [
        {
          "internalType": "address",
          "name": "",
          "type": "address"
        },
        {
          "internalType": "uint256",
          "name": "",
          "type": "uint256"
        },
        {
          "internalType": "string",
          "name": "",
          "type": "string"
        }
      ],
      "stateMutability": "view",
      "type": "function"
    },
    {
      "inputs": [
        {
          "internalType": "uint256",
          "name": "_round",
          "type": "uint256"
        },
        {
          "internalType": "address",
          "name": "_node",
          "type": "address"
        }
      ],
      "name": "getRoundPrivateKey",
      "outputs": [
        {
          "internalType": "bytes32",
          "name": "",
          "type": "bytes32"
        }
      ],
      "stateMutability": "view",
      "type": "function"
    },
    {
      "inputs": [
        {
          "internalType": "uint256",
          "name": "_round",
          "type": "uint256"
        },
        {
          "internalType": "address",
          "name": "_node",
          "type": "address"
        }
      ],
      "name": "getRoundPublicKey",
      "outputs": [
        {
          "internalType": "bytes32",
          "name": "",
          "type": "bytes32"
        }
      ],
      "stateMutability": "view",
      "type": "function"
    },
    {
      "inputs": [
        {
          "internalType": "uint256",
          "name": "_round",
          "type": "uint256"
        }
      ],
      "name": "getSystemPublicKey",
      "outputs": [
        {
          "internalType": "bytes32[]",
          "name": "",
          "type": "bytes32[]"
        },
        {
          "internalType": "address[]",
          "name": "",
          "type": "address[]"
        }
      ],
      "stateMutability": "view",
      "type": "function"
    },
    {
      "inputs": [],
      "name": "getValidatorsNum",
      "outputs": [
        {
          "internalType": "uint256",
          "name": "",
          "type": "uint256"
        }
      ],
      "stateMutability": "view",
      "type": "function"
    },
    {
      "inputs": [
        {
          "internalType": "uint256",
          "name": "",
          "type": "uint256"
        }
      ],
      "name": "leavingNodes",
      "outputs": [
        {
          "internalType": "address",
          "name": "",
          "type": "address"
        }
      ],
      "stateMutability": "view",
      "type": "function"
    },
    {
      "inputs": [
        {
          "internalType": "address",
          "name": "",
          "type": "address"
        }
      ],
      "name": "nodes",
      "outputs": [
        {
          "internalType": "bool",
          "name": "isPermissioned",
          "type": "bool"
        },
        {
          "internalType": "uint256",
          "name": "deposit",
          "type": "uint256"
        },
        {
          "internalType": "bool",
          "name": "active",
          "type": "bool"
        },
        {
          "internalType": "bytes32",
          "name": "publicKey",
          "type": "bytes32"
        },
        {
          "internalType": "bytes32",
          "name": "privateKey",
          "type": "bytes32"
        },
        {
          "internalType": "uint256",
          "name": "totalStake",
          "type": "uint256"
        },
        {
          "internalType": "uint256",
          "name": "selfStake",
          "type": "uint256"
        }
      ],
      "stateMutability": "view",
      "type": "function"
    },
    {
      "inputs": [],
      "name": "owner",
      "outputs": [
        {
          "internalType": "address",
          "name": "",
          "type": "address"
        }
      ],
      "stateMutability": "view",
      "type": "function"
    },
    {
      "inputs": [
        {
          "internalType": "uint256",
          "name": "",
          "type": "uint256"
        }
      ],
      "name": "proposals",
      "outputs": [
        {
          "internalType": "uint256",
          "name": "proposalId",
          "type": "uint256"
        },
        {
          "internalType": "address",
          "name": "proposer",
          "type": "address"
        },
        {
          "internalType": "uint256",
          "name": "blockNumber",
          "type": "uint256"
        },
        {
          "internalType": "string",
          "name": "description",
          "type": "string"
        }
      ],
      "stateMutability": "view",
      "type": "function"
    },
    {
      "inputs": [],
      "name": "proposeElection",
      "outputs": [],
      "stateMutability": "payable",
      "type": "function"
    },
    {
      "inputs": [],
      "name": "proposeLeave",
      "outputs": [],
      "stateMutability": "nonpayable",
      "type": "function"
    },
    {
      "inputs": [
        {
          "internalType": "address",
          "name": "delegator",
          "type": "address"
        },
        {
          "internalType": "uint256",
          "name": "amountToRevoke",
          "type": "uint256"
        }
      ],
      "name": "revokeDelegation",
      "outputs": [],
      "stateMutability": "nonpayable",
      "type": "function"
    },
    {
      "inputs": [
        {
          "internalType": "uint256",
          "name": "",
          "type": "uint256"
        }
      ],
      "name": "rounds",
      "outputs": [
        {
          "internalType": "uint256",
          "name": "startBlock",
          "type": "uint256"
        },
        {
          "internalType": "uint256",
          "name": "timeout",
          "type": "uint256"
        },
        {
          "internalType": "uint256",
          "name": "publicKeyCount",
          "type": "uint256"
        },
        {
          "internalType": "uint256",
          "name": "privateKeyCount",
          "type": "uint256"
        },
        {
          "internalType": "bool",
          "name": "isGenerated",
          "type": "bool"
        }
      ],
      "stateMutability": "view",
      "type": "function"
    },
    {
      "inputs": [
        {
          "internalType": "uint256",
          "name": "_minDeposit",
          "type": "uint256"
        }
      ],
      "name": "setMinDeposit",
      "outputs": [],
      "stateMutability": "nonpayable",
      "type": "function"
    },
    {
      "inputs": [
        {
          "internalType": "uint256",
          "name": "_roundBlocks",
          "type": "uint256"
        }
      ],
      "name": "setRoundBlocks",
      "outputs": [],
      "stateMutability": "nonpayable",
      "type": "function"
    },
    {
      "inputs": [
        {
          "internalType": "uint256",
          "name": "_roundTimeout",
          "type": "uint256"
        }
      ],
      "name": "setRoundTimeout",
      "outputs": [],
      "stateMutability": "nonpayable",
      "type": "function"
    },
    {
      "inputs": [],
      "name": "stake",
      "outputs": [],
      "stateMutability": "payable",
      "type": "function"
    },
    {
      "inputs": [],
      "name": "startElection",
      "outputs": [],
      "stateMutability": "nonpayable",
      "type": "function"
    },
    {
      "inputs": [
        {
          "internalType": "bytes32",
          "name": "_priKey",
          "type": "bytes32"
        },
        {
          "internalType": "uint256",
          "name": "_round",
          "type": "uint256"
        }
      ],
      "name": "submitPriKey",
      "outputs": [],
      "stateMutability": "nonpayable",
      "type": "function"
    },
    {
      "inputs": [
        {
          "internalType": "uint256",
          "name": "_blockNumber",
          "type": "uint256"
        },
        {
          "internalType": "string",
          "name": "_description",
          "type": "string"
        }
      ],
      "name": "submitProposal",
      "outputs": [],
      "stateMutability": "nonpayable",
      "type": "function"
    },
    {
      "inputs": [
        {
          "internalType": "bytes32",
          "name": "_pubKey",
          "type": "bytes32"
        },
        {
          "internalType": "bytes",
          "name": "_signature",
          "type": "bytes"
        },
        {
          "internalType": "uint256",
          "name": "_round",
          "type": "uint256"
        }
      ],
      "name": "submitPubKey",
      "outputs": [],
      "stateMutability": "nonpayable",
      "type": "function"
    },
    {
      "inputs": [
        {
          "internalType": "uint256",
          "name": "",
          "type": "uint256"
        }
      ],
      "name": "validators",
      "outputs": [
        {
          "internalType": "address",
          "name": "",
          "type": "address"
        }
      ],
      "stateMutability": "view",
      "type": "function"
    }
  ],
  "bytecode": "0x6080604052600060065534801561001557600080fd5b5060405161376d38038061376d833981016040819052610034916109f2565b600580546001600160a01b03191633179055600084815560018490556002839055600382905560045561006561006e565b50505050610aaf565b60015443906000906100809042610a3e565b6009805460018181018355600083905260089091027f6e1540171b6c0c960b71a7020d9f60077f6af931a8bbf590da0223dacf75c7af81018681557f6e1540171b6c0c960b71a7020d9f60077f6af931a8bbf590da0223dacf75c7b0909101849055915492935090916100f39190610a57565b6006556100fe610103565b505050565b60065460000361010f57565b600b541561035d5760005b600b54811015610350576000600b828154811061013957610139610a6a565b6000918252602090912001546001600160a01b03169050610159816108b8565b15610347576001600160a01b0381166000818152600760209081526040808320805460ff1990811682556002909101805490911690555191825260008051602061374d833981519152910160405180910390a26001600160a01b038116600090815260076020526040812060068101546001909101546101d99190610a3e565b6001600160a01b038316600081815260076020526040808220600181018390556005810183905560060182905551929350909183156108fc0291849190818181858888f19350505050158015610233573d6000803e3d6000fd5b5060005b6001600160a01b038316600090815260086020526040902054811015610344576001600160a01b038316600090815260086020526040812080548390811061028157610281610a6a565b60009182526020808320604080518082018252600290940290910180546001600160a01b031680855260019091015492840185905290519294509092909183156108fc0291849190818181858888f193505050501580156102e6573d6000803e3d6000fd5b506001600160a01b038516600090815260086020526040902080548490811061031157610311610a6a565b60009182526020822060029091020180546001600160a01b03191681556001908101919091559290920191506102379050565b50505b5060010161011a565b5061035d600b6000610917565b600a54600c5460009161036f91610a3e565b6001600160401b0381111561038657610386610a80565b6040519080825280602002602001820160405280156103af578160200160208202803683370190505b5090506000805b600c548110156104725760076000600c83815481106103d7576103d7610a6a565b60009182526020808320909101546001600160a01b0316835282019290925260400190205460ff161561046a57600c818154811061041757610417610a6a565b6000918252602090912001546001600160a01b0316838361043781610a96565b94508151811061044957610449610a6a565b60200260200101906001600160a01b031690816001600160a01b0316815250505b6001016103b6565b5060005b600a548110156104e557600a818154811061049357610493610a6a565b6000918252602090912001546001600160a01b031683836104b381610a96565b9450815181106104c5576104c5610a6a565b6001600160a01b0390921660209283029190910190910152600101610476565b5060005b6104f4600183610a57565b81101561064d576000610508826001610a3e565b90505b82811015610644576007600085848151811061052957610529610a6a565b60200260200101516001600160a01b03166001600160a01b03168152602001908152602001600020600501546007600086848151811061056b5761056b610a6a565b60200260200101516001600160a01b03166001600160a01b0316815260200190815260200160002060050154111561063c5760008483815181106105b1576105b1610a6a565b602002602001015190508482815181106105cd576105cd610a6a565b60200260200101518584815181106105e7576105e7610a6a565b60200260200101906001600160a01b031690816001600160a01b0316815250508085838151811061061a5761061a610a6a565b60200260200101906001600160a01b031690816001600160a01b031681525050505b60010161050b565b506001016104e9565b5061065a600c6000610917565b610666600a6000610917565b60005b8181108015610679575060035481105b1561079657600083828151811061069257610692610a6a565b602090810291909101810151600c8054600181019091557fdf6966c971051c3d54ec59162606531493a51404a002842f56009d7e5cf4a8c70180546001600160a01b0319166001600160a01b0383169081179091556000908152600790925260409091205490915060ff1615801561072757506002546001600160a01b03821660009081526007602052604090206001015410155b15610783576001600160a01b0381166000818152600760209081526040918290208054600160ff19918216811783556002909201805490911682179055915191825260008051602061374d833981519152910160405180910390a25b508061078e81610a96565b915050610669565b50600354811115610877576000600354826107b19190610a57565b6001600160401b038111156107c8576107c8610a80565b6040519080825280602002602001820160405280156107f1578160200160208202803683370190505b506003549091505b8281101561086057600084828151811061081557610815610a6a565b6020026020010151905080836003548461082f9190610a57565b8151811061083f5761083f610a6a565b6001600160a01b0390921660209283029190910190910152506001016107f9565b50805161087490600a906020840190610938565b50505b600060096006548154811061088e5761088e610a6a565b90600052602060002090600802019050600c816004019080546108b292919061099d565b50505050565b6000805b600c5481101561090e57826001600160a01b0316600c82815481106108e3576108e3610a6a565b6000918252602090912001546001600160a01b0316036109065750600192915050565b6001016108bc565b50600092915050565b508054600082559060005260206000209081019061093591906109dd565b50565b82805482825590600052602060002090810192821561098d579160200282015b8281111561098d57825182546001600160a01b0319166001600160a01b03909116178255602090920191600190910190610958565b506109999291506109dd565b5090565b82805482825590600052602060002090810192821561098d5760005260206000209182015b8281111561098d5782548255916001019190600101906109c2565b5b8082111561099957600081556001016109de565b60008060008060808587031215610a0857600080fd5b505082516020840151604085015160609095015191969095509092509050565b634e487b7160e01b600052601160045260246000fd5b80820180821115610a5157610a51610a28565b92915050565b81810381811115610a5157610a51610a28565b634e487b7160e01b600052603260045260246000fd5b634e487b7160e01b600052604160045260246000fd5b600060018201610aa857610aa8610a28565b5060010190565b612c8f80610abe6000396000f3fe6080604052600436106101f95760003560e01c806362d73eb81161010d5780638fcc9cfb116100a0578063d6dc40e91161006f578063d6dc40e91461060c578063e1e158a51461062c578063ec8f2c3f14610642578063ed7ab46514610662578063f1ec444f1461068257600080fd5b80638fcc9cfb1461059557806399fd2f02146105b5578063bc903cb8146105bd578063c4caebad146105ec57600080fd5b806375a2b6ca116100dc57806375a2b6ca146104f55780638c65c81f1461050b5780638da5cb5b146105555780638ed0a1951461057557600080fd5b806362d73eb81461049f5780636896ef4b146104b4578063714897df146104ca578063731cb2ce146104e057600080fd5b806332be0b74116101905780633a4b66f11161015f5780633a4b66f11461042f57806341a7960f146104375780635561a1e51461045757806357801bce1461046c5780635c19a95c1461048c57600080fd5b806332be0b74146103a25780633477ee2e146103c257806334ba3c1b146103fa57806335aa2e441461040f57600080fd5b806321947418116101cc578063219474181461030c578063223fae0914610321578063230aac5514610360578063242a032f1461038257600080fd5b8063013cf08b146101fe5780630bc9136e14610237578063189a5a171461025b5780631f23b03e146102f6575b600080fd5b34801561020a57600080fd5b5061021e6102193660046126a6565b6106b0565b60405161022e9493929190612705565b60405180910390f35b34801561024357600080fd5b5061024d60045481565b60405190815260200161022e565b34801561026757600080fd5b506102b9610276366004612758565b600760205260009081526040902080546001820154600283015460038401546004850154600586015460069096015460ff95861696949590931693919290919087565b6040805197151588526020880196909652931515948601949094526060850191909152608084015260a083019190915260c082015260e00161022e565b34801561030257600080fd5b5061024d60005481565b34801561031857600080fd5b50600a5461024d565b34801561032d57600080fd5b5061034161033c36600461277a565b61076d565b604080516001600160a01b03909316835260208301919091520161022e565b34801561036c57600080fd5b5061038061037b366004612834565b6107b3565b005b34801561038e57600080fd5b5061024d61039d36600461288f565b61088c565b3480156103ae57600080fd5b506103806103bd3660046126a6565b61093b565b3480156103ce57600080fd5b506103e26103dd3660046126a6565b61096a565b6040516001600160a01b03909116815260200161022e565b34801561040657600080fd5b50600c5461024d565b34801561041b57600080fd5b506103e261042a3660046126a6565b610994565b6103806109a4565b34801561044357600080fd5b506103e26104523660046126a6565b610a70565b34801561046357600080fd5b50610380610a80565b34801561047857600080fd5b506103806104873660046128bb565b610b8b565b61038061049a366004612758565b610d2a565b3480156104ab57600080fd5b50610380610f2a565b3480156104c057600080fd5b5061024d60065481565b3480156104d657600080fd5b5061024d60035481565b3480156104ec57600080fd5b50600b5461024d565b34801561050157600080fd5b5061024d60015481565b34801561051757600080fd5b5061052b6105263660046126a6565b610fd4565b6040805195865260208601949094529284019190915260608301521515608082015260a00161022e565b34801561056157600080fd5b506005546103e2906001600160a01b031681565b34801561058157600080fd5b5061038061059036600461277a565b611018565b3480156105a157600080fd5b506103806105b03660046126a6565b6113ad565b6103806113dc565b3480156105c957600080fd5b506105dd6105d83660046126a6565b611579565b60405161022e939291906128dd565b3480156105f857600080fd5b5061024d61060736600461288f565b611689565b34801561061857600080fd5b5061038061062736600461290d565b6116cf565b34801561063857600080fd5b5061024d60025481565b34801561064e57600080fd5b5061024d61065d3660046126a6565b61187e565b34801561066e57600080fd5b5061038061067d3660046126a6565b6118ad565b34801561068e57600080fd5b506106a261069d3660046126a6565b6118dc565b60405161022e929190612972565b600d60205260009081526040902080546001820154600283015460038401805493946001600160a01b03909316939192916106ea906129fd565b80601f0160208091040260200160405190810160405280929190818152602001828054610716906129fd565b80156107635780601f1061073857610100808354040283529160200191610763565b820191906000526020600020905b81548152906001019060200180831161074657829003601f168201915b5050505050905084565b6008602052816000526040600020818154811061078957600080fd5b6000918252602090912060029091020180546001909101546001600160a01b039091169250905082565b60048054600091826107c483612a4d565b9091555060408051608081018252828152336020808301918252828401888152606084018881526000878152600d909352949091208351815591516001830180546001600160a01b0319166001600160a01b03909216919091179055516002820155915192935091829190600382019061083e9082612aad565b50905050336001600160a01b0316827f43544249454f50e0dc1c9e9dffde127eea71ce2fda1546f3008684c5842b0640868660405161087e929190612b6c565b60405180910390a350505050565b6000336001600160a01b038316146108f65760405162461bcd60e51b815260206004820152602260248201527f4e6f7420617574686f72697a656420746f20766965772070726976617465206b604482015261657960f01b60648201526084015b60405180910390fd5b6009838154811061090957610909612b8d565b600091825260208083206001600160a01b03861684526006600890930201919091019052604090205490505b92915050565b6005546001600160a01b031633146109655760405162461bcd60e51b81526004016108ed90612ba3565b600055565b600a818154811061097a57600080fd5b6000918252602090912001546001600160a01b0316905081565b600c818154811061097a57600080fd5b600034116109f45760405162461bcd60e51b815260206004820152601a60248201527f4d757374207374616b6520706f73697469766520616d6f756e7400000000000060448201526064016108ed565b33600090815260076020526040812060068101805491923492610a18908490612bcf565b9250508190555034816005016000828254610a339190612bcf565b909155505060405134815233907f9e71bc8eea02a63969f509818f2dafb9254532904319f9dbda79b67bd34a5f3d9060200160405180910390a250565b600b818154811061097a57600080fd5b3360008181526007602052604090205460ff16610aaf5760405162461bcd60e51b81526004016108ed90612be2565b3360009081526007602052604090206002015460ff16610b035760405162461bcd60e51b815260206004820152600f60248201526e4e6f6465206e6f742061637469766560881b60448201526064016108ed565b33600081815260076020526040808220600201805460ff19169055600b80546001810182559083527f0175b7a638427703f0dbe7bb9bbf987a2551717b34e79f33b5b1008d1fa01db90180546001600160a01b0319168417905560065490519092917ff3b3804c8980704269949cfccce1da14f0033d4a01846643aaec07b77e01e43791a350565b3360008181526007602052604090205460ff16610bba5760405162461bcd60e51b81526004016108ed90612be2565b6006548214610bfc5760405162461bcd60e51b815260206004820152600e60248201526d0a4deeadcc840dad2e6dac2e8c6d60931b60448201526064016108ed565b6000600960065481548110610c1357610c13612b8d565b600091825260208083203384526006600890930201918201905260409091205490915015610c835760405162461bcd60e51b815260206004820152601d60248201527f416c7265616479207375626d69747465642070726976617465206b657900000060448201526064016108ed565b600960065481548110610c9857610c98612b8d565b906000526020600020906008020160010154421115610ceb5760405162461bcd60e51b815260206004820152600f60248201526e149bdd5b99081d1a5b5959081bdd5d608a1b60448201526064016108ed565b33600090815260076020908152604080832060040187905560068401909152812085905560038201805491610d1f83612a4d565b919050555050505050565b60003411610d7a5760405162461bcd60e51b815260206004820152601d60248201527f4d7573742064656c656761746520706f73697469766520616d6f756e7400000060448201526064016108ed565b6001600160a01b038116600090815260076020526040812060058101805491923492610da7908490612bcf565b9091555060009050805b6001600160a01b038416600090815260086020526040902054811015610e81576001600160a01b0384166000908152600860205260409020805433919083908110610dfe57610dfe612b8d565b60009182526020909120600290910201546001600160a01b031603610e79576001600160a01b0384166000908152600860205260409020805434919083908110610e4a57610e4a612b8d565b90600052602060002090600202016001016000828254610e6a9190612bcf565b9091555060019250610e819050565b600101610db1565b5080610ee5576040805180820182523381523460208083019182526001600160a01b03878116600090815260088352948520805460018082018355918752929095209351600290920290930180546001600160a01b03191691909316178255519101555b6040513481526001600160a01b0384169033907fe5541a6b6103d4fa7e021ed54fad39c66f27a76bd13d374cf6240ae6bd0bb72b9060200160405180910390a3505050565b6005546001600160a01b03163314610f545760405162461bcd60e51b81526004016108ed90612ba3565b600960065481548110610f6957610f69612b8d565b906000526020600020906008020160010154421180610f885750600654155b610fca5760405162461bcd60e51b8152602060048201526013602482015272149bdd5b99081b9bdd081d1a5b5959081bdd5d606a1b60448201526064016108ed565b610fd2611bd8565b565b60098181548110610fe457600080fd5b6000918252602090912060089091020180546001820154600283015460038401546007909401549294509092909160ff1685565b6001600160a01b0382166000908152600760205260408120815b6001600160a01b038516600090815260086020526040902054811015611322576001600160a01b038516600090815260086020526040902080543391908390811061107f5761107f612b8d565b60009182526020909120600290910201546001600160a01b03160361131a576001600160a01b0385166000908152600860205260409020805460019450829081106110cc576110cc612b8d565b90600052602060002090600202016001015484111561113f5760405162461bcd60e51b815260206004820152602960248201527f416d6f756e7420746f207265766f6b6520657863656564732064656c65676174604482015268195908185b5bdd5b9d60ba1b60648201526084016108ed565b6001600160a01b038516600090815260086020526040902080548591908390811061116c5761116c612b8d565b9060005260206000209060020201600101600082825461118c9190612c19565b92505081905550838260050160008282546111a79190612c19565b9091555050604051339085156108fc029086906000818181858888f193505050501580156111d9573d6000803e3d6000fd5b506001600160a01b038516600090815260086020526040902080548290811061120457611204612b8d565b906000526020600020906002020160010154600003611315576001600160a01b0385166000908152600860205260409020805461124390600190612c19565b8154811061125357611253612b8d565b906000526020600020906002020160086000876001600160a01b03166001600160a01b03168152602001908152602001600020828154811061129757611297612b8d565b60009182526020808320845460029093020180546001600160a01b0319166001600160a01b03938416178155600194850154940193909355871681526008909152604090208054806112eb576112eb612c2c565b60008281526020812060026000199093019283020180546001600160a01b03191681556001015590555b611322565b600101611032565b50816113705760405162461bcd60e51b815260206004820152601a60248201527f4e6f2064656c65676174696f6e207265636f726420666f756e6400000000000060448201526064016108ed565b6040518381526001600160a01b0385169033907f315eeabd37f0e4fa7271d8aced9dd94fe444aeaf5d2722d3a6a7a4a7a74a45239060200161087e565b6005546001600160a01b031633146113d75760405162461bcd60e51b81526004016108ed90612ba3565b600255565b3360009081526007602052604090205460ff161561143c5760405162461bcd60e51b815260206004820152601b60248201527f416c72656164792061207065726d697373696f6e6564206e6f6465000000000060448201526064016108ed565b6002543410156114815760405162461bcd60e51b815260206004820152601060248201526f11195c1bdcda5d081c995c5d5a5c995960821b60448201526064016108ed565b6040805160e0810182526000808252346020808401918252838501838152606085018481526080860185815260a0870186815260c088018781523380895260079096528988209851895490151560ff19918216178a55965160018a810191909155945160028a0180549115159190981617909655915160038801555160048701555160058601559151600694850155600a8054928301815583527fc65a7bb8d6351c1cf70c95a316cc6a92839c986682d98bc35f958f4883f9d2a890910180546001600160a01b03191682179055915492517f02b752a11416483894ccba29da0e71c4bee394b901144812c44d2a7e7d6c7ead9190a3565b600080606060045484106115c55760405162461bcd60e51b8152602060048201526013602482015272125b9d985b1a59081c1c9bdc1bdcd85b081251606a1b60448201526064016108ed565b6000848152600d6020526040902060018101546002820154600390920180546001600160a01b03909216929181906115fc906129fd565b80601f0160208091040260200160405190810160405280929190818152602001828054611628906129fd565b80156116755780601f1061164a57610100808354040283529160200191611675565b820191906000526020600020905b81548152906001019060200180831161165857829003601f168201915b505050505090509250925092509193909250565b60006009838154811061169e5761169e612b8d565b600091825260208083206001600160a01b038616845260056008909302019190910190526040902054905092915050565b3360008181526007602052604090205460ff166116fe5760405162461bcd60e51b81526004016108ed90612be2565b60065482146117405760405162461bcd60e51b815260206004820152600e60248201526d0a4deeadcc840dad2e6dac2e8c6d60931b60448201526064016108ed565b600060096006548154811061175757611757612b8d565b6000918252602080832033845260056008909302019182019052604090912054909150156117c75760405162461bcd60e51b815260206004820152601c60248201527f416c7265616479207375626d6974746564207075626c6963206b65790000000060448201526064016108ed565b806001015442111561180d5760405162461bcd60e51b815260206004820152600f60248201526e149bdd5b99081d1a5b5959081bdd5d608a1b60448201526064016108ed565b3360009081526007602090815260408083206003018890556005840190915281208690556002820180549161184183612a4d565b9091555050600481015460028083015461185a91612c42565b10158061186a5750806001015442115b1561187757611877611c6d565b5050505050565b60006009828154811061189357611893612b8d565b600091825260209091206004600890920201015492915050565b6005546001600160a01b031633146118d75760405162461bcd60e51b81526004016108ed90612ba3565b600155565b33600081815260076020526040902054606091829160ff166119105760405162461bcd60e51b81526004016108ed90612be2565b60006009858154811061192557611925612b8d565b90600052602060002090600802016002015467ffffffffffffffff81111561194f5761194f6127a4565b604051908082528060200260200182016040528015611978578160200160208202803683370190505b50905060006009868154811061199057611990612b8d565b90600052602060002090600802016002015467ffffffffffffffff8111156119ba576119ba6127a4565b6040519080825280602002602001820160405280156119e3578160200160208202803683370190505b50905060005b600987815481106119fc576119fc612b8d565b906000526020600020906008020160020154811015611bcc576000801b60098881548110611a2c57611a2c612b8d565b9060005260206000209060080201600501600060098a81548110611a5257611a52612b8d565b90600052602060002090600802016004018481548110611a7457611a74612b8d565b60009182526020808320909101546001600160a01b0316835282019290925260400190205414611bc45760098781548110611ab157611ab1612b8d565b9060005260206000209060080201600501600060098981548110611ad757611ad7612b8d565b90600052602060002090600802016004018381548110611af957611af9612b8d565b60009182526020808320909101546001600160a01b031683528201929092526040019020548351849083908110611b3257611b32612b8d565b60200260200101818152505060098781548110611b5157611b51612b8d565b90600052602060002090600802016004018181548110611b7357611b73612b8d565b9060005260206000200160009054906101000a90046001600160a01b0316828281518110611ba357611ba3612b8d565b60200260200101906001600160a01b031690816001600160a01b0316815250505b6001016119e9565b50909350915050915091565b6001544390600090611bea9042612bcf565b6009805460018181018355600083905260089091027f6e1540171b6c0c960b71a7020d9f60077f6af931a8bbf590da0223dacf75c7af81018681557f6e1540171b6c0c960b71a7020d9f60077f6af931a8bbf590da0223dacf75c7b090910184905591549293509091611c5d9190612c19565b600655611c68611d91565b505050565b6000600960065481548110611c8457611c84612b8d565b6000918252602082206007600890920201908101805460ff19166001179055600281015490925067ffffffffffffffff811115611cc357611cc36127a4565b604051908082528060200260200182016040528015611cec578160200160208202803683370190505b5090506000826002015467ffffffffffffffff811115611d0e57611d0e6127a4565b604051908082528060200260200182016040528015611d37578160200160208202803683370190505b509050611d456006546118dc565b80925081935050506006547f0cdf506672ea6308d71d35d76e01f6718ddb82e8f8d258d4a3807821003d96258383604051611d81929190612972565b60405180910390a2611c68611bd8565b600654600003611d9d57565b600b5415611ffd5760005b600b54811015611ff0576000600b8281548110611dc757611dc7612b8d565b6000918252602090912001546001600160a01b03169050611de78161256c565b15611fe7576001600160a01b0381166000818152600760209081526040808320805460ff199081168255600290910180549091169055519182527f763b63b30e91c843bb39e4379603697003d3b7c1f192619cd782fa33bdc44396910160405180910390a26001600160a01b03811660009081526007602052604081206006810154600190910154611e799190612bcf565b6001600160a01b038316600081815260076020526040808220600181018390556005810183905560060182905551929350909183156108fc0291849190818181858888f19350505050158015611ed3573d6000803e3d6000fd5b5060005b6001600160a01b038316600090815260086020526040902054811015611fe4576001600160a01b0383166000908152600860205260408120805483908110611f2157611f21612b8d565b60009182526020808320604080518082018252600290940290910180546001600160a01b031680855260019091015492840185905290519294509092909183156108fc0291849190818181858888f19350505050158015611f86573d6000803e3d6000fd5b506001600160a01b0385166000908152600860205260409020805484908110611fb157611fb1612b8d565b60009182526020822060029091020180546001600160a01b0319168155600190810191909155929092019150611ed79050565b50505b50600101611da8565b50611ffd600b60006125cb565b600a54600c5460009161200f91612bcf565b67ffffffffffffffff811115612027576120276127a4565b604051908082528060200260200182016040528015612050578160200160208202803683370190505b5090506000805b600c548110156121135760076000600c838154811061207857612078612b8d565b60009182526020808320909101546001600160a01b0316835282019290925260400190205460ff161561210b57600c81815481106120b8576120b8612b8d565b6000918252602090912001546001600160a01b031683836120d881612a4d565b9450815181106120ea576120ea612b8d565b60200260200101906001600160a01b031690816001600160a01b0316815250505b600101612057565b5060005b600a5481101561218657600a818154811061213457612134612b8d565b6000918252602090912001546001600160a01b0316838361215481612a4d565b94508151811061216657612166612b8d565b6001600160a01b0390921660209283029190910190910152600101612117565b5060005b612195600183612c19565b8110156122ee5760006121a9826001612bcf565b90505b828110156122e557600760008584815181106121ca576121ca612b8d565b60200260200101516001600160a01b03166001600160a01b03168152602001908152602001600020600501546007600086848151811061220c5761220c612b8d565b60200260200101516001600160a01b03166001600160a01b031681526020019081526020016000206005015411156122dd57600084838151811061225257612252612b8d565b6020026020010151905084828151811061226e5761226e612b8d565b602002602001015185848151811061228857612288612b8d565b60200260200101906001600160a01b031690816001600160a01b031681525050808583815181106122bb576122bb612b8d565b60200260200101906001600160a01b031690816001600160a01b031681525050505b6001016121ac565b5060010161218a565b506122fb600c60006125cb565b612307600a60006125cb565b60005b818110801561231a575060035481105b1561244957600083828151811061233357612333612b8d565b602090810291909101810151600c8054600181019091557fdf6966c971051c3d54ec59162606531493a51404a002842f56009d7e5cf4a8c70180546001600160a01b0319166001600160a01b0383169081179091556000908152600790925260409091205490915060ff161580156123c857506002546001600160a01b03821660009081526007602052604090206001015410155b15612436576001600160a01b0381166000818152600760209081526040918290208054600160ff1991821681178355600290920180549091168217905591519182527f763b63b30e91c843bb39e4379603697003d3b7c1f192619cd782fa33bdc44396910160405180910390a25b508061244181612a4d565b91505061230a565b5060035481111561252b576000600354826124649190612c19565b67ffffffffffffffff81111561247c5761247c6127a4565b6040519080825280602002602001820160405280156124a5578160200160208202803683370190505b506003549091505b828110156125145760008482815181106124c9576124c9612b8d565b602002602001015190508083600354846124e39190612c19565b815181106124f3576124f3612b8d565b6001600160a01b0390921660209283029190910190910152506001016124ad565b50805161252890600a9060208401906125ec565b50505b600060096006548154811061254257612542612b8d565b90600052602060002090600802019050600c81600401908054612566929190612651565b50505050565b6000805b600c548110156125c257826001600160a01b0316600c828154811061259757612597612b8d565b6000918252602090912001546001600160a01b0316036125ba5750600192915050565b600101612570565b50600092915050565b50805460008255906000526020600020908101906125e99190612691565b50565b828054828255906000526020600020908101928215612641579160200282015b8281111561264157825182546001600160a01b0319166001600160a01b0390911617825560209092019160019091019061260c565b5061264d929150612691565b5090565b8280548282559060005260206000209081019282156126415760005260206000209182015b82811115612641578254825591600101919060010190612676565b5b8082111561264d5760008155600101612692565b6000602082840312156126b857600080fd5b5035919050565b6000815180845260005b818110156126e5576020818501810151868301820152016126c9565b506000602082860101526020601f19601f83011685010191505092915050565b84815260018060a01b038416602082015282604082015260806060820152600061273260808301846126bf565b9695505050505050565b80356001600160a01b038116811461275357600080fd5b919050565b60006020828403121561276a57600080fd5b6127738261273c565b9392505050565b6000806040838503121561278d57600080fd5b6127968361273c565b946020939093013593505050565b634e487b7160e01b600052604160045260246000fd5b60008067ffffffffffffffff8411156127d5576127d56127a4565b50604051601f19601f85018116603f0116810181811067ffffffffffffffff82111715612804576128046127a4565b60405283815290508082840185101561281c57600080fd5b83836020830137600060208583010152509392505050565b6000806040838503121561284757600080fd5b82359150602083013567ffffffffffffffff81111561286557600080fd5b8301601f8101851361287657600080fd5b612885858235602084016127ba565b9150509250929050565b600080604083850312156128a257600080fd5b823591506128b26020840161273c565b90509250929050565b600080604083850312156128ce57600080fd5b50508035926020909101359150565b60018060a01b038416815282602082015260606040820152600061290460608301846126bf565b95945050505050565b60008060006060848603121561292257600080fd5b83359250602084013567ffffffffffffffff81111561294057600080fd5b8401601f8101861361295157600080fd5b612960868235602084016127ba565b93969395505050506040919091013590565b6040808252835190820181905260009060208501906060840190835b818110156129ac57835183526020938401939092019160010161298e565b50508381036020808601919091528551808352918101925085019060005b818110156129f15782516001600160a01b03168452602093840193909201916001016129ca565b50919695505050505050565b600181811c90821680612a1157607f821691505b602082108103612a3157634e487b7160e01b600052602260045260246000fd5b50919050565b634e487b7160e01b600052601160045260246000fd5b600060018201612a5f57612a5f612a37565b5060010190565b601f821115611c6857806000526020600020601f840160051c81016020851015612a8d5750805b601f840160051c820191505b818110156118775760008155600101612a99565b815167ffffffffffffffff811115612ac757612ac76127a4565b612adb81612ad584546129fd565b84612a66565b6020601f821160018114612b0f5760008315612af75750848201515b600019600385901b1c1916600184901b178455611877565b600084815260208120601f198516915b82811015612b3f5787850151825560209485019460019092019101612b1f565b5084821015612b5d5786840151600019600387901b60f8161c191681555b50505050600190811b01905550565b828152604060208201526000612b8560408301846126bf565b949350505050565b634e487b7160e01b600052603260045260246000fd5b6020808252601290820152712737ba1031b7b73a3930b1ba1037bbb732b960711b604082015260600190565b8082018082111561093557610935612a37565b60208082526017908201527f4e6f742061207065726d697373696f6e6564206e6f6465000000000000000000604082015260600190565b8181038181111561093557610935612a37565b634e487b7160e01b600052603160045260246000fd5b808202811582820484141761093557610935612a3756fea2646970667358221220ec32650c4b4080c47a08ada2feb99b1f7e63003ff8ffde71691aae8fde043e4564736f6c634300081b0033763b63b30e91c843bb39e4379603697003d3b7c1f192619cd782fa33bdc44396",
  "linkReferences": {},
  "deployedLinkReferences": {}
}