{
  "contracts/PermissionMgr.sol": {
    "PermissionManager": {
      "abi": [
        {
          "inputs": [
            {
              "internalType": "uint256",
              "name": "_roundBlocks",
              "type": "uint256"
            },
            {
              "internalType": "uint256",
              "name": "_roundTimeout",
              "type": "uint256"
            },
            {
              "internalType": "uint256",
              "name": "_minDeposit",
              "type": "uint256"
            }
          ],
          "stateMutability": "nonpayable",
          "type": "constructor"
        },
        {
          "anonymous": false,
          "inputs": [
            {
              "indexed": true,
              "internalType": "address",
              "name": "node",
              "type": "address"
            },
            {
              "indexed": true,
              "internalType": "uint256",
              "name": "roundIndex",
              "type": "uint256"
            }
          ],
          "name": "NodeJoinProposed",
          "type": "event"
        },
        {
          "anonymous": false,
          "inputs": [
            {
              "indexed": true,
              "internalType": "address",
              "name": "node",
              "type": "address"
            },
            {
              "indexed": true,
              "internalType": "uint256",
              "name": "roundIndex",
              "type": "uint256"
            }
          ],
          "name": "NodeJoined",
          "type": "event"
        },
        {
          "anonymous": false,
          "inputs": [
            {
              "indexed": true,
              "internalType": "address",
              "name": "node",
              "type": "address"
            },
            {
              "indexed": true,
              "internalType": "uint256",
              "name": "roundIndex",
              "type": "uint256"
            }
          ],
          "name": "NodeLeaveProposed",
          "type": "event"
        },
        {
          "anonymous": false,
          "inputs": [
            {
              "indexed": true,
              "internalType": "address",
              "name": "node",
              "type": "address"
            },
            {
              "indexed": true,
              "internalType": "uint256",
              "name": "roundIndex",
              "type": "uint256"
            }
          ],
          "name": "NodeLeft",
          "type": "event"
        },
        {
          "anonymous": false,
          "inputs": [
            {
              "indexed": true,
              "internalType": "uint256",
              "name": "roundIndex",
              "type": "uint256"
            },
            {
              "indexed": false,
              "internalType": "bytes32",
              "name": "systemPublicKey",
              "type": "bytes32"
            },
            {
              "indexed": false,
              "internalType": "address[]",
              "name": "participants",
              "type": "address[]"
            }
          ],
          "name": "SystemPublicKeyGenerated",
          "type": "event"
        },
        {
          "inputs": [],
          "name": "MIN_DEPOSIT",
          "outputs": [
            {
              "internalType": "uint256",
              "name": "",
              "type": "uint256"
            }
          ],
          "stateMutability": "view",
          "type": "function"
        },
        {
          "inputs": [],
          "name": "ROUND_BLOCKS",
          "outputs": [
            {
              "internalType": "uint256",
              "name": "",
              "type": "uint256"
            }
          ],
          "stateMutability": "view",
          "type": "function"
        },
        {
          "inputs": [],
          "name": "ROUND_TIMEOUT",
          "outputs": [
            {
              "internalType": "uint256",
              "name": "",
              "type": "uint256"
            }
          ],
          "stateMutability": "view",
          "type": "function"
        },
        {
          "inputs": [
            {
              "internalType": "uint256",
              "name": "",
              "type": "uint256"
            },
            {
              "internalType": "address",
              "name": "",
              "type": "address"
            }
          ],
          "name": "approvalCounts",
          "outputs": [
            {
              "internalType": "uint256",
              "name": "",
              "type": "uint256"
            }
          ],
          "stateMutability": "view",
          "type": "function"
        },
        {
          "inputs": [
            {
              "internalType": "address",
              "name": "_node",
              "type": "address"
            }
          ],
          "name": "approveJoinNode",
          "outputs": [],
          "stateMutability": "nonpayable",
          "type": "function"
        },
        {
          "inputs": [
            {
              "internalType": "address",
              "name": "_node",
              "type": "address"
            }
          ],
          "name": "approveLeaveNode",
          "outputs": [],
          "stateMutability": "nonpayable",
          "type": "function"
        },
        {
          "inputs": [],
          "name": "currentRoundIndex",
          "outputs": [
            {
              "internalType": "uint256",
              "name": "",
              "type": "uint256"
            }
          ],
          "stateMutability": "view",
          "type": "function"
        },
        {
          "inputs": [
            {
              "internalType": "uint256",
              "name": "_round",
              "type": "uint256"
            }
          ],
          "name": "getActiveNodeNum",
          "outputs": [
            {
              "internalType": "uint256",
              "name": "",
              "type": "uint256"
            }
          ],
          "stateMutability": "view",
          "type": "function"
        },
        {
          "inputs": [],
          "name": "getPendingNodeNum",
          "outputs": [
            {
              "internalType": "uint256",
              "name": "",
              "type": "uint256"
            }
          ],
          "stateMutability": "view",
          "type": "function"
        },
        {
          "inputs": [
            {
              "internalType": "uint256",
              "name": "_round",
              "type": "uint256"
            }
          ],
          "name": "getSystemPublicKey",
          "outputs": [
            {
              "internalType": "bytes32",
              "name": "",
              "type": "bytes32"
            },
            {
              "internalType": "address[]",
              "name": "",
              "type": "address[]"
            }
          ],
          "stateMutability": "view",
          "type": "function"
        },
        {
          "inputs": [
            {
              "internalType": "address",
              "name": "",
              "type": "address"
            },
            {
              "internalType": "address",
              "name": "",
              "type": "address"
            }
          ],
          "name": "joinApprovals",
          "outputs": [
            {
              "internalType": "bool",
              "name": "",
              "type": "bool"
            }
          ],
          "stateMutability": "view",
          "type": "function"
        },
        {
          "inputs": [
            {
              "internalType": "address",
              "name": "",
              "type": "address"
            },
            {
              "internalType": "address",
              "name": "",
              "type": "address"
            }
          ],
          "name": "leaveApprovals",
          "outputs": [
            {
              "internalType": "bool",
              "name": "",
              "type": "bool"
            }
          ],
          "stateMutability": "view",
          "type": "function"
        },
        {
          "inputs": [
            {
              "internalType": "address",
              "name": "",
              "type": "address"
            }
          ],
          "name": "leaveApprovalsCount",
          "outputs": [
            {
              "internalType": "uint256",
              "name": "",
              "type": "uint256"
            }
          ],
          "stateMutability": "view",
          "type": "function"
        },
        {
          "inputs": [
            {
              "internalType": "uint256",
              "name": "",
              "type": "uint256"
            }
          ],
          "name": "leavingNodes",
          "outputs": [
            {
              "internalType": "address",
              "name": "",
              "type": "address"
            }
          ],
          "stateMutability": "view",
          "type": "function"
        },
        {
          "inputs": [
            {
              "internalType": "address",
              "name": "",
              "type": "address"
            }
          ],
          "name": "nodes",
          "outputs": [
            {
              "internalType": "bool",
              "name": "isPermissioned",
              "type": "bool"
            },
            {
              "internalType": "uint256",
              "name": "deposit",
              "type": "uint256"
            },
            {
              "internalType": "bool",
              "name": "active",
              "type": "bool"
            },
            {
              "internalType": "bytes32",
              "name": "publicKey",
              "type": "bytes32"
            }
          ],
          "stateMutability": "view",
          "type": "function"
        },
        {
          "inputs": [],
          "name": "owner",
          "outputs": [
            {
              "internalType": "address",
              "name": "",
              "type": "address"
            }
          ],
          "stateMutability": "view",
          "type": "function"
        },
        {
          "inputs": [
            {
              "internalType": "uint256",
              "name": "",
              "type": "uint256"
            }
          ],
          "name": "pendingNodes",
          "outputs": [
            {
              "internalType": "address",
              "name": "",
              "type": "address"
            }
          ],
          "stateMutability": "view",
          "type": "function"
        },
        {
          "inputs": [],
          "name": "proposeJoinNode",
          "outputs": [],
          "stateMutability": "payable",
          "type": "function"
        },
        {
          "inputs": [],
          "name": "proposeLeaveNode",
          "outputs": [],
          "stateMutability": "nonpayable",
          "type": "function"
        },
        {
          "inputs": [
            {
              "internalType": "uint256",
              "name": "",
              "type": "uint256"
            }
          ],
          "name": "rounds",
          "outputs": [
            {
              "internalType": "uint256",
              "name": "startBlock",
              "type": "uint256"
            },
            {
              "internalType": "uint256",
              "name": "timeout",
              "type": "uint256"
            },
            {
              "internalType": "uint256",
              "name": "publicKeyCount",
              "type": "uint256"
            },
            {
              "internalType": "bytes32",
              "name": "systemPublicKey",
              "type": "bytes32"
            }
          ],
          "stateMutability": "view",
          "type": "function"
        },
        {
          "inputs": [
            {
              "internalType": "uint256",
              "name": "_minDeposit",
              "type": "uint256"
            }
          ],
          "name": "setMinDeposit",
          "outputs": [],
          "stateMutability": "nonpayable",
          "type": "function"
        },
        {
          "inputs": [
            {
              "internalType": "uint256",
              "name": "_roundBlocks",
              "type": "uint256"
            }
          ],
          "name": "setRoundBlocks",
          "outputs": [],
          "stateMutability": "nonpayable",
          "type": "function"
        },
        {
          "inputs": [
            {
              "internalType": "uint256",
              "name": "_roundTimeout",
              "type": "uint256"
            }
          ],
          "name": "setRoundTimeout",
          "outputs": [],
          "stateMutability": "nonpayable",
          "type": "function"
        },
        {
          "inputs": [
            {
              "internalType": "bytes32",
              "name": "_pubKey",
              "type": "bytes32"
            },
            {
              "internalType": "uint256",
              "name": "_round",
              "type": "uint256"
            }
          ],
          "name": "submitPubKey",
          "outputs": [],
          "stateMutability": "nonpayable",
          "type": "function"
        }
      ],
      "evm": {
        "bytecode": {
          "linkReferences": {},
          "object": "6080604052600060045534801561001557600080fd5b50604051611d7c380380611d7c83398101604081905261003491610324565b600380546001600160a01b0319163317905560008390556001829055600281905561005d610065565b5050506103aa565b60045415610075576100756101ee565b60005b6007548110156101625760006007828154811061009757610097610352565b60009182526020822001546001600160a01b031691505b6006600454815481106100c3576100c3610352565b9060005260206000209060060201600301805490508110156101585760006006600454815481106100f6576100f6610352565b9060005260206000209060060201600301828154811061011857610118610352565b60009182526020808320909101546001600160a01b0386811684526009835260408085209190921684529091529020805460ff19169055506001016100ae565b5050600101610078565b506001544390600090610175904261037e565b600680546001818101835560008390529082027ff652222313e28459528d920b65115c16c04f3efc82aaedc97be59f3f377c0d3f81018681557ff652222313e28459528d920b65115c16c04f3efc82aaedc97be59f3f377c0d40909101849055915492935090916101e69190610397565b600455505050565b60005b6007548110156102db5760006007828154811061021057610210610352565b60009182526020822001546001600160a01b031691505b60066004548154811061023c5761023c610352565b9060005260206000209060060201600301805490508110156102d157600060066004548154811061026f5761026f610352565b9060005260206000209060060201600301828154811061029157610291610352565b60009182526020808320909101546001600160a01b0386811684526009835260408085209190921684529091529020805460ff1916905550600101610227565b50506001016101f1565b506102e8600760006102ea565b565b5080546000825590600052602060002090810190610308919061030b565b50565b5b80821115610320576000815560010161030c565b5090565b60008060006060848603121561033957600080fd5b5050815160208301516040909301519094929350919050565b634e487b7160e01b600052603260045260246000fd5b634e487b7160e01b600052601160045260246000fd5b8082018082111561039157610391610368565b92915050565b8181038181111561039157610391610368565b6119c3806103b96000396000f3fe60806040526004361061014b5760003560e01c80638fcc9cfb116100b6578063e1e158a51161006f578063e1e158a514610466578063e54bec5f1461047c578063ec8f2c3f1461049c578063ed7ab465146104bc578063f1ec444f146104dc578063f7830b4c1461050a57600080fd5b80638fcc9cfb1461035e578063936284251461037e578063a29b1f49146103b6578063a98d7ae814610401578063c2314f6b14610416578063caee5e861461042b57600080fd5b806341a7960f1161010857806341a7960f1461026d5780636896ef4b146102a5578063737fc252146102bb57806375a2b6ca146102e85780638c65c81f146102fe5780638da5cb5b1461033e57600080fd5b80630465603d14610150578063189a5a17146101725780631f23b03e146101e95780632e6afb781461020d57806332be0b741461022d5780634106946f1461024d575b600080fd5b34801561015c57600080fd5b5061017061016b366004611714565b610512565b005b34801561017e57600080fd5b506101bc61018d366004611714565b600560205260009081526040902080546001820154600283015460039093015460ff9283169391929091169084565b60408051941515855260208501939093529015159183019190915260608201526080015b60405180910390f35b3480156101f557600080fd5b506101ff60005481565b6040519081526020016101e0565b34801561021957600080fd5b50610170610228366004611736565b6106ae565b34801561023957600080fd5b50610170610248366004611758565b61079e565b34801561025957600080fd5b50610170610268366004611714565b6107cd565b34801561027957600080fd5b5061028d610288366004611758565b61096d565b6040516001600160a01b0390911681526020016101e0565b3480156102b157600080fd5b506101ff60045481565b3480156102c757600080fd5b506101ff6102d6366004611714565b600c6020526000908152604090205481565b3480156102f457600080fd5b506101ff60015481565b34801561030a57600080fd5b5061031e610319366004611758565b610997565b6040805194855260208501939093529183015260608201526080016101e0565b34801561034a57600080fd5b5060035461028d906001600160a01b031681565b34801561036a57600080fd5b50610170610379366004611758565b6109d1565b34801561038a57600080fd5b506101ff610399366004611771565b600b60209081526000928352604080842090915290825290205481565b3480156103c257600080fd5b506103f16103d136600461179d565b600960209081526000928352604080842090915290825290205460ff1681565b60405190151581526020016101e0565b34801561040d57600080fd5b506007546101ff565b34801561042257600080fd5b50610170610a00565b34801561043757600080fd5b506103f161044636600461179d565b600a60209081526000928352604080842090915290825290205460ff1681565b34801561047257600080fd5b506101ff60025481565b34801561048857600080fd5b5061028d610497366004611758565b610b45565b3480156104a857600080fd5b506101ff6104b7366004611758565b610b55565b3480156104c857600080fd5b506101706104d7366004611758565b610b84565b3480156104e857600080fd5b506104fc6104f7366004611758565b610bb3565b6040516101e09291906117c7565b610170610c96565b3360008181526005602052604090205460ff1661054a5760405162461bcd60e51b81526004016105419061181f565b60405180910390fd5b61055382610e44565b61059f5760405162461bcd60e51b815260206004820152601a60248201527f4e6f6465206e6f742070726f706f73656420666f72206a6f696e0000000000006044820152606401610541565b6105a93383610ea3565b156105e95760405162461bcd60e51b815260206004820152601060248201526f105b1c9958591e48185c1c1c9bdd995960821b6044820152606401610541565b6001600160a01b03821660008181526009602090815260408083203384528252808320805460ff191660011790556004548352600b82528083209383529290529081208054916106388361186c565b9190505550600060066004548154811061065457610654611885565b6000918252602090912060036006909202010154905061067560028261189b565b6004546000908152600b602090815260408083206001600160a01b0388168452909152902054106106a9576106a983610ed3565b505050565b3360008181526005602052604090205460ff166106dd5760405162461bcd60e51b81526004016105419061181f565b600454821461071f5760405162461bcd60e51b815260206004820152600e60248201526d0a4deeadcc840dad2e6dac2e8c6d60931b6044820152606401610541565b600060066004548154811061073657610736611885565b60009182526020808320339093526006919091029091016004818101835260405162461bcd60e51b815290810192909252601c60248301527f416c7265616479207375626d6974746564207075626c6963206b65790000000060448301529150606401610541565b6003546001600160a01b031633146107c85760405162461bcd60e51b8152600401610541906118bd565b600055565b3360008181526005602052604090205460ff166107fc5760405162461bcd60e51b81526004016105419061181f565b61080582611051565b6108515760405162461bcd60e51b815260206004820152601b60248201527f4e6f6465206e6f742070726f706f73656420666f72206c6561766500000000006044820152606401610541565b6001600160a01b0382166000908152600a6020908152604080832033845290915290205460ff16156108c55760405162461bcd60e51b815260206004820152601960248201527f416c726561647920617070726f76656420746f206c65617665000000000000006044820152606401610541565b6001600160a01b0382166000818152600a602090815260408083203384528252808320805460ff19166001179055928252600c90529081208054916109098361186c565b9190505550600060066004548154811061092557610925611885565b6000918252602090912060036006909202010154905061094660028261189b565b6001600160a01b0384166000908152600c6020526040902054106106a9576106a9836110a7565b6008818154811061097d57600080fd5b6000918252602090912001546001600160a01b0316905081565b600681815481106109a757600080fd5b60009182526020909120600690910201805460018201546002830154600590930154919350919084565b6003546001600160a01b031633146109fb5760405162461bcd60e51b8152600401610541906118bd565b600255565b3360008181526005602052604090205460ff16610a2f5760405162461bcd60e51b81526004016105419061181f565b3360009081526005602052604090206002015460ff16610a835760405162461bcd60e51b815260206004820152600f60248201526e4e6f6465206e6f742061637469766560881b6044820152606401610541565b33600081815260056020526040808220600201805460ff19169055600880546001810182559083527ff3f7a9fe364faab93b216da50a3214154f22a0a2b415b23a84c8169e8b636ee30180546001600160a01b0319168417905560045490519092917ff3b3804c8980704269949cfccce1da14f0033d4a01846643aaec07b77e01e43791a3600660045481548110610b1d57610b1d611885565b906000526020600020906006020160030180549050600103610b4257610b42336110a7565b50565b6007818154811061097d57600080fd5b600060068281548110610b6a57610b6a611885565b600091825260209091206003600690920201015492915050565b6003546001600160a01b03163314610bae5760405162461bcd60e51b8152600401610541906118bd565b600155565b33600081815260056020526040812054909160609160ff16610be75760405162461bcd60e51b81526004016105419061181f565b60068481548110610bfa57610bfa611885565b90600052602060002090600602016005015460068581548110610c1f57610c1f611885565b906000526020600020906006020160030180805480602002602001604051908101604052809291908181526020018280548015610c8557602002820191906000526020600020905b81546001600160a01b03168152600190910190602001808311610c67575b505050505090509250925050915091565b3360009081526005602052604090205460ff1615610cf65760405162461bcd60e51b815260206004820152601b60248201527f416c72656164792061207065726d697373696f6e6564206e6f646500000000006044820152606401610541565b600254341015610d3b5760405162461bcd60e51b815260206004820152601060248201526f11195c1bdcda5d081c995c5d5a5c995960821b6044820152606401610541565b604080516080810182526000808252346020808401918252838501838152606085018481523380865260059093528685209551865490151560ff19918216178755935160018781019190915591516002870180549115159190951617909355915160039094019390935560078054918201815582527fa66cc928b5edb82af9bd49922954155ab7b0942694bea4ce44661d9a8736c6880180546001600160a01b0319168317905560045492517f79745a2327d4dd9c784b5e552959afec3504487ea86d1cf4b346f6ba148fd8c29190a3600660045481548110610e2057610e20611885565b600091825260208220600360069092020101549003610e4257610e4233610ed3565b565b6000805b600754811015610e9a57826001600160a01b031660078281548110610e6f57610e6f611885565b6000918252602090912001546001600160a01b031603610e925750600192915050565b600101610e48565b50600092915050565b6001600160a01b0380821660009081526009602090815260408083209386168352929052205460ff165b92915050565b610edc81611205565b6001600160a01b03811660009081526005602052604090208054600160ff1991821681178355600290920180549091169091179055600454600680549091908110610f2957610f29611885565b6000918252602080832060069290920290910160030180546001810182559083529082200180546001600160a01b0319166001600160a01b03841690811790915560045460405190927f0676388bb83505ba7712ed135b2ba9bdf6f645e41015bc49549cec2c1b3bae1391a350565b6003830154811015610ffd576000836004016000856003018481548110610fc157610fc1611885565b60009182526020808320909101546001600160a01b031683528201929092526040019020549050610ff28382611302565b925050600101610f98565b50600582018190556004546040517f978dd127d141a0352ac567db27f5ff4ef57500fc19b9da1b3dabd52be40c303b9061103d90849060038701906118e9565b60405180910390a261104d611374565b5050565b6000805b600854811015610e9a57826001600160a01b03166008828154811061107c5761107c611885565b6000918252602090912001546001600160a01b03160361109f5750600192915050565b600101611055565b6110b0816114fd565b6001600160a01b0381166000908152600c602052604081208190555b6006600454815481106110e1576110e1611885565b90600052602060002090600602016003018054905081101561117657600060066004548154811061111457611114611885565b9060005260206000209060060201600301828154811061113657611136611885565b60009182526020808320909101546001600160a01b038681168452600a835260408085209190921684529091529020805460ff19169055506001016110cc565b506001600160a01b0381166000818152600560205260408082206001810154815460ff1916909155905190929183156108fc02918491818181858888f193505050501580156111c9573d6000803e3d6000fd5b506004546040516001600160a01b038416907f082540c1182323d73764dc587bb51ac34adf43ccdd4dfe9ed6272f8ed7d5bd5b90600090a35050565b60005b60075481101561104d57816001600160a01b03166007828154811061122f5761122f611885565b6000918252602090912001546001600160a01b0316036112fa57600780546112599060019061193a565b8154811061126957611269611885565b600091825260209091200154600780546001600160a01b03909216918390811061129557611295611885565b9060005260206000200160006101000a8154816001600160a01b0302191690836001600160a01b0316021790555060078054806112d4576112d461194d565b600082815260209020810160001990810180546001600160a01b03191690550190555050565b600101611208565b60008282826113118284611963565b90508161131e848361189b565b1461136b5760405162461bcd60e51b815260206004820152601760248201527f4d756c7469706c69636174696f6e206f766572666c6f770000000000000000006044820152606401610541565b95945050505050565b60045415611384576113846115d4565b60005b600754811015611471576000600782815481106113a6576113a6611885565b60009182526020822001546001600160a01b031691505b6006600454815481106113d2576113d2611885565b90600052602060002090600602016003018054905081101561146757600060066004548154811061140557611405611885565b9060005260206000209060060201600301828154811061142757611427611885565b60009182526020808320909101546001600160a01b0386811684526009835260408085209190921684529091529020805460ff19169055506001016113bd565b5050600101611387565b506001544390600090611484904261197a565b600680546001818101835560008390529082027ff652222313e28459528d920b65115c16c04f3efc82aaedc97be59f3f377c0d3f81018681557ff652222313e28459528d920b65115c16c04f3efc82aaedc97be59f3f377c0d40909101849055915492935090916114f5919061193a565b600455505050565b60005b60085481101561104d57816001600160a01b03166008828154811061152757611527611885565b6000918252602090912001546001600160a01b0316036115cc57600880546115519060019061193a565b8154811061156157611561611885565b600091825260209091200154600880546001600160a01b03909216918390811061158d5761158d611885565b9060005260206000200160006101000a8154816001600160a01b0302191690836001600160a01b0316021790555060088054806112d4576112d461194d565b600101611500565b60005b6007548110156116c1576000600782815481106115f6576115f6611885565b60009182526020822001546001600160a01b031691505b60066004548154811061162257611622611885565b9060005260206000209060060201600301805490508110156116b757600060066004548154811061165557611655611885565b9060005260206000209060060201600301828154811061167757611677611885565b60009182526020808320909101546001600160a01b0386811684526009835260408085209190921684529091529020805460ff191690555060010161160d565b50506001016115d7565b50610e42600780546000825590600052602060002090810190610b4291905b808211156116f457600081556001016116e0565b5090565b80356001600160a01b038116811461170f57600080fd5b919050565b60006020828403121561172657600080fd5b61172f826116f8565b9392505050565b6000806040838503121561174957600080fd5b50508035926020909101359150565b60006020828403121561176a57600080fd5b5035919050565b6000806040838503121561178457600080fd5b82359150611794602084016116f8565b90509250929050565b600080604083850312156117b057600080fd5b6117b9836116f8565b9150611794602084016116f8565b6000604082018483526040602084015280845180835260608501915060208601925060005b818110156118135783516001600160a01b03168352602093840193909201916001016117ec565b50909695505050505050565b60208082526017908201527f4e6f742061207065726d697373696f6e6564206e6f6465000000000000000000604082015260600190565b634e487b7160e01b600052601160045260246000fd5b60006001820161187e5761187e611856565b5060010190565b634e487b7160e01b600052603260045260246000fd5b6000826118b857634e487b7160e01b600052601260045260246000fd5b500490565b6020808252601290820152712737ba1031b7b73a3930b1ba1037bbb732b960711b604082015260600190565b60006040820184835260406020840152808454808352606085019150856000526020600020925060005b818110156118135783546001600160a01b0316835260019384019360209093019201611913565b81810381811115610ecd57610ecd611856565b634e487b7160e01b600052603160045260246000fd5b8082028115828204841417610ecd57610ecd611856565b80820180821115610ecd57610ecd61185656fea264697066735822122021e1495506ae6a8b9e4399eaf9e2f01f4caf4cb21a946e590844a4c9d4a469f964736f6c634300081b0033",
          "opcodes": "PUSH1 0x80 PUSH1 0x40 MSTORE PUSH1 0x0 PUSH1 0x4 SSTORE CALLVALUE DUP1 ISZERO PUSH2 0x15 JUMPI PUSH1 0x0 DUP1 REVERT JUMPDEST POP PUSH1 0x40 MLOAD PUSH2 0x1D7C CODESIZE SUB DUP1 PUSH2 0x1D7C DUP4 CODECOPY DUP2 ADD PUSH1 0x40 DUP2 SWAP1 MSTORE PUSH2 0x34 SWAP2 PUSH2 0x324 JUMP JUMPDEST PUSH1 0x3 DUP1 SLOAD PUSH1 0x1 PUSH1 0x1 PUSH1 0xA0 SHL SUB NOT AND CALLER OR SWAP1 SSTORE PUSH1 0x0 DUP4 SWAP1 SSTORE PUSH1 0x1 DUP3 SWAP1 SSTORE PUSH1 0x2 DUP2 SWAP1 SSTORE PUSH2 0x5D PUSH2 0x65 JUMP JUMPDEST POP POP POP PUSH2 0x3AA JUMP JUMPDEST PUSH1 0x4 SLOAD ISZERO PUSH2 0x75 JUMPI PUSH2 0x75 PUSH2 0x1EE JUMP JUMPDEST PUSH1 0x0 JUMPDEST PUSH1 0x7 SLOAD DUP2 LT ISZERO PUSH2 0x162 JUMPI PUSH1 0x0 PUSH1 0x7 DUP3 DUP2 SLOAD DUP2 LT PUSH2 0x97 JUMPI PUSH2 0x97 PUSH2 0x352 JUMP JUMPDEST PUSH1 0x0 SWAP2 DUP3 MSTORE PUSH1 0x20 DUP3 KECCAK256 ADD SLOAD PUSH1 0x1 PUSH1 0x1 PUSH1 0xA0 SHL SUB AND SWAP2 POP JUMPDEST PUSH1 0x6 PUSH1 0x4 SLOAD DUP2 SLOAD DUP2 LT PUSH2 0xC3 JUMPI PUSH2 0xC3 PUSH2 0x352 JUMP JUMPDEST SWAP1 PUSH1 0x0 MSTORE PUSH1 0x20 PUSH1 0x0 KECCAK256 SWAP1 PUSH1 0x6 MUL ADD PUSH1 0x3 ADD DUP1 SLOAD SWAP1 POP DUP2 LT ISZERO PUSH2 0x158 JUMPI PUSH1 0x0 PUSH1 0x6 PUSH1 0x4 SLOAD DUP2 SLOAD DUP2 LT PUSH2 0xF6 JUMPI PUSH2 0xF6 PUSH2 0x352 JUMP JUMPDEST SWAP1 PUSH1 0x0 MSTORE PUSH1 0x20 PUSH1 0x0 KECCAK256 SWAP1 PUSH1 0x6 MUL ADD PUSH1 0x3 ADD DUP3 DUP2 SLOAD DUP2 LT PUSH2 0x118 JUMPI PUSH2 0x118 PUSH2 0x352 JUMP JUMPDEST PUSH1 0x0 SWAP2 DUP3 MSTORE PUSH1 0x20 DUP1 DUP4 KECCAK256 SWAP1 SWAP2 ADD SLOAD PUSH1 0x1 PUSH1 0x1 PUSH1 0xA0 SHL SUB DUP7 DUP2 AND DUP5 MSTORE PUSH1 0x9 DUP4 MSTORE PUSH1 0x40 DUP1 DUP6 KECCAK256 SWAP2 SWAP1 SWAP3 AND DUP5 MSTORE SWAP1 SWAP2 MSTORE SWAP1 KECCAK256 DUP1 SLOAD PUSH1 0xFF NOT AND SWAP1 SSTORE POP PUSH1 0x1 ADD PUSH2 0xAE JUMP JUMPDEST POP POP PUSH1 0x1 ADD PUSH2 0x78 JUMP JUMPDEST POP PUSH1 0x1 SLOAD NUMBER SWAP1 PUSH1 0x0 SWAP1 PUSH2 0x175 SWAP1 TIMESTAMP PUSH2 0x37E JUMP JUMPDEST PUSH1 0x6 DUP1 SLOAD PUSH1 0x1 DUP2 DUP2 ADD DUP4 SSTORE PUSH1 0x0 DUP4 SWAP1 MSTORE SWAP1 DUP3 MUL PUSH32 0xF652222313E28459528D920B65115C16C04F3EFC82AAEDC97BE59F3F377C0D3F DUP2 ADD DUP7 DUP2 SSTORE PUSH32 0xF652222313E28459528D920B65115C16C04F3EFC82AAEDC97BE59F3F377C0D40 SWAP1 SWAP2 ADD DUP5 SWAP1 SSTORE SWAP2 SLOAD SWAP3 SWAP4 POP SWAP1 SWAP2 PUSH2 0x1E6 SWAP2 SWAP1 PUSH2 0x397 JUMP JUMPDEST PUSH1 0x4 SSTORE POP POP POP JUMP JUMPDEST PUSH1 0x0 JUMPDEST PUSH1 0x7 SLOAD DUP2 LT ISZERO PUSH2 0x2DB JUMPI PUSH1 0x0 PUSH1 0x7 DUP3 DUP2 SLOAD DUP2 LT PUSH2 0x210 JUMPI PUSH2 0x210 PUSH2 0x352 JUMP JUMPDEST PUSH1 0x0 SWAP2 DUP3 MSTORE PUSH1 0x20 DUP3 KECCAK256 ADD SLOAD PUSH1 0x1 PUSH1 0x1 PUSH1 0xA0 SHL SUB AND SWAP2 POP JUMPDEST PUSH1 0x6 PUSH1 0x4 SLOAD DUP2 SLOAD DUP2 LT PUSH2 0x23C JUMPI PUSH2 0x23C PUSH2 0x352 JUMP JUMPDEST SWAP1 PUSH1 0x0 MSTORE PUSH1 0x20 PUSH1 0x0 KECCAK256 SWAP1 PUSH1 0x6 MUL ADD PUSH1 0x3 ADD DUP1 SLOAD SWAP1 POP DUP2 LT ISZERO PUSH2 0x2D1 JUMPI PUSH1 0x0 PUSH1 0x6 PUSH1 0x4 SLOAD DUP2 SLOAD DUP2 LT PUSH2 0x26F JUMPI PUSH2 0x26F PUSH2 0x352 JUMP JUMPDEST SWAP1 PUSH1 0x0 MSTORE PUSH1 0x20 PUSH1 0x0 KECCAK256 SWAP1 PUSH1 0x6 MUL ADD PUSH1 0x3 ADD DUP3 DUP2 SLOAD DUP2 LT PUSH2 0x291 JUMPI PUSH2 0x291 PUSH2 0x352 JUMP JUMPDEST PUSH1 0x0 SWAP2 DUP3 MSTORE PUSH1 0x20 DUP1 DUP4 KECCAK256 SWAP1 SWAP2 ADD SLOAD PUSH1 0x1 PUSH1 0x1 PUSH1 0xA0 SHL SUB DUP7 DUP2 AND DUP5 MSTORE PUSH1 0x9 DUP4 MSTORE PUSH1 0x40 DUP1 DUP6 KECCAK256 SWAP2 SWAP1 SWAP3 AND DUP5 MSTORE SWAP1 SWAP2 MSTORE SWAP1 KECCAK256 DUP1 SLOAD PUSH1 0xFF NOT AND SWAP1 SSTORE POP PUSH1 0x1 ADD PUSH2 0x227 JUMP JUMPDEST POP POP PUSH1 0x1 ADD PUSH2 0x1F1 JUMP JUMPDEST POP PUSH2 0x2E8 PUSH1 0x7 PUSH1 0x0 PUSH2 0x2EA JUMP JUMPDEST JUMP JUMPDEST POP DUP1 SLOAD PUSH1 0x0 DUP3 SSTORE SWAP1 PUSH1 0x0 MSTORE PUSH1 0x20 PUSH1 0x0 KECCAK256 SWAP1 DUP2 ADD SWAP1 PUSH2 0x308 SWAP2 SWAP1 PUSH2 0x30B JUMP JUMPDEST POP JUMP JUMPDEST JUMPDEST DUP1 DUP3 GT ISZERO PUSH2 0x320 JUMPI PUSH1 0x0 DUP2 SSTORE PUSH1 0x1 ADD PUSH2 0x30C JUMP JUMPDEST POP SWAP1 JUMP JUMPDEST PUSH1 0x0 DUP1 PUSH1 0x0 PUSH1 0x60 DUP5 DUP7 SUB SLT ISZERO PUSH2 0x339 JUMPI PUSH1 0x0 DUP1 REVERT JUMPDEST POP POP DUP2 MLOAD PUSH1 0x20 DUP4 ADD MLOAD PUSH1 0x40 SWAP1 SWAP4 ADD MLOAD SWAP1 SWAP5 SWAP3 SWAP4 POP SWAP2 SWAP1 POP JUMP JUMPDEST PUSH4 0x4E487B71 PUSH1 0xE0 SHL PUSH1 0x0 MSTORE PUSH1 0x32 PUSH1 0x4 MSTORE PUSH1 0x24 PUSH1 0x0 REVERT JUMPDEST PUSH4 0x4E487B71 PUSH1 0xE0 SHL PUSH1 0x0 MSTORE PUSH1 0x11 PUSH1 0x4 MSTORE PUSH1 0x24 PUSH1 0x0 REVERT JUMPDEST DUP1 DUP3 ADD DUP1 DUP3 GT ISZERO PUSH2 0x391 JUMPI PUSH2 0x391 PUSH2 0x368 JUMP JUMPDEST SWAP3 SWAP2 POP POP JUMP JUMPDEST DUP2 DUP2 SUB DUP2 DUP2 GT ISZERO PUSH2 0x391 JUMPI PUSH2 0x391 PUSH2 0x368 JUMP JUMPDEST PUSH2 0x19C3 DUP1 PUSH2 0x3B9 PUSH1 0x0 CODECOPY PUSH1 0x0 RETURN INVALID PUSH1 0x80 PUSH1 0x40 MSTORE PUSH1 0x4 CALLDATASIZE LT PUSH2 0x14B JUMPI PUSH1 0x0 CALLDATALOAD PUSH1 0xE0 SHR DUP1 PUSH4 0x8FCC9CFB GT PUSH2 0xB6 JUMPI DUP1 PUSH4 0xE1E158A5 GT PUSH2 0x6F JUMPI DUP1 PUSH4 0xE1E158A5 EQ PUSH2 0x466 JUMPI DUP1 PUSH4 0xE54BEC5F EQ PUSH2 0x47C JUMPI DUP1 PUSH4 0xEC8F2C3F EQ PUSH2 0x49C JUMPI DUP1 PUSH4 0xED7AB465 EQ PUSH2 0x4BC JUMPI DUP1 PUSH4 0xF1EC444F EQ PUSH2 0x4DC JUMPI DUP1 PUSH4 0xF7830B4C EQ PUSH2 0x50A JUMPI PUSH1 0x0 DUP1 REVERT JUMPDEST DUP1 PUSH4 0x8FCC9CFB EQ PUSH2 0x35E JUMPI DUP1 PUSH4 0x93628425 EQ PUSH2 0x37E JUMPI DUP1 PUSH4 0xA29B1F49 EQ PUSH2 0x3B6 JUMPI DUP1 PUSH4 0xA98D7AE8 EQ PUSH2 0x401 JUMPI DUP1 PUSH4 0xC2314F6B EQ PUSH2 0x416 JUMPI DUP1 PUSH4 0xCAEE5E86 EQ PUSH2 0x42B JUMPI PUSH1 0x0 DUP1 REVERT JUMPDEST DUP1 PUSH4 0x41A7960F GT PUSH2 0x108 JUMPI DUP1 PUSH4 0x41A7960F EQ PUSH2 0x26D JUMPI DUP1 PUSH4 0x6896EF4B EQ PUSH2 0x2A5 JUMPI DUP1 PUSH4 0x737FC252 EQ PUSH2 0x2BB JUMPI DUP1 PUSH4 0x75A2B6CA EQ PUSH2 0x2E8 JUMPI DUP1 PUSH4 0x8C65C81F EQ PUSH2 0x2FE JUMPI DUP1 PUSH4 0x8DA5CB5B EQ PUSH2 0x33E JUMPI PUSH1 0x0 DUP1 REVERT JUMPDEST DUP1 PUSH4 0x465603D EQ PUSH2 0x150 JUMPI DUP1 PUSH4 0x189A5A17 EQ PUSH2 0x172 JUMPI DUP1 PUSH4 0x1F23B03E EQ PUSH2 0x1E9 JUMPI DUP1 PUSH4 0x2E6AFB78 EQ PUSH2 0x20D JUMPI DUP1 PUSH4 0x32BE0B74 EQ PUSH2 0x22D JUMPI DUP1 PUSH4 0x4106946F EQ PUSH2 0x24D JUMPI JUMPDEST PUSH1 0x0 DUP1 REVERT JUMPDEST CALLVALUE DUP1 ISZERO PUSH2 0x15C JUMPI PUSH1 0x0 DUP1 REVERT JUMPDEST POP PUSH2 0x170 PUSH2 0x16B CALLDATASIZE PUSH1 0x4 PUSH2 0x1714 JUMP JUMPDEST PUSH2 0x512 JUMP JUMPDEST STOP JUMPDEST CALLVALUE DUP1 ISZERO PUSH2 0x17E JUMPI PUSH1 0x0 DUP1 REVERT JUMPDEST POP PUSH2 0x1BC PUSH2 0x18D CALLDATASIZE PUSH1 0x4 PUSH2 0x1714 JUMP JUMPDEST PUSH1 0x5 PUSH1 0x20 MSTORE PUSH1 0x0 SWAP1 DUP2 MSTORE PUSH1 0x40 SWAP1 KECCAK256 DUP1 SLOAD PUSH1 0x1 DUP3 ADD SLOAD PUSH1 0x2 DUP4 ADD SLOAD PUSH1 0x3 SWAP1 SWAP4 ADD SLOAD PUSH1 0xFF SWAP3 DUP4 AND SWAP4 SWAP2 SWAP3 SWAP1 SWAP2 AND SWAP1 DUP5 JUMP JUMPDEST PUSH1 0x40 DUP1 MLOAD SWAP5 ISZERO ISZERO DUP6 MSTORE PUSH1 0x20 DUP6 ADD SWAP4 SWAP1 SWAP4 MSTORE SWAP1 ISZERO ISZERO SWAP2 DUP4 ADD SWAP2 SWAP1 SWAP2 MSTORE PUSH1 0x60 DUP3 ADD MSTORE PUSH1 0x80 ADD JUMPDEST PUSH1 0x40 MLOAD DUP1 SWAP2 SUB SWAP1 RETURN JUMPDEST CALLVALUE DUP1 ISZERO PUSH2 0x1F5 JUMPI PUSH1 0x0 DUP1 REVERT JUMPDEST POP PUSH2 0x1FF PUSH1 0x0 SLOAD DUP2 JUMP JUMPDEST PUSH1 0x40 MLOAD SWAP1 DUP2 MSTORE PUSH1 0x20 ADD PUSH2 0x1E0 JUMP JUMPDEST CALLVALUE DUP1 ISZERO PUSH2 0x219 JUMPI PUSH1 0x0 DUP1 REVERT JUMPDEST POP PUSH2 0x170 PUSH2 0x228 CALLDATASIZE PUSH1 0x4 PUSH2 0x1736 JUMP JUMPDEST PUSH2 0x6AE JUMP JUMPDEST CALLVALUE DUP1 ISZERO PUSH2 0x239 JUMPI PUSH1 0x0 DUP1 REVERT JUMPDEST POP PUSH2 0x170 PUSH2 0x248 CALLDATASIZE PUSH1 0x4 PUSH2 0x1758 JUMP JUMPDEST PUSH2 0x79E JUMP JUMPDEST CALLVALUE DUP1 ISZERO PUSH2 0x259 JUMPI PUSH1 0x0 DUP1 REVERT JUMPDEST POP PUSH2 0x170 PUSH2 0x268 CALLDATASIZE PUSH1 0x4 PUSH2 0x1714 JUMP JUMPDEST PUSH2 0x7CD JUMP JUMPDEST CALLVALUE DUP1 ISZERO PUSH2 0x279 JUMPI PUSH1 0x0 DUP1 REVERT JUMPDEST POP PUSH2 0x28D PUSH2 0x288 CALLDATASIZE PUSH1 0x4 PUSH2 0x1758 JUMP JUMPDEST PUSH2 0x96D JUMP JUMPDEST PUSH1 0x40 MLOAD PUSH1 0x1 PUSH1 0x1 PUSH1 0xA0 SHL SUB SWAP1 SWAP2 AND DUP2 MSTORE PUSH1 0x20 ADD PUSH2 0x1E0 JUMP JUMPDEST CALLVALUE DUP1 ISZERO PUSH2 0x2B1 JUMPI PUSH1 0x0 DUP1 REVERT JUMPDEST POP PUSH2 0x1FF PUSH1 0x4 SLOAD DUP2 JUMP JUMPDEST CALLVALUE DUP1 ISZERO PUSH2 0x2C7 JUMPI PUSH1 0x0 DUP1 REVERT JUMPDEST POP PUSH2 0x1FF PUSH2 0x2D6 CALLDATASIZE PUSH1 0x4 PUSH2 0x1714 JUMP JUMPDEST PUSH1 0xC PUSH1 0x20 MSTORE PUSH1 0x0 SWAP1 DUP2 MSTORE PUSH1 0x40 SWAP1 KECCAK256 SLOAD DUP2 JUMP JUMPDEST CALLVALUE DUP1 ISZERO PUSH2 0x2F4 JUMPI PUSH1 0x0 DUP1 REVERT JUMPDEST POP PUSH2 0x1FF PUSH1 0x1 SLOAD DUP2 JUMP JUMPDEST CALLVALUE DUP1 ISZERO PUSH2 0x30A JUMPI PUSH1 0x0 DUP1 REVERT JUMPDEST POP PUSH2 0x31E PUSH2 0x319 CALLDATASIZE PUSH1 0x4 PUSH2 0x1758 JUMP JUMPDEST PUSH2 0x997 JUMP JUMPDEST PUSH1 0x40 DUP1 MLOAD SWAP5 DUP6 MSTORE PUSH1 0x20 DUP6 ADD SWAP4 SWAP1 SWAP4 MSTORE SWAP2 DUP4 ADD MSTORE PUSH1 0x60 DUP3 ADD MSTORE PUSH1 0x80 ADD PUSH2 0x1E0 JUMP JUMPDEST CALLVALUE DUP1 ISZERO PUSH2 0x34A JUMPI PUSH1 0x0 DUP1 REVERT JUMPDEST POP PUSH1 0x3 SLOAD PUSH2 0x28D SWAP1 PUSH1 0x1 PUSH1 0x1 PUSH1 0xA0 SHL SUB AND DUP2 JUMP JUMPDEST CALLVALUE DUP1 ISZERO PUSH2 0x36A JUMPI PUSH1 0x0 DUP1 REVERT JUMPDEST POP PUSH2 0x170 PUSH2 0x379 CALLDATASIZE PUSH1 0x4 PUSH2 0x1758 JUMP JUMPDEST PUSH2 0x9D1 JUMP JUMPDEST CALLVALUE DUP1 ISZERO PUSH2 0x38A JUMPI PUSH1 0x0 DUP1 REVERT JUMPDEST POP PUSH2 0x1FF PUSH2 0x399 CALLDATASIZE PUSH1 0x4 PUSH2 0x1771 JUMP JUMPDEST PUSH1 0xB PUSH1 0x20 SWAP1 DUP2 MSTORE PUSH1 0x0 SWAP3 DUP4 MSTORE PUSH1 0x40 DUP1 DUP5 KECCAK256 SWAP1 SWAP2 MSTORE SWAP1 DUP3 MSTORE SWAP1 KECCAK256 SLOAD DUP2 JUMP JUMPDEST CALLVALUE DUP1 ISZERO PUSH2 0x3C2 JUMPI PUSH1 0x0 DUP1 REVERT JUMPDEST POP PUSH2 0x3F1 PUSH2 0x3D1 CALLDATASIZE PUSH1 0x4 PUSH2 0x179D JUMP JUMPDEST PUSH1 0x9 PUSH1 0x20 SWAP1 DUP2 MSTORE PUSH1 0x0 SWAP3 DUP4 MSTORE PUSH1 0x40 DUP1 DUP5 KECCAK256 SWAP1 SWAP2 MSTORE SWAP1 DUP3 MSTORE SWAP1 KECCAK256 SLOAD PUSH1 0xFF AND DUP2 JUMP JUMPDEST PUSH1 0x40 MLOAD SWAP1 ISZERO ISZERO DUP2 MSTORE PUSH1 0x20 ADD PUSH2 0x1E0 JUMP JUMPDEST CALLVALUE DUP1 ISZERO PUSH2 0x40D JUMPI PUSH1 0x0 DUP1 REVERT JUMPDEST POP PUSH1 0x7 SLOAD PUSH2 0x1FF JUMP JUMPDEST CALLVALUE DUP1 ISZERO PUSH2 0x422 JUMPI PUSH1 0x0 DUP1 REVERT JUMPDEST POP PUSH2 0x170 PUSH2 0xA00 JUMP JUMPDEST CALLVALUE DUP1 ISZERO PUSH2 0x437 JUMPI PUSH1 0x0 DUP1 REVERT JUMPDEST POP PUSH2 0x3F1 PUSH2 0x446 CALLDATASIZE PUSH1 0x4 PUSH2 0x179D JUMP JUMPDEST PUSH1 0xA PUSH1 0x20 SWAP1 DUP2 MSTORE PUSH1 0x0 SWAP3 DUP4 MSTORE PUSH1 0x40 DUP1 DUP5 KECCAK256 SWAP1 SWAP2 MSTORE SWAP1 DUP3 MSTORE SWAP1 KECCAK256 SLOAD PUSH1 0xFF AND DUP2 JUMP JUMPDEST CALLVALUE DUP1 ISZERO PUSH2 0x472 JUMPI PUSH1 0x0 DUP1 REVERT JUMPDEST POP PUSH2 0x1FF PUSH1 0x2 SLOAD DUP2 JUMP JUMPDEST CALLVALUE DUP1 ISZERO PUSH2 0x488 JUMPI PUSH1 0x0 DUP1 REVERT JUMPDEST POP PUSH2 0x28D PUSH2 0x497 CALLDATASIZE PUSH1 0x4 PUSH2 0x1758 JUMP JUMPDEST PUSH2 0xB45 JUMP JUMPDEST CALLVALUE DUP1 ISZERO PUSH2 0x4A8 JUMPI PUSH1 0x0 DUP1 REVERT JUMPDEST POP PUSH2 0x1FF PUSH2 0x4B7 CALLDATASIZE PUSH1 0x4 PUSH2 0x1758 JUMP JUMPDEST PUSH2 0xB55 JUMP JUMPDEST CALLVALUE DUP1 ISZERO PUSH2 0x4C8 JUMPI PUSH1 0x0 DUP1 REVERT JUMPDEST POP PUSH2 0x170 PUSH2 0x4D7 CALLDATASIZE PUSH1 0x4 PUSH2 0x1758 JUMP JUMPDEST PUSH2 0xB84 JUMP JUMPDEST CALLVALUE DUP1 ISZERO PUSH2 0x4E8 JUMPI PUSH1 0x0 DUP1 REVERT JUMPDEST POP PUSH2 0x4FC PUSH2 0x4F7 CALLDATASIZE PUSH1 0x4 PUSH2 0x1758 JUMP JUMPDEST PUSH2 0xBB3 JUMP JUMPDEST PUSH1 0x40 MLOAD PUSH2 0x1E0 SWAP3 SWAP2 SWAP1 PUSH2 0x17C7 JUMP JUMPDEST PUSH2 0x170 PUSH2 0xC96 JUMP JUMPDEST CALLER PUSH1 0x0 DUP2 DUP2 MSTORE PUSH1 0x5 PUSH1 0x20 MSTORE PUSH1 0x40 SWAP1 KECCAK256 SLOAD PUSH1 0xFF AND PUSH2 0x54A JUMPI PUSH1 0x40 MLOAD PUSH3 0x461BCD PUSH1 0xE5 SHL DUP2 MSTORE PUSH1 0x4 ADD PUSH2 0x541 SWAP1 PUSH2 0x181F JUMP JUMPDEST PUSH1 0x40 MLOAD DUP1 SWAP2 SUB SWAP1 REVERT JUMPDEST PUSH2 0x553 DUP3 PUSH2 0xE44 JUMP JUMPDEST PUSH2 0x59F JUMPI PUSH1 0x40 MLOAD PUSH3 0x461BCD PUSH1 0xE5 SHL DUP2 MSTORE PUSH1 0x20 PUSH1 0x4 DUP3 ADD MSTORE PUSH1 0x1A PUSH1 0x24 DUP3 ADD MSTORE PUSH32 0x4E6F6465206E6F742070726F706F73656420666F72206A6F696E000000000000 PUSH1 0x44 DUP3 ADD MSTORE PUSH1 0x64 ADD PUSH2 0x541 JUMP JUMPDEST PUSH2 0x5A9 CALLER DUP4 PUSH2 0xEA3 JUMP JUMPDEST ISZERO PUSH2 0x5E9 JUMPI PUSH1 0x40 MLOAD PUSH3 0x461BCD PUSH1 0xE5 SHL DUP2 MSTORE PUSH1 0x20 PUSH1 0x4 DUP3 ADD MSTORE PUSH1 0x10 PUSH1 0x24 DUP3 ADD MSTORE PUSH16 0x105B1C9958591E48185C1C1C9BDD9959 PUSH1 0x82 SHL PUSH1 0x44 DUP3 ADD MSTORE PUSH1 0x64 ADD PUSH2 0x541 JUMP JUMPDEST PUSH1 0x1 PUSH1 0x1 PUSH1 0xA0 SHL SUB DUP3 AND PUSH1 0x0 DUP2 DUP2 MSTORE PUSH1 0x9 PUSH1 0x20 SWAP1 DUP2 MSTORE PUSH1 0x40 DUP1 DUP4 KECCAK256 CALLER DUP5 MSTORE DUP3 MSTORE DUP1 DUP4 KECCAK256 DUP1 SLOAD PUSH1 0xFF NOT AND PUSH1 0x1 OR SWAP1 SSTORE PUSH1 0x4 SLOAD DUP4 MSTORE PUSH1 0xB DUP3 MSTORE DUP1 DUP4 KECCAK256 SWAP4 DUP4 MSTORE SWAP3 SWAP1 MSTORE SWAP1 DUP2 KECCAK256 DUP1 SLOAD SWAP2 PUSH2 0x638 DUP4 PUSH2 0x186C JUMP JUMPDEST SWAP2 SWAP1 POP SSTORE POP PUSH1 0x0 PUSH1 0x6 PUSH1 0x4 SLOAD DUP2 SLOAD DUP2 LT PUSH2 0x654 JUMPI PUSH2 0x654 PUSH2 0x1885 JUMP JUMPDEST PUSH1 0x0 SWAP2 DUP3 MSTORE PUSH1 0x20 SWAP1 SWAP2 KECCAK256 PUSH1 0x3 PUSH1 0x6 SWAP1 SWAP3 MUL ADD ADD SLOAD SWAP1 POP PUSH2 0x675 PUSH1 0x2 DUP3 PUSH2 0x189B JUMP JUMPDEST PUSH1 0x4 SLOAD PUSH1 0x0 SWAP1 DUP2 MSTORE PUSH1 0xB PUSH1 0x20 SWAP1 DUP2 MSTORE PUSH1 0x40 DUP1 DUP4 KECCAK256 PUSH1 0x1 PUSH1 0x1 PUSH1 0xA0 SHL SUB DUP9 AND DUP5 MSTORE SWAP1 SWAP2 MSTORE SWAP1 KECCAK256 SLOAD LT PUSH2 0x6A9 JUMPI PUSH2 0x6A9 DUP4 PUSH2 0xED3 JUMP JUMPDEST POP POP POP JUMP JUMPDEST CALLER PUSH1 0x0 DUP2 DUP2 MSTORE PUSH1 0x5 PUSH1 0x20 MSTORE PUSH1 0x40 SWAP1 KECCAK256 SLOAD PUSH1 0xFF AND PUSH2 0x6DD JUMPI PUSH1 0x40 MLOAD PUSH3 0x461BCD PUSH1 0xE5 SHL DUP2 MSTORE PUSH1 0x4 ADD PUSH2 0x541 SWAP1 PUSH2 0x181F JUMP JUMPDEST PUSH1 0x4 SLOAD DUP3 EQ PUSH2 0x71F JUMPI PUSH1 0x40 MLOAD PUSH3 0x461BCD PUSH1 0xE5 SHL DUP2 MSTORE PUSH1 0x20 PUSH1 0x4 DUP3 ADD MSTORE PUSH1 0xE PUSH1 0x24 DUP3 ADD MSTORE PUSH14 0xA4DEEADCC840DAD2E6DAC2E8C6D PUSH1 0x93 SHL PUSH1 0x44 DUP3 ADD MSTORE PUSH1 0x64 ADD PUSH2 0x541 JUMP JUMPDEST PUSH1 0x0 PUSH1 0x6 PUSH1 0x4 SLOAD DUP2 SLOAD DUP2 LT PUSH2 0x736 JUMPI PUSH2 0x736 PUSH2 0x1885 JUMP JUMPDEST PUSH1 0x0 SWAP2 DUP3 MSTORE PUSH1 0x20 DUP1 DUP4 KECCAK256 CALLER SWAP1 SWAP4 MSTORE PUSH1 0x6 SWAP2 SWAP1 SWAP2 MUL SWAP1 SWAP2 ADD PUSH1 0x4 DUP2 DUP2 ADD DUP4 MSTORE PUSH1 0x40 MLOAD PUSH3 0x461BCD PUSH1 0xE5 SHL DUP2 MSTORE SWAP1 DUP2 ADD SWAP3 SWAP1 SWAP3 MSTORE PUSH1 0x1C PUSH1 0x24 DUP4 ADD MSTORE PUSH32 0x416C7265616479207375626D6974746564207075626C6963206B657900000000 PUSH1 0x44 DUP4 ADD MSTORE SWAP2 POP PUSH1 0x64 ADD PUSH2 0x541 JUMP JUMPDEST PUSH1 0x3 SLOAD PUSH1 0x1 PUSH1 0x1 PUSH1 0xA0 SHL SUB AND CALLER EQ PUSH2 0x7C8 JUMPI PUSH1 0x40 MLOAD PUSH3 0x461BCD PUSH1 0xE5 SHL DUP2 MSTORE PUSH1 0x4 ADD PUSH2 0x541 SWAP1 PUSH2 0x18BD JUMP JUMPDEST PUSH1 0x0 SSTORE JUMP JUMPDEST CALLER PUSH1 0x0 DUP2 DUP2 MSTORE PUSH1 0x5 PUSH1 0x20 MSTORE PUSH1 0x40 SWAP1 KECCAK256 SLOAD PUSH1 0xFF AND PUSH2 0x7FC JUMPI PUSH1 0x40 MLOAD PUSH3 0x461BCD PUSH1 0xE5 SHL DUP2 MSTORE PUSH1 0x4 ADD PUSH2 0x541 SWAP1 PUSH2 0x181F JUMP JUMPDEST PUSH2 0x805 DUP3 PUSH2 0x1051 JUMP JUMPDEST PUSH2 0x851 JUMPI PUSH1 0x40 MLOAD PUSH3 0x461BCD PUSH1 0xE5 SHL DUP2 MSTORE PUSH1 0x20 PUSH1 0x4 DUP3 ADD MSTORE PUSH1 0x1B PUSH1 0x24 DUP3 ADD MSTORE PUSH32 0x4E6F6465206E6F742070726F706F73656420666F72206C656176650000000000 PUSH1 0x44 DUP3 ADD MSTORE PUSH1 0x64 ADD PUSH2 0x541 JUMP JUMPDEST PUSH1 0x1 PUSH1 0x1 PUSH1 0xA0 SHL SUB DUP3 AND PUSH1 0x0 SWAP1 DUP2 MSTORE PUSH1 0xA PUSH1 0x20 SWAP1 DUP2 MSTORE PUSH1 0x40 DUP1 DUP4 KECCAK256 CALLER DUP5 MSTORE SWAP1 SWAP2 MSTORE SWAP1 KECCAK256 SLOAD PUSH1 0xFF AND ISZERO PUSH2 0x8C5 JUMPI PUSH1 0x40 MLOAD PUSH3 0x461BCD PUSH1 0xE5 SHL DUP2 MSTORE PUSH1 0x20 PUSH1 0x4 DUP3 ADD MSTORE PUSH1 0x19 PUSH1 0x24 DUP3 ADD MSTORE PUSH32 0x416C726561647920617070726F76656420746F206C6561766500000000000000 PUSH1 0x44 DUP3 ADD MSTORE PUSH1 0x64 ADD PUSH2 0x541 JUMP JUMPDEST PUSH1 0x1 PUSH1 0x1 PUSH1 0xA0 SHL SUB DUP3 AND PUSH1 0x0 DUP2 DUP2 MSTORE PUSH1 0xA PUSH1 0x20 SWAP1 DUP2 MSTORE PUSH1 0x40 DUP1 DUP4 KECCAK256 CALLER DUP5 MSTORE DUP3 MSTORE DUP1 DUP4 KECCAK256 DUP1 SLOAD PUSH1 0xFF NOT AND PUSH1 0x1 OR SWAP1 SSTORE SWAP3 DUP3 MSTORE PUSH1 0xC SWAP1 MSTORE SWAP1 DUP2 KECCAK256 DUP1 SLOAD SWAP2 PUSH2 0x909 DUP4 PUSH2 0x186C JUMP JUMPDEST SWAP2 SWAP1 POP SSTORE POP PUSH1 0x0 PUSH1 0x6 PUSH1 0x4 SLOAD DUP2 SLOAD DUP2 LT PUSH2 0x925 JUMPI PUSH2 0x925 PUSH2 0x1885 JUMP JUMPDEST PUSH1 0x0 SWAP2 DUP3 MSTORE PUSH1 0x20 SWAP1 SWAP2 KECCAK256 PUSH1 0x3 PUSH1 0x6 SWAP1 SWAP3 MUL ADD ADD SLOAD SWAP1 POP PUSH2 0x946 PUSH1 0x2 DUP3 PUSH2 0x189B JUMP JUMPDEST PUSH1 0x1 PUSH1 0x1 PUSH1 0xA0 SHL SUB DUP5 AND PUSH1 0x0 SWAP1 DUP2 MSTORE PUSH1 0xC PUSH1 0x20 MSTORE PUSH1 0x40 SWAP1 KECCAK256 SLOAD LT PUSH2 0x6A9 JUMPI PUSH2 0x6A9 DUP4 PUSH2 0x10A7 JUMP JUMPDEST PUSH1 0x8 DUP2 DUP2 SLOAD DUP2 LT PUSH2 0x97D JUMPI PUSH1 0x0 DUP1 REVERT JUMPDEST PUSH1 0x0 SWAP2 DUP3 MSTORE PUSH1 0x20 SWAP1 SWAP2 KECCAK256 ADD SLOAD PUSH1 0x1 PUSH1 0x1 PUSH1 0xA0 SHL SUB AND SWAP1 POP DUP2 JUMP JUMPDEST PUSH1 0x6 DUP2 DUP2 SLOAD DUP2 LT PUSH2 0x9A7 JUMPI PUSH1 0x0 DUP1 REVERT JUMPDEST PUSH1 0x0 SWAP2 DUP3 MSTORE PUSH1 0x20 SWAP1 SWAP2 KECCAK256 PUSH1 0x6 SWAP1 SWAP2 MUL ADD DUP1 SLOAD PUSH1 0x1 DUP3 ADD SLOAD PUSH1 0x2 DUP4 ADD SLOAD PUSH1 0x5 SWAP1 SWAP4 ADD SLOAD SWAP2 SWAP4 POP SWAP2 SWAP1 DUP5 JUMP JUMPDEST PUSH1 0x3 SLOAD PUSH1 0x1 PUSH1 0x1 PUSH1 0xA0 SHL SUB AND CALLER EQ PUSH2 0x9FB JUMPI PUSH1 0x40 MLOAD PUSH3 0x461BCD PUSH1 0xE5 SHL DUP2 MSTORE PUSH1 0x4 ADD PUSH2 0x541 SWAP1 PUSH2 0x18BD JUMP JUMPDEST PUSH1 0x2 SSTORE JUMP JUMPDEST CALLER PUSH1 0x0 DUP2 DUP2 MSTORE PUSH1 0x5 PUSH1 0x20 MSTORE PUSH1 0x40 SWAP1 KECCAK256 SLOAD PUSH1 0xFF AND PUSH2 0xA2F JUMPI PUSH1 0x40 MLOAD PUSH3 0x461BCD PUSH1 0xE5 SHL DUP2 MSTORE PUSH1 0x4 ADD PUSH2 0x541 SWAP1 PUSH2 0x181F JUMP JUMPDEST CALLER PUSH1 0x0 SWAP1 DUP2 MSTORE PUSH1 0x5 PUSH1 0x20 MSTORE PUSH1 0x40 SWAP1 KECCAK256 PUSH1 0x2 ADD SLOAD PUSH1 0xFF AND PUSH2 0xA83 JUMPI PUSH1 0x40 MLOAD PUSH3 0x461BCD PUSH1 0xE5 SHL DUP2 MSTORE PUSH1 0x20 PUSH1 0x4 DUP3 ADD MSTORE PUSH1 0xF PUSH1 0x24 DUP3 ADD MSTORE PUSH15 0x4E6F6465206E6F7420616374697665 PUSH1 0x88 SHL PUSH1 0x44 DUP3 ADD MSTORE PUSH1 0x64 ADD PUSH2 0x541 JUMP JUMPDEST CALLER PUSH1 0x0 DUP2 DUP2 MSTORE PUSH1 0x5 PUSH1 0x20 MSTORE PUSH1 0x40 DUP1 DUP3 KECCAK256 PUSH1 0x2 ADD DUP1 SLOAD PUSH1 0xFF NOT AND SWAP1 SSTORE PUSH1 0x8 DUP1 SLOAD PUSH1 0x1 DUP2 ADD DUP3 SSTORE SWAP1 DUP4 MSTORE PUSH32 0xF3F7A9FE364FAAB93B216DA50A3214154F22A0A2B415B23A84C8169E8B636EE3 ADD DUP1 SLOAD PUSH1 0x1 PUSH1 0x1 PUSH1 0xA0 SHL SUB NOT AND DUP5 OR SWAP1 SSTORE PUSH1 0x4 SLOAD SWAP1 MLOAD SWAP1 SWAP3 SWAP2 PUSH32 0xF3B3804C8980704269949CFCCCE1DA14F0033D4A01846643AAEC07B77E01E437 SWAP2 LOG3 PUSH1 0x6 PUSH1 0x4 SLOAD DUP2 SLOAD DUP2 LT PUSH2 0xB1D JUMPI PUSH2 0xB1D PUSH2 0x1885 JUMP JUMPDEST SWAP1 PUSH1 0x0 MSTORE PUSH1 0x20 PUSH1 0x0 KECCAK256 SWAP1 PUSH1 0x6 MUL ADD PUSH1 0x3 ADD DUP1 SLOAD SWAP1 POP PUSH1 0x1 SUB PUSH2 0xB42 JUMPI PUSH2 0xB42 CALLER PUSH2 0x10A7 JUMP JUMPDEST POP JUMP JUMPDEST PUSH1 0x7 DUP2 DUP2 SLOAD DUP2 LT PUSH2 0x97D JUMPI PUSH1 0x0 DUP1 REVERT JUMPDEST PUSH1 0x0 PUSH1 0x6 DUP3 DUP2 SLOAD DUP2 LT PUSH2 0xB6A JUMPI PUSH2 0xB6A PUSH2 0x1885 JUMP JUMPDEST PUSH1 0x0 SWAP2 DUP3 MSTORE PUSH1 0x20 SWAP1 SWAP2 KECCAK256 PUSH1 0x3 PUSH1 0x6 SWAP1 SWAP3 MUL ADD ADD SLOAD SWAP3 SWAP2 POP POP JUMP JUMPDEST PUSH1 0x3 SLOAD PUSH1 0x1 PUSH1 0x1 PUSH1 0xA0 SHL SUB AND CALLER EQ PUSH2 0xBAE JUMPI PUSH1 0x40 MLOAD PUSH3 0x461BCD PUSH1 0xE5 SHL DUP2 MSTORE PUSH1 0x4 ADD PUSH2 0x541 SWAP1 PUSH2 0x18BD JUMP JUMPDEST PUSH1 0x1 SSTORE JUMP JUMPDEST CALLER PUSH1 0x0 DUP2 DUP2 MSTORE PUSH1 0x5 PUSH1 0x20 MSTORE PUSH1 0x40 DUP2 KECCAK256 SLOAD SWAP1 SWAP2 PUSH1 0x60 SWAP2 PUSH1 0xFF AND PUSH2 0xBE7 JUMPI PUSH1 0x40 MLOAD PUSH3 0x461BCD PUSH1 0xE5 SHL DUP2 MSTORE PUSH1 0x4 ADD PUSH2 0x541 SWAP1 PUSH2 0x181F JUMP JUMPDEST PUSH1 0x6 DUP5 DUP2 SLOAD DUP2 LT PUSH2 0xBFA JUMPI PUSH2 0xBFA PUSH2 0x1885 JUMP JUMPDEST SWAP1 PUSH1 0x0 MSTORE PUSH1 0x20 PUSH1 0x0 KECCAK256 SWAP1 PUSH1 0x6 MUL ADD PUSH1 0x5 ADD SLOAD PUSH1 0x6 DUP6 DUP2 SLOAD DUP2 LT PUSH2 0xC1F JUMPI PUSH2 0xC1F PUSH2 0x1885 JUMP JUMPDEST SWAP1 PUSH1 0x0 MSTORE PUSH1 0x20 PUSH1 0x0 KECCAK256 SWAP1 PUSH1 0x6 MUL ADD PUSH1 0x3 ADD DUP1 DUP1 SLOAD DUP1 PUSH1 0x20 MUL PUSH1 0x20 ADD PUSH1 0x40 MLOAD SWAP1 DUP2 ADD PUSH1 0x40 MSTORE DUP1 SWAP3 SWAP2 SWAP1 DUP2 DUP2 MSTORE PUSH1 0x20 ADD DUP3 DUP1 SLOAD DUP1 ISZERO PUSH2 0xC85 JUMPI PUSH1 0x20 MUL DUP3 ADD SWAP2 SWAP1 PUSH1 0x0 MSTORE PUSH1 0x20 PUSH1 0x0 KECCAK256 SWAP1 JUMPDEST DUP2 SLOAD PUSH1 0x1 PUSH1 0x1 PUSH1 0xA0 SHL SUB AND DUP2 MSTORE PUSH1 0x1 SWAP1 SWAP2 ADD SWAP1 PUSH1 0x20 ADD DUP1 DUP4 GT PUSH2 0xC67 JUMPI JUMPDEST POP POP POP POP POP SWAP1 POP SWAP3 POP SWAP3 POP POP SWAP2 POP SWAP2 JUMP JUMPDEST CALLER PUSH1 0x0 SWAP1 DUP2 MSTORE PUSH1 0x5 PUSH1 0x20 MSTORE PUSH1 0x40 SWAP1 KECCAK256 SLOAD PUSH1 0xFF AND ISZERO PUSH2 0xCF6 JUMPI PUSH1 0x40 MLOAD PUSH3 0x461BCD PUSH1 0xE5 SHL DUP2 MSTORE PUSH1 0x20 PUSH1 0x4 DUP3 ADD MSTORE PUSH1 0x1B PUSH1 0x24 DUP3 ADD MSTORE PUSH32 0x416C72656164792061207065726D697373696F6E6564206E6F64650000000000 PUSH1 0x44 DUP3 ADD MSTORE PUSH1 0x64 ADD PUSH2 0x541 JUMP JUMPDEST PUSH1 0x2 SLOAD CALLVALUE LT ISZERO PUSH2 0xD3B JUMPI PUSH1 0x40 MLOAD PUSH3 0x461BCD PUSH1 0xE5 SHL DUP2 MSTORE PUSH1 0x20 PUSH1 0x4 DUP3 ADD MSTORE PUSH1 0x10 PUSH1 0x24 DUP3 ADD MSTORE PUSH16 0x11195C1BDCDA5D081C995C5D5A5C9959 PUSH1 0x82 SHL PUSH1 0x44 DUP3 ADD MSTORE PUSH1 0x64 ADD PUSH2 0x541 JUMP JUMPDEST PUSH1 0x40 DUP1 MLOAD PUSH1 0x80 DUP2 ADD DUP3 MSTORE PUSH1 0x0 DUP1 DUP3 MSTORE CALLVALUE PUSH1 0x20 DUP1 DUP5 ADD SWAP2 DUP3 MSTORE DUP4 DUP6 ADD DUP4 DUP2 MSTORE PUSH1 0x60 DUP6 ADD DUP5 DUP2 MSTORE CALLER DUP1 DUP7 MSTORE PUSH1 0x5 SWAP1 SWAP4 MSTORE DUP7 DUP6 KECCAK256 SWAP6 MLOAD DUP7 SLOAD SWAP1 ISZERO ISZERO PUSH1 0xFF NOT SWAP2 DUP3 AND OR DUP8 SSTORE SWAP4 MLOAD PUSH1 0x1 DUP8 DUP2 ADD SWAP2 SWAP1 SWAP2 SSTORE SWAP2 MLOAD PUSH1 0x2 DUP8 ADD DUP1 SLOAD SWAP2 ISZERO ISZERO SWAP2 SWAP1 SWAP6 AND OR SWAP1 SWAP4 SSTORE SWAP2 MLOAD PUSH1 0x3 SWAP1 SWAP5 ADD SWAP4 SWAP1 SWAP4 SSTORE PUSH1 0x7 DUP1 SLOAD SWAP2 DUP3 ADD DUP2 SSTORE DUP3 MSTORE PUSH32 0xA66CC928B5EDB82AF9BD49922954155AB7B0942694BEA4CE44661D9A8736C688 ADD DUP1 SLOAD PUSH1 0x1 PUSH1 0x1 PUSH1 0xA0 SHL SUB NOT AND DUP4 OR SWAP1 SSTORE PUSH1 0x4 SLOAD SWAP3 MLOAD PUSH32 0x79745A2327D4DD9C784B5E552959AFEC3504487EA86D1CF4B346F6BA148FD8C2 SWAP2 SWAP1 LOG3 PUSH1 0x6 PUSH1 0x4 SLOAD DUP2 SLOAD DUP2 LT PUSH2 0xE20 JUMPI PUSH2 0xE20 PUSH2 0x1885 JUMP JUMPDEST PUSH1 0x0 SWAP2 DUP3 MSTORE PUSH1 0x20 DUP3 KECCAK256 PUSH1 0x3 PUSH1 0x6 SWAP1 SWAP3 MUL ADD ADD SLOAD SWAP1 SUB PUSH2 0xE42 JUMPI PUSH2 0xE42 CALLER PUSH2 0xED3 JUMP JUMPDEST JUMP JUMPDEST PUSH1 0x0 DUP1 JUMPDEST PUSH1 0x7 SLOAD DUP2 LT ISZERO PUSH2 0xE9A JUMPI DUP3 PUSH1 0x1 PUSH1 0x1 PUSH1 0xA0 SHL SUB AND PUSH1 0x7 DUP3 DUP2 SLOAD DUP2 LT PUSH2 0xE6F JUMPI PUSH2 0xE6F PUSH2 0x1885 JUMP JUMPDEST PUSH1 0x0 SWAP2 DUP3 MSTORE PUSH1 0x20 SWAP1 SWAP2 KECCAK256 ADD SLOAD PUSH1 0x1 PUSH1 0x1 PUSH1 0xA0 SHL SUB AND SUB PUSH2 0xE92 JUMPI POP PUSH1 0x1 SWAP3 SWAP2 POP POP JUMP JUMPDEST PUSH1 0x1 ADD PUSH2 0xE48 JUMP JUMPDEST POP PUSH1 0x0 SWAP3 SWAP2 POP POP JUMP JUMPDEST PUSH1 0x1 PUSH1 0x1 PUSH1 0xA0 SHL SUB DUP1 DUP3 AND PUSH1 0x0 SWAP1 DUP2 MSTORE PUSH1 0x9 PUSH1 0x20 SWAP1 DUP2 MSTORE PUSH1 0x40 DUP1 DUP4 KECCAK256 SWAP4 DUP7 AND DUP4 MSTORE SWAP3 SWAP1 MSTORE KECCAK256 SLOAD PUSH1 0xFF AND JUMPDEST SWAP3 SWAP2 POP POP JUMP JUMPDEST PUSH2 0xEDC DUP2 PUSH2 0x1205 JUMP JUMPDEST PUSH1 0x1 PUSH1 0x1 PUSH1 0xA0 SHL SUB DUP2 AND PUSH1 0x0 SWAP1 DUP2 MSTORE PUSH1 0x5 PUSH1 0x20 MSTORE PUSH1 0x40 SWAP1 KECCAK256 DUP1 SLOAD PUSH1 0x1 PUSH1 0xFF NOT SWAP2 DUP3 AND DUP2 OR DUP4 SSTORE PUSH1 0x2 SWAP1 SWAP3 ADD DUP1 SLOAD SWAP1 SWAP2 AND SWAP1 SWAP2 OR SWAP1 SSTORE PUSH1 0x4 SLOAD PUSH1 0x6 DUP1 SLOAD SWAP1 SWAP2 SWAP1 DUP2 LT PUSH2 0xF29 JUMPI PUSH2 0xF29 PUSH2 0x1885 JUMP JUMPDEST PUSH1 0x0 SWAP2 DUP3 MSTORE PUSH1 0x20 DUP1 DUP4 KECCAK256 PUSH1 0x6 SWAP3 SWAP1 SWAP3 MUL SWAP1 SWAP2 ADD PUSH1 0x3 ADD DUP1 SLOAD PUSH1 0x1 DUP2 ADD DUP3 SSTORE SWAP1 DUP4 MSTORE SWAP1 DUP3 KECCAK256 ADD DUP1 SLOAD PUSH1 0x1 PUSH1 0x1 PUSH1 0xA0 SHL SUB NOT AND PUSH1 0x1 PUSH1 0x1 PUSH1 0xA0 SHL SUB DUP5 AND SWAP1 DUP2 OR SWAP1 SWAP2 SSTORE PUSH1 0x4 SLOAD PUSH1 0x40 MLOAD SWAP1 SWAP3 PUSH32 0x676388BB83505BA7712ED135B2BA9BDF6F645E41015BC49549CEC2C1B3BAE13 SWAP2 LOG3 POP JUMP JUMPDEST PUSH1 0x3 DUP4 ADD SLOAD DUP2 LT ISZERO PUSH2 0xFFD JUMPI PUSH1 0x0 DUP4 PUSH1 0x4 ADD PUSH1 0x0 DUP6 PUSH1 0x3 ADD DUP5 DUP2 SLOAD DUP2 LT PUSH2 0xFC1 JUMPI PUSH2 0xFC1 PUSH2 0x1885 JUMP JUMPDEST PUSH1 0x0 SWAP2 DUP3 MSTORE PUSH1 0x20 DUP1 DUP4 KECCAK256 SWAP1 SWAP2 ADD SLOAD PUSH1 0x1 PUSH1 0x1 PUSH1 0xA0 SHL SUB AND DUP4 MSTORE DUP3 ADD SWAP3 SWAP1 SWAP3 MSTORE PUSH1 0x40 ADD SWAP1 KECCAK256 SLOAD SWAP1 POP PUSH2 0xFF2 DUP4 DUP3 PUSH2 0x1302 JUMP JUMPDEST SWAP3 POP POP PUSH1 0x1 ADD PUSH2 0xF98 JUMP JUMPDEST POP PUSH1 0x5 DUP3 ADD DUP2 SWAP1 SSTORE PUSH1 0x4 SLOAD PUSH1 0x40 MLOAD PUSH32 0x978DD127D141A0352AC567DB27F5FF4EF57500FC19B9DA1B3DABD52BE40C303B SWAP1 PUSH2 0x103D SWAP1 DUP5 SWAP1 PUSH1 0x3 DUP8 ADD SWAP1 PUSH2 0x18E9 JUMP JUMPDEST PUSH1 0x40 MLOAD DUP1 SWAP2 SUB SWAP1 LOG2 PUSH2 0x104D PUSH2 0x1374 JUMP JUMPDEST POP POP JUMP JUMPDEST PUSH1 0x0 DUP1 JUMPDEST PUSH1 0x8 SLOAD DUP2 LT ISZERO PUSH2 0xE9A JUMPI DUP3 PUSH1 0x1 PUSH1 0x1 PUSH1 0xA0 SHL SUB AND PUSH1 0x8 DUP3 DUP2 SLOAD DUP2 LT PUSH2 0x107C JUMPI PUSH2 0x107C PUSH2 0x1885 JUMP JUMPDEST PUSH1 0x0 SWAP2 DUP3 MSTORE PUSH1 0x20 SWAP1 SWAP2 KECCAK256 ADD SLOAD PUSH1 0x1 PUSH1 0x1 PUSH1 0xA0 SHL SUB AND SUB PUSH2 0x109F JUMPI POP PUSH1 0x1 SWAP3 SWAP2 POP POP JUMP JUMPDEST PUSH1 0x1 ADD PUSH2 0x1055 JUMP JUMPDEST PUSH2 0x10B0 DUP2 PUSH2 0x14FD JUMP JUMPDEST PUSH1 0x1 PUSH1 0x1 PUSH1 0xA0 SHL SUB DUP2 AND PUSH1 0x0 SWAP1 DUP2 MSTORE PUSH1 0xC PUSH1 0x20 MSTORE PUSH1 0x40 DUP2 KECCAK256 DUP2 SWAP1 SSTORE JUMPDEST PUSH1 0x6 PUSH1 0x4 SLOAD DUP2 SLOAD DUP2 LT PUSH2 0x10E1 JUMPI PUSH2 0x10E1 PUSH2 0x1885 JUMP JUMPDEST SWAP1 PUSH1 0x0 MSTORE PUSH1 0x20 PUSH1 0x0 KECCAK256 SWAP1 PUSH1 0x6 MUL ADD PUSH1 0x3 ADD DUP1 SLOAD SWAP1 POP DUP2 LT ISZERO PUSH2 0x1176 JUMPI PUSH1 0x0 PUSH1 0x6 PUSH1 0x4 SLOAD DUP2 SLOAD DUP2 LT PUSH2 0x1114 JUMPI PUSH2 0x1114 PUSH2 0x1885 JUMP JUMPDEST SWAP1 PUSH1 0x0 MSTORE PUSH1 0x20 PUSH1 0x0 KECCAK256 SWAP1 PUSH1 0x6 MUL ADD PUSH1 0x3 ADD DUP3 DUP2 SLOAD DUP2 LT PUSH2 0x1136 JUMPI PUSH2 0x1136 PUSH2 0x1885 JUMP JUMPDEST PUSH1 0x0 SWAP2 DUP3 MSTORE PUSH1 0x20 DUP1 DUP4 KECCAK256 SWAP1 SWAP2 ADD SLOAD PUSH1 0x1 PUSH1 0x1 PUSH1 0xA0 SHL SUB DUP7 DUP2 AND DUP5 MSTORE PUSH1 0xA DUP4 MSTORE PUSH1 0x40 DUP1 DUP6 KECCAK256 SWAP2 SWAP1 SWAP3 AND DUP5 MSTORE SWAP1 SWAP2 MSTORE SWAP1 KECCAK256 DUP1 SLOAD PUSH1 0xFF NOT AND SWAP1 SSTORE POP PUSH1 0x1 ADD PUSH2 0x10CC JUMP JUMPDEST POP PUSH1 0x1 PUSH1 0x1 PUSH1 0xA0 SHL SUB DUP2 AND PUSH1 0x0 DUP2 DUP2 MSTORE PUSH1 0x5 PUSH1 0x20 MSTORE PUSH1 0x40 DUP1 DUP3 KECCAK256 PUSH1 0x1 DUP2 ADD SLOAD DUP2 SLOAD PUSH1 0xFF NOT AND SWAP1 SWAP2 SSTORE SWAP1 MLOAD SWAP1 SWAP3 SWAP2 DUP4 ISZERO PUSH2 0x8FC MUL SWAP2 DUP5 SWAP2 DUP2 DUP2 DUP2 DUP6 DUP9 DUP9 CALL SWAP4 POP POP POP POP ISZERO DUP1 ISZERO PUSH2 0x11C9 JUMPI RETURNDATASIZE PUSH1 0x0 DUP1 RETURNDATACOPY RETURNDATASIZE PUSH1 0x0 REVERT JUMPDEST POP PUSH1 0x4 SLOAD PUSH1 0x40 MLOAD PUSH1 0x1 PUSH1 0x1 PUSH1 0xA0 SHL SUB DUP5 AND SWAP1 PUSH32 0x82540C1182323D73764DC587BB51AC34ADF43CCDD4DFE9ED6272F8ED7D5BD5B SWAP1 PUSH1 0x0 SWAP1 LOG3 POP POP JUMP JUMPDEST PUSH1 0x0 JUMPDEST PUSH1 0x7 SLOAD DUP2 LT ISZERO PUSH2 0x104D JUMPI DUP2 PUSH1 0x1 PUSH1 0x1 PUSH1 0xA0 SHL SUB AND PUSH1 0x7 DUP3 DUP2 SLOAD DUP2 LT PUSH2 0x122F JUMPI PUSH2 0x122F PUSH2 0x1885 JUMP JUMPDEST PUSH1 0x0 SWAP2 DUP3 MSTORE PUSH1 0x20 SWAP1 SWAP2 KECCAK256 ADD SLOAD PUSH1 0x1 PUSH1 0x1 PUSH1 0xA0 SHL SUB AND SUB PUSH2 0x12FA JUMPI PUSH1 0x7 DUP1 SLOAD PUSH2 0x1259 SWAP1 PUSH1 0x1 SWAP1 PUSH2 0x193A JUMP JUMPDEST DUP2 SLOAD DUP2 LT PUSH2 0x1269 JUMPI PUSH2 0x1269 PUSH2 0x1885 JUMP JUMPDEST PUSH1 0x0 SWAP2 DUP3 MSTORE PUSH1 0x20 SWAP1 SWAP2 KECCAK256 ADD SLOAD PUSH1 0x7 DUP1 SLOAD PUSH1 0x1 PUSH1 0x1 PUSH1 0xA0 SHL SUB SWAP1 SWAP3 AND SWAP2 DUP4 SWAP1 DUP2 LT PUSH2 0x1295 JUMPI PUSH2 0x1295 PUSH2 0x1885 JUMP JUMPDEST SWAP1 PUSH1 0x0 MSTORE PUSH1 0x20 PUSH1 0x0 KECCAK256 ADD PUSH1 0x0 PUSH2 0x100 EXP DUP2 SLOAD DUP2 PUSH1 0x1 PUSH1 0x1 PUSH1 0xA0 SHL SUB MUL NOT AND SWAP1 DUP4 PUSH1 0x1 PUSH1 0x1 PUSH1 0xA0 SHL SUB AND MUL OR SWAP1 SSTORE POP PUSH1 0x7 DUP1 SLOAD DUP1 PUSH2 0x12D4 JUMPI PUSH2 0x12D4 PUSH2 0x194D JUMP JUMPDEST PUSH1 0x0 DUP3 DUP2 MSTORE PUSH1 0x20 SWAP1 KECCAK256 DUP2 ADD PUSH1 0x0 NOT SWAP1 DUP2 ADD DUP1 SLOAD PUSH1 0x1 PUSH1 0x1 PUSH1 0xA0 SHL SUB NOT AND SWAP1 SSTORE ADD SWAP1 SSTORE POP POP JUMP JUMPDEST PUSH1 0x1 ADD PUSH2 0x1208 JUMP JUMPDEST PUSH1 0x0 DUP3 DUP3 DUP3 PUSH2 0x1311 DUP3 DUP5 PUSH2 0x1963 JUMP JUMPDEST SWAP1 POP DUP2 PUSH2 0x131E DUP5 DUP4 PUSH2 0x189B JUMP JUMPDEST EQ PUSH2 0x136B JUMPI PUSH1 0x40 MLOAD PUSH3 0x461BCD PUSH1 0xE5 SHL DUP2 MSTORE PUSH1 0x20 PUSH1 0x4 DUP3 ADD MSTORE PUSH1 0x17 PUSH1 0x24 DUP3 ADD MSTORE PUSH32 0x4D756C7469706C69636174696F6E206F766572666C6F77000000000000000000 PUSH1 0x44 DUP3 ADD MSTORE PUSH1 0x64 ADD PUSH2 0x541 JUMP JUMPDEST SWAP6 SWAP5 POP POP POP POP POP JUMP JUMPDEST PUSH1 0x4 SLOAD ISZERO PUSH2 0x1384 JUMPI PUSH2 0x1384 PUSH2 0x15D4 JUMP JUMPDEST PUSH1 0x0 JUMPDEST PUSH1 0x7 SLOAD DUP2 LT ISZERO PUSH2 0x1471 JUMPI PUSH1 0x0 PUSH1 0x7 DUP3 DUP2 SLOAD DUP2 LT PUSH2 0x13A6 JUMPI PUSH2 0x13A6 PUSH2 0x1885 JUMP JUMPDEST PUSH1 0x0 SWAP2 DUP3 MSTORE PUSH1 0x20 DUP3 KECCAK256 ADD SLOAD PUSH1 0x1 PUSH1 0x1 PUSH1 0xA0 SHL SUB AND SWAP2 POP JUMPDEST PUSH1 0x6 PUSH1 0x4 SLOAD DUP2 SLOAD DUP2 LT PUSH2 0x13D2 JUMPI PUSH2 0x13D2 PUSH2 0x1885 JUMP JUMPDEST SWAP1 PUSH1 0x0 MSTORE PUSH1 0x20 PUSH1 0x0 KECCAK256 SWAP1 PUSH1 0x6 MUL ADD PUSH1 0x3 ADD DUP1 SLOAD SWAP1 POP DUP2 LT ISZERO PUSH2 0x1467 JUMPI PUSH1 0x0 PUSH1 0x6 PUSH1 0x4 SLOAD DUP2 SLOAD DUP2 LT PUSH2 0x1405 JUMPI PUSH2 0x1405 PUSH2 0x1885 JUMP JUMPDEST SWAP1 PUSH1 0x0 MSTORE PUSH1 0x20 PUSH1 0x0 KECCAK256 SWAP1 PUSH1 0x6 MUL ADD PUSH1 0x3 ADD DUP3 DUP2 SLOAD DUP2 LT PUSH2 0x1427 JUMPI PUSH2 0x1427 PUSH2 0x1885 JUMP JUMPDEST PUSH1 0x0 SWAP2 DUP3 MSTORE PUSH1 0x20 DUP1 DUP4 KECCAK256 SWAP1 SWAP2 ADD SLOAD PUSH1 0x1 PUSH1 0x1 PUSH1 0xA0 SHL SUB DUP7 DUP2 AND DUP5 MSTORE PUSH1 0x9 DUP4 MSTORE PUSH1 0x40 DUP1 DUP6 KECCAK256 SWAP2 SWAP1 SWAP3 AND DUP5 MSTORE SWAP1 SWAP2 MSTORE SWAP1 KECCAK256 DUP1 SLOAD PUSH1 0xFF NOT AND SWAP1 SSTORE POP PUSH1 0x1 ADD PUSH2 0x13BD JUMP JUMPDEST POP POP PUSH1 0x1 ADD PUSH2 0x1387 JUMP JUMPDEST POP PUSH1 0x1 SLOAD NUMBER SWAP1 PUSH1 0x0 SWAP1 PUSH2 0x1484 SWAP1 TIMESTAMP PUSH2 0x197A JUMP JUMPDEST PUSH1 0x6 DUP1 SLOAD PUSH1 0x1 DUP2 DUP2 ADD DUP4 SSTORE PUSH1 0x0 DUP4 SWAP1 MSTORE SWAP1 DUP3 MUL PUSH32 0xF652222313E28459528D920B65115C16C04F3EFC82AAEDC97BE59F3F377C0D3F DUP2 ADD DUP7 DUP2 SSTORE PUSH32 0xF652222313E28459528D920B65115C16C04F3EFC82AAEDC97BE59F3F377C0D40 SWAP1 SWAP2 ADD DUP5 SWAP1 SSTORE SWAP2 SLOAD SWAP3 SWAP4 POP SWAP1 SWAP2 PUSH2 0x14F5 SWAP2 SWAP1 PUSH2 0x193A JUMP JUMPDEST PUSH1 0x4 SSTORE POP POP POP JUMP JUMPDEST PUSH1 0x0 JUMPDEST PUSH1 0x8 SLOAD DUP2 LT ISZERO PUSH2 0x104D JUMPI DUP2 PUSH1 0x1 PUSH1 0x1 PUSH1 0xA0 SHL SUB AND PUSH1 0x8 DUP3 DUP2 SLOAD DUP2 LT PUSH2 0x1527 JUMPI PUSH2 0x1527 PUSH2 0x1885 JUMP JUMPDEST PUSH1 0x0 SWAP2 DUP3 MSTORE PUSH1 0x20 SWAP1 SWAP2 KECCAK256 ADD SLOAD PUSH1 0x1 PUSH1 0x1 PUSH1 0xA0 SHL SUB AND SUB PUSH2 0x15CC JUMPI PUSH1 0x8 DUP1 SLOAD PUSH2 0x1551 SWAP1 PUSH1 0x1 SWAP1 PUSH2 0x193A JUMP JUMPDEST DUP2 SLOAD DUP2 LT PUSH2 0x1561 JUMPI PUSH2 0x1561 PUSH2 0x1885 JUMP JUMPDEST PUSH1 0x0 SWAP2 DUP3 MSTORE PUSH1 0x20 SWAP1 SWAP2 KECCAK256 ADD SLOAD PUSH1 0x8 DUP1 SLOAD PUSH1 0x1 PUSH1 0x1 PUSH1 0xA0 SHL SUB SWAP1 SWAP3 AND SWAP2 DUP4 SWAP1 DUP2 LT PUSH2 0x158D JUMPI PUSH2 0x158D PUSH2 0x1885 JUMP JUMPDEST SWAP1 PUSH1 0x0 MSTORE PUSH1 0x20 PUSH1 0x0 KECCAK256 ADD PUSH1 0x0 PUSH2 0x100 EXP DUP2 SLOAD DUP2 PUSH1 0x1 PUSH1 0x1 PUSH1 0xA0 SHL SUB MUL NOT AND SWAP1 DUP4 PUSH1 0x1 PUSH1 0x1 PUSH1 0xA0 SHL SUB AND MUL OR SWAP1 SSTORE POP PUSH1 0x8 DUP1 SLOAD DUP1 PUSH2 0x12D4 JUMPI PUSH2 0x12D4 PUSH2 0x194D JUMP JUMPDEST PUSH1 0x1 ADD PUSH2 0x1500 JUMP JUMPDEST PUSH1 0x0 JUMPDEST PUSH1 0x7 SLOAD DUP2 LT ISZERO PUSH2 0x16C1 JUMPI PUSH1 0x0 PUSH1 0x7 DUP3 DUP2 SLOAD DUP2 LT PUSH2 0x15F6 JUMPI PUSH2 0x15F6 PUSH2 0x1885 JUMP JUMPDEST PUSH1 0x0 SWAP2 DUP3 MSTORE PUSH1 0x20 DUP3 KECCAK256 ADD SLOAD PUSH1 0x1 PUSH1 0x1 PUSH1 0xA0 SHL SUB AND SWAP2 POP JUMPDEST PUSH1 0x6 PUSH1 0x4 SLOAD DUP2 SLOAD DUP2 LT PUSH2 0x1622 JUMPI PUSH2 0x1622 PUSH2 0x1885 JUMP JUMPDEST SWAP1 PUSH1 0x0 MSTORE PUSH1 0x20 PUSH1 0x0 KECCAK256 SWAP1 PUSH1 0x6 MUL ADD PUSH1 0x3 ADD DUP1 SLOAD SWAP1 POP DUP2 LT ISZERO PUSH2 0x16B7 JUMPI PUSH1 0x0 PUSH1 0x6 PUSH1 0x4 SLOAD DUP2 SLOAD DUP2 LT PUSH2 0x1655 JUMPI PUSH2 0x1655 PUSH2 0x1885 JUMP JUMPDEST SWAP1 PUSH1 0x0 MSTORE PUSH1 0x20 PUSH1 0x0 KECCAK256 SWAP1 PUSH1 0x6 MUL ADD PUSH1 0x3 ADD DUP3 DUP2 SLOAD DUP2 LT PUSH2 0x1677 JUMPI PUSH2 0x1677 PUSH2 0x1885 JUMP JUMPDEST PUSH1 0x0 SWAP2 DUP3 MSTORE PUSH1 0x20 DUP1 DUP4 KECCAK256 SWAP1 SWAP2 ADD SLOAD PUSH1 0x1 PUSH1 0x1 PUSH1 0xA0 SHL SUB DUP7 DUP2 AND DUP5 MSTORE PUSH1 0x9 DUP4 MSTORE PUSH1 0x40 DUP1 DUP6 KECCAK256 SWAP2 SWAP1 SWAP3 AND DUP5 MSTORE SWAP1 SWAP2 MSTORE SWAP1 KECCAK256 DUP1 SLOAD PUSH1 0xFF NOT AND SWAP1 SSTORE POP PUSH1 0x1 ADD PUSH2 0x160D JUMP JUMPDEST POP POP PUSH1 0x1 ADD PUSH2 0x15D7 JUMP JUMPDEST POP PUSH2 0xE42 PUSH1 0x7 DUP1 SLOAD PUSH1 0x0 DUP3 SSTORE SWAP1 PUSH1 0x0 MSTORE PUSH1 0x20 PUSH1 0x0 KECCAK256 SWAP1 DUP2 ADD SWAP1 PUSH2 0xB42 SWAP2 SWAP1 JUMPDEST DUP1 DUP3 GT ISZERO PUSH2 0x16F4 JUMPI PUSH1 0x0 DUP2 SSTORE PUSH1 0x1 ADD PUSH2 0x16E0 JUMP JUMPDEST POP SWAP1 JUMP JUMPDEST DUP1 CALLDATALOAD PUSH1 0x1 PUSH1 0x1 PUSH1 0xA0 SHL SUB DUP2 AND DUP2 EQ PUSH2 0x170F JUMPI PUSH1 0x0 DUP1 REVERT JUMPDEST SWAP2 SWAP1 POP JUMP JUMPDEST PUSH1 0x0 PUSH1 0x20 DUP3 DUP5 SUB SLT ISZERO PUSH2 0x1726 JUMPI PUSH1 0x0 DUP1 REVERT JUMPDEST PUSH2 0x172F DUP3 PUSH2 0x16F8 JUMP JUMPDEST SWAP4 SWAP3 POP POP POP JUMP JUMPDEST PUSH1 0x0 DUP1 PUSH1 0x40 DUP4 DUP6 SUB SLT ISZERO PUSH2 0x1749 JUMPI PUSH1 0x0 DUP1 REVERT JUMPDEST POP POP DUP1 CALLDATALOAD SWAP3 PUSH1 0x20 SWAP1 SWAP2 ADD CALLDATALOAD SWAP2 POP JUMP JUMPDEST PUSH1 0x0 PUSH1 0x20 DUP3 DUP5 SUB SLT ISZERO PUSH2 0x176A JUMPI PUSH1 0x0 DUP1 REVERT JUMPDEST POP CALLDATALOAD SWAP2 SWAP1 POP JUMP JUMPDEST PUSH1 0x0 DUP1 PUSH1 0x40 DUP4 DUP6 SUB SLT ISZERO PUSH2 0x1784 JUMPI PUSH1 0x0 DUP1 REVERT JUMPDEST DUP3 CALLDATALOAD SWAP2 POP PUSH2 0x1794 PUSH1 0x20 DUP5 ADD PUSH2 0x16F8 JUMP JUMPDEST SWAP1 POP SWAP3 POP SWAP3 SWAP1 POP JUMP JUMPDEST PUSH1 0x0 DUP1 PUSH1 0x40 DUP4 DUP6 SUB SLT ISZERO PUSH2 0x17B0 JUMPI PUSH1 0x0 DUP1 REVERT JUMPDEST PUSH2 0x17B9 DUP4 PUSH2 0x16F8 JUMP JUMPDEST SWAP2 POP PUSH2 0x1794 PUSH1 0x20 DUP5 ADD PUSH2 0x16F8 JUMP JUMPDEST PUSH1 0x0 PUSH1 0x40 DUP3 ADD DUP5 DUP4 MSTORE PUSH1 0x40 PUSH1 0x20 DUP5 ADD MSTORE DUP1 DUP5 MLOAD DUP1 DUP4 MSTORE PUSH1 0x60 DUP6 ADD SWAP2 POP PUSH1 0x20 DUP7 ADD SWAP3 POP PUSH1 0x0 JUMPDEST DUP2 DUP2 LT ISZERO PUSH2 0x1813 JUMPI DUP4 MLOAD PUSH1 0x1 PUSH1 0x1 PUSH1 0xA0 SHL SUB AND DUP4 MSTORE PUSH1 0x20 SWAP4 DUP5 ADD SWAP4 SWAP1 SWAP3 ADD SWAP2 PUSH1 0x1 ADD PUSH2 0x17EC JUMP JUMPDEST POP SWAP1 SWAP7 SWAP6 POP POP POP POP POP POP JUMP JUMPDEST PUSH1 0x20 DUP1 DUP3 MSTORE PUSH1 0x17 SWAP1 DUP3 ADD MSTORE PUSH32 0x4E6F742061207065726D697373696F6E6564206E6F6465000000000000000000 PUSH1 0x40 DUP3 ADD MSTORE PUSH1 0x60 ADD SWAP1 JUMP JUMPDEST PUSH4 0x4E487B71 PUSH1 0xE0 SHL PUSH1 0x0 MSTORE PUSH1 0x11 PUSH1 0x4 MSTORE PUSH1 0x24 PUSH1 0x0 REVERT JUMPDEST PUSH1 0x0 PUSH1 0x1 DUP3 ADD PUSH2 0x187E JUMPI PUSH2 0x187E PUSH2 0x1856 JUMP JUMPDEST POP PUSH1 0x1 ADD SWAP1 JUMP JUMPDEST PUSH4 0x4E487B71 PUSH1 0xE0 SHL PUSH1 0x0 MSTORE PUSH1 0x32 PUSH1 0x4 MSTORE PUSH1 0x24 PUSH1 0x0 REVERT JUMPDEST PUSH1 0x0 DUP3 PUSH2 0x18B8 JUMPI PUSH4 0x4E487B71 PUSH1 0xE0 SHL PUSH1 0x0 MSTORE PUSH1 0x12 PUSH1 0x4 MSTORE PUSH1 0x24 PUSH1 0x0 REVERT JUMPDEST POP DIV SWAP1 JUMP JUMPDEST PUSH1 0x20 DUP1 DUP3 MSTORE PUSH1 0x12 SWAP1 DUP3 ADD MSTORE PUSH18 0x2737BA1031B7B73A3930B1BA1037BBB732B9 PUSH1 0x71 SHL PUSH1 0x40 DUP3 ADD MSTORE PUSH1 0x60 ADD SWAP1 JUMP JUMPDEST PUSH1 0x0 PUSH1 0x40 DUP3 ADD DUP5 DUP4 MSTORE PUSH1 0x40 PUSH1 0x20 DUP5 ADD MSTORE DUP1 DUP5 SLOAD DUP1 DUP4 MSTORE PUSH1 0x60 DUP6 ADD SWAP2 POP DUP6 PUSH1 0x0 MSTORE PUSH1 0x20 PUSH1 0x0 KECCAK256 SWAP3 POP PUSH1 0x0 JUMPDEST DUP2 DUP2 LT ISZERO PUSH2 0x1813 JUMPI DUP4 SLOAD PUSH1 0x1 PUSH1 0x1 PUSH1 0xA0 SHL SUB AND DUP4 MSTORE PUSH1 0x1 SWAP4 DUP5 ADD SWAP4 PUSH1 0x20 SWAP1 SWAP4 ADD SWAP3 ADD PUSH2 0x1913 JUMP JUMPDEST DUP2 DUP2 SUB DUP2 DUP2 GT ISZERO PUSH2 0xECD JUMPI PUSH2 0xECD PUSH2 0x1856 JUMP JUMPDEST PUSH4 0x4E487B71 PUSH1 0xE0 SHL PUSH1 0x0 MSTORE PUSH1 0x31 PUSH1 0x4 MSTORE PUSH1 0x24 PUSH1 0x0 REVERT JUMPDEST DUP1 DUP3 MUL DUP2 ISZERO DUP3 DUP3 DIV DUP5 EQ OR PUSH2 0xECD JUMPI PUSH2 0xECD PUSH2 0x1856 JUMP JUMPDEST DUP1 DUP3 ADD DUP1 DUP3 GT ISZERO PUSH2 0xECD JUMPI PUSH2 0xECD PUSH2 0x1856 JUMP INVALID LOG2 PUSH5 0x6970667358 0x22 SLT KECCAK256 0x21 0xE1 BLOBHASH SSTORE MOD 0xAE PUSH11 0x8B9E4399EAF9E2F01F4CAF 0x4C 0xB2 BYTE SWAP5 PUSH15 0x590844A4C9D4A469F964736F6C6343 STOP ADDMOD SHL STOP CALLER "
        },
        "methodIdentifiers": {
          "MIN_DEPOSIT()": "e1e158a5",
          "ROUND_BLOCKS()": "1f23b03e",
          "ROUND_TIMEOUT()": "75a2b6ca",
          "approvalCounts(uint256,address)": "93628425",
          "approveJoinNode(address)": "0465603d",
          "approveLeaveNode(address)": "4106946f",
          "currentRoundIndex()": "6896ef4b",
          "getActiveNodeNum(uint256)": "ec8f2c3f",
          "getPendingNodeNum()": "a98d7ae8",
          "getSystemPublicKey(uint256)": "f1ec444f",
          "joinApprovals(address,address)": "a29b1f49",
          "leaveApprovals(address,address)": "caee5e86",
          "leaveApprovalsCount(address)": "737fc252",
          "leavingNodes(uint256)": "41a7960f",
          "nodes(address)": "189a5a17",
          "owner()": "8da5cb5b",
          "pendingNodes(uint256)": "e54bec5f",
          "proposeJoinNode()": "f7830b4c",
          "proposeLeaveNode()": "c2314f6b",
          "rounds(uint256)": "8c65c81f",
          "setMinDeposit(uint256)": "8fcc9cfb",
          "setRoundBlocks(uint256)": "32be0b74",
          "setRoundTimeout(uint256)": "ed7ab465",
          "submitPubKey(bytes32,uint256)": "2e6afb78"
        }
      }
    }
  }
}