{
  "_format": "hh-sol-artifact-1",
  "contractName": "PermissionManager",
  "sourceName": "contracts/PermissionMgr.sol",
  "abi": [
    {
      "inputs": [
        {
          "internalType": "uint256",
          "name": "_roundBlocks",
          "type": "uint256"
        },
        {
          "internalType": "uint256",
          "name": "_roundTimeout",
          "type": "uint256"
        },
        {
          "internalType": "uint256",
          "name": "_minDeposit",
          "type": "uint256"
        }
      ],
      "stateMutability": "nonpayable",
      "type": "constructor"
    },
    {
      "anonymous": false,
      "inputs": [
        {
          "indexed": true,
          "internalType": "address",
          "name": "node",
          "type": "address"
        },
        {
          "indexed": true,
          "internalType": "uint256",
          "name": "roundIndex",
          "type": "uint256"
        }
      ],
      "name": "NodeJoinProposed",
      "type": "event"
    },
    {
      "anonymous": false,
      "inputs": [
        {
          "indexed": true,
          "internalType": "address",
          "name": "node",
          "type": "address"
        },
        {
          "indexed": true,
          "internalType": "uint256",
          "name": "roundIndex",
          "type": "uint256"
        }
      ],
      "name": "NodeJoined",
      "type": "event"
    },
    {
      "anonymous": false,
      "inputs": [
        {
          "indexed": true,
          "internalType": "address",
          "name": "node",
          "type": "address"
        },
        {
          "indexed": true,
          "internalType": "uint256",
          "name": "roundIndex",
          "type": "uint256"
        }
      ],
      "name": "NodeLeaveProposed",
      "type": "event"
    },
    {
      "anonymous": false,
      "inputs": [
        {
          "indexed": true,
          "internalType": "address",
          "name": "node",
          "type": "address"
        },
        {
          "indexed": true,
          "internalType": "uint256",
          "name": "roundIndex",
          "type": "uint256"
        }
      ],
      "name": "NodeLeft",
      "type": "event"
    },
    {
      "anonymous": false,
      "inputs": [
        {
          "indexed": true,
          "internalType": "uint256",
          "name": "roundIndex",
          "type": "uint256"
        },
        {
          "indexed": false,
          "internalType": "bytes32[]",
          "name": "publicKeys",
          "type": "bytes32[]"
        },
        {
          "indexed": false,
          "internalType": "address[]",
          "name": "participants",
          "type": "address[]"
        }
      ],
      "name": "SystemPublicKeyGenerated",
      "type": "event"
    },
    {
      "anonymous": false,
      "inputs": [
        {
          "indexed": true,
          "internalType": "address",
          "name": "node",
          "type": "address"
        },
        {
          "indexed": false,
          "internalType": "uint256",
          "name": "amount",
          "type": "uint256"
        },
        {
          "indexed": false,
          "internalType": "uint256",
          "name": "gasUsed",
          "type": "uint256"
        }
      ],
      "name": "TransferGasUsed",
      "type": "event"
    },
    {
      "inputs": [],
      "name": "MIN_DEPOSIT",
      "outputs": [
        {
          "internalType": "uint256",
          "name": "",
          "type": "uint256"
        }
      ],
      "stateMutability": "view",
      "type": "function"
    },
    {
      "inputs": [],
      "name": "ROUND_BLOCKS",
      "outputs": [
        {
          "internalType": "uint256",
          "name": "",
          "type": "uint256"
        }
      ],
      "stateMutability": "view",
      "type": "function"
    },
    {
      "inputs": [],
      "name": "ROUND_TIMEOUT",
      "outputs": [
        {
          "internalType": "uint256",
          "name": "",
          "type": "uint256"
        }
      ],
      "stateMutability": "view",
      "type": "function"
    },
    {
      "inputs": [
        {
          "internalType": "uint256",
          "name": "",
          "type": "uint256"
        },
        {
          "internalType": "address",
          "name": "",
          "type": "address"
        }
      ],
      "name": "approvalCounts",
      "outputs": [
        {
          "internalType": "uint256",
          "name": "",
          "type": "uint256"
        }
      ],
      "stateMutability": "view",
      "type": "function"
    },
    {
      "inputs": [
        {
          "internalType": "address",
          "name": "_node",
          "type": "address"
        }
      ],
      "name": "approveJoinNode",
      "outputs": [],
      "stateMutability": "nonpayable",
      "type": "function"
    },
    {
      "inputs": [
        {
          "internalType": "address",
          "name": "_node",
          "type": "address"
        }
      ],
      "name": "approveLeaveNode",
      "outputs": [],
      "stateMutability": "nonpayable",
      "type": "function"
    },
    {
      "inputs": [],
      "name": "currentRoundIndex",
      "outputs": [
        {
          "internalType": "uint256",
          "name": "",
          "type": "uint256"
        }
      ],
      "stateMutability": "view",
      "type": "function"
    },
    {
      "inputs": [
        {
          "internalType": "uint256",
          "name": "_round",
          "type": "uint256"
        }
      ],
      "name": "getActiveNodeNum",
      "outputs": [
        {
          "internalType": "uint256",
          "name": "",
          "type": "uint256"
        }
      ],
      "stateMutability": "view",
      "type": "function"
    },
    {
      "inputs": [],
      "name": "getLeavingNodeNum",
      "outputs": [
        {
          "internalType": "uint256",
          "name": "",
          "type": "uint256"
        }
      ],
      "stateMutability": "view",
      "type": "function"
    },
    {
      "inputs": [],
      "name": "getPendingNodeNum",
      "outputs": [
        {
          "internalType": "uint256",
          "name": "",
          "type": "uint256"
        }
      ],
      "stateMutability": "view",
      "type": "function"
    },
    {
      "inputs": [
        {
          "internalType": "uint256",
          "name": "_round",
          "type": "uint256"
        },
        {
          "internalType": "address",
          "name": "_node",
          "type": "address"
        }
      ],
      "name": "getRoundPublicKey",
      "outputs": [
        {
          "internalType": "bytes32",
          "name": "",
          "type": "bytes32"
        }
      ],
      "stateMutability": "view",
      "type": "function"
    },
    {
      "inputs": [
        {
          "internalType": "uint256",
          "name": "_round",
          "type": "uint256"
        }
      ],
      "name": "getSystemPublicKey",
      "outputs": [
        {
          "internalType": "bytes32[]",
          "name": "",
          "type": "bytes32[]"
        },
        {
          "internalType": "address[]",
          "name": "",
          "type": "address[]"
        }
      ],
      "stateMutability": "view",
      "type": "function"
    },
    {
      "inputs": [
        {
          "internalType": "address",
          "name": "",
          "type": "address"
        },
        {
          "internalType": "address",
          "name": "",
          "type": "address"
        }
      ],
      "name": "joinApprovals",
      "outputs": [
        {
          "internalType": "bool",
          "name": "",
          "type": "bool"
        }
      ],
      "stateMutability": "view",
      "type": "function"
    },
    {
      "inputs": [
        {
          "internalType": "address",
          "name": "",
          "type": "address"
        },
        {
          "internalType": "address",
          "name": "",
          "type": "address"
        }
      ],
      "name": "leaveApprovals",
      "outputs": [
        {
          "internalType": "bool",
          "name": "",
          "type": "bool"
        }
      ],
      "stateMutability": "view",
      "type": "function"
    },
    {
      "inputs": [
        {
          "internalType": "address",
          "name": "",
          "type": "address"
        }
      ],
      "name": "leaveApprovalsCount",
      "outputs": [
        {
          "internalType": "uint256",
          "name": "",
          "type": "uint256"
        }
      ],
      "stateMutability": "view",
      "type": "function"
    },
    {
      "inputs": [
        {
          "internalType": "uint256",
          "name": "",
          "type": "uint256"
        }
      ],
      "name": "leavingNodes",
      "outputs": [
        {
          "internalType": "address",
          "name": "",
          "type": "address"
        }
      ],
      "stateMutability": "view",
      "type": "function"
    },
    {
      "inputs": [
        {
          "internalType": "address",
          "name": "",
          "type": "address"
        }
      ],
      "name": "nodes",
      "outputs": [
        {
          "internalType": "bool",
          "name": "isPermissioned",
          "type": "bool"
        },
        {
          "internalType": "uint256",
          "name": "deposit",
          "type": "uint256"
        },
        {
          "internalType": "bool",
          "name": "active",
          "type": "bool"
        },
        {
          "internalType": "bytes32",
          "name": "publicKey",
          "type": "bytes32"
        }
      ],
      "stateMutability": "view",
      "type": "function"
    },
    {
      "inputs": [],
      "name": "owner",
      "outputs": [
        {
          "internalType": "address",
          "name": "",
          "type": "address"
        }
      ],
      "stateMutability": "view",
      "type": "function"
    },
    {
      "inputs": [
        {
          "internalType": "uint256",
          "name": "",
          "type": "uint256"
        }
      ],
      "name": "pendingNodes",
      "outputs": [
        {
          "internalType": "address",
          "name": "",
          "type": "address"
        }
      ],
      "stateMutability": "view",
      "type": "function"
    },
    {
      "inputs": [],
      "name": "proposeJoinNode",
      "outputs": [],
      "stateMutability": "payable",
      "type": "function"
    },
    {
      "inputs": [],
      "name": "proposeLeaveNode",
      "outputs": [],
      "stateMutability": "nonpayable",
      "type": "function"
    },
    {
      "inputs": [
        {
          "internalType": "uint256",
          "name": "",
          "type": "uint256"
        }
      ],
      "name": "rounds",
      "outputs": [
        {
          "internalType": "uint256",
          "name": "startBlock",
          "type": "uint256"
        },
        {
          "internalType": "uint256",
          "name": "timeout",
          "type": "uint256"
        },
        {
          "internalType": "uint256",
          "name": "publicKeyCount",
          "type": "uint256"
        },
        {
          "internalType": "bool",
          "name": "isGenerated",
          "type": "bool"
        }
      ],
      "stateMutability": "view",
      "type": "function"
    },
    {
      "inputs": [
        {
          "internalType": "uint256",
          "name": "_minDeposit",
          "type": "uint256"
        }
      ],
      "name": "setMinDeposit",
      "outputs": [],
      "stateMutability": "nonpayable",
      "type": "function"
    },
    {
      "inputs": [
        {
          "internalType": "uint256",
          "name": "_roundBlocks",
          "type": "uint256"
        }
      ],
      "name": "setRoundBlocks",
      "outputs": [],
      "stateMutability": "nonpayable",
      "type": "function"
    },
    {
      "inputs": [
        {
          "internalType": "uint256",
          "name": "_roundTimeout",
          "type": "uint256"
        }
      ],
      "name": "setRoundTimeout",
      "outputs": [],
      "stateMutability": "nonpayable",
      "type": "function"
    },
    {
      "inputs": [
        {
          "internalType": "bytes32",
          "name": "_pubKey",
          "type": "bytes32"
        },
        {
          "internalType": "uint256",
          "name": "_round",
          "type": "uint256"
        }
      ],
      "name": "submitPubKey",
      "outputs": [],
      "stateMutability": "nonpayable",
      "type": "function"
    }
  ],
  "bytecode": "0x6080604052600060045534801561001557600080fd5b5060405161211138038061211183398101604081905261003491610323565b600380546001600160a01b0319163317905560008390556001829055600281905561005d610065565b5050506103a9565b60015443906000906100779042610367565b600680546001818101835560008390529082027ff652222313e28459528d920b65115c16c04f3efc82aaedc97be59f3f377c0d3f81018681557ff652222313e28459528d920b65115c16c04f3efc82aaedc97be59f3f377c0d40909101849055915492935090916100e89190610380565b6004819055156100fa576100fa6101ed565b60005b6007548110156101e75760006007828154811061011c5761011c610393565b60009182526020822001546001600160a01b031691505b60066004548154811061014857610148610393565b9060005260206000209060060201600301805490508110156101dd57600060066004548154811061017b5761017b610393565b9060005260206000209060060201600301828154811061019d5761019d610393565b60009182526020808320909101546001600160a01b0386811684526009835260408085209190921684529091529020805460ff1916905550600101610133565b50506001016100fd565b50505050565b60005b6007548110156102da5760006007828154811061020f5761020f610393565b60009182526020822001546001600160a01b031691505b60066004548154811061023b5761023b610393565b9060005260206000209060060201600301805490508110156102d057600060066004548154811061026e5761026e610393565b9060005260206000209060060201600301828154811061029057610290610393565b60009182526020808320909101546001600160a01b0386811684526009835260408085209190921684529091529020805460ff1916905550600101610226565b50506001016101f0565b506102e7600760006102e9565b565b5080546000825590600052602060002090810190610307919061030a565b50565b5b8082111561031f576000815560010161030b565b5090565b60008060006060848603121561033857600080fd5b5050815160208301516040909301519094929350919050565b634e487b7160e01b600052601160045260246000fd5b8082018082111561037a5761037a610351565b92915050565b8181038181111561037a5761037a610351565b634e487b7160e01b600052603260045260246000fd5b611d59806103b86000396000f3fe6080604052600436106101815760003560e01c80638fcc9cfb116100d1578063caee5e861161008a578063ec8f2c3f11610064578063ec8f2c3f14610509578063ed7ab46514610529578063f1ec444f14610549578063f7830b4c1461057757600080fd5b8063caee5e8614610498578063e1e158a5146104d3578063e54bec5f146104e957600080fd5b80638fcc9cfb146103ab57806393628425146103cb578063a29b1f4914610403578063a98d7ae81461044e578063c2314f6b14610463578063c4caebad1461047857600080fd5b806341a7960f1161013e578063737fc25211610118578063737fc2521461030657806375a2b6ca146103335780638c65c81f146103495780638da5cb5b1461038b57600080fd5b806341a7960f146102a35780636896ef4b146102db578063731cb2ce146102f157600080fd5b80630465603d14610186578063189a5a17146101a85780631f23b03e1461021f5780632e6afb781461024357806332be0b74146102635780634106946f14610283575b600080fd5b34801561019257600080fd5b506101a66101a1366004611ad4565b61057f565b005b3480156101b457600080fd5b506101f26101c3366004611ad4565b600560205260009081526040902080546001820154600283015460039093015460ff9283169391929091169084565b60408051941515855260208501939093529015159183019190915260608201526080015b60405180910390f35b34801561022b57600080fd5b5061023560005481565b604051908152602001610216565b34801561024f57600080fd5b506101a661025e366004611af6565b610738565b34801561026f57600080fd5b506101a661027e366004611b18565b6108d6565b34801561028f57600080fd5b506101a661029e366004611ad4565b610905565b3480156102af57600080fd5b506102c36102be366004611b18565b610aa9565b6040516001600160a01b039091168152602001610216565b3480156102e757600080fd5b5061023560045481565b3480156102fd57600080fd5b50600854610235565b34801561031257600080fd5b50610235610321366004611ad4565b600c6020526000908152604090205481565b34801561033f57600080fd5b5061023560015481565b34801561035557600080fd5b50610369610364366004611b18565b610ad3565b6040805194855260208501939093529183015215156060820152608001610216565b34801561039757600080fd5b506003546102c3906001600160a01b031681565b3480156103b757600080fd5b506101a66103c6366004611b18565b610b10565b3480156103d757600080fd5b506102356103e6366004611b31565b600b60209081526000928352604080842090915290825290205481565b34801561040f57600080fd5b5061043e61041e366004611b5d565b600960209081526000928352604080842090915290825290205460ff1681565b6040519015158152602001610216565b34801561045a57600080fd5b50600754610235565b34801561046f57600080fd5b506101a6610b3f565b34801561048457600080fd5b50610235610493366004611b31565b610c84565b3480156104a457600080fd5b5061043e6104b3366004611b5d565b600a60209081526000928352604080842090915290825290205460ff1681565b3480156104df57600080fd5b5061023560025481565b3480156104f557600080fd5b506102c3610504366004611b18565b610ccb565b34801561051557600080fd5b50610235610524366004611b18565b610cdb565b34801561053557600080fd5b506101a6610544366004611b18565b610d0a565b34801561055557600080fd5b50610569610564366004611b18565b610d39565b604051610216929190611b87565b6101a6611035565b3360008181526005602052604090205460ff166105b75760405162461bcd60e51b81526004016105ae90611c12565b60405180910390fd5b6105c0826111e3565b61060c5760405162461bcd60e51b815260206004820152601a60248201527f4e6f6465206e6f742070726f706f73656420666f72206a6f696e00000000000060448201526064016105ae565b6001600160a01b038216600090815260096020908152604080832033845290915290205460ff16156106735760405162461bcd60e51b815260206004820152601060248201526f105b1c9958591e48185c1c1c9bdd995960821b60448201526064016105ae565b6001600160a01b03821660008181526009602090815260408083203384528252808320805460ff191660011790556004548352600b82528083209383529290529081208054916106c283611c5f565b919050555060006006600454815481106106de576106de611c78565b60009182526020808320600360069093020191909101546004548352600b825260408084206001600160a01b03881685529092529120549091508190610725906002611c8e565b106107335761073383611242565b505050565b3360008181526005602052604090205460ff166107675760405162461bcd60e51b81526004016105ae90611c12565b60045482146107a95760405162461bcd60e51b815260206004820152600e60248201526d0a4deeadcc840dad2e6dac2e8c6d60931b60448201526064016105ae565b60006006600454815481106107c0576107c0611c78565b6000918252602080832033845260046006909302019182019052604090912054909150156108305760405162461bcd60e51b815260206004820152601c60248201527f416c7265616479207375626d6974746564207075626c6963206b65790000000060448201526064016105ae565b80600101544211156108765760405162461bcd60e51b815260206004820152600f60248201526e149bdd5b99081d1a5b5959081bdd5d608a1b60448201526064016105ae565b33600090815260048201602052604081208590556002820180549161089a83611c5f565b909155505060038101546002808301546108b391611c8e565b1015806108c35750806001015442115b156108d0576108d0611307565b50505050565b6003546001600160a01b031633146109005760405162461bcd60e51b81526004016105ae90611ca5565b600055565b3360008181526005602052604090205460ff166109345760405162461bcd60e51b81526004016105ae90611c12565b61093d8261142b565b6109895760405162461bcd60e51b815260206004820152601b60248201527f4e6f6465206e6f742070726f706f73656420666f72206c65617665000000000060448201526064016105ae565b6001600160a01b0382166000908152600a6020908152604080832033845290915290205460ff16156109fd5760405162461bcd60e51b815260206004820152601960248201527f416c726561647920617070726f76656420746f206c656176650000000000000060448201526064016105ae565b6001600160a01b0382166000818152600a602090815260408083203384528252808320805460ff19166001179055928252600c9052908120805491610a4183611c5f565b91905055506000600660045481548110610a5d57610a5d611c78565b60009182526020808320600360069093020191909101546001600160a01b0386168352600c9091526040909120549091508190610a9b906002611c8e565b106107335761073383611481565b60088181548110610ab957600080fd5b6000918252602090912001546001600160a01b0316905081565b60068181548110610ae357600080fd5b60009182526020909120600690910201805460018201546002830154600590930154919350919060ff1684565b6003546001600160a01b03163314610b3a5760405162461bcd60e51b81526004016105ae90611ca5565b600255565b3360008181526005602052604090205460ff16610b6e5760405162461bcd60e51b81526004016105ae90611c12565b3360009081526005602052604090206002015460ff16610bc25760405162461bcd60e51b815260206004820152600f60248201526e4e6f6465206e6f742061637469766560881b60448201526064016105ae565b33600081815260056020526040808220600201805460ff19169055600880546001810182559083527ff3f7a9fe364faab93b216da50a3214154f22a0a2b415b23a84c8169e8b636ee30180546001600160a01b0319168417905560045490519092917ff3b3804c8980704269949cfccce1da14f0033d4a01846643aaec07b77e01e43791a3600660045481548110610c5c57610c5c611c78565b906000526020600020906006020160030180549050600103610c8157610c8133611481565b50565b600060068381548110610c9957610c99611c78565b600091825260208083206001600160a01b03861684526004600690930201919091019052604090205490505b92915050565b60078181548110610ab957600080fd5b600060068281548110610cf057610cf0611c78565b600091825260209091206003600690920201015492915050565b6003546001600160a01b03163314610d345760405162461bcd60e51b81526004016105ae90611ca5565b600155565b33600081815260056020526040902054606091829160ff16610d6d5760405162461bcd60e51b81526004016105ae90611c12565b600060068581548110610d8257610d82611c78565b90600052602060002090600602016002015467ffffffffffffffff811115610dac57610dac611cd1565b604051908082528060200260200182016040528015610dd5578160200160208202803683370190505b509050600060068681548110610ded57610ded611c78565b90600052602060002090600602016002015467ffffffffffffffff811115610e1757610e17611cd1565b604051908082528060200260200182016040528015610e40578160200160208202803683370190505b50905060005b60068781548110610e5957610e59611c78565b906000526020600020906006020160020154811015611029576000801b60068881548110610e8957610e89611c78565b9060005260206000209060060201600401600060068a81548110610eaf57610eaf611c78565b90600052602060002090600602016003018481548110610ed157610ed1611c78565b60009182526020808320909101546001600160a01b03168352820192909252604001902054146110215760068781548110610f0e57610f0e611c78565b9060005260206000209060060201600401600060068981548110610f3457610f34611c78565b90600052602060002090600602016003018381548110610f5657610f56611c78565b60009182526020808320909101546001600160a01b031683528201929092526040019020548351849083908110610f8f57610f8f611c78565b60200260200101818152505060068781548110610fae57610fae611c78565b90600052602060002090600602016003018181548110610fd057610fd0611c78565b9060005260206000200160009054906101000a90046001600160a01b031682828151811061100057611000611c78565b60200260200101906001600160a01b031690816001600160a01b0316815250505b600101610e46565b50909350915050915091565b3360009081526005602052604090205460ff16156110955760405162461bcd60e51b815260206004820152601b60248201527f416c72656164792061207065726d697373696f6e6564206e6f6465000000000060448201526064016105ae565b6002543410156110da5760405162461bcd60e51b815260206004820152601060248201526f11195c1bdcda5d081c995c5d5a5c995960821b60448201526064016105ae565b604080516080810182526000808252346020808401918252838501838152606085018481523380865260059093528685209551865490151560ff19918216178755935160018781019190915591516002870180549115159190951617909355915160039094019390935560078054918201815582527fa66cc928b5edb82af9bd49922954155ab7b0942694bea4ce44661d9a8736c6880180546001600160a01b0319168317905560045492517f79745a2327d4dd9c784b5e552959afec3504487ea86d1cf4b346f6ba148fd8c29190a36006600454815481106111bf576111bf611c78565b6000918252602082206003600690920201015490036111e1576111e133611242565b565b6000805b60075481101561123957826001600160a01b03166007828154811061120e5761120e611c78565b6000918252602090912001546001600160a01b0316036112315750600192915050565b6001016111e7565b50600092915050565b61124b8161163a565b6001600160a01b03811660009081526005602052604090208054600160ff199182168117835560029092018054909116909117905560045460068054909190811061129857611298611c78565b6000918252602080832060069290920290910160030180546001810182559083529082200180546001600160a01b0319166001600160a01b03841690811790915560045460405190927f0676388bb83505ba7712ed135b2ba9bdf6f645e41015bc49549cec2c1b3bae1391a350565b600060066004548154811061131e5761131e611c78565b6000918252602082206005600690920201908101805460ff19166001179055600281015490925067ffffffffffffffff81111561135d5761135d611cd1565b604051908082528060200260200182016040528015611386578160200160208202803683370190505b5090506000826002015467ffffffffffffffff8111156113a8576113a8611cd1565b6040519080825280602002602001820160405280156113d1578160200160208202803683370190505b5090506113df600454610d39565b80925081935050506004547f0cdf506672ea6308d71d35d76e01f6718ddb82e8f8d258d4a3807821003d9625838360405161141b929190611b87565b60405180910390a261073361173b565b6000805b60085481101561123957826001600160a01b03166008828154811061145657611456611c78565b6000918252602090912001546001600160a01b0316036114795750600192915050565b60010161142f565b61148a816118bd565b6001600160a01b0381166000908152600c602052604081208190555b6006600454815481106114bb576114bb611c78565b9060005260206000209060060201600301805490508110156115505760006006600454815481106114ee576114ee611c78565b9060005260206000209060060201600301828154811061151057611510611c78565b60009182526020808320909101546001600160a01b038681168452600a835260408085209190921684529091529020805460ff19169055506001016114a6565b5060005a6001600160a01b0383166000818152600560205260408082206001810154815460ff191690915590519394509283156108fc0291849190818181858888f193505050501580156115a8573d6000803e3d6000fd5b5060005a6115b69084611ce7565b60408051848152602081018390529192506001600160a01b038616917f85f455e11ca97fdc15bbe985a5d96a2046eb3e053ac548cf3167fdc5ae64344f910160405180910390a26004546040516001600160a01b038616907f082540c1182323d73764dc587bb51ac34adf43ccdd4dfe9ed6272f8ed7d5bd5b90600090a350505050565b60005b60075481101561173757816001600160a01b03166007828154811061166457611664611c78565b6000918252602090912001546001600160a01b03160361172f576007805461168e90600190611ce7565b8154811061169e5761169e611c78565b600091825260209091200154600780546001600160a01b0390921691839081106116ca576116ca611c78565b9060005260206000200160006101000a8154816001600160a01b0302191690836001600160a01b03160217905550600780548061170957611709611cfa565b600082815260209020810160001990810180546001600160a01b03191690550190555050565b60010161163d565b5050565b600154439060009061174d9042611d10565b600680546001818101835560008390529082027ff652222313e28459528d920b65115c16c04f3efc82aaedc97be59f3f377c0d3f81018681557ff652222313e28459528d920b65115c16c04f3efc82aaedc97be59f3f377c0d40909101849055915492935090916117be9190611ce7565b6004819055156117d0576117d0611994565b60005b6007548110156108d0576000600782815481106117f2576117f2611c78565b60009182526020822001546001600160a01b031691505b60066004548154811061181e5761181e611c78565b9060005260206000209060060201600301805490508110156118b357600060066004548154811061185157611851611c78565b9060005260206000209060060201600301828154811061187357611873611c78565b60009182526020808320909101546001600160a01b0386811684526009835260408085209190921684529091529020805460ff1916905550600101611809565b50506001016117d3565b60005b60085481101561173757816001600160a01b0316600882815481106118e7576118e7611c78565b6000918252602090912001546001600160a01b03160361198c576008805461191190600190611ce7565b8154811061192157611921611c78565b600091825260209091200154600880546001600160a01b03909216918390811061194d5761194d611c78565b9060005260206000200160006101000a8154816001600160a01b0302191690836001600160a01b03160217905550600880548061170957611709611cfa565b6001016118c0565b60005b600754811015611a81576000600782815481106119b6576119b6611c78565b60009182526020822001546001600160a01b031691505b6006600454815481106119e2576119e2611c78565b906000526020600020906006020160030180549050811015611a77576000600660045481548110611a1557611a15611c78565b90600052602060002090600602016003018281548110611a3757611a37611c78565b60009182526020808320909101546001600160a01b0386811684526009835260408085209190921684529091529020805460ff19169055506001016119cd565b5050600101611997565b506111e1600780546000825590600052602060002090810190610c8191905b80821115611ab45760008155600101611aa0565b5090565b80356001600160a01b0381168114611acf57600080fd5b919050565b600060208284031215611ae657600080fd5b611aef82611ab8565b9392505050565b60008060408385031215611b0957600080fd5b50508035926020909101359150565b600060208284031215611b2a57600080fd5b5035919050565b60008060408385031215611b4457600080fd5b82359150611b5460208401611ab8565b90509250929050565b60008060408385031215611b7057600080fd5b611b7983611ab8565b9150611b5460208401611ab8565b6040808252835190820181905260009060208501906060840190835b81811015611bc1578351835260209384019390920191600101611ba3565b50508381036020808601919091528551808352918101925085019060005b81811015611c065782516001600160a01b0316845260209384019390920191600101611bdf565b50919695505050505050565b60208082526017908201527f4e6f742061207065726d697373696f6e6564206e6f6465000000000000000000604082015260600190565b634e487b7160e01b600052601160045260246000fd5b600060018201611c7157611c71611c49565b5060010190565b634e487b7160e01b600052603260045260246000fd5b8082028115828204841417610cc557610cc5611c49565b6020808252601290820152712737ba1031b7b73a3930b1ba1037bbb732b960711b604082015260600190565b634e487b7160e01b600052604160045260246000fd5b81810381811115610cc557610cc5611c49565b634e487b7160e01b600052603160045260246000fd5b80820180821115610cc557610cc5611c4956fea2646970667358221220f24a7a8aa649c69fd9e665fa527ee7b4359ac5847ee4b571a0e7cd4cbb15c5b164736f6c634300081b0033",
  "linkReferences": {},
  "deployedLinkReferences": {}
}