{
  "_format": "hh-sol-artifact-1",
  "contractName": "PermissionManagerV2",
  "sourceName": "contracts/PermissionMgrV2.sol",
  "abi": [
    {
      "inputs": [
        {
          "internalType": "uint256",
          "name": "_roundBlocks",
          "type": "uint256"
        },
        {
          "internalType": "uint256",
          "name": "_roundTimeout",
          "type": "uint256"
        },
        {
          "internalType": "uint256",
          "name": "_minDeposit",
          "type": "uint256"
        },
        {
          "internalType": "uint256",
          "name": "_maxValidators",
          "type": "uint256"
        }
      ],
      "stateMutability": "nonpayable",
      "type": "constructor"
    },
    {
      "anonymous": false,
      "inputs": [
        {
          "indexed": true,
          "internalType": "address",
          "name": "delegator",
          "type": "address"
        },
        {
          "indexed": true,
          "internalType": "address",
          "name": "validator",
          "type": "address"
        },
        {
          "indexed": false,
          "internalType": "uint256",
          "name": "amount",
          "type": "uint256"
        }
      ],
      "name": "Delegated",
      "type": "event"
    },
    {
      "anonymous": false,
      "inputs": [
        {
          "indexed": true,
          "internalType": "address",
          "name": "node",
          "type": "address"
        },
        {
          "indexed": true,
          "internalType": "uint256",
          "name": "roundIndex",
          "type": "uint256"
        }
      ],
      "name": "NodeElectionProposed",
      "type": "event"
    },
    {
      "anonymous": false,
      "inputs": [
        {
          "indexed": true,
          "internalType": "address",
          "name": "node",
          "type": "address"
        },
        {
          "indexed": true,
          "internalType": "uint256",
          "name": "roundIndex",
          "type": "uint256"
        }
      ],
      "name": "NodeLeaveProposed",
      "type": "event"
    },
    {
      "anonymous": false,
      "inputs": [
        {
          "indexed": true,
          "internalType": "address",
          "name": "delegator",
          "type": "address"
        },
        {
          "indexed": true,
          "internalType": "address",
          "name": "valildator",
          "type": "address"
        },
        {
          "indexed": false,
          "internalType": "uint256",
          "name": "amounToRevoke",
          "type": "uint256"
        }
      ],
      "name": "RevokeDelegated",
      "type": "event"
    },
    {
      "anonymous": false,
      "inputs": [
        {
          "indexed": true,
          "internalType": "address",
          "name": "staker",
          "type": "address"
        },
        {
          "indexed": false,
          "internalType": "uint256",
          "name": "amount",
          "type": "uint256"
        }
      ],
      "name": "Staked",
      "type": "event"
    },
    {
      "anonymous": false,
      "inputs": [
        {
          "indexed": true,
          "internalType": "uint256",
          "name": "roundIndex",
          "type": "uint256"
        },
        {
          "indexed": false,
          "internalType": "bytes32[]",
          "name": "publicKeys",
          "type": "bytes32[]"
        },
        {
          "indexed": false,
          "internalType": "address[]",
          "name": "participants",
          "type": "address[]"
        }
      ],
      "name": "SystemPublicKeyGenerated",
      "type": "event"
    },
    {
      "anonymous": false,
      "inputs": [
        {
          "indexed": true,
          "internalType": "address",
          "name": "node",
          "type": "address"
        },
        {
          "indexed": false,
          "internalType": "uint256",
          "name": "amount",
          "type": "uint256"
        },
        {
          "indexed": false,
          "internalType": "uint256",
          "name": "gasUsed",
          "type": "uint256"
        }
      ],
      "name": "TransferGasUsed",
      "type": "event"
    },
    {
      "anonymous": false,
      "inputs": [
        {
          "indexed": true,
          "internalType": "address",
          "name": "validator",
          "type": "address"
        },
        {
          "indexed": false,
          "internalType": "bool",
          "name": "added",
          "type": "bool"
        }
      ],
      "name": "ValidatorUpdated",
      "type": "event"
    },
    {
      "inputs": [],
      "name": "MAX_VALIDATORS",
      "outputs": [
        {
          "internalType": "uint256",
          "name": "",
          "type": "uint256"
        }
      ],
      "stateMutability": "view",
      "type": "function"
    },
    {
      "inputs": [],
      "name": "MIN_DEPOSIT",
      "outputs": [
        {
          "internalType": "uint256",
          "name": "",
          "type": "uint256"
        }
      ],
      "stateMutability": "view",
      "type": "function"
    },
    {
      "inputs": [],
      "name": "ROUND_BLOCKS",
      "outputs": [
        {
          "internalType": "uint256",
          "name": "",
          "type": "uint256"
        }
      ],
      "stateMutability": "view",
      "type": "function"
    },
    {
      "inputs": [],
      "name": "ROUND_TIMEOUT",
      "outputs": [
        {
          "internalType": "uint256",
          "name": "",
          "type": "uint256"
        }
      ],
      "stateMutability": "view",
      "type": "function"
    },
    {
      "inputs": [
        {
          "internalType": "uint256",
          "name": "",
          "type": "uint256"
        }
      ],
      "name": "candidates",
      "outputs": [
        {
          "internalType": "address",
          "name": "",
          "type": "address"
        }
      ],
      "stateMutability": "view",
      "type": "function"
    },
    {
      "inputs": [],
      "name": "currentRoundIndex",
      "outputs": [
        {
          "internalType": "uint256",
          "name": "",
          "type": "uint256"
        }
      ],
      "stateMutability": "view",
      "type": "function"
    },
    {
      "inputs": [
        {
          "internalType": "address",
          "name": "validator",
          "type": "address"
        }
      ],
      "name": "delegate",
      "outputs": [],
      "stateMutability": "payable",
      "type": "function"
    },
    {
      "inputs": [
        {
          "internalType": "address",
          "name": "",
          "type": "address"
        },
        {
          "internalType": "uint256",
          "name": "",
          "type": "uint256"
        }
      ],
      "name": "delegations",
      "outputs": [
        {
          "internalType": "address",
          "name": "delegator",
          "type": "address"
        },
        {
          "internalType": "uint256",
          "name": "amount",
          "type": "uint256"
        }
      ],
      "stateMutability": "view",
      "type": "function"
    },
    {
      "inputs": [
        {
          "internalType": "uint256",
          "name": "_round",
          "type": "uint256"
        }
      ],
      "name": "getActiveNodeNum",
      "outputs": [
        {
          "internalType": "uint256",
          "name": "",
          "type": "uint256"
        }
      ],
      "stateMutability": "view",
      "type": "function"
    },
    {
      "inputs": [],
      "name": "getCandidatesNum",
      "outputs": [
        {
          "internalType": "uint256",
          "name": "",
          "type": "uint256"
        }
      ],
      "stateMutability": "view",
      "type": "function"
    },
    {
      "inputs": [],
      "name": "getLeavingNodeNum",
      "outputs": [
        {
          "internalType": "uint256",
          "name": "",
          "type": "uint256"
        }
      ],
      "stateMutability": "view",
      "type": "function"
    },
    {
      "inputs": [
        {
          "internalType": "uint256",
          "name": "_round",
          "type": "uint256"
        },
        {
          "internalType": "address",
          "name": "_node",
          "type": "address"
        }
      ],
      "name": "getRoundPublicKey",
      "outputs": [
        {
          "internalType": "bytes32",
          "name": "",
          "type": "bytes32"
        }
      ],
      "stateMutability": "view",
      "type": "function"
    },
    {
      "inputs": [
        {
          "internalType": "uint256",
          "name": "_round",
          "type": "uint256"
        }
      ],
      "name": "getSystemPublicKey",
      "outputs": [
        {
          "internalType": "bytes32[]",
          "name": "",
          "type": "bytes32[]"
        },
        {
          "internalType": "address[]",
          "name": "",
          "type": "address[]"
        }
      ],
      "stateMutability": "view",
      "type": "function"
    },
    {
      "inputs": [],
      "name": "getValidatorsNum",
      "outputs": [
        {
          "internalType": "uint256",
          "name": "",
          "type": "uint256"
        }
      ],
      "stateMutability": "view",
      "type": "function"
    },
    {
      "inputs": [
        {
          "internalType": "uint256",
          "name": "",
          "type": "uint256"
        }
      ],
      "name": "leavingNodes",
      "outputs": [
        {
          "internalType": "address",
          "name": "",
          "type": "address"
        }
      ],
      "stateMutability": "view",
      "type": "function"
    },
    {
      "inputs": [
        {
          "internalType": "address",
          "name": "",
          "type": "address"
        }
      ],
      "name": "nodes",
      "outputs": [
        {
          "internalType": "bool",
          "name": "isPermissioned",
          "type": "bool"
        },
        {
          "internalType": "uint256",
          "name": "deposit",
          "type": "uint256"
        },
        {
          "internalType": "bool",
          "name": "active",
          "type": "bool"
        },
        {
          "internalType": "bytes32",
          "name": "publicKey",
          "type": "bytes32"
        },
        {
          "internalType": "uint256",
          "name": "totalStake",
          "type": "uint256"
        },
        {
          "internalType": "uint256",
          "name": "selfStake",
          "type": "uint256"
        }
      ],
      "stateMutability": "view",
      "type": "function"
    },
    {
      "inputs": [],
      "name": "owner",
      "outputs": [
        {
          "internalType": "address",
          "name": "",
          "type": "address"
        }
      ],
      "stateMutability": "view",
      "type": "function"
    },
    {
      "inputs": [],
      "name": "proposeElection",
      "outputs": [],
      "stateMutability": "payable",
      "type": "function"
    },
    {
      "inputs": [],
      "name": "proposeLeave",
      "outputs": [],
      "stateMutability": "nonpayable",
      "type": "function"
    },
    {
      "inputs": [
        {
          "internalType": "address",
          "name": "delegator",
          "type": "address"
        },
        {
          "internalType": "uint256",
          "name": "amountToRevoke",
          "type": "uint256"
        }
      ],
      "name": "revokeDelegation",
      "outputs": [],
      "stateMutability": "nonpayable",
      "type": "function"
    },
    {
      "inputs": [
        {
          "internalType": "uint256",
          "name": "",
          "type": "uint256"
        }
      ],
      "name": "rounds",
      "outputs": [
        {
          "internalType": "uint256",
          "name": "startBlock",
          "type": "uint256"
        },
        {
          "internalType": "uint256",
          "name": "timeout",
          "type": "uint256"
        },
        {
          "internalType": "uint256",
          "name": "publicKeyCount",
          "type": "uint256"
        },
        {
          "internalType": "bool",
          "name": "isGenerated",
          "type": "bool"
        }
      ],
      "stateMutability": "view",
      "type": "function"
    },
    {
      "inputs": [
        {
          "internalType": "uint256",
          "name": "_minDeposit",
          "type": "uint256"
        }
      ],
      "name": "setMinDeposit",
      "outputs": [],
      "stateMutability": "nonpayable",
      "type": "function"
    },
    {
      "inputs": [
        {
          "internalType": "uint256",
          "name": "_roundBlocks",
          "type": "uint256"
        }
      ],
      "name": "setRoundBlocks",
      "outputs": [],
      "stateMutability": "nonpayable",
      "type": "function"
    },
    {
      "inputs": [
        {
          "internalType": "uint256",
          "name": "_roundTimeout",
          "type": "uint256"
        }
      ],
      "name": "setRoundTimeout",
      "outputs": [],
      "stateMutability": "nonpayable",
      "type": "function"
    },
    {
      "inputs": [],
      "name": "stake",
      "outputs": [],
      "stateMutability": "payable",
      "type": "function"
    },
    {
      "inputs": [],
      "name": "startElection",
      "outputs": [],
      "stateMutability": "nonpayable",
      "type": "function"
    },
    {
      "inputs": [
        {
          "internalType": "bytes32",
          "name": "_pubKey",
          "type": "bytes32"
        },
        {
          "internalType": "bytes",
          "name": "_signature",
          "type": "bytes"
        },
        {
          "internalType": "uint256",
          "name": "_round",
          "type": "uint256"
        }
      ],
      "name": "submitPubKey",
      "outputs": [],
      "stateMutability": "nonpayable",
      "type": "function"
    },
    {
      "inputs": [
        {
          "internalType": "uint256",
          "name": "",
          "type": "uint256"
        }
      ],
      "name": "validators",
      "outputs": [
        {
          "internalType": "address",
          "name": "",
          "type": "address"
        }
      ],
      "stateMutability": "view",
      "type": "function"
    },
    {
      "inputs": [
        {
          "internalType": "bytes",
          "name": "_signature",
          "type": "bytes"
        },
        {
          "internalType": "address",
          "name": "_node",
          "type": "address"
        }
      ],
      "name": "verifySignature",
      "outputs": [
        {
          "internalType": "bool",
          "name": "",
          "type": "bool"
        },
        {
          "internalType": "enum ECDSA.RecoverError",
          "name": "",
          "type": "uint8"
        },
        {
          "internalType": "bytes32",
          "name": "",
          "type": "bytes32"
        }
      ],
      "stateMutability": "pure",
      "type": "function"
    }
  ],
  "bytecode": "0x6080604052600060055534801561001557600080fd5b506040516131f03803806131f0833981016040819052610034916109ef565b600480546001600160a01b03191633179055600084905560018390556002829055600381905561006261006b565b50505050610aac565b600154439060009061007d9042610a3b565b6008805460018181018355600083905260069091027ff3f7a9fe364faab93b216da50a3214154f22a0a2b415b23a84c8169e8b636ee381018681557ff3f7a9fe364faab93b216da50a3214154f22a0a2b415b23a84c8169e8b636ee4909101849055915492935090916100f09190610a54565b6005556100fb610100565b505050565b60055460000361010c57565b600a541561035a5760005b600a5481101561034d576000600a828154811061013657610136610a67565b6000918252602090912001546001600160a01b03169050610156816108b5565b15610344576001600160a01b0381166000818152600660209081526040808320805460ff199081168255600290910180549091169055519182526000805160206131d0833981519152910160405180910390a26001600160a01b038116600090815260066020526040812060058101546001909101546101d69190610a3b565b6001600160a01b038316600081815260066020526040808220600181018390556004810183905560050182905551929350909183156108fc0291849190818181858888f19350505050158015610230573d6000803e3d6000fd5b5060005b6001600160a01b038316600090815260076020526040902054811015610341576001600160a01b038316600090815260076020526040812080548390811061027e5761027e610a67565b60009182526020808320604080518082018252600290940290910180546001600160a01b031680855260019091015492840185905290519294509092909183156108fc0291849190818181858888f193505050501580156102e3573d6000803e3d6000fd5b506001600160a01b038516600090815260076020526040902080548490811061030e5761030e610a67565b60009182526020822060029091020180546001600160a01b03191681556001908101919091559290920191506102349050565b50505b50600101610117565b5061035a600a6000610914565b600954600b5460009161036c91610a3b565b6001600160401b0381111561038357610383610a7d565b6040519080825280602002602001820160405280156103ac578160200160208202803683370190505b5090506000805b600b5481101561046f5760066000600b83815481106103d4576103d4610a67565b60009182526020808320909101546001600160a01b0316835282019290925260400190205460ff161561046757600b818154811061041457610414610a67565b6000918252602090912001546001600160a01b0316838361043481610a93565b94508151811061044657610446610a67565b60200260200101906001600160a01b031690816001600160a01b0316815250505b6001016103b3565b5060005b6009548110156104e2576009818154811061049057610490610a67565b6000918252602090912001546001600160a01b031683836104b081610a93565b9450815181106104c2576104c2610a67565b6001600160a01b0390921660209283029190910190910152600101610473565b5060005b6104f1600183610a54565b81101561064a576000610505826001610a3b565b90505b82811015610641576006600085848151811061052657610526610a67565b60200260200101516001600160a01b03166001600160a01b03168152602001908152602001600020600401546006600086848151811061056857610568610a67565b60200260200101516001600160a01b03166001600160a01b031681526020019081526020016000206004015411156106395760008483815181106105ae576105ae610a67565b602002602001015190508482815181106105ca576105ca610a67565b60200260200101518584815181106105e4576105e4610a67565b60200260200101906001600160a01b031690816001600160a01b0316815250508085838151811061061757610617610a67565b60200260200101906001600160a01b031690816001600160a01b031681525050505b600101610508565b506001016104e6565b50610657600b6000610914565b61066360096000610914565b60005b8181108015610676575060035481105b1561079357600083828151811061068f5761068f610a67565b602090810291909101810151600b8054600181019091557f0175b7a638427703f0dbe7bb9bbf987a2551717b34e79f33b5b1008d1fa01db90180546001600160a01b0319166001600160a01b0383169081179091556000908152600690925260409091205490915060ff1615801561072457506002546001600160a01b03821660009081526006602052604090206001015410155b15610780576001600160a01b0381166000818152600660209081526040918290208054600160ff1991821681178355600290920180549091168217905591519182526000805160206131d0833981519152910160405180910390a25b508061078b81610a93565b915050610666565b50600354811115610874576000600354826107ae9190610a54565b6001600160401b038111156107c5576107c5610a7d565b6040519080825280602002602001820160405280156107ee578160200160208202803683370190505b506003549091505b8281101561085d57600084828151811061081257610812610a67565b6020026020010151905080836003548461082c9190610a54565b8151811061083c5761083c610a67565b6001600160a01b0390921660209283029190910190910152506001016107f6565b508051610871906009906020840190610935565b50505b600060086005548154811061088b5761088b610a67565b90600052602060002090600602019050600b816003019080546108af92919061099a565b50505050565b6000805b600b5481101561090b57826001600160a01b0316600b82815481106108e0576108e0610a67565b6000918252602090912001546001600160a01b0316036109035750600192915050565b6001016108b9565b50600092915050565b508054600082559060005260206000209081019061093291906109da565b50565b82805482825590600052602060002090810192821561098a579160200282015b8281111561098a57825182546001600160a01b0319166001600160a01b03909116178255602090920191600190910190610955565b506109969291506109da565b5090565b82805482825590600052602060002090810192821561098a5760005260206000209182015b8281111561098a5782548255916001019190600101906109bf565b5b8082111561099657600081556001016109db565b60008060008060808587031215610a0557600080fd5b505082516020840151604085015160609095015191969095509092509050565b634e487b7160e01b600052601160045260246000fd5b80820180821115610a4e57610a4e610a25565b92915050565b81810381811115610a4e57610a4e610a25565b634e487b7160e01b600052603260045260246000fd5b634e487b7160e01b600052604160045260246000fd5b600060018201610aa557610aa5610a25565b5060010190565b61271580610abb6000396000f3fe6080604052600436106101c25760003560e01c8063714897df116100f757806399fd2f0211610095578063ea3301a311610064578063ea3301a31461051a578063ec8f2c3f14610549578063ed7ab46514610569578063f1ec444f1461058957600080fd5b806399fd2f02146104bc578063c4caebad146104c4578063d6dc40e9146104e4578063e1e158a51461050457600080fd5b80638c65c81f116100d15780638c65c81f1461041a5780638da5cb5b1461045c5780638ed0a1951461047c5780638fcc9cfb1461049c57600080fd5b8063714897df146103d9578063731cb2ce146103ef57806375a2b6ca1461040457600080fd5b806335aa2e44116101645780635561a1e51161013e5780635561a1e5146103865780635c19a95c1461039b57806362d73eb8146103ae5780636896ef4b146103c357600080fd5b806335aa2e441461033e5780633a4b66f11461035e57806341a7960f1461036657600080fd5b8063223fae09116101a0578063223fae091461029057806332be0b74146102cf5780633477ee2e146102f157806334ba3c1b1461032957600080fd5b8063189a5a17146101c75780631f23b03e14610257578063219474181461027b575b600080fd5b3480156101d357600080fd5b5061021d6101e236600461233f565b60066020526000908152604090208054600182015460028301546003840154600485015460059095015460ff94851695939490921692909186565b6040805196151587526020870195909552921515938501939093526060840152608083019190915260a082015260c0015b60405180910390f35b34801561026357600080fd5b5061026d60005481565b60405190815260200161024e565b34801561028757600080fd5b5060095461026d565b34801561029c57600080fd5b506102b06102ab366004612361565b6105b7565b604080516001600160a01b03909316835260208301919091520161024e565b3480156102db57600080fd5b506102ef6102ea36600461238b565b6105fd565b005b3480156102fd57600080fd5b5061031161030c36600461238b565b610635565b6040516001600160a01b03909116815260200161024e565b34801561033557600080fd5b50600b5461026d565b34801561034a57600080fd5b5061031161035936600461238b565b61065f565b6102ef61066f565b34801561037257600080fd5b5061031161038136600461238b565b61073b565b34801561039257600080fd5b506102ef61074b565b6102ef6103a936600461233f565b610856565b3480156103ba57600080fd5b506102ef610a56565b3480156103cf57600080fd5b5061026d60055481565b3480156103e557600080fd5b5061026d60035481565b3480156103fb57600080fd5b50600a5461026d565b34801561041057600080fd5b5061026d60015481565b34801561042657600080fd5b5061043a61043536600461238b565b610b00565b604080519485526020850193909352918301521515606082015260800161024e565b34801561046857600080fd5b50600454610311906001600160a01b031681565b34801561048857600080fd5b506102ef610497366004612361565b610b3d565b3480156104a857600080fd5b506102ef6104b736600461238b565b610edb565b6102ef610f0a565b3480156104d057600080fd5b5061026d6104df3660046123a4565b61109a565b3480156104f057600080fd5b506102ef6104ff366004612475565b6110e1565b34801561051057600080fd5b5061026d60025481565b34801561052657600080fd5b5061053a6105353660046124c6565b611300565b60405161024e93929190612521565b34801561055557600080fd5b5061026d61056436600461238b565b6113e2565b34801561057557600080fd5b506102ef61058436600461238b565b611411565b34801561059557600080fd5b506105a96105a436600461238b565b611440565b60405161024e929190612559565b600760205281600052604060002081815481106105d357600080fd5b6000918252602090912060029091020180546001909101546001600160a01b039091169250905082565b6004546001600160a01b031633146106305760405162461bcd60e51b8152600401610627906125e4565b60405180910390fd5b600055565b6009818154811061064557600080fd5b6000918252602090912001546001600160a01b0316905081565b600b818154811061064557600080fd5b600034116106bf5760405162461bcd60e51b815260206004820152601a60248201527f4d757374207374616b6520706f73697469766520616d6f756e740000000000006044820152606401610627565b336000908152600660205260408120600581018054919234926106e3908490612626565b92505081905550348160040160008282546106fe9190612626565b909155505060405134815233907f9e71bc8eea02a63969f509818f2dafb9254532904319f9dbda79b67bd34a5f3d9060200160405180910390a250565b600a818154811061064557600080fd5b3360008181526006602052604090205460ff1661077a5760405162461bcd60e51b815260040161062790612639565b3360009081526006602052604090206002015460ff166107ce5760405162461bcd60e51b815260206004820152600f60248201526e4e6f6465206e6f742061637469766560881b6044820152606401610627565b33600081815260066020526040808220600201805460ff19169055600a80546001810182559083527fc65a7bb8d6351c1cf70c95a316cc6a92839c986682d98bc35f958f4883f9d2a80180546001600160a01b0319168417905560055490519092917ff3b3804c8980704269949cfccce1da14f0033d4a01846643aaec07b77e01e43791a350565b600034116108a65760405162461bcd60e51b815260206004820152601d60248201527f4d7573742064656c656761746520706f73697469766520616d6f756e740000006044820152606401610627565b6001600160a01b0381166000908152600660205260408120600481018054919234926108d3908490612626565b9091555060009050805b6001600160a01b0384166000908152600760205260409020548110156109ad576001600160a01b038416600090815260076020526040902080543391908390811061092a5761092a612670565b60009182526020909120600290910201546001600160a01b0316036109a5576001600160a01b038416600090815260076020526040902080543491908390811061097657610976612670565b906000526020600020906002020160010160008282546109969190612626565b90915550600192506109ad9050565b6001016108dd565b5080610a11576040805180820182523381523460208083019182526001600160a01b03878116600090815260078352948520805460018082018355918752929095209351600290920290930180546001600160a01b03191691909316178255519101555b6040513481526001600160a01b0384169033907fe5541a6b6103d4fa7e021ed54fad39c66f27a76bd13d374cf6240ae6bd0bb72b9060200160405180910390a3505050565b6004546001600160a01b03163314610a805760405162461bcd60e51b8152600401610627906125e4565b600860055481548110610a9557610a95612670565b906000526020600020906006020160010154421180610ab45750600554155b610af65760405162461bcd60e51b8152602060048201526013602482015272149bdd5b99081b9bdd081d1a5b5959081bdd5d606a1b6044820152606401610627565b610afe61173c565b565b60088181548110610b1057600080fd5b60009182526020909120600690910201805460018201546002830154600590930154919350919060ff1684565b6001600160a01b0382166000908152600660205260408120815b6001600160a01b038516600090815260076020526040902054811015610e47576001600160a01b0385166000908152600760205260409020805433919083908110610ba457610ba4612670565b60009182526020909120600290910201546001600160a01b031603610e3f576001600160a01b038516600090815260076020526040902080546001945082908110610bf157610bf1612670565b906000526020600020906002020160010154841115610c645760405162461bcd60e51b815260206004820152602960248201527f416d6f756e7420746f207265766f6b6520657863656564732064656c65676174604482015268195908185b5bdd5b9d60ba1b6064820152608401610627565b6001600160a01b0385166000908152600760205260409020805485919083908110610c9157610c91612670565b90600052602060002090600202016001016000828254610cb19190612686565b9250508190555083826004016000828254610ccc9190612686565b9091555050604051339085156108fc029086906000818181858888f19350505050158015610cfe573d6000803e3d6000fd5b506001600160a01b0385166000908152600760205260409020805482908110610d2957610d29612670565b906000526020600020906002020160010154600003610e3a576001600160a01b03851660009081526007602052604090208054610d6890600190612686565b81548110610d7857610d78612670565b906000526020600020906002020160076000876001600160a01b03166001600160a01b031681526020019081526020016000208281548110610dbc57610dbc612670565b60009182526020808320845460029093020180546001600160a01b0319166001600160a01b0393841617815560019485015494019390935587168152600790915260409020805480610e1057610e10612699565b60008281526020812060026000199093019283020180546001600160a01b03191681556001015590555b610e47565b600101610b57565b5081610e955760405162461bcd60e51b815260206004820152601a60248201527f4e6f2064656c65676174696f6e207265636f726420666f756e640000000000006044820152606401610627565b6040518381526001600160a01b0385169033907f315eeabd37f0e4fa7271d8aced9dd94fe444aeaf5d2722d3a6a7a4a7a74a45239060200160405180910390a350505050565b6004546001600160a01b03163314610f055760405162461bcd60e51b8152600401610627906125e4565b600255565b3360009081526006602052604090205460ff1615610f6a5760405162461bcd60e51b815260206004820152601b60248201527f416c72656164792061207065726d697373696f6e6564206e6f646500000000006044820152606401610627565b600254341015610faf5760405162461bcd60e51b815260206004820152601060248201526f11195c1bdcda5d081c995c5d5a5c995960821b6044820152606401610627565b6040805160c0810182526000808252346020808401918252838501838152606085018481526080860185815260a087018681523380885260069095528887209751885490151560ff1991821617895595516001898101919091559351600289018054911515919097161790955590516003870155516004860155915160059485015560098054928301815583527f6e1540171b6c0c960b71a7020d9f60077f6af931a8bbf590da0223dacf75c7af90910180546001600160a01b03191682179055915492517f02b752a11416483894ccba29da0e71c4bee394b901144812c44d2a7e7d6c7ead9190a3565b6000600883815481106110af576110af612670565b600091825260208083206001600160a01b03861684526004600690930201919091019052604090205490505b92915050565b3360008181526006602052604090205460ff166111105760405162461bcd60e51b815260040161062790612639565b60055482146111525760405162461bcd60e51b815260206004820152600e60248201526d0a4deeadcc840dad2e6dac2e8c6d60931b6044820152606401610627565b600060086005548154811061116957611169612670565b6000918252602080832033845260046006909302019182019052604090912054909150156111d95760405162461bcd60e51b815260206004820152601c60248201527f416c7265616479207375626d6974746564207075626c6963206b6579000000006044820152606401610627565b806001015442111561121f5760405162461bcd60e51b815260206004820152600f60248201526e149bdd5b99081d1a5b5959081bdd5d608a1b6044820152606401610627565b600080600061122e8733611300565b925092509250828015611252575060008260038111156112505761125061250b565b145b801561125c575080155b61129c5760405162461bcd60e51b8152602060048201526011602482015270496e76616c6964207369676e617475726560781b6044820152606401610627565b3360009081526004850160205260408120899055600285018054916112c0836126af565b909155505060038401546002808601546112d9916126c8565b1015806112e95750836001015442115b156112f6576112f66117d1565b5050505050505050565b604080516001600160a01b038316602082015260009182918291829101604051602081830303815290604052805190602001209050600061136e827f19457468657265756d205369676e6564204d6573736167653a0a3332000000006000908152601c91909152603c902090565b9050600080600061137f848b6118f5565b919450925090506001600083600381111561139c5761139c61250b565b1415806113a857508115155b156113c057506000975090955093506113db92505050565b506001600160a01b0389811693169290921496509450925050505b9250925092565b6000600882815481106113f7576113f7612670565b600091825260209091206003600690920201015492915050565b6004546001600160a01b0316331461143b5760405162461bcd60e51b8152600401610627906125e4565b600155565b33600081815260066020526040902054606091829160ff166114745760405162461bcd60e51b815260040161062790612639565b60006008858154811061148957611489612670565b90600052602060002090600602016002015467ffffffffffffffff8111156114b3576114b36123d0565b6040519080825280602002602001820160405280156114dc578160200160208202803683370190505b5090506000600886815481106114f4576114f4612670565b90600052602060002090600602016002015467ffffffffffffffff81111561151e5761151e6123d0565b604051908082528060200260200182016040528015611547578160200160208202803683370190505b50905060005b6008878154811061156057611560612670565b906000526020600020906006020160020154811015611730576000801b6008888154811061159057611590612670565b9060005260206000209060060201600401600060088a815481106115b6576115b6612670565b906000526020600020906006020160030184815481106115d8576115d8612670565b60009182526020808320909101546001600160a01b0316835282019290925260400190205414611728576008878154811061161557611615612670565b906000526020600020906006020160040160006008898154811061163b5761163b612670565b9060005260206000209060060201600301838154811061165d5761165d612670565b60009182526020808320909101546001600160a01b03168352820192909252604001902054835184908390811061169657611696612670565b602002602001018181525050600887815481106116b5576116b5612670565b906000526020600020906006020160030181815481106116d7576116d7612670565b9060005260206000200160009054906101000a90046001600160a01b031682828151811061170757611707612670565b60200260200101906001600160a01b031690816001600160a01b0316815250505b60010161154d565b50909350915050915091565b600154439060009061174e9042612626565b6008805460018181018355600083905260069091027ff3f7a9fe364faab93b216da50a3214154f22a0a2b415b23a84c8169e8b636ee381018681557ff3f7a9fe364faab93b216da50a3214154f22a0a2b415b23a84c8169e8b636ee4909101849055915492935090916117c19190612686565b6005556117cc61193f565b505050565b60006008600554815481106117e8576117e8612670565b6000918252602082206005600690920201908101805460ff19166001179055600281015490925067ffffffffffffffff811115611827576118276123d0565b604051908082528060200260200182016040528015611850578160200160208202803683370190505b5090506000826002015467ffffffffffffffff811115611872576118726123d0565b60405190808252806020026020018201604052801561189b578160200160208202803683370190505b5090506118a9600554611440565b80925081935050506005547f0cdf506672ea6308d71d35d76e01f6718ddb82e8f8d258d4a3807821003d962583836040516118e5929190612559565b60405180910390a26117cc61173c565b6000806000835160410361192f5760208401516040850151606086015160001a6119218882858561211a565b9550955095505050506113db565b50508151600091506002906113db565b60055460000361194b57565b600a5415611bab5760005b600a54811015611b9e576000600a828154811061197557611975612670565b6000918252602090912001546001600160a01b03169050611995816121e9565b15611b95576001600160a01b0381166000818152600660209081526040808320805460ff199081168255600290910180549091169055519182527f763b63b30e91c843bb39e4379603697003d3b7c1f192619cd782fa33bdc44396910160405180910390a26001600160a01b03811660009081526006602052604081206005810154600190910154611a279190612626565b6001600160a01b038316600081815260066020526040808220600181018390556004810183905560050182905551929350909183156108fc0291849190818181858888f19350505050158015611a81573d6000803e3d6000fd5b5060005b6001600160a01b038316600090815260076020526040902054811015611b92576001600160a01b0383166000908152600760205260408120805483908110611acf57611acf612670565b60009182526020808320604080518082018252600290940290910180546001600160a01b031680855260019091015492840185905290519294509092909183156108fc0291849190818181858888f19350505050158015611b34573d6000803e3d6000fd5b506001600160a01b0385166000908152600760205260409020805484908110611b5f57611b5f612670565b60009182526020822060029091020180546001600160a01b0319168155600190810191909155929092019150611a859050565b50505b50600101611956565b50611bab600a6000612248565b600954600b54600091611bbd91612626565b67ffffffffffffffff811115611bd557611bd56123d0565b604051908082528060200260200182016040528015611bfe578160200160208202803683370190505b5090506000805b600b54811015611cc15760066000600b8381548110611c2657611c26612670565b60009182526020808320909101546001600160a01b0316835282019290925260400190205460ff1615611cb957600b8181548110611c6657611c66612670565b6000918252602090912001546001600160a01b03168383611c86816126af565b945081518110611c9857611c98612670565b60200260200101906001600160a01b031690816001600160a01b0316815250505b600101611c05565b5060005b600954811015611d345760098181548110611ce257611ce2612670565b6000918252602090912001546001600160a01b03168383611d02816126af565b945081518110611d1457611d14612670565b6001600160a01b0390921660209283029190910190910152600101611cc5565b5060005b611d43600183612686565b811015611e9c576000611d57826001612626565b90505b82811015611e935760066000858481518110611d7857611d78612670565b60200260200101516001600160a01b03166001600160a01b031681526020019081526020016000206004015460066000868481518110611dba57611dba612670565b60200260200101516001600160a01b03166001600160a01b03168152602001908152602001600020600401541115611e8b576000848381518110611e0057611e00612670565b60200260200101519050848281518110611e1c57611e1c612670565b6020026020010151858481518110611e3657611e36612670565b60200260200101906001600160a01b031690816001600160a01b03168152505080858381518110611e6957611e69612670565b60200260200101906001600160a01b031690816001600160a01b031681525050505b600101611d5a565b50600101611d38565b50611ea9600b6000612248565b611eb560096000612248565b60005b8181108015611ec8575060035481105b15611ff7576000838281518110611ee157611ee1612670565b602090810291909101810151600b8054600181019091557f0175b7a638427703f0dbe7bb9bbf987a2551717b34e79f33b5b1008d1fa01db90180546001600160a01b0319166001600160a01b0383169081179091556000908152600690925260409091205490915060ff16158015611f7657506002546001600160a01b03821660009081526006602052604090206001015410155b15611fe4576001600160a01b0381166000818152600660209081526040918290208054600160ff1991821681178355600290920180549091168217905591519182527f763b63b30e91c843bb39e4379603697003d3b7c1f192619cd782fa33bdc44396910160405180910390a25b5080611fef816126af565b915050611eb8565b506003548111156120d9576000600354826120129190612686565b67ffffffffffffffff81111561202a5761202a6123d0565b604051908082528060200260200182016040528015612053578160200160208202803683370190505b506003549091505b828110156120c257600084828151811061207757612077612670565b602002602001015190508083600354846120919190612686565b815181106120a1576120a1612670565b6001600160a01b03909216602092830291909101909101525060010161205b565b5080516120d6906009906020840190612269565b50505b60006008600554815481106120f0576120f0612670565b90600052602060002090600602019050600b816003019080546121149291906122ce565b50505050565b600080807f7fffffffffffffffffffffffffffffff5d576e7357a4501ddfe92f46681b20a084111561215557506000915060039050826121df565b604080516000808252602082018084528a905260ff891692820192909252606081018790526080810186905260019060a0016020604051602081039080840390855afa1580156121a9573d6000803e3d6000fd5b5050604051601f1901519150506001600160a01b0381166121d5575060009250600191508290506121df565b9250600091508190505b9450945094915050565b6000805b600b5481101561223f57826001600160a01b0316600b828154811061221457612214612670565b6000918252602090912001546001600160a01b0316036122375750600192915050565b6001016121ed565b50600092915050565b5080546000825590600052602060002090810190612266919061230e565b50565b8280548282559060005260206000209081019282156122be579160200282015b828111156122be57825182546001600160a01b0319166001600160a01b03909116178255602090920191600190910190612289565b506122ca92915061230e565b5090565b8280548282559060005260206000209081019282156122be5760005260206000209182015b828111156122be5782548255916001019190600101906122f3565b5b808211156122ca576000815560010161230f565b80356001600160a01b038116811461233a57600080fd5b919050565b60006020828403121561235157600080fd5b61235a82612323565b9392505050565b6000806040838503121561237457600080fd5b61237d83612323565b946020939093013593505050565b60006020828403121561239d57600080fd5b5035919050565b600080604083850312156123b757600080fd5b823591506123c760208401612323565b90509250929050565b634e487b7160e01b600052604160045260246000fd5b600082601f8301126123f757600080fd5b813567ffffffffffffffff811115612411576124116123d0565b604051601f8201601f19908116603f0116810167ffffffffffffffff81118282101715612440576124406123d0565b60405281815283820160200185101561245857600080fd5b816020850160208301376000918101602001919091529392505050565b60008060006060848603121561248a57600080fd5b83359250602084013567ffffffffffffffff8111156124a857600080fd5b6124b4868287016123e6565b93969395505050506040919091013590565b600080604083850312156124d957600080fd5b823567ffffffffffffffff8111156124f057600080fd5b6124fc858286016123e6565b9250506123c760208401612323565b634e487b7160e01b600052602160045260246000fd5b8315158152606081016004841061254857634e487b7160e01b600052602160045260246000fd5b602082019390935260400152919050565b6040808252835190820181905260009060208501906060840190835b81811015612593578351835260209384019390920191600101612575565b50508381036020808601919091528551808352918101925085019060005b818110156125d85782516001600160a01b03168452602093840193909201916001016125b1565b50919695505050505050565b6020808252601290820152712737ba1031b7b73a3930b1ba1037bbb732b960711b604082015260600190565b634e487b7160e01b600052601160045260246000fd5b808201808211156110db576110db612610565b60208082526017908201527f4e6f742061207065726d697373696f6e6564206e6f6465000000000000000000604082015260600190565b634e487b7160e01b600052603260045260246000fd5b818103818111156110db576110db612610565b634e487b7160e01b600052603160045260246000fd5b6000600182016126c1576126c1612610565b5060010190565b80820281158282048414176110db576110db61261056fea26469706673582212209fb7d67fffeb972d15dada7851f9a2af46c4021db204e9a3df0d53803fb3753b64736f6c634300081b0033763b63b30e91c843bb39e4379603697003d3b7c1f192619cd782fa33bdc44396",
  "linkReferences": {},
  "deployedLinkReferences": {}
}